{
  "contractName": "RelayHub",
  "abi": [
    {
      "constant": true,
      "inputs": [],
      "name": "version",
      "outputs": [
        {
          "name": "",
          "type": "string"
        }
      ],
      "payable": false,
      "stateMutability": "view",
      "type": "function"
    },
    {
      "anonymous": false,
      "inputs": [
        {
          "indexed": true,
          "name": "relay",
          "type": "address"
        },
        {
          "indexed": false,
          "name": "stake",
          "type": "uint256"
        },
        {
          "indexed": false,
          "name": "unstakeDelay",
          "type": "uint256"
        }
      ],
      "name": "Staked",
      "type": "event"
    },
    {
      "anonymous": false,
      "inputs": [
        {
          "indexed": true,
          "name": "relay",
          "type": "address"
        },
        {
          "indexed": true,
          "name": "owner",
          "type": "address"
        },
        {
          "indexed": false,
          "name": "transactionFee",
          "type": "uint256"
        },
        {
          "indexed": false,
          "name": "stake",
          "type": "uint256"
        },
        {
          "indexed": false,
          "name": "unstakeDelay",
          "type": "uint256"
        },
        {
          "indexed": false,
          "name": "url",
          "type": "string"
        }
      ],
      "name": "RelayAdded",
      "type": "event"
    },
    {
      "anonymous": false,
      "inputs": [
        {
          "indexed": true,
          "name": "relay",
          "type": "address"
        },
        {
          "indexed": false,
          "name": "unstakeTime",
          "type": "uint256"
        }
      ],
      "name": "RelayRemoved",
      "type": "event"
    },
    {
      "anonymous": false,
      "inputs": [
        {
          "indexed": true,
          "name": "relay",
          "type": "address"
        },
        {
          "indexed": false,
          "name": "stake",
          "type": "uint256"
        }
      ],
      "name": "Unstaked",
      "type": "event"
    },
    {
      "anonymous": false,
      "inputs": [
        {
          "indexed": true,
          "name": "recipient",
          "type": "address"
        },
        {
          "indexed": true,
          "name": "from",
          "type": "address"
        },
        {
          "indexed": false,
          "name": "amount",
          "type": "uint256"
        }
      ],
      "name": "Deposited",
      "type": "event"
    },
    {
      "anonymous": false,
      "inputs": [
        {
          "indexed": true,
          "name": "account",
          "type": "address"
        },
        {
          "indexed": true,
          "name": "dest",
          "type": "address"
        },
        {
          "indexed": false,
          "name": "amount",
          "type": "uint256"
        }
      ],
      "name": "Withdrawn",
      "type": "event"
    },
    {
      "anonymous": false,
      "inputs": [
        {
          "indexed": true,
          "name": "relay",
          "type": "address"
        },
        {
          "indexed": true,
          "name": "from",
          "type": "address"
        },
        {
          "indexed": true,
          "name": "to",
          "type": "address"
        },
        {
          "indexed": false,
          "name": "selector",
          "type": "bytes4"
        },
        {
          "indexed": false,
          "name": "reason",
          "type": "uint256"
        }
      ],
      "name": "CanRelayFailed",
      "type": "event"
    },
    {
      "anonymous": false,
      "inputs": [
        {
          "indexed": true,
          "name": "relay",
          "type": "address"
        },
        {
          "indexed": true,
          "name": "from",
          "type": "address"
        },
        {
          "indexed": true,
          "name": "to",
          "type": "address"
        },
        {
          "indexed": false,
          "name": "selector",
          "type": "bytes4"
        },
        {
          "indexed": false,
          "name": "status",
          "type": "uint8"
        },
        {
          "indexed": false,
          "name": "charge",
          "type": "uint256"
        }
      ],
      "name": "TransactionRelayed",
      "type": "event"
    },
    {
      "anonymous": false,
      "inputs": [
        {
          "indexed": true,
          "name": "relay",
          "type": "address"
        },
        {
          "indexed": false,
          "name": "sender",
          "type": "address"
        },
        {
          "indexed": false,
          "name": "amount",
          "type": "uint256"
        }
      ],
      "name": "Penalized",
      "type": "event"
    },
    {
      "constant": false,
      "inputs": [
        {
          "name": "relay",
          "type": "address"
        },
        {
          "name": "unstakeDelay",
          "type": "uint256"
        }
      ],
      "name": "stake",
      "outputs": [],
      "payable": true,
      "stateMutability": "payable",
      "type": "function"
    },
    {
      "constant": false,
      "inputs": [
        {
          "name": "transactionFee",
          "type": "uint256"
        },
        {
          "name": "url",
          "type": "string"
        }
      ],
      "name": "registerRelay",
      "outputs": [],
      "payable": false,
      "stateMutability": "nonpayable",
      "type": "function"
    },
    {
      "constant": false,
      "inputs": [
        {
          "name": "relay",
          "type": "address"
        }
      ],
      "name": "removeRelayByOwner",
      "outputs": [],
      "payable": false,
      "stateMutability": "nonpayable",
      "type": "function"
    },
    {
      "constant": false,
      "inputs": [
        {
          "name": "relay",
          "type": "address"
        }
      ],
      "name": "unstake",
      "outputs": [],
      "payable": false,
      "stateMutability": "nonpayable",
      "type": "function"
    },
    {
      "constant": true,
      "inputs": [
        {
          "name": "relay",
          "type": "address"
        }
      ],
      "name": "getRelay",
      "outputs": [
        {
          "name": "totalStake",
          "type": "uint256"
        },
        {
          "name": "unstakeDelay",
          "type": "uint256"
        },
        {
          "name": "unstakeTime",
          "type": "uint256"
        },
        {
          "name": "owner",
          "type": "address"
        },
        {
          "name": "state",
          "type": "uint8"
        }
      ],
      "payable": false,
      "stateMutability": "view",
      "type": "function"
    },
    {
      "constant": false,
      "inputs": [
        {
          "name": "target",
          "type": "address"
        }
      ],
      "name": "depositFor",
      "outputs": [],
      "payable": true,
      "stateMutability": "payable",
      "type": "function"
    },
    {
      "constant": true,
      "inputs": [
        {
          "name": "target",
          "type": "address"
        }
      ],
      "name": "balanceOf",
      "outputs": [
        {
          "name": "",
          "type": "uint256"
        }
      ],
      "payable": false,
      "stateMutability": "view",
      "type": "function"
    },
    {
      "constant": false,
      "inputs": [
        {
          "name": "amount",
          "type": "uint256"
        },
        {
          "name": "dest",
          "type": "address"
        }
      ],
      "name": "withdraw",
      "outputs": [],
      "payable": false,
      "stateMutability": "nonpayable",
      "type": "function"
    },
    {
      "constant": true,
      "inputs": [
        {
          "name": "from",
          "type": "address"
        }
      ],
      "name": "getNonce",
      "outputs": [
        {
          "name": "",
          "type": "uint256"
        }
      ],
      "payable": false,
      "stateMutability": "view",
      "type": "function"
    },
    {
      "constant": true,
      "inputs": [
        {
          "name": "relay",
          "type": "address"
        }
      ],
      "name": "canUnstake",
      "outputs": [
        {
          "name": "",
          "type": "bool"
        }
      ],
      "payable": false,
      "stateMutability": "view",
      "type": "function"
    },
    {
      "constant": false,
      "inputs": [
        {
          "name": "relay",
          "type": "address"
        },
        {
          "name": "from",
          "type": "address"
        },
        {
          "name": "to",
          "type": "address"
        },
        {
          "name": "encodedFunction",
          "type": "bytes"
        },
        {
          "name": "transactionFee",
          "type": "uint256"
        },
        {
          "name": "gasPrice",
          "type": "uint256"
        },
        {
          "name": "gasLimit",
          "type": "uint256"
        },
        {
          "name": "nonce",
          "type": "uint256"
        },
        {
          "name": "signature",
          "type": "bytes"
        },
        {
          "name": "approvalData",
          "type": "bytes"
        }
      ],
      "name": "canRelay",
      "outputs": [
        {
          "name": "status",
          "type": "uint256"
        },
        {
          "name": "recipientContext",
          "type": "bytes"
        }
      ],
      "payable": true,
      "stateMutability": "payable",
      "type": "function"
    },
    {
      "constant": false,
      "inputs": [
        {
          "name": "from",
          "type": "address"
        },
        {
          "name": "recipient",
          "type": "address"
        },
        {
          "name": "encodedFunction",
          "type": "bytes"
        },
        {
          "name": "transactionFee",
          "type": "uint256"
        },
        {
          "name": "gasPrice",
          "type": "uint256"
        },
        {
          "name": "gasLimit",
          "type": "uint256"
        },
        {
          "name": "nonce",
          "type": "uint256"
        },
        {
          "name": "signature",
          "type": "bytes"
        },
        {
          "name": "approvalData",
          "type": "bytes"
        }
      ],
      "name": "relayCall",
      "outputs": [],
      "payable": false,
      "stateMutability": "nonpayable",
      "type": "function"
    },
    {
      "constant": false,
      "inputs": [
        {
          "name": "recipient",
          "type": "address"
        },
        {
          "name": "encodedFunctionWithFrom",
          "type": "bytes"
        },
        {
          "name": "transactionFee",
          "type": "uint256"
        },
        {
          "name": "gasPrice",
          "type": "uint256"
        },
        {
          "name": "gasLimit",
          "type": "uint256"
        },
        {
          "name": "preChecksGas",
          "type": "uint256"
        },
        {
          "name": "recipientContext",
          "type": "bytes"
        }
      ],
      "name": "recipientCallsAtomic",
      "outputs": [
        {
          "name": "",
          "type": "uint8"
        }
      ],
      "payable": false,
      "stateMutability": "nonpayable",
      "type": "function"
    },
    {
      "constant": true,
      "inputs": [
        {
          "name": "relayedCallStipend",
          "type": "uint256"
        }
      ],
      "name": "requiredGas",
      "outputs": [
        {
          "name": "",
          "type": "uint256"
        }
      ],
      "payable": false,
      "stateMutability": "view",
      "type": "function"
    },
    {
      "constant": true,
      "inputs": [
        {
          "name": "relayedCallStipend",
          "type": "uint256"
        },
        {
          "name": "gasPrice",
          "type": "uint256"
        },
        {
          "name": "transactionFee",
          "type": "uint256"
        }
      ],
      "name": "maxPossibleCharge",
      "outputs": [
        {
          "name": "",
          "type": "uint256"
        }
      ],
      "payable": false,
      "stateMutability": "view",
      "type": "function"
    },
    {
      "constant": false,
      "inputs": [
        {
          "name": "unsignedTx1",
          "type": "bytes"
        },
        {
          "name": "signature1",
          "type": "bytes"
        },
        {
          "name": "unsignedTx2",
          "type": "bytes"
        },
        {
          "name": "signature2",
          "type": "bytes"
        }
      ],
      "name": "penalizeRepeatedNonce",
      "outputs": [],
      "payable": false,
      "stateMutability": "nonpayable",
      "type": "function"
    },
    {
      "constant": false,
      "inputs": [
        {
          "name": "unsignedTx",
          "type": "bytes"
        },
        {
          "name": "signature",
          "type": "bytes"
        }
      ],
      "name": "penalizeIllegalTransaction",
      "outputs": [],
      "payable": false,
      "stateMutability": "nonpayable",
      "type": "function"
    }
  ],
  "bytecode": "0x60806040526040805190810160405280600581526020017f312e302e30000000000000000000000000000000000000000000000000000000815250600390805190602001906200005192919062000066565b503480156200005f57600080fd5b5062000115565b828054600181600116156101000203166002900490600052602060002090601f016020900481019282601f10620000a957805160ff1916838001178555620000da565b82800160010185558215620000da579182015b82811115620000d9578251825591602001919060010190620000bc565b5b509050620000e99190620000ed565b5090565b6200011291905b808211156200010e576000816000905550600101620000f4565b5090565b90565b615c7480620001256000396000f3fe6080604052600436106100fb576000357c0100000000000000000000000000000000000000000000000000000000900463ffffffff168062f714ce146101005780631166073a1461015b5780632b6017471461022d5780632ca70eba1461051f5780632d0335ab1461066457806339002432146106c9578063405cec671461082857806354fd4d5014610a875780636a7d84a414610b1757806370a0823114610b6657806385f4498b14610bcb5780638d85146014610c34578063a863f8f914610cef578063a8cd957214610d52578063aa67c91914610fdf578063adc9772e14611023578063c3e712f214611071578063f2888dbb146110c2575b600080fd5b34801561010c57600080fd5b506101596004803603604081101561012357600080fd5b8101908080359060200190929190803573ffffffffffffffffffffffffffffffffffffffff169060200190929190505050611113565b005b34801561016757600080fd5b5061022b6004803603604081101561017e57600080fd5b8101908080359060200190929190803590602001906401000000008111156101a557600080fd5b8201836020820111156101b757600080fd5b803590602001918460018302840111640100000000831117156101d957600080fd5b91908080601f016020809104026020016040519081016040528093929190818152602001838380828437600081840152601f19601f8201169050808301925050505050505091929192905050506112cd565b005b61049d600480360361014081101561024457600080fd5b81019080803573ffffffffffffffffffffffffffffffffffffffff169060200190929190803573ffffffffffffffffffffffffffffffffffffffff169060200190929190803573ffffffffffffffffffffffffffffffffffffffff169060200190929190803590602001906401000000008111156102c157600080fd5b8201836020820111156102d357600080fd5b803590602001918460018302840111640100000000831117156102f557600080fd5b91908080601f016020809104026020016040519081016040528093929190818152602001838380828437600081840152601f19601f820116905080830192505050505050509192919290803590602001909291908035906020019092919080359060200190929190803590602001909291908035906020019064010000000081111561038057600080fd5b82018360208201111561039257600080fd5b803590602001918460018302840111640100000000831117156103b457600080fd5b91908080601f016020809104026020016040519081016040528093929190818152602001838380828437600081840152601f19601f8201169050808301925050505050505091929192908035906020019064010000000081111561041757600080fd5b82018360208201111561042957600080fd5b8035906020019184600183028401116401000000008311171561044b57600080fd5b91908080601f016020809104026020016040519081016040528093929190818152602001838380828437600081840152601f19601f820116905080830192505050505050509192919290505050611820565b6040518083815260200180602001828103825283818151815260200191508051906020019080838360005b838110156104e35780820151818401526020810190506104c8565b50505050905090810190601f1680156105105780820380516001836020036101000a031916815260200191505b50935050505060405180910390f35b34801561052b57600080fd5b50610640600480360360e081101561054257600080fd5b81019080803573ffffffffffffffffffffffffffffffffffffffff1690602001909291908035906020019064010000000081111561057f57600080fd5b82018360208201111561059157600080fd5b803590602001918460018302840111640100000000831117156105b357600080fd5b909192939192939080359060200190929190803590602001909291908035906020019092919080359060200190929190803590602001906401000000008111156105fc57600080fd5b82018360208201111561060e57600080fd5b8035906020019184600183028401116401000000008311171561063057600080fd5b9091929391929390505050611f2e565b6040518082600481111561065057fe5b60ff16815260200191505060405180910390f35b34801561067057600080fd5b506106b36004803603602081101561068757600080fd5b81019080803573ffffffffffffffffffffffffffffffffffffffff169060200190929190505050612523565b6040518082815260200191505060405180910390f35b3480156106d557600080fd5b50610826600480360360408110156106ec57600080fd5b810190808035906020019064010000000081111561070957600080fd5b82018360208201111561071b57600080fd5b8035906020019184600183028401116401000000008311171561073d57600080fd5b91908080601f016020809104026020016040519081016040528093929190818152602001838380828437600081840152601f19601f820116905080830192505050505050509192919290803590602001906401000000008111156107a057600080fd5b8201836020820111156107b257600080fd5b803590602001918460018302840111640100000000831117156107d457600080fd5b91908080601f016020809104026020016040519081016040528093929190818152602001838380828437600081840152601f19601f82011690508083019250505050505050919291929050505061256b565b005b34801561083457600080fd5b50610a85600480360361012081101561084c57600080fd5b81019080803573ffffffffffffffffffffffffffffffffffffffff169060200190929190803573ffffffffffffffffffffffffffffffffffffffff169060200190929190803590602001906401000000008111156108a957600080fd5b8201836020820111156108bb57600080fd5b803590602001918460018302840111640100000000831117156108dd57600080fd5b91908080601f016020809104026020016040519081016040528093929190818152602001838380828437600081840152601f19601f820116905080830192505050505050509192919290803590602001909291908035906020019092919080359060200190929190803590602001909291908035906020019064010000000081111561096857600080fd5b82018360208201111561097a57600080fd5b8035906020019184600183028401116401000000008311171561099c57600080fd5b91908080601f016020809104026020016040519081016040528093929190818152602001838380828437600081840152601f19601f820116905080830192505050505050509192919290803590602001906401000000008111156109ff57600080fd5b820183602082011115610a1157600080fd5b80359060200191846001830284011164010000000083111715610a3357600080fd5b91908080601f016020809104026020016040519081016040528093929190818152602001838380828437600081840152601f19601f8201169050808301925050505050505091929192905050506127a8565b005b348015610a9357600080fd5b50610a9c6131bf565b6040518080602001828103825283818151815260200191508051906020019080838360005b83811015610adc578082015181840152602081019050610ac1565b50505050905090810190601f168015610b095780820380516001836020036101000a031916815260200191505b509250505060405180910390f35b348015610b2357600080fd5b50610b5060048036036020811015610b3a57600080fd5b810190808035906020019092919050505061325d565b6040518082815260200191505060405180910390f35b348015610b7257600080fd5b50610bb560048036036020811015610b8957600080fd5b81019080803573ffffffffffffffffffffffffffffffffffffffff16906020019092919050505061327b565b6040518082815260200191505060405180910390f35b348015610bd757600080fd5b50610c1a60048036036020811015610bee57600080fd5b81019080803573ffffffffffffffffffffffffffffffffffffffff1690602001909291905050506132c4565b604051808215151515815260200191505060405180910390f35b348015610c4057600080fd5b50610c8360048036036020811015610c5757600080fd5b81019080803573ffffffffffffffffffffffffffffffffffffffff169060200190929190505050613360565b604051808681526020018581526020018481526020018373ffffffffffffffffffffffffffffffffffffffff1673ffffffffffffffffffffffffffffffffffffffff168152602001826003811115610cd757fe5b60ff1681526020019550505050505060405180910390f35b348015610cfb57600080fd5b50610d3c60048036036060811015610d1257600080fd5b810190808035906020019092919080359060200190929190803590602001909291905050506134f7565b6040518082815260200191505060405180910390f35b348015610d5e57600080fd5b50610fdd60048036036080811015610d7557600080fd5b8101908080359060200190640100000000811115610d9257600080fd5b820183602082011115610da457600080fd5b80359060200191846001830284011164010000000083111715610dc657600080fd5b91908080601f016020809104026020016040519081016040528093929190818152602001838380828437600081840152601f19601f82011690508083019250505050505050919291929080359060200190640100000000811115610e2957600080fd5b820183602082011115610e3b57600080fd5b80359060200191846001830284011164010000000083111715610e5d57600080fd5b91908080601f016020809104026020016040519081016040528093929190818152602001838380828437600081840152601f19601f82011690508083019250505050505050919291929080359060200190640100000000811115610ec057600080fd5b820183602082011115610ed257600080fd5b80359060200191846001830284011164010000000083111715610ef457600080fd5b91908080601f016020809104026020016040519081016040528093929190818152602001838380828437600081840152601f19601f82011690508083019250505050505050919291929080359060200190640100000000811115610f5757600080fd5b820183602082011115610f6957600080fd5b80359060200191846001830284011164010000000083111715610f8b57600080fd5b91908080601f016020809104026020016040519081016040528093929190818152602001838380828437600081840152601f19601f820116905080830192505050505050509192919290505050613515565b005b61102160048036036020811015610ff557600080fd5b81019080803573ffffffffffffffffffffffffffffffffffffffff1690602001909291905050506139b4565b005b61106f6004803603604081101561103957600080fd5b81019080803573ffffffffffffffffffffffffffffffffffffffff16906020019092919080359060200190929190505050613b2e565b005b34801561107d57600080fd5b506110c06004803603602081101561109457600080fd5b81019080803573ffffffffffffffffffffffffffffffffffffffff16906020019092919050505061436d565b005b3480156110ce57600080fd5b50611111600480360360208110156110e557600080fd5b81019080803573ffffffffffffffffffffffffffffffffffffffff169060200190929190505050614741565b005b600033905082600260008373ffffffffffffffffffffffffffffffffffffffff1673ffffffffffffffffffffffffffffffffffffffff16815260200190815260200160002054101515156111cf576040517f08c379a00000000000000000000000000000000000000000000000000000000081526004018080602001828103825260128152602001807f696e73756666696369656e742066756e6473000000000000000000000000000081525060200191505060405180910390fd5b82600260008373ffffffffffffffffffffffffffffffffffffffff1673ffffffffffffffffffffffffffffffffffffffff168152602001908152602001600020600082825403925050819055508173ffffffffffffffffffffffffffffffffffffffff166108fc849081150290604051600060405180830381858888f19350505050158015611262573d6000803e3d6000fd5b508173ffffffffffffffffffffffffffffffffffffffff168173ffffffffffffffffffffffffffffffffffffffff167fd1c19fbcd4551a5edfb66d43d2e337c04837afda3482b42bdf569a8fccdae5fb856040518082815260200191505060405180910390a3505050565b60003390503273ffffffffffffffffffffffffffffffffffffffff168173ffffffffffffffffffffffffffffffffffffffff1614151561139b576040517f08c379a00000000000000000000000000000000000000000000000000000000081526004018080602001828103825260238152602001807f436f6e7472616374732063616e6e6f742072656769737465722061732072656c81526020017f617973000000000000000000000000000000000000000000000000000000000081525060400191505060405180910390fd5b600160038111156113a857fe5b600160008373ffffffffffffffffffffffffffffffffffffffff1673ffffffffffffffffffffffffffffffffffffffff16815260200190815260200160002060030160149054906101000a900460ff16600381111561140357fe5b148061147457506002600381111561141757fe5b600160008373ffffffffffffffffffffffffffffffffffffffff1673ffffffffffffffffffffffffffffffffffffffff16815260200190815260200160002060030160149054906101000a900460ff16600381111561147257fe5b145b15156114e8576040517f08c379a00000000000000000000000000000000000000000000000000000000081526004018080602001828103825260158152602001807f77726f6e6720737461746520666f72207374616b65000000000000000000000081525060200191505060405180910390fd5b67016345785d8a00008173ffffffffffffffffffffffffffffffffffffffff16311015151561157f576040517f08c379a000000000000000000000000000000000000000000000000000000000815260040180806020018281038252601a8152602001807f62616c616e6365206c6f776572207468616e206d696e696d756d00000000000081525060200191505060405180910390fd5b6002600381111561158c57fe5b600160008373ffffffffffffffffffffffffffffffffffffffff1673ffffffffffffffffffffffffffffffffffffffff16815260200190815260200160002060030160149054906101000a900460ff1660038111156115e757fe5b141515611653576002600160008373ffffffffffffffffffffffffffffffffffffffff1673ffffffffffffffffffffffffffffffffffffffff16815260200190815260200160002060030160146101000a81548160ff0219169083600381111561164d57fe5b02179055505b600160008273ffffffffffffffffffffffffffffffffffffffff1673ffffffffffffffffffffffffffffffffffffffff16815260200190815260200160002060030160009054906101000a900473ffffffffffffffffffffffffffffffffffffffff1673ffffffffffffffffffffffffffffffffffffffff168173ffffffffffffffffffffffffffffffffffffffff167f85b3ae3aae9d3fcb31142fbd8c3b4722d57825b8edd6e1366e69204afa5a0dfa85600160008673ffffffffffffffffffffffffffffffffffffffff1673ffffffffffffffffffffffffffffffffffffffff16815260200190815260200160002060000154600160008773ffffffffffffffffffffffffffffffffffffffff1673ffffffffffffffffffffffffffffffffffffffff16815260200190815260200160002060010154876040518085815260200184815260200183815260200180602001828103825283818151815260200191508051906020019080838360005b838110156117de5780820151818401526020810190506117c3565b50505050905090810190601f16801561180b5780820380516001836020036101000a031916815260200191505b509550505050505060405180910390a3505050565b60006060808b8b8b8b8b8b8b3060405160200180807f726c783a000000000000000000000000000000000000000000000000000000008152506004018973ffffffffffffffffffffffffffffffffffffffff1673ffffffffffffffffffffffffffffffffffffffff166c010000000000000000000000000281526014018873ffffffffffffffffffffffffffffffffffffffff1673ffffffffffffffffffffffffffffffffffffffff166c0100000000000000000000000002815260140187805190602001908083835b60208310151561190f57805182526020820191506020810190506020830392506118ea565b6001836020036101000a0380198251168184511680821785525050505050509050018681526020018581526020018481526020018381526020018273ffffffffffffffffffffffffffffffffffffffff1673ffffffffffffffffffffffffffffffffffffffff166c010000000000000000000000000281526014019850505050505050505060405160208183030381529060405290506000818e6040516020018083805190602001908083835b6020831015156119e157805182526020820191506020810190506020830392506119bc565b6001836020036101000a0380198251168184511680821785525050505050509050018273ffffffffffffffffffffffffffffffffffffffff1673ffffffffffffffffffffffffffffffffffffffff166c01000000000000000000000000028152601401925050506040516020818303038152906040528051906020012090508c73ffffffffffffffffffffffffffffffffffffffff16611a9287611a8484614a3e565b614a9690919063ffffffff16565b73ffffffffffffffffffffffffffffffffffffffff16141515611ad85760016004811115611abc57fe5b6020604051908101604052806000815250935093505050611f1f565b5050846000808d73ffffffffffffffffffffffffffffffffffffffff1673ffffffffffffffffffffffffffffffffffffffff16815260200190815260200160002054141515611b485760026004811115611b2e57fe5b602060405190810160405280600081525091509150611f1f565b6000611b5587898b6134f7565b905060608b73ffffffffffffffffffffffffffffffffffffffff166383947ea090507c0100000000000000000000000000000000000000000000000000000000028e8e8d8d8d8d8d8c8a604051602401808a73ffffffffffffffffffffffffffffffffffffffff1673ffffffffffffffffffffffffffffffffffffffff1681526020018973ffffffffffffffffffffffffffffffffffffffff1673ffffffffffffffffffffffffffffffffffffffff168152602001806020018881526020018781526020018681526020018581526020018060200184815260200183810383528a818151815260200191508051906020019080838360005b83811015611c68578082015181840152602081019050611c4d565b50505050905090810190601f168015611c955780820380516001836020036101000a031916815260200191505b50838103825285818151815260200191508051906020019080838360005b83811015611cce578082015181840152602081019050611cb3565b50505050905090810190601f168015611cfb5780820380516001836020036101000a031916815260200191505b509b505050505050505050505050604051602081830303815290604052907bffffffffffffffffffffffffffffffffffffffffffffffffffffffff19166020820180517bffffffffffffffffffffffffffffffffffffffffffffffffffffffff83818316178352505050509050600060608d73ffffffffffffffffffffffffffffffffffffffff1661c350846040518082805190602001908083835b602083101515611dbc5780518252602082019150602081019050602083039250611d97565b6001836020036101000a0380198251168184511680821785525050505050509050019150506000604051808303818686fa925050503d8060008114611e1d576040519150601f19603f3d011682016040523d82523d6000602084013e611e22565b606091505b5091509150811515611e595760036004811115611e3b57fe5b60206040519081016040528060008152509550955050505050611f1f565b808060200190516040811015611e6e57600080fd5b81019080805190602001909291908051640100000000811115611e9057600080fd5b82810190506020810184811115611ea657600080fd5b8151856001820283011164010000000082111715611ec357600080fd5b505092919050505080905080965081975050506000861480611ee55750600a86115b15611ef95785859550955050505050611f1f565b600480811115611f0557fe5b602060405190810160405280600081525095509550505050505b9a509a98505050505050505050565b6000611f38615b99565b5a8160000181815250503073ffffffffffffffffffffffffffffffffffffffff163373ffffffffffffffffffffffffffffffffffffffff1614151561200b576040517f08c379a00000000000000000000000000000000000000000000000000000000081526004018080602001828103825260278152602001807f4f6e6c792052656c61794875622073686f756c642063616c6c2074686973206681526020017f756e6374696f6e0000000000000000000000000000000000000000000000000081525060400191505060405180910390fd5b600260008c73ffffffffffffffffffffffffffffffffffffffff1673ffffffffffffffffffffffffffffffffffffffff1681526020019081526020016000205481602001818152505060608b73ffffffffffffffffffffffffffffffffffffffff166380274db790507c010000000000000000000000000000000000000000000000000000000002858560405160240180806020018281038252848482818152602001925080828437600081840152601f19601f8201169050808301925050509350505050604051602081830303815290604052907bffffffffffffffffffffffffffffffffffffffffffffffffffffffff19166020820180517bffffffffffffffffffffffffffffffffffffffffffffffffffffffff83818316178352505050509050600060608d73ffffffffffffffffffffffffffffffffffffffff16620186a0846040518082805190602001908083835b602083101515612184578051825260208201915060208101905060208303925061215f565b6001836020036101000a03801982511681845116808217855250505050505090500191505060006040518083038160008787f1925050503d80600081146121e7576040519150601f19603f3d011682016040523d82523d6000602084013e6121ec565b606091505b5091509150811515612203576122026002614b9d565b5b80806020019051602081101561221857600080fd5b81019080805190602001909291905050508460400181815250505050508a73ffffffffffffffffffffffffffffffffffffffff16868b8b60405180838380828437808301925050509250505060006040518083038160008787f1925050503d80600081146122a2576040519150601f19603f3d011682016040523d82523d6000602084013e6122a7565b606091505b505081606001811515151581525050606060006122d76122d05a85600001518a01036001614bd9565b8a8c614bfe565b90508c73ffffffffffffffffffffffffffffffffffffffff1663e06e0e2290507c010000000000000000000000000000000000000000000000000000000002868685606001518487604001516040516024018080602001851515151581526020018481526020018381526020018281038252878782818152602001925080828437600081840152601f19601f8201169050808301925050509650505050505050604051602081830303815290604052907bffffffffffffffffffffffffffffffffffffffffffffffffffffffff19166020820180517bffffffffffffffffffffffffffffffffffffffffffffffffffffffff838183161783525050505091505060008c73ffffffffffffffffffffffffffffffffffffffff16620186a0836040518082805190602001908083835b60208310151561242a5780518252602082019150602081019050602083039250612405565b6001836020036101000a03801982511681845116808217855250505050505090500191505060006040518083038160008787f1925050503d806000811461248d576040519150601f19603f3d011682016040523d82523d6000602084013e612492565b606091505b505090508015156124a8576124a76003614b9d565b5b50508060200151600260008d73ffffffffffffffffffffffffffffffffffffffff1673ffffffffffffffffffffffffffffffffffffffff168152602001908152602001600020541015612500576124ff6004614b9d565b5b8060600151612510576001612513565b60005b9150509998505050505050505050565b60008060008373ffffffffffffffffffffffffffffffffffffffff1673ffffffffffffffffffffffffffffffffffffffff168152602001908152602001600020549050919050565b612573615bc7565b61257c83614c1d565b90503073ffffffffffffffffffffffffffffffffffffffff16816060015173ffffffffffffffffffffffffffffffffffffffff16141561270f5760006125c58260a00151614c9a565b905063405cec677c0100000000000000000000000000000000000000000000000000000000027bffffffffffffffffffffffffffffffffffffffffffffffffffffffff1916817bffffffffffffffffffffffffffffffffffffffffffffffffffffffff1916141580156126995750631166073a7c0100000000000000000000000000000000000000000000000000000000027bffffffffffffffffffffffffffffffffffffffffffffffffffffffff1916817bffffffffffffffffffffffffffffffffffffffffffffffffffffffff191614155b151561270d576040517f08c379a00000000000000000000000000000000000000000000000000000000081526004018080602001828103825260178152602001807f4c6567616c2072656c6179207472616e73616374696f6e00000000000000000081525060200191505060405180910390fd5b505b600061279783856040516020018082805190602001908083835b60208310151561274e5780518252602082019150602081019050602083039250612729565b6001836020036101000a03801982511681845116808217855250505050505090500191505060405160208183030381529060405280519060200120614a9690919063ffffffff16565b90506127a281614cb1565b50505050565b60005a9050600260038111156127ba57fe5b600160003373ffffffffffffffffffffffffffffffffffffffff1673ffffffffffffffffffffffffffffffffffffffff16815260200190815260200160002060030160149054906101000a900460ff16600381111561281557fe5b14151561288a576040517f08c379a000000000000000000000000000000000000000000000000000000000815260040180806020018281038252600d8152602001807f556e6b6e6f776e2072656c61790000000000000000000000000000000000000081525060200191505060405180910390fd5b3a8611151515612902576040517f08c379a00000000000000000000000000000000000000000000000000000000081526004018080602001828103825260118152602001807f496e76616c69642067617320707269636500000000000000000000000000000081525060200191505060405180910390fd5b61291661290e8661325d565b61bc4c615140565b811015151561298d576040517f08c379a00000000000000000000000000000000000000000000000000000000081526004018080602001828103825260148152602001807f4e6f7420656e6f756768206761736c656674282900000000000000000000000081525060200191505060405180910390fd5b600260008a73ffffffffffffffffffffffffffffffffffffffff1673ffffffffffffffffffffffffffffffffffffffff168152602001908152602001600020546129d886888a6134f7565b11151515612a4e576040517f08c379a00000000000000000000000000000000000000000000000000000000081526004018080602001828103825260198152602001807f526563697069656e742062616c616e636520746f6f206c6f770000000000000081525060200191505060405180910390fd5b6000612a5b89600061518a565b905060606000612a73338e8e8e8e8e8e8e8e8e611820565b809350819250505060006004811115612a8857fe5b81141515612b5b578b73ffffffffffffffffffffffffffffffffffffffff168d73ffffffffffffffffffffffffffffffffffffffff163373ffffffffffffffffffffffffffffffffffffffff167fafb5afd6d1c2e8ffbfb480e674a169f493ece0b22658d4f4484e7334f0241e22868560405180837bffffffffffffffffffffffffffffffffffffffffffffffffffffffff19167bffffffffffffffffffffffffffffffffffffffffffffffffffffffff191681526020018281526020019250505060405180910390a4505050506131b4565b506000808d73ffffffffffffffffffffffffffffffffffffffff1673ffffffffffffffffffffffffffffffffffffffff168152602001908152602001600020600081548092919060010191905055506000805a8503905060608c8f6040516020018083805190602001908083835b602083101515612bee5780518252602082019150602081019050602083039250612bc9565b6001836020036101000a0380198251168184511680821785525050505050509050018273ffffffffffffffffffffffffffffffffffffffff1673ffffffffffffffffffffffffffffffffffffffff166c010000000000000000000000000281526014019250505060405160208183030381529060405290506060632ca70eba7c0100000000000000000000000000000000000000000000000000000000028f838f8f8f888b604051602401808873ffffffffffffffffffffffffffffffffffffffff1673ffffffffffffffffffffffffffffffffffffffff1681526020018060200187815260200186815260200185815260200184815260200180602001838103835289818151815260200191508051906020019080838360005b83811015612d24578082015181840152602081019050612d09565b50505050905090810190601f168015612d515780820380516001836020036101000a031916815260200191505b50838103825284818151815260200191508051906020019080838360005b83811015612d8a578082015181840152602081019050612d6f565b50505050905090810190601f168015612db75780820380516001836020036101000a031916815260200191505b509950505050505050505050604051602081830303815290604052907bffffffffffffffffffffffffffffffffffffffffffffffffffffffff19166020820180517bffffffffffffffffffffffffffffffffffffffffffffffffffffffff8381831617835250505050905060603073ffffffffffffffffffffffffffffffffffffffff16826040518082805190602001908083835b602083101515612e715780518252602082019150602081019050602083039250612e4c565b6001836020036101000a0380198251168184511680821785525050505050509050019150506000604051808303816000865af19150503d8060008114612ed3576040519150601f19603f3d011682016040523d82523d6000602084013e612ed8565b606091505b50915050808060200190516020811015612ef157600080fd5b81019080805190602001909291905050509450505050506000612f21612f1a5a87036000614bd9565b8b8d614bfe565b905080600260008f73ffffffffffffffffffffffffffffffffffffffff1673ffffffffffffffffffffffffffffffffffffffff1681526020019081526020016000205410151515612fda576040517f08c379a00000000000000000000000000000000000000000000000000000000081526004018080602001828103825260138152602001807f53686f756c64206e6f742067657420686572650000000000000000000000000081525060200191505060405180910390fd5b80600260008f73ffffffffffffffffffffffffffffffffffffffff1673ffffffffffffffffffffffffffffffffffffffff168152602001908152602001600020600082825403925050819055508060026000600160003373ffffffffffffffffffffffffffffffffffffffff1673ffffffffffffffffffffffffffffffffffffffff16815260200190815260200160002060030160009054906101000a900473ffffffffffffffffffffffffffffffffffffffff1673ffffffffffffffffffffffffffffffffffffffff1673ffffffffffffffffffffffffffffffffffffffff168152602001908152602001600020600082825401925050819055508c73ffffffffffffffffffffffffffffffffffffffff168e73ffffffffffffffffffffffffffffffffffffffff163373ffffffffffffffffffffffffffffffffffffffff167fab74390d395916d9e0006298d47938a5def5d367054dcca78fa6ec84381f3f2287868660405180847bffffffffffffffffffffffffffffffffffffffffffffffffffffffff19167bffffffffffffffffffffffffffffffffffffffffffffffffffffffff1916815260200183600481111561319357fe5b60ff168152602001828152602001935050505060405180910390a450505050505b505050505050505050565b60038054600181600116156101000203166002900480601f0160208091040260200160405190810160405280929190818152602001828054600181600116156101000203166002900480156132555780601f1061322a57610100808354040283529160200191613255565b820191906000526020600020905b81548152906001019060200180831161323857829003601f168201915b505050505081565b600081620186a08061c350620186a061bc4c01010101019050919050565b6000600260008373ffffffffffffffffffffffffffffffffffffffff1673ffffffffffffffffffffffffffffffffffffffff168152602001908152602001600020549050919050565b600080600160008473ffffffffffffffffffffffffffffffffffffffff1673ffffffffffffffffffffffffffffffffffffffff16815260200190815260200160002060020154118015613359575042600160008473ffffffffffffffffffffffffffffffffffffffff1673ffffffffffffffffffffffffffffffffffffffff1681526020019081526020016000206002015411155b9050919050565b6000806000806000600160008773ffffffffffffffffffffffffffffffffffffffff1673ffffffffffffffffffffffffffffffffffffffff168152602001908152602001600020600001549450600160008773ffffffffffffffffffffffffffffffffffffffff1673ffffffffffffffffffffffffffffffffffffffff168152602001908152602001600020600101549350600160008773ffffffffffffffffffffffffffffffffffffffff1673ffffffffffffffffffffffffffffffffffffffff168152602001908152602001600020600201549250600160008773ffffffffffffffffffffffffffffffffffffffff1673ffffffffffffffffffffffffffffffffffffffff16815260200190815260200160002060030160009054906101000a900473ffffffffffffffffffffffffffffffffffffffff169150600160008773ffffffffffffffffffffffffffffffffffffffff1673ffffffffffffffffffffffffffffffffffffffff16815260200190815260200160002060030160149054906101000a900460ff16905091939590929450565b600061350c6135058561325d565b8484614bfe565b90509392505050565b600061359d84866040516020018082805190602001908083835b602083101515613554578051825260208201915060208101905060208303925061352f565b6001836020036101000a03801982511681845116808217855250505050505090500191505060405160208183030381529060405280519060200120614a9690919063ffffffff16565b9050600061362783856040516020018082805190602001908083835b6020831015156135de57805182526020820191506020810190506020830392506135b9565b6001836020036101000a03801982511681845116808217855250505050505090500191505060405160208183030381529060405280519060200120614a9690919063ffffffff16565b90508073ffffffffffffffffffffffffffffffffffffffff168273ffffffffffffffffffffffffffffffffffffffff161415156136cc576040517f08c379a00000000000000000000000000000000000000000000000000000000081526004018080602001828103825260108152602001807f446966666572656e74207369676e65720000000000000000000000000000000081525060200191505060405180910390fd5b6136d4615bc7565b6136dd87614c1d565b90506136e7615bc7565b6136f086614c1d565b905080600001518260000151141515613771576040517f08c379a000000000000000000000000000000000000000000000000000000000815260040180806020018281038252600f8152602001807f446966666572656e74206e6f6e6365000000000000000000000000000000000081525060200191505060405180910390fd5b60608260a001518360400151846060015185608001516040516020018085805190602001908083835b6020831015156137bf578051825260208201915060208101905060208303925061379a565b6001836020036101000a0380198251168184511680821785525050505050509050018481526020018373ffffffffffffffffffffffffffffffffffffffff1673ffffffffffffffffffffffffffffffffffffffff166c01000000000000000000000000028152601401828152602001945050505050604051602081830303815290604052905060608260a001518360400151846060015185608001516040516020018085805190602001908083835b602083101515613893578051825260208201915060208101905060208303925061386e565b6001836020036101000a0380198251168184511680821785525050505050509050018481526020018373ffffffffffffffffffffffffffffffffffffffff1673ffffffffffffffffffffffffffffffffffffffff166c010000000000000000000000000281526014018281526020019450505050506040516020818303038152906040529050808051906020012082805190602001201415151561399f576040517f08c379a000000000000000000000000000000000000000000000000000000000815260040180806020018281038252600b8152602001807f747820697320657175616c00000000000000000000000000000000000000000081525060200191505060405180910390fd5b6139a886614cb1565b50505050505050505050565b6000349050671bc16d674ec800008111151515613a39576040517f08c379a000000000000000000000000000000000000000000000000000000000815260040180806020018281038252600f8152602001807f6465706f73697420746f6f20626967000000000000000000000000000000000081525060200191505060405180910390fd5b613a82600260008473ffffffffffffffffffffffffffffffffffffffff1673ffffffffffffffffffffffffffffffffffffffff16815260200190815260200160002054826151eb565b600260008473ffffffffffffffffffffffffffffffffffffffff1673ffffffffffffffffffffffffffffffffffffffff168152602001908152602001600020819055503373ffffffffffffffffffffffffffffffffffffffff168273ffffffffffffffffffffffffffffffffffffffff167f8752a472e571a816aea92eec8dae9baf628e840f4929fbcc2d155e6233ff68a7836040518082815260200191505060405180910390a35050565b60006003811115613b3b57fe5b600160008473ffffffffffffffffffffffffffffffffffffffff1673ffffffffffffffffffffffffffffffffffffffff16815260200190815260200160002060030160149054906101000a900460ff166003811115613b9657fe5b1415613d29578173ffffffffffffffffffffffffffffffffffffffff163373ffffffffffffffffffffffffffffffffffffffff1614151515613c40576040517f08c379a000000000000000000000000000000000000000000000000000000000815260040180806020018281038252601d8152602001807f72656c61792063616e6e6f74207374616b6520666f7220697473656c6600000081525060200191505060405180910390fd5b33600160008473ffffffffffffffffffffffffffffffffffffffff1673ffffffffffffffffffffffffffffffffffffffff16815260200190815260200160002060030160006101000a81548173ffffffffffffffffffffffffffffffffffffffff021916908373ffffffffffffffffffffffffffffffffffffffff16021790555060018060008473ffffffffffffffffffffffffffffffffffffffff1673ffffffffffffffffffffffffffffffffffffffff16815260200190815260200160002060030160146101000a81548160ff02191690836003811115613d1f57fe5b0217905550613f80565b60016003811115613d3657fe5b600160008473ffffffffffffffffffffffffffffffffffffffff1673ffffffffffffffffffffffffffffffffffffffff16815260200190815260200160002060030160149054906101000a900460ff166003811115613d9157fe5b1480613e02575060026003811115613da557fe5b600160008473ffffffffffffffffffffffffffffffffffffffff1673ffffffffffffffffffffffffffffffffffffffff16815260200190815260200160002060030160149054906101000a900460ff166003811115613e0057fe5b145b15613f11573373ffffffffffffffffffffffffffffffffffffffff16600160008473ffffffffffffffffffffffffffffffffffffffff1673ffffffffffffffffffffffffffffffffffffffff16815260200190815260200160002060030160009054906101000a900473ffffffffffffffffffffffffffffffffffffffff1673ffffffffffffffffffffffffffffffffffffffff16141515613f0c576040517f08c379a00000000000000000000000000000000000000000000000000000000081526004018080602001828103825260098152602001807f6e6f74206f776e6572000000000000000000000000000000000000000000000081525060200191505060405180910390fd5b613f7f565b6040517f08c379a00000000000000000000000000000000000000000000000000000000081526004018080602001828103825260158152602001807f77726f6e6720737461746520666f72207374616b65000000000000000000000081525060200191505060405180910390fd5b5b600034905080600160008573ffffffffffffffffffffffffffffffffffffffff1673ffffffffffffffffffffffffffffffffffffffff16815260200190815260200160002060000160008282540192505081905550670de0b6b3a7640000600160008573ffffffffffffffffffffffffffffffffffffffff1673ffffffffffffffffffffffffffffffffffffffff1681526020019081526020016000206000015410151515614097576040517f08c379a00000000000000000000000000000000000000000000000000000000081526004018080602001828103825260188152602001807f7374616b65206c6f776572207468616e206d696e696d756d000000000000000081525060200191505060405180910390fd5b62093a808210151515614112576040517f08c379a00000000000000000000000000000000000000000000000000000000081526004018080602001828103825260188152602001807f64656c6179206c6f776572207468616e206d696e696d756d000000000000000081525060200191505060405180910390fd5b626ebe00821115151561418d576040517f08c379a00000000000000000000000000000000000000000000000000000000081526004018080602001828103825260198152602001807f64656c617920686967686572207468616e206d6178696d756d0000000000000081525060200191505060405180910390fd5b600160008473ffffffffffffffffffffffffffffffffffffffff1673ffffffffffffffffffffffffffffffffffffffff168152602001908152602001600020600101548210151515614247576040517f08c379a00000000000000000000000000000000000000000000000000000000081526004018080602001828103825260208152602001807f756e7374616b6544656c61792063616e6e6f742062652064656372656173656481525060200191505060405180910390fd5b81600160008573ffffffffffffffffffffffffffffffffffffffff1673ffffffffffffffffffffffffffffffffffffffff168152602001908152602001600020600101819055508273ffffffffffffffffffffffffffffffffffffffff167f1449c6dd7851abc30abf37f57715f492010519147cc2652fbc38202c18a6ee90600160008673ffffffffffffffffffffffffffffffffffffffff1673ffffffffffffffffffffffffffffffffffffffff16815260200190815260200160002060000154600160008773ffffffffffffffffffffffffffffffffffffffff1673ffffffffffffffffffffffffffffffffffffffff16815260200190815260200160002060010154604051808381526020018281526020019250505060405180910390a2505050565b3373ffffffffffffffffffffffffffffffffffffffff16600160008373ffffffffffffffffffffffffffffffffffffffff1673ffffffffffffffffffffffffffffffffffffffff16815260200190815260200160002060030160009054906101000a900473ffffffffffffffffffffffffffffffffffffffff1673ffffffffffffffffffffffffffffffffffffffff16141515614472576040517f08c379a00000000000000000000000000000000000000000000000000000000081526004018080602001828103825260098152602001807f6e6f74206f776e6572000000000000000000000000000000000000000000000081525060200191505060405180910390fd5b6001600381111561447f57fe5b600160008373ffffffffffffffffffffffffffffffffffffffff1673ffffffffffffffffffffffffffffffffffffffff16815260200190815260200160002060030160149054906101000a900460ff1660038111156144da57fe5b148061454b5750600260038111156144ee57fe5b600160008373ffffffffffffffffffffffffffffffffffffffff1673ffffffffffffffffffffffffffffffffffffffff16815260200190815260200160002060030160149054906101000a900460ff16600381111561454957fe5b145b15156145bf576040517f08c379a000000000000000000000000000000000000000000000000000000000815260040180806020018281038252600f8152602001807f616c72656164792072656d6f766564000000000000000000000000000000000081525060200191505060405180910390fd5b42600160008373ffffffffffffffffffffffffffffffffffffffff1673ffffffffffffffffffffffffffffffffffffffff1681526020019081526020016000206001015401600160008373ffffffffffffffffffffffffffffffffffffffff1673ffffffffffffffffffffffffffffffffffffffff168152602001908152602001600020600201819055506003600160008373ffffffffffffffffffffffffffffffffffffffff1673ffffffffffffffffffffffffffffffffffffffff16815260200190815260200160002060030160146101000a81548160ff021916908360038111156146a957fe5b02179055508073ffffffffffffffffffffffffffffffffffffffff167f5490afc1d818789c8b3d5d63bce3d2a3327d0bba4efb5a7751f783dc977d7d11600160008473ffffffffffffffffffffffffffffffffffffffff1673ffffffffffffffffffffffffffffffffffffffff168152602001908152602001600020600201546040518082815260200191505060405180910390a250565b61474a816132c4565b15156147be576040517f08c379a00000000000000000000000000000000000000000000000000000000081526004018080602001828103825260118152602001807f63616e556e7374616b65206661696c656400000000000000000000000000000081525060200191505060405180910390fd5b3373ffffffffffffffffffffffffffffffffffffffff16600160008373ffffffffffffffffffffffffffffffffffffffff1673ffffffffffffffffffffffffffffffffffffffff16815260200190815260200160002060030160009054906101000a900473ffffffffffffffffffffffffffffffffffffffff1673ffffffffffffffffffffffffffffffffffffffff161415156148c3576040517f08c379a00000000000000000000000000000000000000000000000000000000081526004018080602001828103825260098152602001807f6e6f74206f776e6572000000000000000000000000000000000000000000000081525060200191505060405180910390fd5b60003390506000600160008473ffffffffffffffffffffffffffffffffffffffff1673ffffffffffffffffffffffffffffffffffffffff168152602001908152602001600020600001549050600160008473ffffffffffffffffffffffffffffffffffffffff1673ffffffffffffffffffffffffffffffffffffffff168152602001908152602001600020600080820160009055600182016000905560028201600090556003820160006101000a81549073ffffffffffffffffffffffffffffffffffffffff02191690556003820160146101000a81549060ff021916905550508173ffffffffffffffffffffffffffffffffffffffff166108fc829081150290604051600060405180830381858888f193505050501580156149ea573d6000803e3d6000fd5b508273ffffffffffffffffffffffffffffffffffffffff167f0f5bb82176feb1b5e747e28471aa92156a04d9f3ab9f45f28e2d704232b93f75826040518082815260200191505060405180910390a2505050565b60008160405160200180807f19457468657265756d205369676e6564204d6573736167653a0a333200000000815250601c01828152602001915050604051602081830303815290604052805190602001209050919050565b600060418251141515614aac5760009050614b97565b60008060006020850151925060408501519150606085015160001a90507f7fffffffffffffffffffffffffffffff5d576e7357a4501ddfe92f46681b20a082600190041115614b015760009350505050614b97565b601b8160ff1614158015614b195750601c8160ff1614155b15614b2a5760009350505050614b97565b60018682858560405160008152602001604052604051808581526020018460ff1660ff1681526020018381526020018281526020019450505050506020604051602081039080840390855afa158015614b87573d6000803e3d6000fd5b5050506020604051035193505050505b92915050565b60608160405160200180826004811115614bb357fe5b60ff16815260200191505060405160208183030381529060405290508051602082018181fd5b600081614be7576000614bf0565b611388620186a0015b8361bc4c0101905092915050565b600060648260640184860202811515614c1357fe5b0490509392505050565b614c25615bc7565b614c2e82615275565b809050866000018760200188604001896060018a6080018b60a001869052868152508673ffffffffffffffffffffffffffffffffffffffff1673ffffffffffffffffffffffffffffffffffffffff16815250868152508681525086815250505050505050809050919050565b6000614ca782600061536f565b6001029050919050565b60016003811115614cbe57fe5b600160008373ffffffffffffffffffffffffffffffffffffffff1673ffffffffffffffffffffffffffffffffffffffff16815260200190815260200160002060030160149054906101000a900460ff166003811115614d1957fe5b1480614d8a575060026003811115614d2d57fe5b600160008373ffffffffffffffffffffffffffffffffffffffff1673ffffffffffffffffffffffffffffffffffffffff16815260200190815260200160002060030160149054906101000a900460ff166003811115614d8857fe5b145b80614df95750600380811115614d9c57fe5b600160008373ffffffffffffffffffffffffffffffffffffffff1673ffffffffffffffffffffffffffffffffffffffff16815260200190815260200160002060030160149054906101000a900460ff166003811115614df757fe5b145b1515614e6d576040517f08c379a000000000000000000000000000000000000000000000000000000000815260040180806020018281038252600e8152602001807f556e7374616b65642072656c617900000000000000000000000000000000000081525060200191505060405180910390fd5b6000600160008373ffffffffffffffffffffffffffffffffffffffff1673ffffffffffffffffffffffffffffffffffffffff1681526020019081526020016000206000015490506000614ec182600261538a565b90506000614ecf8383615140565b905060026003811115614ede57fe5b600160008673ffffffffffffffffffffffffffffffffffffffff1673ffffffffffffffffffffffffffffffffffffffff16815260200190815260200160002060030160149054906101000a900460ff166003811115614f3957fe5b1415614f8e578373ffffffffffffffffffffffffffffffffffffffff167f5490afc1d818789c8b3d5d63bce3d2a3327d0bba4efb5a7751f783dc977d7d11426040518082815260200191505060405180910390a25b600160008573ffffffffffffffffffffffffffffffffffffffff1673ffffffffffffffffffffffffffffffffffffffff168152602001908152602001600020600080820160009055600182016000905560028201600090556003820160006101000a81549073ffffffffffffffffffffffffffffffffffffffff02191690556003820160146101000a81549060ff02191690555050600073ffffffffffffffffffffffffffffffffffffffff166108fc839081150290604051600060405180830381858888f1935050505015801561506a573d6000803e3d6000fd5b5060003390508073ffffffffffffffffffffffffffffffffffffffff166108fc839081150290604051600060405180830381858888f193505050501580156150b6573d6000803e3d6000fd5b508473ffffffffffffffffffffffffffffffffffffffff167fb0595266ccec357806b2691f348b128209f1060a0bda4f5c95f7090730351ff88284604051808373ffffffffffffffffffffffffffffffffffffffff1673ffffffffffffffffffffffffffffffffffffffff1681526020018281526020019250505060405180910390a25050505050565b600061518283836040805190810160405280601e81526020017f536166654d6174683a207375627472616374696f6e206f766572666c6f7700008152506153d4565b905092915050565b600060048201835110156151b1576151b06151ab6003855160048601615496565b615551565b5b6020820191508183015190507fffffffff000000000000000000000000000000000000000000000000000000008116905080905092915050565b600080828401905083811015151561526b576040517f08c379a000000000000000000000000000000000000000000000000000000000815260040180806020018281038252601b8152602001807f536166654d6174683a206164646974696f6e206f766572666c6f77000000000081525060200191505060405180910390fd5b8091505092915050565b600080600080600060608061529161528c89615559565b6155b0565b90506152b48160008151811015156152a557fe5b906020019060200201516156f6565b6152d58260018151811015156152c657fe5b906020019060200201516156f6565b6152f68360028151811015156152e757fe5b906020019060200201516156f6565b61531784600381518110151561530857fe5b90602001906020020151615739565b61533885600481518110151561532957fe5b906020019060200201516156f6565b61535986600581518110151561534a57fe5b906020019060200201516157ee565b9650965096509650965096505091939550919395565b600061537b8383615869565b60019004905080905092915050565b60006153cc83836040805190810160405280601a81526020017f536166654d6174683a206469766973696f6e206279207a65726f0000000000008152506158a5565b905092915050565b60008383111582901515615483576040517f08c379a00000000000000000000000000000000000000000000000000000000081526004018080602001828103825283818151815260200191508051906020019080838360005b8381101561544857808201518184015260208101905061542d565b50505050905090810190601f1680156154755780820380516001836020036101000a031916815260200191505b509250505060405180910390fd5b5060008385039050809150509392505050565b606063280065957c010000000000000000000000000000000000000000000000000000000002848484604051602401808460078111156154d257fe5b60ff1681526020018381526020018281526020019350505050604051602081830303815290604052907bffffffffffffffffffffffffffffffffffffffffffffffffffffffff19166020820180517bffffffffffffffffffffffffffffffffffffffffffffffffffffffff838183161783525050505090509392505050565b805160208201fd5b615561615c14565b60008251141561558957604080519081016040528060008152602001600081525090506155ab565b6000602083019050604080519081016040528084518152602001828152509150505b919050565b60606155bb8261596f565b151561562f576040517f08c379a000000000000000000000000000000000000000000000000000000000815260040180806020018281038252600d8152602001807f69734c697374206661696c65640000000000000000000000000000000000000081525060200191505060405180910390fd5b600061563a836159a8565b90508060405190808252806020026020018201604052801561567657816020015b615663615c2e565b81526020019060019003908161565b5790505b50915060006156888460200151615a03565b8460200151019050600080600090505b838110156156ed576156a983615a8c565b915060408051908101604052808381526020018481525085828151811015156156ce57fe5b9060200190602002018190525081830192508080600101915050615698565b50505050919050565b6000806157068360200151615a03565b9050600081846000015103905060008285602001510190506000826020036101000a825104905080945050505050919050565b600060158260000151111515156157de576040517f08c379a000000000000000000000000000000000000000000000000000000000815260040180806020018281038252603a8152602001807f496e76616c696420524c504974656d2e2041646472657373657320617265206581526020017f6e636f64656420696e203230206279746573206f72206c65737300000000000081525060400191505060405180910390fd5b6157e7826156f6565b9050919050565b606060006157ff8360200151615a03565b905060008184600001510390506060816040519080825280601f01601f1916602001820160405280156158415781602001600182028038833980820191505090505b509050600081602001905061585d848760200151018285615b3f565b81945050505050919050565b600060208201835110156158905761588f61588a6005855160208601615496565b615551565b5b60208201915081830151905080905092915050565b600080831182901515615953576040517f08c379a00000000000000000000000000000000000000000000000000000000081526004018080602001828103825283818151815260200191508051906020019080838360005b838110156159185780820151818401526020810190506158fd565b50505050905090810190601f1680156159455780820380516001836020036101000a031916815260200191505b509250505060405180910390fd5b506000838581151561596157fe5b049050809150509392505050565b600080600083602001519050805160001a915060c060ff168260ff16101561599c576000925050506159a3565b6001925050505b919050565b6000806000905060006159be8460200151615a03565b84602001510190506000846000015185602001510190505b808210156159f8576159e782615a8c565b8201915082806001019350506159d6565b829350505050919050565b600080825160001a9050608060ff16811015615a23576000915050615a87565b60b860ff16811080615a48575060c060ff168110158015615a47575060f860ff1681105b5b15615a57576001915050615a87565b60c060ff16811015615a775760018060b80360ff16820301915050615a87565b60018060f80360ff168203019150505b919050565b600080825160001a9050608060ff16811015615aac576001915050615b3a565b60b860ff16811015615aca576001608060ff16820301915050615b3a565b60c060ff16811015615afa5760b78103600184019350806020036101000a84510460018201810193505050615b38565b60f860ff16811015615b1857600160c060ff16820301915050615b3a565b60f78103600184019350806020036101000a845104600182018101935050505b505b919050565b5b602060ff1681101515615b715782518252602060ff1683019250602060ff1682019150602060ff1681039050615b40565b6000600182602060ff16036101000a0390508019845116818451168181178552505050505050565b6080604051908101604052806000815260200160008152602001600080191681526020016000151581525090565b60c060405190810160405280600081526020016000815260200160008152602001600073ffffffffffffffffffffffffffffffffffffffff16815260200160008152602001606081525090565b604080519081016040528060008152602001600081525090565b60408051908101604052806000815260200160008152509056fea165627a7a72305820db23b8eb7d58ca22b66e01ed968465ae44d3b6f8aacbb80fb40adf9ce157a0690029",
  "source": "pragma solidity 0.5.0;\n\nimport \"../contracts-lib/IRelayHub.sol\";\nimport \"../contracts-lib/IRelayRecipient.sol\";\nimport \"../contracts-lib/GsnUtils.sol\";\nimport \"../contracts-lib/RLPReader.sol\";\nimport \"../contracts-lib/LibBytes.sol\";\nimport \"openzeppelin-solidity/contracts/math/SafeMath.sol\";\nimport \"openzeppelin-solidity/contracts/cryptography/ECDSA.sol\";\n\ncontract RelayHub is IRelayHub {\n\n    string constant commitId = \"$Id$\";\n\n    using ECDSA for bytes32;\n\n    // Minimum stake a relay can have. An attack to the network will never cost less than half this value.\n    uint256 constant private minimumStake = 1 ether;\n\n    // Minimum unstake delay. A relay needs to wait for this time to elapse after deregistering to retrieve its stake.\n    uint256 constant private minimumUnstakeDelay = 1 weeks;\n    // Maximum unstake delay. Prevents relays from locking their funds into the RelayHub for too long.\n    uint256 constant private maximumUnstakeDelay = 12 weeks;\n\n    // Minimum balance required for a relay to register or re-register. Prevents user error in registering a relay that\n    // will not be able to immediatly start serving requests.\n    uint256 constant private minimumRelayBalance = 0.1 ether;\n\n    // Maximum funds that can be deposited at once. Prevents user error by disallowing large deposits.\n    uint256 constant private maximumRecipientDeposit = 2 ether;\n\n    /**\n    * the total gas overhead of relayCall(), before the first gasleft() and after the last gasleft().\n    * Assume that relay has non-zero balance (costs 15'000 more otherwise).\n    */\n\n    // Gas cost of all relayCall() instructions before first gasleft() and after last gasleft()\n    uint256 constant private gasOverhead = 48204;\n\n    // Gas cost of all relayCall() instructions after first gasleft() and before last gasleft()\n    uint256 constant private gasReserve = 100000;\n\n    // Approximation of how much calling recipientCallsAtomic costs\n    uint256 constant private recipientCallsAtomicOverhead = 5000;\n\n    // Gas stipends for acceptRelayedCall, preRelayedCall and postRelayedCall\n    uint256 constant private acceptRelayedCallMaxGas = 50000;\n    uint256 constant private preRelayedCallMaxGas = 100000;\n    uint256 constant private postRelayedCallMaxGas = 100000;\n\n    // Nonces of senders, used to prevent replay attacks\n    mapping(address => uint256) private nonces;\n\n    enum AtomicRecipientCallsStatus {OK, CanRelayFailed, RelayedCallFailed, PreRelayedFailed, PostRelayedFailed}\n\n    struct Relay {\n        uint256 stake;          // Ether staked for this relay\n        uint256 unstakeDelay;   // Time that must elapse before the owner can retrieve the stake after calling remove\n        uint256 unstakeTime;    // Time when unstake will be callable. A value of zero indicates the relay has not been removed.\n        address payable owner;  // Relay's owner, will receive revenue and manage it (call stake, remove and unstake).\n        RelayState state;\n    }\n\n    mapping(address => Relay) private relays;\n    mapping(address => uint256) private balances;\n\n    string public version = \"1.0.0\";\n\n    function stake(address relay, uint256 unstakeDelay) external payable {\n        if (relays[relay].state == RelayState.Unknown) {\n            require(msg.sender != relay, \"relay cannot stake for itself\");\n            relays[relay].owner = msg.sender;\n            relays[relay].state = RelayState.Staked;\n\n        } else if ((relays[relay].state == RelayState.Staked) || (relays[relay].state == RelayState.Registered)) {\n            require(relays[relay].owner == msg.sender, \"not owner\");\n\n        } else {\n            revert('wrong state for stake');\n        }\n\n        // Increase the stake\n\n        uint256 addedStake = msg.value;\n        relays[relay].stake += addedStake;\n\n        // The added stake may be e.g. zero when only the unstake delay is being updated\n        require(relays[relay].stake >= minimumStake, \"stake lower than minimum\");\n\n        // Increase the unstake delay\n\n        require(unstakeDelay >= minimumUnstakeDelay, \"delay lower than minimum\");\n        require(unstakeDelay <= maximumUnstakeDelay, \"delay higher than maximum\");\n\n        require(unstakeDelay >= relays[relay].unstakeDelay, \"unstakeDelay cannot be decreased\");\n        relays[relay].unstakeDelay = unstakeDelay;\n\n        emit Staked(relay, relays[relay].stake, relays[relay].unstakeDelay);\n    }\n\n    function registerRelay(uint256 transactionFee, string memory url) public {\n        address relay = msg.sender;\n\n        require(relay == tx.origin, \"Contracts cannot register as relays\");\n        require(relays[relay].state == RelayState.Staked || relays[relay].state == RelayState.Registered, \"wrong state for stake\");\n        require(relay.balance >= minimumRelayBalance, \"balance lower than minimum\");\n\n        if (relays[relay].state != RelayState.Registered) {\n            relays[relay].state = RelayState.Registered;\n        }\n\n        emit RelayAdded(relay, relays[relay].owner, transactionFee, relays[relay].stake, relays[relay].unstakeDelay, url);\n    }\n\n    function removeRelayByOwner(address relay) public {\n        require(relays[relay].owner == msg.sender, \"not owner\");\n        require((relays[relay].state == RelayState.Staked) || (relays[relay].state == RelayState.Registered), \"already removed\");\n\n        // Start the unstake counter\n        relays[relay].unstakeTime = relays[relay].unstakeDelay + now;\n        relays[relay].state = RelayState.Removed;\n\n        emit RelayRemoved(relay, relays[relay].unstakeTime);\n    }\n\n    function unstake(address relay) public {\n        require(canUnstake(relay), \"canUnstake failed\");\n        require(relays[relay].owner == msg.sender, \"not owner\");\n\n        address payable owner = msg.sender;\n        uint256 amount = relays[relay].stake;\n\n        delete relays[relay];\n\n        owner.transfer(amount);\n        emit Unstaked(relay, amount);\n    }\n\n    function getRelay(address relay) external view returns (uint256 totalStake, uint256 unstakeDelay, uint256 unstakeTime, address payable owner, RelayState state) {\n        totalStake = relays[relay].stake;\n        unstakeDelay = relays[relay].unstakeDelay;\n        unstakeTime = relays[relay].unstakeTime;\n        owner = relays[relay].owner;\n        state = relays[relay].state;\n    }\n\n    /**\n     * deposit ether for a contract.\n     * This ether will be used to repay relay calls into this contract.\n     * Contract owner should monitor the balance of his contract, and make sure\n     * to deposit more, otherwise the contract won't be able to receive relayed calls.\n     * Unused deposited can be withdrawn with `withdraw()`\n     */\n    function depositFor(address target) public payable {\n        uint256 amount = msg.value;\n        require(amount <= maximumRecipientDeposit, \"deposit too big\");\n\n        balances[target] = SafeMath.add(balances[target], amount);\n\n        emit Deposited(target, msg.sender, amount);\n    }\n\n    //check the deposit balance of a contract.\n    function balanceOf(address target) external view returns (uint256) {\n        return balances[target];\n    }\n\n    /**\n     * withdraw funds.\n     * caller is either a relay owner, withdrawing collected transaction fees.\n     * or a IRelayRecipient contract, withdrawing its deposit.\n     * note that while everyone can `depositFor()` a contract, only\n     * the contract itself can withdraw its funds.\n     */\n    function withdraw(uint256 amount, address payable dest) public {\n        address payable account = msg.sender;\n        require(balances[account] >= amount, \"insufficient funds\");\n\n        balances[account] -= amount;\n        dest.transfer(amount);\n\n        emit Withdrawn(account, dest, amount);\n    }\n\n    function getNonce(address from) view external returns (uint256) {\n        return nonces[from];\n    }\n\n    function canUnstake(address relay) public view returns (bool) {\n        return relays[relay].unstakeTime > 0 && relays[relay].unstakeTime <= now;\n        // Finished the unstaking delay period?\n    }\n\n    function canRelay(\n        address relay,\n        address from,\n        address to,\n        bytes memory encodedFunction,\n        uint256 transactionFee,\n        uint256 gasPrice,\n        uint256 gasLimit,\n        uint256 nonce,\n        bytes memory signature,\n        bytes memory approvalData\n    )\n    public payable returns (uint256 status, bytes memory recipientContext)\n    {\n        // Verify the sender's signature on the transaction - note that approvalData is *not* signed\n        {\n            bytes memory packed = abi.encodePacked(\"rlx:\", from, to, encodedFunction, transactionFee, gasPrice, gasLimit, nonce, address(this));\n            bytes32 hashedMessage = keccak256(abi.encodePacked(packed, relay));\n\n            if (hashedMessage.toEthSignedMessageHash().recover(signature) != from) {\n                return (uint256(PreconditionCheck.WrongSignature), \"\");\n            }\n        }\n\n        // Verify the transaction is not being replayed\n        if (nonces[from] != nonce) {\n            return (uint256(PreconditionCheck.WrongNonce), \"\");\n        }\n\n        uint256 maxCharge = maxPossibleCharge(gasLimit, gasPrice, transactionFee);\n        bytes memory encodedTx = abi.encodeWithSelector(IRelayRecipient(to).acceptRelayedCall.selector,\n            relay, from, encodedFunction, transactionFee, gasPrice, gasLimit, nonce, approvalData, maxCharge\n        );\n\n        (bool success, bytes memory returndata) = to.staticcall.gas(acceptRelayedCallMaxGas)(encodedTx);\n\n        if (!success) {\n            return (uint256(PreconditionCheck.AcceptRelayedCallReverted), \"\");\n        } else {\n            (status, recipientContext) = abi.decode(returndata, (uint256, bytes));\n\n            // This can be either PreconditionCheck.OK or a custom error code\n            if ((status == 0) || (status > 10)) {\n                return (status, recipientContext);\n            } else {\n                // Error codes [1-10] are reserved to RelayHub\n                return (uint256(PreconditionCheck.InvalidRecipientStatusCode), \"\");\n            }\n        }\n    }\n\n    /**\n     * @notice Relay a transaction.\n     *\n     * @param from the client originating the request.\n     * @param recipient the target IRelayRecipient contract.\n     * @param encodedFunction the function call to relay.\n     * @param transactionFee fee (%) the relay takes over actual gas cost.\n     * @param gasPrice gas price the client is willing to pay\n     * @param gasLimit limit the client want to put on its transaction\n     * @param transactionFee fee (%) the relay takes over actual gas cost.\n     * @param nonce sender's nonce (in nonces[])\n     * @param signature client's signature over all params except approvalData\n     * @param approvalData dapp-specific data\n     */\n    function relayCall(\n        address from,\n        address recipient,\n        bytes memory encodedFunction,\n        uint256 transactionFee,\n        uint256 gasPrice,\n        uint256 gasLimit,\n        uint256 nonce,\n        bytes memory signature,\n        bytes memory approvalData\n    )\n    public\n    {\n        uint256 initialGas = gasleft();\n\n        // Initial soundness checks - the relay must make sure these pass, or it will pay for a reverted transaction.\n\n        // The relay must be registered\n        require(relays[msg.sender].state == RelayState.Registered, \"Unknown relay\");\n\n        // A relay may use a higher gas price than the one requested by the signer (to e.g. get the transaction in a\n        // block faster), but it must not be lower. The recipient will be charged for the requested gas price, not the\n        // one used in the transaction.\n        require(gasPrice <= tx.gasprice, \"Invalid gas price\");\n\n        // This transaction must have enough gas to forward the call to the recipient with the requested amount, and not\n        // run out of gas later in this function.\n        require(initialGas >= SafeMath.sub(requiredGas(gasLimit), gasOverhead), \"Not enough gasleft()\");\n\n        // We don't yet know how much gas will be used by the recipient, so we make sure there are enough funds to pay\n        // for the maximum possible charge.\n        require(maxPossibleCharge(gasLimit, gasPrice, transactionFee) <= balances[recipient], \"Recipient balance too low\");\n\n        bytes4 functionSelector = LibBytes.readBytes4(encodedFunction, 0);\n\n        bytes memory recipientContext;\n        {\n            // We now verify the legitimacy of the transaction (it must be signed by the sender, and not be replayed),\n            // and that the recpient will accept to be charged by it.\n            uint256 preconditionCheck;\n            (preconditionCheck, recipientContext) = canRelay(msg.sender, from, recipient, encodedFunction, transactionFee, gasPrice, gasLimit, nonce, signature, approvalData);\n\n            if (preconditionCheck != uint256(PreconditionCheck.OK)) {\n                emit CanRelayFailed(msg.sender, from, recipient, functionSelector, preconditionCheck);\n                return;\n            }\n        }\n\n        // From this point on, this transaction will not revert nor run out of gas, and the recipient will be charged\n        // for the gas spent.\n\n        // The sender's nonce is advanced to prevent transaction replays.\n        nonces[from]++;\n\n        // Calls to the recipient are performed atomically inside an inner transaction which may revert in case of\n        // errors in the recipient. In either case (revert or regular execution) the return data encodes the\n        // RelayCallStatus value.\n        RelayCallStatus status;\n        {\n            uint256 preChecksGas = initialGas - gasleft();\n            bytes memory encodedFunctionWithFrom = abi.encodePacked(encodedFunction, from);\n            bytes memory data = abi.encodeWithSelector(this.recipientCallsAtomic.selector, recipient, encodedFunctionWithFrom, transactionFee, gasPrice, gasLimit, preChecksGas, recipientContext);\n            (, bytes memory relayCallStatus) = address(this).call(data);\n            status = abi.decode(relayCallStatus, (RelayCallStatus));\n        }\n\n        // We now perform the actual charge calculation, based on the measured gas used\n        uint256 charge = calculateCharge(\n            getChargeableGas(initialGas - gasleft(), false),\n            gasPrice,\n            transactionFee\n        );\n\n        // We've already checked that the recipient has enough balance to pay for the relayed transaction, this is only\n        // a sanity check to prevent overflows in case of bugs.\n        require(balances[recipient] >= charge, \"Should not get here\");\n        balances[recipient] -= charge;\n        balances[relays[msg.sender].owner] += charge;\n\n        emit TransactionRelayed(msg.sender, from, recipient, functionSelector, status, charge);\n    }\n\n    struct AtomicData {\n        uint256 atomicInitialGas;\n        uint256 balanceBefore;\n        bytes32 preReturnValue;\n        bool relayedCallSuccess;\n    }\n\n    function recipientCallsAtomic(\n        address recipient,\n        bytes calldata encodedFunctionWithFrom,\n        uint256 transactionFee,\n        uint256 gasPrice,\n        uint256 gasLimit,\n        uint256 preChecksGas,\n        bytes calldata recipientContext\n    )\n    external\n    returns (RelayCallStatus)\n    {\n        AtomicData memory atomicData;\n        atomicData.atomicInitialGas = gasleft(); // A new gas measurement is performed inside recipientCallsAtomic, since\n        // due to EIP150 available gas amounts cannot be directly compared across external calls\n\n        // This external function can only be called by RelayHub itself, creating an internal transaction. Calls to the\n        // recipient (preRelayedCall, the relayedCall, and postRelayedCall) are called from inside this transaction.\n        require(msg.sender == address(this), \"Only RelayHub should call this function\");\n\n        // If either pre or post reverts, the whole internal transaction will be reverted, reverting all side effects on\n        // the recipient. The recipient will still be charged for the used gas by the relay.\n\n        // The recipient is no allowed to withdraw balance from RelayHub during a relayed transaction. We check pre and\n        // post state to ensure this doesn't happen.\n        atomicData.balanceBefore = balances[recipient];\n\n        // First preRelayedCall is executed.\n        {\n            // Note: we open a new block to avoid growing the stack too much.\n            bytes memory data = abi.encodeWithSelector(\n                IRelayRecipient(recipient).preRelayedCall.selector, recipientContext\n            );\n\n            // preRelayedCall may revert, but the recipient will still be charged: it should ensure in\n            // acceptRelayedCall that this will not happen.\n            (bool success, bytes memory retData) = recipient.call.gas(preRelayedCallMaxGas)(data);\n\n            if (!success) {\n                revertWithStatus(RelayCallStatus.PreRelayedFailed);\n            }\n\n            atomicData.preReturnValue = abi.decode(retData, (bytes32));\n        }\n\n        // The actual relayed call is now executed. The sender's address is appended at the end of the transaction data\n        (atomicData.relayedCallSuccess,) = recipient.call.gas(gasLimit)(encodedFunctionWithFrom);\n\n        // Finally, postRelayedCall is executed, with the relayedCall execution's status and a charge estimate\n        {\n            bytes memory data;\n            {\n                // We now determine how much the recipient will be charged, to pass this value to postRelayedCall for accurate\n                // accounting.\n                uint256 estimatedCharge = calculateCharge(\n                    getChargeableGas(preChecksGas + atomicData.atomicInitialGas - gasleft(), true), // postRelayedCall is included in the charge\n                    gasPrice,\n                    transactionFee\n                );\n\n                data = abi.encodeWithSelector(\n                    IRelayRecipient(recipient).postRelayedCall.selector,\n                    recipientContext, atomicData.relayedCallSuccess, estimatedCharge, atomicData.preReturnValue\n                );\n            }\n\n            (bool successPost,) = recipient.call.gas(postRelayedCallMaxGas)(data);\n\n            if (!successPost) {\n                revertWithStatus(RelayCallStatus.PostRelayedFailed);\n            }\n        }\n\n        if (balances[recipient] < atomicData.balanceBefore) {\n            revertWithStatus(RelayCallStatus.RecipientBalanceChanged);\n        }\n\n        return atomicData.relayedCallSuccess ? RelayCallStatus.OK : RelayCallStatus.RelayedCallFailed;\n    }\n\n    /**\n     * @dev Reverts the transaction with returndata set to the ABI encoding of the status argument.\n     */\n    function revertWithStatus(RelayCallStatus status) private pure {\n        bytes memory data = abi.encode(status);\n\n        assembly {\n            let dataSize := mload(data)\n            let dataPtr := add(data, 32)\n\n            revert(dataPtr, dataSize)\n        }\n    }\n\n    function requiredGas(uint256 relayedCallStipend) public view returns (uint256) {\n        return gasOverhead + gasReserve + acceptRelayedCallMaxGas + preRelayedCallMaxGas + postRelayedCallMaxGas + relayedCallStipend;\n    }\n\n    function maxPossibleCharge(uint256 relayedCallStipend, uint256 gasPrice, uint256 transactionFee) public view returns (uint256) {\n        return calculateCharge(requiredGas(relayedCallStipend), gasPrice, transactionFee);\n    }\n\n    function calculateCharge(uint256 gas, uint256 gasPrice, uint256 fee) private pure returns (uint256) {\n        // The fee is expressed as a percentage. E.g. a value of 40 stands for a 40% fee, so the recipient will be\n        // charged for 1.4 times the spent amount.\n        return (gas * gasPrice * (100 + fee)) / 100;\n    }\n\n    function getChargeableGas(uint256 gasUsed, bool postRelayedCallEstimation) private pure returns (uint256) {\n        return gasOverhead + gasUsed + (postRelayedCallEstimation ? (postRelayedCallMaxGas + recipientCallsAtomicOverhead) : 0);\n    }\n\n    struct Transaction {\n        uint256 nonce;\n        uint256 gasPrice;\n        uint256 gasLimit;\n        address to;\n        uint256 value;\n        bytes data;\n    }\n\n    function decodeTransaction(bytes memory rawTransaction) private pure returns (Transaction memory transaction) {\n        (transaction.nonce, transaction.gasPrice, transaction.gasLimit, transaction.to, transaction.value, transaction.data) = RLPReader.decodeTransaction(rawTransaction);\n        return transaction;\n\n    }\n\n    function penalizeRepeatedNonce(bytes memory unsignedTx1, bytes memory signature1, bytes memory unsignedTx2, bytes memory signature2) public {\n        // Can be called by anyone.\n        // If a relay attacked the system by signing multiple transactions with the same nonce (so only one is accepted), anyone can grab both transactions from the blockchain and submit them here.\n        // Check whether unsignedTx1 != unsignedTx2, that both are signed by the same address, and that unsignedTx1.nonce == unsignedTx2.nonce.  If all conditions are met, relay is considered an \"offending relay\".\n        // The offending relay will be unregistered immediately, its stake will be forfeited and given to the address who reported it (msg.sender), thus incentivizing anyone to report offending relays.\n        // If reported via a relay, the forfeited stake is split between msg.sender (the relay used for reporting) and the address that reported it.\n\n        address addr1 = keccak256(abi.encodePacked(unsignedTx1)).recover(signature1);\n        address addr2 = keccak256(abi.encodePacked(unsignedTx2)).recover(signature2);\n\n        require(addr1 == addr2, \"Different signer\");\n\n        Transaction memory decodedTx1 = decodeTransaction(unsignedTx1);\n        Transaction memory decodedTx2 = decodeTransaction(unsignedTx2);\n\n        //checking that the same nonce is used in both transaction, with both signed by the same address and the actual data is different\n        // note: we compare the hash of the tx to save gas over iterating both byte arrays\n        require(decodedTx1.nonce == decodedTx2.nonce, \"Different nonce\");\n\n        bytes memory dataToCheck1 = abi.encodePacked(decodedTx1.data, decodedTx1.gasLimit, decodedTx1.to, decodedTx1.value);\n        bytes memory dataToCheck2 = abi.encodePacked(decodedTx2.data, decodedTx2.gasLimit, decodedTx2.to, decodedTx2.value);\n        require(keccak256(dataToCheck1) != keccak256(dataToCheck2), \"tx is equal\");\n\n        penalize(addr1);\n    }\n\n    function penalizeIllegalTransaction(bytes memory unsignedTx, bytes memory signature) public {\n        Transaction memory decodedTx = decodeTransaction(unsignedTx);\n        if (decodedTx.to == address(this)) {\n            bytes4 selector = GsnUtils.getMethodSig(decodedTx.data);\n            // Note: If RelayHub's relay API is extended, the selectors must be added to the ones listed here\n            require(selector != this.relayCall.selector && selector != this.registerRelay.selector, \"Legal relay transaction\");\n        }\n\n        address relay = keccak256(abi.encodePacked(unsignedTx)).recover(signature);\n\n        penalize(relay);\n    }\n\n    function penalize(address relay) private {\n        require((relays[relay].state == RelayState.Staked) ||\n        (relays[relay].state == RelayState.Registered) ||\n            (relays[relay].state == RelayState.Removed), \"Unstaked relay\");\n\n        // Half of the stake will be burned (sent to address 0)\n        uint256 totalStake = relays[relay].stake;\n        uint256 toBurn = SafeMath.div(totalStake, 2);\n        uint256 reward = SafeMath.sub(totalStake, toBurn);\n\n        if (relays[relay].state == RelayState.Registered) {\n            emit RelayRemoved(relay, now);\n        }\n\n        // The relay is deleted\n        delete relays[relay];\n\n        // Ether is burned and transferred\n        address(0).transfer(toBurn);\n        address payable reporter = msg.sender;\n        reporter.transfer(reward);\n\n        emit Penalized(relay, reporter, reward);\n    }\n}\n",
  "sourcePath": "/Users/clarencel/workspace/elastosjs/truffle-migrate/contracts/RelayHub.sol",
  "compiler": {
    "name": "solc",
    "version": "0.5.0+commit.1d4f565a.Emscripten.clang"
  },
  "schemaVersion": "3.0.23",
  "updatedAt": "2020-03-30T14:03:37.598Z",
  "networkType": "ethereum",
  "devdoc": {
    "methods": {
      "relayCall(address,address,bytes,uint256,uint256,uint256,uint256,bytes,bytes)": {
        "params": {
          "approvalData": "dapp-specific data",
          "encodedFunction": "the function call to relay.",
          "from": "the client originating the request.",
          "gasLimit": "limit the client want to put on its transaction",
          "gasPrice": "gas price the client is willing to pay",
          "nonce": "sender's nonce (in nonces[])",
          "recipient": "the target IRelayRecipient contract.",
          "signature": "client's signature over all params except approvalData",
          "transactionFee": "fee (%) the relay takes over actual gas cost."
        }
      }
    }
  },
  "userdoc": {
    "methods": {
      "depositFor(address)": {
        "notice": "deposit ether for a contract. This ether will be used to repay relay calls into this contract. Contract owner should monitor the balance of his contract, and make sure to deposit more, otherwise the contract won't be able to receive relayed calls. Unused deposited can be withdrawn with `withdraw()`"
      },
      "relayCall(address,address,bytes,uint256,uint256,uint256,uint256,bytes,bytes)": {
        "notice": "Relay a transaction."
      },
      "withdraw(uint256,address)": {
        "notice": "withdraw funds. caller is either a relay owner, withdrawing collected transaction fees. or a IRelayRecipient contract, withdrawing its deposit. note that while everyone can `depositFor()` a contract, only the contract itself can withdraw its funds."
      }
    }
  }
}