{
  "contractName": "CounterELA",
  "abi": [
    {
      "constant": true,
      "inputs": [],
      "name": "value",
      "outputs": [
        {
          "name": "",
          "type": "uint256"
        }
      ],
      "payable": false,
      "stateMutability": "view",
      "type": "function"
    },
    {
      "constant": true,
      "inputs": [],
      "name": "getHubAddr",
      "outputs": [
        {
          "name": "",
          "type": "address"
        }
      ],
      "payable": false,
      "stateMutability": "view",
      "type": "function"
    },
    {
      "constant": false,
      "inputs": [
        {
          "name": "context",
          "type": "bytes"
        }
      ],
      "name": "preRelayedCall",
      "outputs": [
        {
          "name": "",
          "type": "bytes32"
        }
      ],
      "payable": false,
      "stateMutability": "nonpayable",
      "type": "function"
    },
    {
      "constant": false,
      "inputs": [],
      "name": "initialize",
      "outputs": [],
      "payable": false,
      "stateMutability": "nonpayable",
      "type": "function"
    },
    {
      "constant": true,
      "inputs": [],
      "name": "relayHubVersion",
      "outputs": [
        {
          "name": "",
          "type": "string"
        }
      ],
      "payable": false,
      "stateMutability": "view",
      "type": "function"
    },
    {
      "constant": false,
      "inputs": [
        {
          "name": "context",
          "type": "bytes"
        },
        {
          "name": "success",
          "type": "bool"
        },
        {
          "name": "actualCharge",
          "type": "uint256"
        },
        {
          "name": "preRetVal",
          "type": "bytes32"
        }
      ],
      "name": "postRelayedCall",
      "outputs": [],
      "payable": false,
      "stateMutability": "nonpayable",
      "type": "function"
    },
    {
      "anonymous": false,
      "inputs": [
        {
          "indexed": true,
          "name": "oldRelayHub",
          "type": "address"
        },
        {
          "indexed": true,
          "name": "newRelayHub",
          "type": "address"
        }
      ],
      "name": "RelayHubChanged",
      "type": "event"
    },
    {
      "constant": false,
      "inputs": [],
      "name": "increase",
      "outputs": [],
      "payable": false,
      "stateMutability": "nonpayable",
      "type": "function"
    },
    {
      "constant": true,
      "inputs": [
        {
          "name": "relay",
          "type": "address"
        },
        {
          "name": "from",
          "type": "address"
        },
        {
          "name": "encodedFunction",
          "type": "bytes"
        },
        {
          "name": "transactionFee",
          "type": "uint256"
        },
        {
          "name": "gasPrice",
          "type": "uint256"
        },
        {
          "name": "gasLimit",
          "type": "uint256"
        },
        {
          "name": "nonce",
          "type": "uint256"
        },
        {
          "name": "approvalData",
          "type": "bytes"
        },
        {
          "name": "maxPossibleCharge",
          "type": "uint256"
        }
      ],
      "name": "acceptRelayedCall",
      "outputs": [
        {
          "name": "",
          "type": "uint256"
        },
        {
          "name": "",
          "type": "bytes"
        }
      ],
      "payable": false,
      "stateMutability": "view",
      "type": "function"
    }
  ],
  "bytecode": "0x6080604052610d42806100136000396000f3fe60806040526004361061008e576000357c0100000000000000000000000000000000000000000000000000000000900463ffffffff1680633fa4f2451461009357806374e861d6146100be57806380274db7146101155780638129fc1c146101af57806383947ea0146101c6578063ad61ccd514610394578063e06e0e2214610424578063e8927fbc146104ca575b600080fd5b34801561009f57600080fd5b506100a86104e1565b6040518082815260200191505060405180910390f35b3480156100ca57600080fd5b506100d36104e7565b604051808273ffffffffffffffffffffffffffffffffffffffff1673ffffffffffffffffffffffffffffffffffffffff16815260200191505060405180910390f35b34801561012157600080fd5b506101996004803603602081101561013857600080fd5b810190808035906020019064010000000081111561015557600080fd5b82018360208201111561016757600080fd5b8035906020019184600183028401116401000000008311171561018957600080fd5b90919293919293905050506104f6565b6040518082815260200191505060405180910390f35b3480156101bb57600080fd5b506101c461061d565b005b3480156101d257600080fd5b5061031260048036036101208110156101ea57600080fd5b81019080803573ffffffffffffffffffffffffffffffffffffffff169060200190929190803573ffffffffffffffffffffffffffffffffffffffff1690602001909291908035906020019064010000000081111561024757600080fd5b82018360208201111561025957600080fd5b8035906020019184600183028401116401000000008311171561027b57600080fd5b909192939192939080359060200190929190803590602001909291908035906020019092919080359060200190929190803590602001906401000000008111156102c457600080fd5b8201836020820111156102d657600080fd5b803590602001918460018302840111640100000000831117156102f857600080fd5b909192939192939080359060200190929190505050610769565b6040518083815260200180602001828103825283818151815260200191508051906020019080838360005b8381101561035857808201518184015260208101905061033d565b50505050905090810190601f1680156103855780820380516001836020036101000a031916815260200191505b50935050505060405180910390f35b3480156103a057600080fd5b506103a9610789565b6040518080602001828103825283818151815260200191508051906020019080838360005b838110156103e95780820151818401526020810190506103ce565b50505050905090810190601f1680156104165780820380516001836020036101000a031916815260200191505b509250505060405180910390f35b34801561043057600080fd5b506104c86004803603608081101561044757600080fd5b810190808035906020019064010000000081111561046457600080fd5b82018360208201111561047657600080fd5b8035906020019184600183028401116401000000008311171561049857600080fd5b909192939192939080351515906020019092919080359060200190929190803590602001909291905050506107c6565b005b3480156104d657600080fd5b506104df6108ed565b005b60335481565b60006104f1610900565b905090565b60006105006104e7565b73ffffffffffffffffffffffffffffffffffffffff163373ffffffffffffffffffffffffffffffffffffffff161415156105c8576040517f08c379a00000000000000000000000000000000000000000000000000000000081526004018080602001828103825260268152602001807f47534e426f756e636572426173653a2063616c6c6572206973206e6f7420526581526020017f6c6179487562000000000000000000000000000000000000000000000000000081525060400191505060405180910390fd5b61061583838080601f016020809104026020016040519081016040528093929190818152602001838380828437600081840152601f19601f82011690508083019250505050505050610931565b905092915050565b600060019054906101000a900460ff168061063c575061063b610938565b5b8061065357506000809054906101000a900460ff16155b15156106ed576040517f08c379a000000000000000000000000000000000000000000000000000000000815260040180806020018281038252602e8152602001807f436f6e747261637420696e7374616e63652068617320616c726561647920626581526020017f656e20696e697469616c697a656400000000000000000000000000000000000081525060400191505060405180910390fd5b60008060019054906101000a900460ff16159050801561073d576001600060016101000a81548160ff02191690831515021790555060016000806101000a81548160ff0219169083151502179055505b61074561094f565b80156107665760008060016101000a81548160ff0219169083151502179055505b50565b60006060610775610ab0565b915091509b509b9950505050505050505050565b60606040805190810160405280600581526020017f312e302e30000000000000000000000000000000000000000000000000000000815250905090565b6107ce6104e7565b73ffffffffffffffffffffffffffffffffffffffff163373ffffffffffffffffffffffffffffffffffffffff16141515610896576040517f08c379a00000000000000000000000000000000000000000000000000000000081526004018080602001828103825260268152602001807f47534e426f756e636572426173653a2063616c6c6572206973206e6f7420526581526020017f6c6179487562000000000000000000000000000000000000000000000000000081525060400191505060405180910390fd5b6108e685858080601f016020809104026020016040519081016040528093929190818152602001838380828437600081840152601f19601f82011690508083019250505050505050848484610ad5565b5050505050565b6001603360008282540192505081905550565b6000807f06b7792c761dcc05af1761f0315ce8b01ac39c16cc934eb0b2f7a8e71414f2626001029050805491505090565b6000919050565b6000803090506000813b9050600081149250505090565b600060019054906101000a900460ff168061096e575061096d610938565b5b8061098557506000809054906101000a900460ff16155b1515610a1f576040517f08c379a000000000000000000000000000000000000000000000000000000000815260040180806020018281038252602e8152602001807f436f6e747261637420696e7374616e63652068617320616c726561647920626581526020017f656e20696e697469616c697a656400000000000000000000000000000000000081525060400191505060405180910390fd5b60008060019054906101000a900460ff161590508015610a6f576001600060016101000a81548160ff02191690831515021790555060016000806101000a81548160ff0219169083151502179055505b610a8c732eda8d1a61824dfa812c4bd139081b9bcb972a6d610adb565b8015610aad5760008060016101000a81548160ff0219169083151502179055505b50565b60006060610acd6020604051908101604052806000815250610d06565b915091509091565b50505050565b6000610ae5610900565b9050600073ffffffffffffffffffffffffffffffffffffffff168273ffffffffffffffffffffffffffffffffffffffff1614151515610bb2576040517f08c379a000000000000000000000000000000000000000000000000000000000815260040180806020018281038252602c8152602001807f47534e436f6e746578743a206e65772052656c6179487562206973207468652081526020017f7a65726f2061646472657373000000000000000000000000000000000000000081525060400191505060405180910390fd5b8073ffffffffffffffffffffffffffffffffffffffff168273ffffffffffffffffffffffffffffffffffffffff1614151515610c7c576040517f08c379a000000000000000000000000000000000000000000000000000000000815260040180806020018281038252602b8152602001807f47534e436f6e746578743a206e65772052656c6179487562206973207468652081526020017f63757272656e74206f6e6500000000000000000000000000000000000000000081525060400191505060405180910390fd5b8173ffffffffffffffffffffffffffffffffffffffff168173ffffffffffffffffffffffffffffffffffffffff167fb9f84b8e65164b14439ae3620df0a4d8786d896996c0282b683f9d8c08f046e860405160405180910390a360007f06b7792c761dcc05af1761f0315ce8b01ac39c16cc934eb0b2f7a8e71414f2626001029050828155505050565b600060606000839150915091509156fea165627a7a72305820db2e7ac81022cf07faa01dfc4f3b745d248d437744ae0cbe2d10b20559842c330029",
  "source": "// contracts/CounterELA.sol\npragma solidity ^0.5.0;\n\nimport \"./GSNRecipientELA.sol\";\n\ncontract CounterELA is GSNRecipientELA {\n    uint256 public value;\n\n    function increase() public {\n        value += 1;\n    }\n\n    function acceptRelayedCall(\n        address relay,\n        address from,\n        bytes calldata encodedFunction,\n        uint256 transactionFee,\n        uint256 gasPrice,\n        uint256 gasLimit,\n        uint256 nonce,\n        bytes calldata approvalData,\n        uint256 maxPossibleCharge\n    ) external view returns (uint256, bytes memory) {\n        return _approveRelayedCall();\n    }\n\n    // We won't do any pre or post processing, so leave _preRelayedCall and _postRelayedCall empty\n    function _preRelayedCall(bytes memory context) internal returns (bytes32) {\n    }\n\n    function _postRelayedCall(bytes memory context, bool, uint256 actualCharge, bytes32) internal {\n    }\n}\n",
  "sourcePath": "/Users/clarencel/workspace/elastosjs/truffle-migrate/contracts/CounterELA.sol",
  "compiler": {
    "name": "solc",
    "version": "0.5.0+commit.1d4f565a.Emscripten.clang"
  },
  "schemaVersion": "3.0.23",
  "updatedAt": "2020-03-31T05:52:52.299Z",
  "networkType": "ethereum",
  "devdoc": {
    "methods": {
      "postRelayedCall(bytes,bool,uint256,bytes32)": {
        "details": "See `IRelayRecipient.postRelayedCall`.     * This function should not be overriden directly, use `_postRelayedCall` instead.     * * Requirements:     * - the caller must be the `RelayHub` contract."
      },
      "preRelayedCall(bytes)": {
        "details": "See `IRelayRecipient.preRelayedCall`.     * This function should not be overriden directly, use `_preRelayedCall` instead.     * * Requirements:     * - the caller must be the `RelayHub` contract."
      }
    }
  },
  "userdoc": {
    "methods": {}
  }
}