{
  "fileName": "ELAJSStore.sol",
  "contractName": "ELAJSStore",
  "source": "pragma solidity ^0.5.0;\npragma experimental ABIEncoderV2;\n\nimport \"sol-datastructs/src/contracts/PolymorphicDictionaryLib.sol\";\n\n// import \"sol-datastructs/src/contracts/Bytes32DictionaryLib.sol\";\nimport \"sol-datastructs/src/contracts/Bytes32SetDictionaryLib.sol\";\n\n// import \"./oz/EnumerableSetDictionary.sol\";\n\nimport \"sol-sql/src/contracts/src/structs/TableLib.sol\";\n\nimport \"./ozEla/OwnableELA.sol\";\nimport \"./gsnEla/GSNRecipientELA.sol\";\nimport \"./gsnEla/IRelayHubELA.sol\";\n\n// TODO: move schema methods to another contract, we're hitting limits for this\n// TODO: good practice to have functions not callable externally and internally\ncontract ELAJSStore is OwnableELA, GSNRecipientELA {\n\n    uint constant DAY_IN_SECONDS = 86400;\n\n    // TODO: have a dynamic mode to only use Events -> https://thegraph.com\n    // bool public useEvents = false;\n\n    // This counts the number of times this contract was called via GSN (expended owner gas) for rate limiting\n    // mapping is a keccak256('YYYY-MM-DD') => uint (TODO: we can probably compress this by week (4 bytes per day -> 28 bytes)\n    mapping(uint256 => uint256) public gsnCounter;\n\n    // Max times we allow this to be called per day\n    uint40 public gsnMaxCallsPerDay;\n\n    using PolymorphicDictionaryLib for PolymorphicDictionaryLib.PolymorphicDictionary;\n    using Bytes32SetDictionaryLib for Bytes32SetDictionaryLib.Bytes32SetDictionary;\n\n    // _table = system table (bytes32 Dict) of each table's metadata marshaled\n    // 8 bits - permissions (00 = system, 01 = private, 10 = public, 11 = shared - owner can always edit)\n    // 20 bytes - address delegate - other address allowed to edit\n    mapping(bytes32 => bytes32) internal _table;\n\n    // table = dict, where the key is the table, and the value is a set of byte32 ids\n    Bytes32SetDictionaryLib.Bytes32SetDictionary internal tableId;\n\n    // Schema dictionary, key (schemasPublicTables) points to a set of table names\n    using TableLib for TableLib.Table;\n    using TableLib for bytes;\n    // using ColumnLib for ColumnLib.Column;\n    // using ColumnLib for bytes;\n\n    // schemaTables -> Set of tables (raw table name values) for enumeration\n    bytes32 constant public schemasTables = 0x736368656d61732e7075626c69632e7461626c65730000000000000000000000;\n\n    // namehash([tableName]) => encoded table schema\n    // ownership of each row (id) - key = namehash([id].[table]) which has a value that is the owner's address\n    // ultimately namehash([field].[id].[table]) gives us a bytes32 which maps to the single data value\n    PolymorphicDictionaryLib.PolymorphicDictionary internal database;\n\n\n    // ************************************* SETUP FUNCTIONS *************************************\n    function initialize(address relayHubAddr) public initializer {\n        OwnableELA.initialize(msg.sender);\n        GSNRecipientELA.initialize(relayHubAddr);\n        _initialize();\n    }\n\n    function _initialize() internal {\n        gsnMaxCallsPerDay = uint40(1000);\n\n        // init the key for schemasTables, our set is one-to-many-fixed, so table names must be max 32 bytes\n        database.addKey(schemasTables, PolymorphicDictionaryLib.DictionaryType.OneToManyFixed);\n    }\n\n    // ************************************* SCHEMA FUNCTIONS *************************************\n    /**\n     * @dev create a new table, only the owner may create this\n     *\n     * @param tableName right padded zeroes (Web3.utils.stringToHex)\n     * @param tableKey this is the namehash of tableName\n     */\n    function createTable(\n        bytes32 tableName,\n        bytes32 tableKey,\n        uint8 permission,\n        bytes32[] memory columnName,\n        bytes32[] memory columnDtype\n\n    ) public onlyOwner {\n\n        // this only works if tableName is trimmed of padding zeroes, since this is an onlyOwner call we won't bother\n        // require(isNamehashSubOf(keccak256(tableNameBytes), bytes32(0), tableKey), \"tableName does not match tableKey\");\n\n        // check if table exists\n        require(_table[tableKey] == 0, \"Table already exists\");\n\n        address delegate = address(0x0);\n\n        // claim the key slot and set the metadata\n        setTableMetadata(tableKey, permission, delegate);\n\n        database.addValueForKey(schemasTables, tableName);\n\n        // table stores the row ids set as the value, set up the key\n        tableId.addKey(tableKey);\n\n        // now insert the schema\n        saveSchema(tableName, tableKey, columnName, columnDtype);\n    }\n\n    // TODO: this isn't complete\n    function deleteTable(\n        bytes32 tableName,\n        bytes32 tableKey\n    ) public onlyOwner {\n        _table[tableKey] = 0;\n        database.removeValueForKey(schemasTables, tableName);\n        tableId.removeKey(tableKey);\n    }\n\n    function getTables() external view returns (bytes32[] memory){\n        return database.enumerateForKeyOneToManyFixed(schemasTables);\n    }\n\n    /*\n    function tableExists(bytes32 tableKey) public view returns (bool) {\n        return tableId.containsKey(tableKey);\n    }\n    */\n\n    function saveSchema(\n        bytes32 tableName,\n        bytes32 tableKey,\n        bytes32[] memory columnName,\n        bytes32[] memory columnDtype\n\n    ) public onlyOwner returns (bool) {\n\n        TableLib.Table memory tableSchema = TableLib.create(\n            tableName,\n            columnName,\n            columnDtype\n        );\n\n        bytes memory encoded = tableSchema.encode();\n\n        // we store the encoded table schema on the base tableKey\n        return database.setValueForKey(tableKey, encoded);\n    }\n\n    // EXPERIMENTAL\n    function getSchema(bytes32 _name) public view returns (TableLib.Table memory) {\n        bytes memory encoded = database.getBytesForKey(_name);\n        return encoded.decodeTable();\n    }\n\n    // ************************************* CRUD FUNCTIONS *************************************\n\n    /**\n     * @dev Table level permission checks\n     */\n    modifier insertCheck(bytes32 tableKey) {\n\n        (uint256 permission, address delegate) = getTableMetadata(tableKey);\n\n        // if permission = 0, system table we can't do anything\n        require(permission > 0, \"Cannot INSERT into system table\");\n\n        // if permission = 1, we must be the owner/delegate\n        require(permission > 1 || isOwner() == true || delegate == _msgSender(), \"Only owner/delegate can INSERT into this table\");\n\n        _;\n    }\n\n\n    /**\n     * Primarily exists to assist in query WHERE searches, therefore we\n     * want the index to exist on the value and table, filtering on owner\n     * is important for performance\n     */\n    event InsertVal (\n        bytes32 indexed tableKey,\n        bytes32 indexed fieldKey,\n        bytes32 indexed val,\n\n        bytes32 id,\n\n        address owner\n    );\n\n\n    /**\n     * @dev Prior to insert, we check the permissions and autoIncrement\n     * TODO: use the schema and determine the proper type of data to insert\n     *\n     * @param tableKey the namehashed [table] name string\n     * @param idKey the sha3 hashed idKey\n     * @param id as the raw string (unhashed)\n     */\n    function insertVal(\n\n        bytes32 tableKey,\n        bytes32 idKey,\n        bytes32 fieldKey,\n\n        bytes32 id,\n        bytes32 val)\n\n    public insertCheck(tableKey){\n\n        bytes32 idTableKey = namehash(idKey, tableKey);\n        bytes32 fieldIdTableKey = namehash(fieldKey, idTableKey);\n\n        require(database.containsKey(fieldIdTableKey) == false, \"id+field already exists\");\n\n        // increment counter\n        increaseGsnCounter();\n\n        // add an id entry to the table's set of ids for the row (this is a set so we don't need to check first)\n        // TODO: should we check the id/row ownership?\n        tableId.addValueForKey(tableKey, id);\n\n        // add the \"row owner\" if it doesn't exist, the row may already exist in which case we don't update it\n        if (database.containsKey(idTableKey) == false){\n            _setRowOwner(idTableKey, id, tableKey);\n        }\n\n        // finally set the data\n        // we won't serialize the type, that's way too much redundant data\n        database.setValueForKey(fieldIdTableKey, bytes32(val));\n\n        // emit an event to assist in queries\n        emit InsertVal(tableKey, fieldKey, val, id, _msgSender());\n\n    }\n\n    function insertValVar(\n        bytes32 tableKey,\n        bytes32 idKey,\n        bytes32 fieldKey,\n\n        bytes32 id,\n        bytes memory val)\n\n    public insertCheck(tableKey){\n\n        bytes32 idTableKey = namehash(idKey, tableKey);\n        bytes32 fieldIdTableKey = namehash(fieldKey, idTableKey);\n\n        require(database.containsKey(fieldIdTableKey) == false, \"id+field already exists\");\n\n        // increment counter\n        increaseGsnCounter();\n\n        // add an id entry to the table's set of ids for the row\n        tableId.addValueForKey(tableKey, id);\n\n        // add the \"row owner\" if it doesn't exist, the row may already exist in which case we don't update it\n        if (database.containsKey(idTableKey) == false){\n            _setRowOwner(idTableKey, id, tableKey);\n        }\n\n        // finally set the data\n        database.setValueForKey(fieldIdTableKey, val);\n    }\n\n    /**\n     * @dev we are essentially claiming this [id].[table] for the msg.sender, and setting the id createdDate\n     */\n    function _setRowOwner(bytes32 idTableKey, bytes32 id, bytes32 tableKey) internal {\n\n        require(database.containsKey(idTableKey) == false, \"row already has owner\");\n\n        uint256 rowMetadata = uint256(uint32(now));\n\n        rowMetadata |= uint256(_msgSender())<<32;\n\n        database.setValueForKey(idTableKey, bytes32(rowMetadata));\n    }\n\n    /**\n     * Primarily to assist querying all ids belonging to an owner\n     */\n    /*\n    event InsertRow (\n        bytes32 indexed _id,\n        bytes32 indexed _tableKey,\n        address indexed _rowOwner\n    );\n    */\n\n    function getRowOwner(bytes32 idTableKey) external returns (address rowOwner, bytes4 createdDate){\n\n        uint256 rowMetadata = uint256(database.getBytes32ForKey(idTableKey));\n\n        createdDate = bytes4(uint32(rowMetadata));\n        rowOwner = address(rowMetadata>>32);\n\n    }\n\n    function updateCheck(bytes32 tableKey, bytes32 idKey, bytes32 idTableKey, bytes32 id) internal {\n\n        require(tableId.containsValueForKey(tableKey, id) == true, \"id doesn't exist, use INSERT\");\n\n        (uint256 permission, address delegate) = getTableMetadata(tableKey);\n\n        // if permission = 0, system table we can't do anything\n        require(permission > 0, \"Cannot UPDATE system table\");\n\n        // if permission = 1, we must be the owner/delegate\n        require(permission > 1 || isOwner() == true || delegate == _msgSender(), \"Only owner/delegate can UPDATE into this table\");\n\n        // permissions check (public table = 2, shared table = 3),\n        // if 2 or 3 is the _msg.sender() the row owner? But if 3 owner() is always allowed\n        if (permission >= 2) {\n\n            // rowMetaData is packed as address (bytes20) + createdDate (bytes4)\n            bytes32 rowMetaData = database.getBytes32ForKey(idTableKey);\n            address rowOwner = address(uint256(rowMetaData)>>32);\n\n            // if either 2 or 3, if you're the row owner it's fine\n            if (rowOwner == _msgSender()){\n                // pass\n            } else {\n                require(isOwner() == true || delegate == _msgSender(), \"Not rowOwner or owner/delegate for UPDATE into this table\");\n            }\n        }\n    }\n\n    function updateVal(\n\n        bytes32 tableKey,\n        bytes32 idKey,\n        bytes32 fieldKey,\n\n        bytes32 id,\n        bytes32 val)\n\n    public {\n\n        bytes32 idTableKey = namehash(idKey, tableKey);\n        bytes32 fieldIdTableKey = namehash(fieldKey, idTableKey);\n\n        updateCheck(tableKey, idKey, idTableKey, id);\n\n        // increment counter\n        increaseGsnCounter();\n\n        // set data (overwrite)\n        database.setValueForKey(fieldIdTableKey, bytes32(val));\n\n        // emit an event to assist in queries\n        emit InsertVal(tableKey, fieldKey, val, id, _msgSender());\n    }\n\n    function deleteCheck(bytes32 tableKey, bytes32 idTableKey, bytes32 idKey, bytes32 id) internal {\n\n        require(tableId.containsValueForKey(tableKey, id) == true, \"id doesn't exist\");\n\n        (uint256 permission, address delegate) = getTableMetadata(tableKey);\n\n        // if permission = 0, system table we can't do anything\n        require(permission > 0, \"Cannot DELETE from system table\");\n\n        // if permission = 1, we must be the owner/delegate\n        require(permission > 1 || isOwner() == true || delegate == _msgSender(), \"Only owner/delegate can DELETE from this table\");\n\n        // permissions check (public table = 2, shared table = 3),\n        // if 2 or 3 is the _msg.sender() the row owner? But if 3 owner() is always allowed\n        if (permission >= 2) {\n            if (isOwner() || delegate == _msgSender()){\n                // pass\n            } else {\n                // rowMetaData is packed as address (bytes20) + createdDate (bytes4)\n                bytes32 rowMetaData = database.getBytes32ForKey(idTableKey);\n                address rowOwner = address(uint256(rowMetaData)>>32);\n                require(rowOwner == _msgSender(), \"Sender not owner of row\");\n            }\n        }\n    }\n\n    /**\n     * @dev TODO: add modifier checks based on update\n     *\n     * TODO: this needs to properly remove the row when there are multiple ids\n     *\n     */\n    function deleteVal(\n\n        bytes32 tableKey,\n        bytes32 idKey,\n        bytes32 fieldKey,\n\n        bytes32 id\n\n    ) public {\n\n        bytes32 idTableKey = namehash(idKey, tableKey);\n        bytes32 fieldIdTableKey = namehash(fieldKey, idTableKey);\n\n        deleteCheck(tableKey, idTableKey, idKey, id);\n\n        // increment counter\n        increaseGsnCounter();\n\n        // remove the key\n        bool removed = database.removeKey(fieldIdTableKey);\n\n        require(removed == true, \"error removing key\");\n\n        // TODO: zero out the data? Why bother everything is public\n\n        // we can't really pass in enough data to make a loop worthwhile\n        /*\n        uint8 len = uint8(fieldKeys.length);\n        require(fieldKeys.length == fieldIdTableKeys.length, \"fields, id array length mismatch\");\n        for (uint8 i = 0; i < len; i++) {\n\n            // for each row check if the full field + id + table is a subhash\n            // require(isNamehashSubOf(fieldKeys[i], idTableKey, fieldIdTableKeys[i]) == true, \"fieldKey not a subhash [field].[id].[table]\");\n\n            // zero out the data\n            elajsStore[fieldIdTableKeys[i]] = bytes32(0);\n        }\n        */\n    }\n\n    // TODO: improve this, we don't want to cause data consistency if the client doesn't call this\n    // Right now we manually call this, but ideally we iterate over all the data and delete each column\n    // but this would require decoding and having all the field names\n    function deleteRow(\n\n        bytes32 tableKey,\n        bytes32 idKey,\n        bytes32 id\n\n    ) public {\n\n        bytes32 idTableKey = namehash(idKey, tableKey);\n\n        deleteCheck(tableKey, idTableKey, idKey, id);\n\n        // increment counter\n        increaseGsnCounter();\n\n        // remove the id\n        tableId.removeValueForKey(tableKey, id);\n    }\n\n    /**\n     * @dev Table actual insert call, NOTE this doesn't work on testnet currently due to a stack size issue,\n     *      but it can work with a paid transaction I guess\n     */\n    /*\n    function insert(\n        bytes32 tableKey,\n        bytes32 idTableKey,\n\n        bytes32 idKey,\n        bytes32 id,\n\n        bytes32[] memory fieldKeys,\n        bytes32[] memory fieldIdTableKeys,\n        bytes32[] memory values)\n\n    public insertCheck(tableKey, idKey, idTableKey){\n\n        require(table.containsValueForKey(tableKey, id) == false, \"id already exists\");\n\n        uint len = fieldKeys.length;\n\n        require(fieldKeys.length == fieldIdTableKeys.length == values.length, \"fields, values array length mismatch\");\n\n        // add an id entry to the table's set of ids for the row\n        table.addValueForKey(tableKey, id);\n\n        for (uint i = 0; i < len; i++) {\n\n            // for each row check if the full field + id + table is a subhash\n            require(isNamehashSubOf(fieldKeys[i], idTableKey, fieldIdTableKeys[i]) == true, \"fieldKey not a subhash [field].[id].[table]\");\n\n            elajsStore[fieldIdTableKeys[i]] = bytes32(values[i]);\n        }\n\n    }\n    */\n\n    /*\n    function getAllDataKeys() external view returns (bytes32[] memory) {\n        return database.enumerate();\n    }\n    */\n\n    function checkDataKey(bytes32 key) external view returns (bool) {\n        return database.containsKey(key);\n    }\n\n    /**\n     * @dev all data is public, so no need for security checks, we leave the data type handling to the client\n     */\n    function getRowValue(bytes32 fieldIdTableKey) external view returns (bytes32) {\n\n        if (database.containsKey(fieldIdTableKey)) {\n            return database.getBytes32ForKey(fieldIdTableKey);\n        } else {\n            return bytes32(0);\n        }\n    }\n\n    function getRowValueVar(bytes32 fieldIdTableKey) external view returns (bytes memory) {\n\n        if (database.containsKey(fieldIdTableKey)) {\n            return database.getBytesForKey(fieldIdTableKey);\n        } else {\n            return new bytes(0);\n        }\n    }\n\n    /**\n     * @dev Warning this produces an Error: overflow (operation=\"setValue\", fault=\"overflow\", details=\"Number can only safely store up to 53 bits\")\n     *      if the table doesn't exist\n     */\n    function getTableIds(bytes32 tableKey) external view returns (bytes32[] memory){\n\n        require(tableId.containsKey(tableKey) == true, \"table not created\");\n\n        return tableId.enumerateForKey(tableKey);\n    }\n\n    function getIdExists(bytes32 tableKey, bytes32 id) external view returns (bool) {\n        return tableId.containsValueForKey(tableKey, id);\n    }\n\n    /*\n    function isNamehashSubOf(bytes32 subKey, bytes32 base, bytes32 target) internal pure returns (bool) {\n        bytes32 result = namehash(subKey, base);\n        return result == target;\n    }\n    */\n\n    function namehash(bytes32 subKey, bytes32 base) internal pure returns (bytes32) {\n        bytes memory concat = new bytes(64);\n\n        assembly {\n            mstore(add(concat, 64), subKey)\n            mstore(add(concat, 32), base)\n        }\n\n        bytes32 result = keccak256(concat);\n\n        return result;\n    }\n\n    // ************************************* _TABLE FUNCTIONS *************************************\n    function getTableMetadata(bytes32 _tableKey)\n        view\n        public\n        returns (uint256 permission, address delegate)\n    {\n        require(_table[_tableKey] > 0, \"table does not exist\");\n\n        uint256 tableMetadata = uint256(_table[_tableKey]);\n\n        permission = uint256(uint8(tableMetadata));\n        delegate = address(tableMetadata>>8);\n    }\n\n    // TODO: we want to add the schema updated time here, then we can have a reliable schema cache\n    function setTableMetadata(bytes32 _tableKey, uint8 permission, address delegate) private onlyOwner {\n        uint256 tableMetadata;\n\n        tableMetadata |= permission;\n        tableMetadata |= uint160(delegate)<<8;\n\n        _table[_tableKey] = bytes32(tableMetadata);\n    }\n\n    // ************************************* MISC FUNCTIONS *************************************\n\n    function() external payable {}\n\n    // ************************************* GSN FUNCTIONS *************************************\n    /*\n    event AcceptRelayCall (\n        uint256 curCounter,\n        uint40 gsnMaxCallsPerDay\n    );\n    */\n\n    /**\n     * As a first layer of defense we employ a max number of checks per day\n     */\n    function acceptRelayedCall(\n        address relay,\n        address from,\n        bytes calldata encodedFunction,\n        uint256 transactionFee,\n        uint256 gasPrice,\n        uint256 gasLimit,\n        uint256 nonce,\n        bytes calldata approvalData,\n        uint256 maxPossibleCharge\n    ) external view returns (uint256, bytes memory) {\n\n        uint256 curDay = getCurDay();\n        uint256 curCounter = gsnCounter[curDay];\n\n        if (curCounter >= gsnMaxCallsPerDay){\n            return _rejectRelayedCall(11);\n        }\n\n        return _approveRelayedCall();\n    }\n\n    function setGsnMaxCallsPerDay(uint256 max) external onlyOwner {\n        gsnMaxCallsPerDay = uint40(max);\n    }\n\n    /*\n    event GsnCounterIncrease (\n        address indexed _from,\n        bytes4 indexed curDate\n    );\n    */\n\n    /**\n     * Increase the GSN Counter for today\n     */\n    function increaseGsnCounter() internal {\n\n        uint256 curDay = getCurDay();\n        uint256 curCounter = gsnCounter[curDay];\n\n        gsnCounter[curDay] = curCounter + 1;\n\n        // emit GsnCounterIncrease(_msgSender(), bytes4(uint32(curDate)));\n    }\n\n    /*\n     *\n     */\n    function getCurDay() public view returns (uint256) {\n        return uint256(uint(now) / uint(DAY_IN_SECONDS));\n    }\n\n    // We won't do any pre or post processing, so leave _preRelayedCall and _postRelayedCall empty\n    function _preRelayedCall(bytes memory context) internal returns (bytes32) {\n    }\n\n    function _postRelayedCall(bytes memory context, bool, uint256 actualCharge, bytes32) internal {\n    }\n\n    /**\n     * @dev Withdraw a specific amount of the GSNReceipient funds\n     * @param amt Amount of wei to withdraw\n     * @param dest This is the arbitrary withdrawal destination address\n     */\n    function withdraw(uint256 amt, address payable dest) public onlyOwner {\n        IRelayHubELA relayHub = getRelayHub();\n        relayHub.withdraw(amt, dest);\n    }\n\n    /**\n     * @dev Withdraw all the GSNReceipient funds\n     * @param dest This is the arbitrary withdrawal destination address\n     */\n    function withdrawAll(address payable dest) public onlyOwner returns (uint256) {\n        IRelayHubELA relayHub = getRelayHub();\n        uint256 balance = getRelayHub().balanceOf(address(this));\n        relayHub.withdraw(balance, dest);\n        return balance;\n    }\n\n    function getGSNBalance() public view returns (uint256) {\n        return getRelayHub().balanceOf(address(this));\n    }\n\n    function getRelayHub() internal view returns (IRelayHubELA) {\n        return IRelayHubELA(_getRelayHub());\n    }\n}\n",
  "sourcePath": "contracts/ELAJSStore.sol",
  "abi": [
    {
      "constant": true,
      "inputs": [],
      "name": "getCurDay",
      "outputs": [
        {
          "name": "",
          "type": "uint256"
        }
      ],
      "payable": false,
      "stateMutability": "view",
      "type": "function"
    },
    {
      "constant": false,
      "inputs": [
        {
          "name": "amt",
          "type": "uint256"
        },
        {
          "name": "dest",
          "type": "address"
        }
      ],
      "name": "withdraw",
      "outputs": [],
      "payable": false,
      "stateMutability": "nonpayable",
      "type": "function"
    },
    {
      "constant": true,
      "inputs": [],
      "name": "gsnMaxCallsPerDay",
      "outputs": [
        {
          "name": "",
          "type": "uint40"
        }
      ],
      "payable": false,
      "stateMutability": "view",
      "type": "function"
    },
    {
      "constant": true,
      "inputs": [
        {
          "name": "key",
          "type": "bytes32"
        }
      ],
      "name": "checkDataKey",
      "outputs": [
        {
          "name": "",
          "type": "bool"
        }
      ],
      "payable": false,
      "stateMutability": "view",
      "type": "function"
    },
    {
      "constant": true,
      "inputs": [],
      "name": "getTables",
      "outputs": [
        {
          "name": "",
          "type": "bytes32[]"
        }
      ],
      "payable": false,
      "stateMutability": "view",
      "type": "function"
    },
    {
      "constant": false,
      "inputs": [
        {
          "name": "idTableKey",
          "type": "bytes32"
        }
      ],
      "name": "getRowOwner",
      "outputs": [
        {
          "name": "rowOwner",
          "type": "address"
        },
        {
          "name": "createdDate",
          "type": "bytes4"
        }
      ],
      "payable": false,
      "stateMutability": "nonpayable",
      "type": "function"
    },
    {
      "constant": false,
      "inputs": [
        {
          "name": "tableName",
          "type": "bytes32"
        },
        {
          "name": "tableKey",
          "type": "bytes32"
        },
        {
          "name": "permission",
          "type": "uint8"
        },
        {
          "name": "columnName",
          "type": "bytes32[]"
        },
        {
          "name": "columnDtype",
          "type": "bytes32[]"
        }
      ],
      "name": "createTable",
      "outputs": [],
      "payable": false,
      "stateMutability": "nonpayable",
      "type": "function"
    },
    {
      "constant": true,
      "inputs": [],
      "name": "getGSNBalance",
      "outputs": [
        {
          "name": "",
          "type": "uint256"
        }
      ],
      "payable": false,
      "stateMutability": "view",
      "type": "function"
    },
    {
      "constant": false,
      "inputs": [
        {
          "name": "tableKey",
          "type": "bytes32"
        },
        {
          "name": "idKey",
          "type": "bytes32"
        },
        {
          "name": "fieldKey",
          "type": "bytes32"
        },
        {
          "name": "id",
          "type": "bytes32"
        },
        {
          "name": "val",
          "type": "bytes"
        }
      ],
      "name": "insertValVar",
      "outputs": [],
      "payable": false,
      "stateMutability": "nonpayable",
      "type": "function"
    },
    {
      "constant": true,
      "inputs": [],
      "name": "schemasTables",
      "outputs": [
        {
          "name": "",
          "type": "bytes32"
        }
      ],
      "payable": false,
      "stateMutability": "view",
      "type": "function"
    },
    {
      "constant": true,
      "inputs": [
        {
          "name": "fieldIdTableKey",
          "type": "bytes32"
        }
      ],
      "name": "getRowValue",
      "outputs": [
        {
          "name": "",
          "type": "bytes32"
        }
      ],
      "payable": false,
      "stateMutability": "view",
      "type": "function"
    },
    {
      "constant": false,
      "inputs": [],
      "name": "renounceOwnership",
      "outputs": [],
      "payable": false,
      "stateMutability": "nonpayable",
      "type": "function"
    },
    {
      "constant": true,
      "inputs": [],
      "name": "getHubAddr",
      "outputs": [
        {
          "name": "",
          "type": "address"
        }
      ],
      "payable": false,
      "stateMutability": "view",
      "type": "function"
    },
    {
      "constant": false,
      "inputs": [
        {
          "name": "tableName",
          "type": "bytes32"
        },
        {
          "name": "tableKey",
          "type": "bytes32"
        },
        {
          "name": "columnName",
          "type": "bytes32[]"
        },
        {
          "name": "columnDtype",
          "type": "bytes32[]"
        }
      ],
      "name": "saveSchema",
      "outputs": [
        {
          "name": "",
          "type": "bool"
        }
      ],
      "payable": false,
      "stateMutability": "nonpayable",
      "type": "function"
    },
    {
      "constant": false,
      "inputs": [
        {
          "name": "tableKey",
          "type": "bytes32"
        },
        {
          "name": "idKey",
          "type": "bytes32"
        },
        {
          "name": "fieldKey",
          "type": "bytes32"
        },
        {
          "name": "id",
          "type": "bytes32"
        },
        {
          "name": "val",
          "type": "bytes32"
        }
      ],
      "name": "updateVal",
      "outputs": [],
      "payable": false,
      "stateMutability": "nonpayable",
      "type": "function"
    },
    {
      "constant": false,
      "inputs": [
        {
          "name": "context",
          "type": "bytes"
        }
      ],
      "name": "preRelayedCall",
      "outputs": [
        {
          "name": "",
          "type": "bytes32"
        }
      ],
      "payable": false,
      "stateMutability": "nonpayable",
      "type": "function"
    },
    {
      "constant": false,
      "inputs": [
        {
          "name": "tableKey",
          "type": "bytes32"
        },
        {
          "name": "idKey",
          "type": "bytes32"
        },
        {
          "name": "id",
          "type": "bytes32"
        }
      ],
      "name": "deleteRow",
      "outputs": [],
      "payable": false,
      "stateMutability": "nonpayable",
      "type": "function"
    },
    {
      "constant": true,
      "inputs": [
        {
          "name": "relay",
          "type": "address"
        },
        {
          "name": "from",
          "type": "address"
        },
        {
          "name": "encodedFunction",
          "type": "bytes"
        },
        {
          "name": "transactionFee",
          "type": "uint256"
        },
        {
          "name": "gasPrice",
          "type": "uint256"
        },
        {
          "name": "gasLimit",
          "type": "uint256"
        },
        {
          "name": "nonce",
          "type": "uint256"
        },
        {
          "name": "approvalData",
          "type": "bytes"
        },
        {
          "name": "maxPossibleCharge",
          "type": "uint256"
        }
      ],
      "name": "acceptRelayedCall",
      "outputs": [
        {
          "name": "",
          "type": "uint256"
        },
        {
          "name": "",
          "type": "bytes"
        }
      ],
      "payable": false,
      "stateMutability": "view",
      "type": "function"
    },
    {
      "constant": false,
      "inputs": [
        {
          "name": "tableKey",
          "type": "bytes32"
        },
        {
          "name": "idKey",
          "type": "bytes32"
        },
        {
          "name": "fieldKey",
          "type": "bytes32"
        },
        {
          "name": "id",
          "type": "bytes32"
        }
      ],
      "name": "deleteVal",
      "outputs": [],
      "payable": false,
      "stateMutability": "nonpayable",
      "type": "function"
    },
    {
      "constant": true,
      "inputs": [],
      "name": "owner",
      "outputs": [
        {
          "name": "",
          "type": "address"
        }
      ],
      "payable": false,
      "stateMutability": "view",
      "type": "function"
    },
    {
      "constant": true,
      "inputs": [],
      "name": "isOwner",
      "outputs": [
        {
          "name": "",
          "type": "bool"
        }
      ],
      "payable": false,
      "stateMutability": "view",
      "type": "function"
    },
    {
      "constant": true,
      "inputs": [
        {
          "name": "_name",
          "type": "bytes32"
        }
      ],
      "name": "getSchema",
      "outputs": [
        {
          "components": [
            {
              "name": "name",
              "type": "bytes32"
            },
            {
              "components": [
                {
                  "name": "name",
                  "type": "bytes32"
                },
                {
                  "name": "_dtype",
                  "type": "bytes32"
                }
              ],
              "name": "columns",
              "type": "tuple[]"
            }
          ],
          "name": "",
          "type": "tuple"
        }
      ],
      "payable": false,
      "stateMutability": "view",
      "type": "function"
    },
    {
      "constant": true,
      "inputs": [
        {
          "name": "",
          "type": "uint256"
        }
      ],
      "name": "gsnCounter",
      "outputs": [
        {
          "name": "",
          "type": "uint256"
        }
      ],
      "payable": false,
      "stateMutability": "view",
      "type": "function"
    },
    {
      "constant": true,
      "inputs": [],
      "name": "relayHubVersion",
      "outputs": [
        {
          "name": "",
          "type": "string"
        }
      ],
      "payable": false,
      "stateMutability": "view",
      "type": "function"
    },
    {
      "constant": false,
      "inputs": [
        {
          "name": "tableKey",
          "type": "bytes32"
        },
        {
          "name": "idKey",
          "type": "bytes32"
        },
        {
          "name": "fieldKey",
          "type": "bytes32"
        },
        {
          "name": "id",
          "type": "bytes32"
        },
        {
          "name": "val",
          "type": "bytes32"
        }
      ],
      "name": "insertVal",
      "outputs": [],
      "payable": false,
      "stateMutability": "nonpayable",
      "type": "function"
    },
    {
      "constant": false,
      "inputs": [
        {
          "name": "max",
          "type": "uint256"
        }
      ],
      "name": "setGsnMaxCallsPerDay",
      "outputs": [],
      "payable": false,
      "stateMutability": "nonpayable",
      "type": "function"
    },
    {
      "constant": true,
      "inputs": [
        {
          "name": "tableKey",
          "type": "bytes32"
        }
      ],
      "name": "getTableIds",
      "outputs": [
        {
          "name": "",
          "type": "bytes32[]"
        }
      ],
      "payable": false,
      "stateMutability": "view",
      "type": "function"
    },
    {
      "constant": false,
      "inputs": [
        {
          "name": "relayHubAddr",
          "type": "address"
        }
      ],
      "name": "initialize",
      "outputs": [],
      "payable": false,
      "stateMutability": "nonpayable",
      "type": "function"
    },
    {
      "constant": true,
      "inputs": [
        {
          "name": "_tableKey",
          "type": "bytes32"
        }
      ],
      "name": "getTableMetadata",
      "outputs": [
        {
          "name": "permission",
          "type": "uint256"
        },
        {
          "name": "delegate",
          "type": "address"
        }
      ],
      "payable": false,
      "stateMutability": "view",
      "type": "function"
    },
    {
      "constant": false,
      "inputs": [
        {
          "name": "context",
          "type": "bytes"
        },
        {
          "name": "success",
          "type": "bool"
        },
        {
          "name": "actualCharge",
          "type": "uint256"
        },
        {
          "name": "preRetVal",
          "type": "bytes32"
        }
      ],
      "name": "postRelayedCall",
      "outputs": [],
      "payable": false,
      "stateMutability": "nonpayable",
      "type": "function"
    },
    {
      "constant": true,
      "inputs": [
        {
          "name": "fieldIdTableKey",
          "type": "bytes32"
        }
      ],
      "name": "getRowValueVar",
      "outputs": [
        {
          "name": "",
          "type": "bytes"
        }
      ],
      "payable": false,
      "stateMutability": "view",
      "type": "function"
    },
    {
      "constant": false,
      "inputs": [
        {
          "name": "tableName",
          "type": "bytes32"
        },
        {
          "name": "tableKey",
          "type": "bytes32"
        }
      ],
      "name": "deleteTable",
      "outputs": [],
      "payable": false,
      "stateMutability": "nonpayable",
      "type": "function"
    },
    {
      "constant": true,
      "inputs": [
        {
          "name": "tableKey",
          "type": "bytes32"
        },
        {
          "name": "id",
          "type": "bytes32"
        }
      ],
      "name": "getIdExists",
      "outputs": [
        {
          "name": "",
          "type": "bool"
        }
      ],
      "payable": false,
      "stateMutability": "view",
      "type": "function"
    },
    {
      "constant": false,
      "inputs": [
        {
          "name": "newOwner",
          "type": "address"
        }
      ],
      "name": "transferOwnership",
      "outputs": [],
      "payable": false,
      "stateMutability": "nonpayable",
      "type": "function"
    },
    {
      "constant": false,
      "inputs": [
        {
          "name": "dest",
          "type": "address"
        }
      ],
      "name": "withdrawAll",
      "outputs": [
        {
          "name": "",
          "type": "uint256"
        }
      ],
      "payable": false,
      "stateMutability": "nonpayable",
      "type": "function"
    },
    {
      "payable": true,
      "stateMutability": "payable",
      "type": "fallback"
    },
    {
      "anonymous": false,
      "inputs": [
        {
          "indexed": true,
          "name": "tableKey",
          "type": "bytes32"
        },
        {
          "indexed": true,
          "name": "fieldKey",
          "type": "bytes32"
        },
        {
          "indexed": true,
          "name": "val",
          "type": "bytes32"
        },
        {
          "indexed": false,
          "name": "id",
          "type": "bytes32"
        },
        {
          "indexed": false,
          "name": "owner",
          "type": "address"
        }
      ],
      "name": "InsertVal",
      "type": "event"
    },
    {
      "anonymous": false,
      "inputs": [
        {
          "indexed": true,
          "name": "oldRelayHub",
          "type": "address"
        },
        {
          "indexed": true,
          "name": "newRelayHub",
          "type": "address"
        }
      ],
      "name": "RelayHubChanged",
      "type": "event"
    },
    {
      "anonymous": false,
      "inputs": [
        {
          "indexed": true,
          "name": "previousOwner",
          "type": "address"
        },
        {
          "indexed": true,
          "name": "newOwner",
          "type": "address"
        }
      ],
      "name": "OwnershipTransferred",
      "type": "event"
    }
  ],
  "bytecode": "0x6080604052613c27806100136000396000f3fe60806040526004361061019b5763ffffffff60e060020a600035041662a7a56e811461019d578062f714ce146101c857806301ee810a146101e85780631fd6dda51461020a57806328343c3414610237578063287e724614610259578063365628a2146102875780633c2e8599146102a75780633ffe300e146102bc5780634102fbf6146102dc5780636729003c146102f1578063715018a61461031157806374e861d6146103265780637af9c663146103485780637e03a8241461036857806380274db7146103885780638175d7eb146103a857806383947ea0146103c85780638d3178cc146103f65780638da5cb5b146104165780638f32d59b1461042b578063a2ea7c6e14610440578063aba99fc91461046d578063ad61ccd51461048d578063b467949b146104af578063bc41c3dd146104cf578063c2309bf9146104ef578063c4d66de81461050f578063d887f1051461052f578063e06e0e221461055d578063e3c504e41461057d578063ed90cb371461059d578063f201fe2a146105bd578063f2fde38b146105dd578063fa09e630146105fd575b005b3480156101a957600080fd5b506101b261061d565b6040516101bf9190613886565b60405180910390f35b3480156101d457600080fd5b5061019b6101e336600461302c565b610627565b3480156101f457600080fd5b506101fd6106e2565b6040516101bf9190613aa1565b34801561021657600080fd5b5061022a610225366004612c44565b6106ef565b6040516101bf9190613878565b34801561024357600080fd5b5061024c61070a565b6040516101bf9190613867565b34801561026557600080fd5b50610279610274366004612c44565b610730565b6040516101bf92919061384c565b34801561029357600080fd5b5061019b6102a2366004612ec4565b61075e565b3480156102b357600080fd5b506101b2610802565b3480156102c857600080fd5b5061019b6102d7366004612e44565b61088a565b3480156102e857600080fd5b506101b26109c4565b3480156102fd57600080fd5b506101b261030c366004612c44565b6109d6565b34801561031d57600080fd5b5061019b610a0e565b34801561033257600080fd5b5061033b610a8e565b6040516101bf9190613830565b34801561035457600080fd5b5061022a610363366004612c9c565b610a98565b34801561037457600080fd5b5061019b610383366004612dcf565b610b02565b34801561039457600080fd5b506101b26103a3366004612f5c565b610b91565b3480156103b457600080fd5b5061019b6103c3366004612d2d565b610c0d565b3480156103d457600080fd5b506103e86103e3366004612b46565b610c48565b6040516101bf929190613a81565b34801561040257600080fd5b5061019b610411366004612d7a565b610cad565b34801561042257600080fd5b5061033b610d17565b34801561043757600080fd5b5061022a610d26565b34801561044c57600080fd5b5061046061045b366004612c44565b610d4c565b6040516101bf9190613a70565b34801561047957600080fd5b506101b2610488366004612c44565b610d79565b34801561049957600080fd5b506104a2610d8b565b6040516101bf91906138af565b3480156104bb57600080fd5b5061019b6104ca366004612dcf565b610dc2565b3480156104db57600080fd5b5061019b6104ea366004612c44565b610f3f565b3480156104fb57600080fd5b5061024c61050a366004612c44565b610f86565b34801561051b57600080fd5b5061019b61052a366004612b28565b610fce565b34801561053b57600080fd5b5061054f61054a366004612c44565b611071565b6040516101bf929190613894565b34801561056957600080fd5b5061019b610578366004612f9e565b6110c2565b34801561058957600080fd5b506104a2610598366004612c44565b611138565b3480156105a957600080fd5b5061019b6105b8366004612c62565b611176565b3480156105c957600080fd5b5061022a6105d8366004612c62565b6111e5565b3480156105e957600080fd5b5061019b6105f8366004612b28565b6111f9565b34801561060957600080fd5b506101b2610618366004612b28565b61122e565b6201518042045b90565b61062f610d26565b15156106595760405160e560020a62461bcd028152600401610650906139a0565b60405180910390fd5b6000610663610a8e565b6040517ef714ce000000000000000000000000000000000000000000000000000000008152909150600160a060020a0382169062f714ce906106ab9086908690600401613894565b600060405180830381600087803b1580156106c557600080fd5b505af11580156106d9573d6000803e3d6000fd5b50505050505050565b60675464ffffffffff1681565b6000610702606c8363ffffffff61136f16565b90505b919050565b606061072b606c600080516020613bce83398151915263ffffffff6113cc16565b905090565b60008080610745606c8563ffffffff6113e116565b64010000000081049560e060020a909102945092505050565b610766610d26565b15156107875760405160e560020a62461bcd028152600401610650906139a0565b600084815260686020526040902054156107b65760405160e560020a62461bcd02815260040161065090613a00565b60006107c38585836113f3565b6107e3606c600080516020613bce8339815191528863ffffffff61144716565b506107f560698663ffffffff6114fb16565b506106d986868585610a98565b600061080c610a8e565b600160a060020a03166370a08231306040518263ffffffff1660e060020a02815260040161083a919061383e565b60206040518083038186803b15801561085257600080fd5b505afa158015610866573d6000803e3d6000fd5b505050506040513d601f19601f8201168201806040525061072b919081019061300e565b8460008061089783611071565b9092509050600082116108bf5760405160e560020a62461bcd02815260040161065090613910565b60018211806108d757506108d1610d26565b15156001145b806108fa57506108e5611510565b600160a060020a031681600160a060020a0316145b151561091b5760405160e560020a62461bcd02815260040161065090613980565b6000610927888a61153f565b90506000610935888361153f565b9050610948606c8263ffffffff61136f16565b156109685760405160e560020a62461bcd028152600401610650906139c0565b610970611577565b61098260698b8963ffffffff61159916565b50610994606c8363ffffffff61136f16565b15156109a5576109a582888c6115d7565b6109b7606c828863ffffffff61163616565b5050505050505050505050565b600080516020613bce83398151915281565b60006109e9606c8363ffffffff61136f16565b15610a06576109ff606c8363ffffffff6113e116565b9050610705565b506000610705565b610a16610d26565b1515610a375760405160e560020a62461bcd028152600401610650906139a0565b603354604051600091600160a060020a0316907f8be0079c531659141344cd1fd0a4f28419497f9722a3daafe3b4186f6b6457e0908390a36033805473ffffffffffffffffffffffffffffffffffffffff19169055565b600061072b6116e2565b6000610aa2610d26565b1515610ac35760405160e560020a62461bcd028152600401610650906139a0565b610acb6128d5565b610ad6868585611707565b90506060610ae382611755565b9050610af7606c878363ffffffff61163616565b979650505050505050565b6000610b0e858761153f565b90506000610b1c858361153f565b9050610b2a878784876117e8565b610b32611577565b610b44606c828563ffffffff61195516565b508285887f73f74243127530ba96dc00b266dfa2b8da17d2b0489b55f8f947074436f23b7187610b72611510565b604051610b80929190613894565b60405180910390a450505050505050565b6000610b9b610a8e565b600160a060020a03163314610bc55760405160e560020a62461bcd028152600401610650906138d0565b610c0483838080601f016020809104026020016040519081016040528093929190818152602001838380828437600092019190915250611a0192505050565b90505b92915050565b6000610c19838561153f565b9050610c2784828585611a07565b610c2f611577565b610c416069858463ffffffff611b5c16565b5050505050565b600060606000610c5661061d565b6000818152606660205260409020546067549192509064ffffffffff168110610c8e57610c83600b611b8b565b935093505050610c9d565b610c96611ba3565b9350935050505b9b509b9950505050505050505050565b6000610cb9848661153f565b90506000610cc7848361153f565b9050610cd586838786611a07565b610cdd611577565b6000610cf0606c8363ffffffff611bc816565b90506001811515146106d95760405160e560020a62461bcd02815260040161065090613990565b603354600160a060020a031690565b603354600090600160a060020a0316610d3d611510565b600160a060020a031614905090565b610d546128d5565b6060610d67606c8463ffffffff611c2516565b9050610d7281611c3a565b9392505050565b60666020526000908152604090205481565b60408051808201909152600581527f312e302e30000000000000000000000000000000000000000000000000000000602082015290565b84600080610dcf83611071565b909250905060008211610df75760405160e560020a62461bcd02815260040161065090613910565b6001821180610e0f5750610e09610d26565b15156001145b80610e325750610e1d611510565b600160a060020a031681600160a060020a0316145b1515610e535760405160e560020a62461bcd02815260040161065090613980565b6000610e5f888a61153f565b90506000610e6d888361153f565b9050610e80606c8263ffffffff61136f16565b15610ea05760405160e560020a62461bcd028152600401610650906139c0565b610ea8611577565b610eba60698b8963ffffffff61159916565b50610ecc606c8363ffffffff61136f16565b1515610edd57610edd82888c6115d7565b610eef606c828863ffffffff61195516565b5085888b7f73f74243127530ba96dc00b266dfa2b8da17d2b0489b55f8f947074436f23b718a610f1d611510565b604051610f2b929190613894565b60405180910390a450505050505050505050565b610f47610d26565b1515610f685760405160e560020a62461bcd028152600401610650906139a0565b6067805464ffffffffff191664ffffffffff92909216919091179055565b6060610f9960698363ffffffff611ca016565b1515600114610fbd5760405160e560020a62461bcd02815260040161065090613a20565b61070260698363ffffffff611cb516565b600054610100900460ff1680610fe75750610fe7611cf9565b80610ff5575060005460ff16155b15156110165760405160e560020a62461bcd028152600401610650906139b0565b600054610100900460ff16158015611041576000805460ff1961ff0019909116610100171660011790555b61104a33611cff565b61105382611de3565b61105b611e5f565b801561106d576000805461ff00191690555b5050565b600081815260686020526040812054819081106110a35760405160e560020a62461bcd02815260040161065090613a50565b505060009081526068602052604090205460ff81169161010090910490565b6110ca610a8e565b600160a060020a031633146110f45760405160e560020a62461bcd028152600401610650906138d0565b610c4185858080601f016020809104026020016040519081016040528093929190818152602001838380828437600092019190915250879250869150859050611e92565b606061114b606c8363ffffffff61136f16565b15611161576109ff606c8363ffffffff611c2516565b50604080516000815260208101909152610705565b61117e610d26565b151561119f5760405160e560020a62461bcd028152600401610650906139a0565b6000818152606860205260408120556111ce606c600080516020613bce8339815191528463ffffffff611e9816565b506111e060698263ffffffff611eae16565b505050565b6000610c046069848463ffffffff611eda16565b611201610d26565b15156112225760405160e560020a62461bcd028152600401610650906139a0565b61122b81611f09565b50565b6000611238610d26565b15156112595760405160e560020a62461bcd028152600401610650906139a0565b6000611263610a8e565b9050600061126f610a8e565b600160a060020a03166370a08231306040518263ffffffff1660e060020a02815260040161129d919061383e565b60206040518083038186803b1580156112b557600080fd5b505afa1580156112c9573d6000803e3d6000fd5b505050506040513d601f19601f820116820180604052506112ed919081019061300e565b6040517ef714ce000000000000000000000000000000000000000000000000000000008152909150600160a060020a0383169062f714ce906113359084908890600401613894565b600060405180830381600087803b15801561134f57600080fd5b505af1158015611363573d6000803e3d6000fd5b50929695505050505050565b6000611381838363ffffffff611ca016565b8061139a575061139a600384018363ffffffff611ca016565b806113b357506113b3600684018363ffffffff611ca016565b80610c045750610c04600984018363ffffffff611ca016565b6060610c04600684018363ffffffff611cb516565b6000610c04838363ffffffff611f9d16565b6113fb610d26565b151561141c5760405160e560020a62461bcd028152600401610650906139a0565b600092835260686020526040909220610100600160a060020a039384160290921660ff909116179055565b6000611459848463ffffffff611ca016565b156114795760405160e560020a62461bcd02815260040161065090613940565b61148c600385018463ffffffff611ca016565b156114ac5760405160e560020a62461bcd02815260040161065090613940565b6114bf600985018463ffffffff611ca016565b156114df5760405160e560020a62461bcd02815260040161065090613940565b6114f360068501848463ffffffff61159916565b949350505050565b6000610c04600184018363ffffffff611fde16565b600061151a6116e2565b600160a060020a03163314611530575033610624565b611538612020565b9050610624565b604080518181526060818101835260009290919060208201818038833950505060408101949094525050602082019081529051902090565b600061158161061d565b60009081526066602052604090208054600101905550565b60006115a58484611ca0565b156115cf5760008381526020859052604090206115c8908363ffffffff611fde16565b9050610d72565b506000610d72565b6115e8606c8463ffffffff61136f16565b156116085760405160e560020a62461bcd02815260040161065090613950565b63ffffffff42166020611619611510565b600160a060020a031660029190910a0217610c41606c8583611955565b6000611648848463ffffffff611ca016565b156116685760405160e560020a62461bcd02815260040161065090613940565b61167b600685018463ffffffff611ca016565b1561169b5760405160e560020a62461bcd02815260040161065090613940565b6116ae600985018463ffffffff611ca016565b156116ce5760405160e560020a62461bcd02815260040161065090613940565b6114f360038501848463ffffffff61206d16565b7f06b7792c761dcc05af1761f0315ce8b01ac39c16cc934eb0b2f7a8e71414f2625490565b61170f6128d5565b81518351146117335760405160e560020a62461bcd02815260040161065090613960565b61173b6128d5565b848152611748848461209d565b6020820152949350505050565b606060006117628361217a565b90506060816040519080825280601f01601f191660200182016040528015611791576020820181803883390190505b5084519091506117a890838363ffffffff61219216565b6020840151601f19909201916117c590838363ffffffff61219616565b91508115610d725760405160e560020a62461bcd028152600401610650906138c0565b6117fa6069858363ffffffff611eda16565b151560011461181e5760405160e560020a62461bcd02815260040161065090613a40565b60008061182a86611071565b9092509050600082116118525760405160e560020a62461bcd028152600401610650906138f0565b600182118061186a5750611864610d26565b15156001145b8061188d5750611878611510565b600160a060020a031681600160a060020a0316145b15156118ae5760405160e560020a62461bcd02815260040161065090613930565b6002821061194d5760006118c9606c8663ffffffff6113e116565b905064010000000081046118db611510565b600160a060020a031681600160a060020a031614156118f95761194a565b611901610d26565b1515600114806119295750611914611510565b600160a060020a031683600160a060020a0316145b151561194a5760405160e560020a62461bcd02815260040161065090613970565b50505b505050505050565b600061196a600385018463ffffffff611ca016565b1561198a5760405160e560020a62461bcd02815260040161065090613940565b61199d600685018463ffffffff611ca016565b156119bd5760405160e560020a62461bcd02815260040161065090613940565b6119d0600985018463ffffffff611ca016565b156119f05760405160e560020a62461bcd02815260040161065090613940565b6114f384848463ffffffff61223a16565b50600090565b611a196069858363ffffffff611eda16565b1515600114611a3d5760405160e560020a62461bcd02815260040161065090613a10565b600080611a4986611071565b909250905060008211611a715760405160e560020a62461bcd028152600401610650906138e0565b6001821180611a895750611a83610d26565b15156001145b80611aac5750611a97611510565b600160a060020a031681600160a060020a0316145b1515611acd5760405160e560020a62461bcd028152600401610650906139d0565b6002821061194d57611add610d26565b80611b005750611aeb611510565b600160a060020a031681600160a060020a0316145b15611b0a5761194d565b6000611b1d606c8763ffffffff6113e116565b90506401000000008104611b2f611510565b600160a060020a0382811691161461194a5760405160e560020a62461bcd02815260040161065090613a60565b6000611b688484611ca0565b156115cf5760008381526020859052604090206115c8908363ffffffff61225e16565b604080516020810190915260008152600b9190910191565b60006060611bc06020604051908101604052806000815250612325565b915091509091565b6000611bda838363ffffffff61232a16565b80611bf35750611bf3600384018363ffffffff61235d16565b80611c0c5750611c0c600684018363ffffffff611eae16565b80610c045750610c04600984018363ffffffff611eae16565b6060610c04600384018363ffffffff61239816565b611c426128d5565b8151611c4c6128d5565b611c5c848363ffffffff61246316565b8152601f1990910190611c75848363ffffffff61246816565b602083019190915291508115610d725760405160e560020a62461bcd028152600401610650906138c0565b6000610c04600184018363ffffffff61254916565b6060611cc18383611ca0565b15611ce4576000828152602084905260409020611cdd9061255e565b9050610c07565b50604080516000815260208101909152610c07565b303b1590565b600054610100900460ff1680611d185750611d18611cf9565b80611d26575060005460ff16155b1515611d475760405160e560020a62461bcd028152600401610650906139b0565b600054610100900460ff16158015611d72576000805460ff1961ff0019909116610100171660011790555b6033805473ffffffffffffffffffffffffffffffffffffffff1916600160a060020a0384811691909117918290556040519116906000907f8be0079c531659141344cd1fd0a4f28419497f9722a3daafe3b4186f6b6457e0908290a3801561106d576000805461ff00191690555050565b600054610100900460ff1680611dfc5750611dfc611cf9565b80611e0a575060005460ff16155b1515611e2b5760405160e560020a62461bcd028152600401610650906139b0565b600054610100900460ff16158015611e56576000805460ff1961ff0019909116610100171660011790555b61105b826125e6565b6067805464ffffffffff19166103e817905561122b606c600080516020613bce833981519152600063ffffffff61266216565b50505050565b60006114f360068501848463ffffffff611b5c16565b6000611eba8383611ca0565b15611ed257611cdd600184018363ffffffff61225e16565b506000610c07565b6000611ee68484611ca0565b156115cf5760008381526020859052604090206115c8908363ffffffff61254916565b600160a060020a0381161515611f345760405160e560020a62461bcd02815260040161065090613900565b603354604051600160a060020a038084169216907f8be0079c531659141344cd1fd0a4f28419497f9722a3daafe3b4186f6b6457e090600090a36033805473ffffffffffffffffffffffffffffffffffffffff1916600160a060020a0392909216919091179055565b6000611fa98383611ca0565b1515611fca5760405160e560020a62461bcd02815260040161065090613a30565b506000908152602091909152604090205490565b6000611fea8383612549565b1515611ed25750600180830180548083018083556000928352602080842090920185905584835290859052604090912055610c07565b600060606000368080601f016020809104026020016040519081016040528093929190818152602001838380828437600092019190915250505050360151600160a060020a031692915050565b60008281526020848152604082208351612089928501906128ed565b506114f3600185018463ffffffff611fde16565b80518251606091146120c45760405160e560020a62461bcd02815260040161065090613960565b6060835160405190808252806020026020018201604052801561210157816020015b6120ee61296b565b8152602001906001900390816120e65790505b50905060005b84518110156121725761211861296b565b858281518110151561212657fe5b602090810290910101518152845185908390811061214057fe5b6020908102909101810151908201528251819084908490811061215f57fe5b6020908102909101015250600101612107565b509392505050565b60006121898260200151612803565b60400192915050565b0152565b6000826121b481846121a788612803565b919063ffffffff61219216565b601f190160005b8551811015612231576121ef828588848151811015156121d757fe5b6020908102909101015151919063ffffffff61219216565b6020820391506122228285888481518110151561220857fe5b60209081029091018101510151919063ffffffff61219216565b601f19909101906001016121bb565b50949350505050565b60008281526020849052604081208290556114f3600185018463ffffffff611fde16565b600061226a8383612549565b15611ed257600082815260208490526040902054600184015460001991820191018082146122e657600085600101828154811015156122a557fe5b906000526020600020015490508086600101848154811015156122c457fe5b6000918252602080832090910192909255918252869052604090206001830190555b60008481526020869052604081205560018501805480151561230457fe5b60019003818190600052602060002001600090559055600192505050610c07565b600091565b60006123368383611ca0565b15611ed257600082815260208490526040812055611cdd600184018363ffffffff61225e16565b60006123698383611ca0565b15611ed257600082815260208490526040812061238591612982565b611cdd600184018363ffffffff61225e16565b60606123a48383611ca0565b15156123c55760405160e560020a62461bcd02815260040161065090613a30565b6000828152602084815260409182902080548351601f6002600019610100600186161502019093169290920491820184900484028101840190945280845290918301828280156124565780601f1061242b57610100808354040283529160200191612456565b820191906000526020600020905b81548152906001019060200180831161243957829003601f168201915b5050505050905092915050565b015190565b60606000828161247e868363ffffffff61246316565b601f1990920191905060006040820490506060816040519080825280602002602001820160405280156124cb57816020015b6124b861296b565b8152602001906001900390816124b05790505b50905060005b82811015612539576124e161296b565b6124f18a8763ffffffff61246316565b8152601f199095019461250a8a8763ffffffff61246316565b60208201528251601f1990960195819084908490811061252657fe5b60209081029091010152506001016124d1565b50945091925050505b9250929050565b60009081526020919091526040902054151590565b6060808260010180549050604051908082528060200260200182016040528015612592578160200160208202803883390190505b50905060005b60018401548110156125df57600184018054829081106125b457fe5b906000526020600020015482828151811015156125cd57fe5b60209081029091010152600101612598565b5092915050565b600054610100900460ff16806125ff57506125ff611cf9565b8061260d575060005460ff16155b151561262e5760405160e560020a62461bcd028152600401610650906139b0565b600054610100900460ff16158015612659576000805460ff1961ff0019909116610100171660011790555b61105b8261280a565b6000600482600381111561267257fe5b60ff16106126955760405160e560020a62461bcd028152600401610650906139f0565b6126a5848463ffffffff611ca016565b156126c55760405160e560020a62461bcd02815260040161065090613940565b6126d8600385018463ffffffff611ca016565b156126f85760405160e560020a62461bcd02815260040161065090613940565b61270b600685018463ffffffff611ca016565b1561272b5760405160e560020a62461bcd02815260040161065090613940565b61273e600985018463ffffffff611ca016565b1561275e5760405160e560020a62461bcd02815260040161065090613940565b81600381111561276a57fe5b1515612783576115c8600685018463ffffffff6114fb16565b81600381111561278f57fe5b600114156127aa576115c8600985018463ffffffff6114fb16565b8160038111156127b657fe5b600214156127d0576115c88484600063ffffffff61223a16565b8160038111156127dc57fe5b60031415610d72576040805160008152602081019091526115c8906003860190859061206d565b5160400290565b60006128146116e2565b9050600160a060020a03821615156128415760405160e560020a62461bcd028152600401610650906139e0565b600160a060020a0382811690821614156128705760405160e560020a62461bcd02815260040161065090613920565b81600160a060020a031681600160a060020a03167fb9f84b8e65164b14439ae3620df0a4d8786d896996c0282b683f9d8c08f046e860405160405180910390a3507f06b7792c761dcc05af1761f0315ce8b01ac39c16cc934eb0b2f7a8e71414f26255565b60408051808201909152600081526060602082015290565b828054600181600116156101000203166002900490600052602060002090601f016020900481019282601f1061292e57805160ff191683800117855561295b565b8280016001018555821561295b579182015b8281111561295b578251825591602001919060010190612940565b506129679291506129c2565b5090565b604080518082019091526000808252602082015290565b50805460018160011615610100020316600290046000825580601f106129a8575061122b565b601f01602090049060005260206000209081019061122b91905b61062491905b8082111561296757600081556001016129c8565b6000610c048235613b29565b6000601f820183136129f957600080fd5b8135612a0c612a0782613ad6565b613aaf565b91508181835260208401935060208101905083856020840282011115612a3157600080fd5b60005b83811015612a5d5781612a478882612a73565b8452506020928301929190910190600101612a34565b5050505092915050565b6000610c048235613b34565b6000610c048235610624565b600080601f83018413612a9157600080fd5b50813567ffffffffffffffff811115612aa957600080fd5b60208301915083600182028301111561254257600080fd5b6000601f82018313612ad257600080fd5b8135612ae0612a0782613af7565b91508082526020830160208301858383011115612afc57600080fd5b612b07838284613b8b565b50505092915050565b6000610c048251610624565b6000610c048235613b74565b600060208284031215612b3a57600080fd5b60006114f384846129dc565b60008060008060008060008060008060006101208c8e031215612b6857600080fd5b6000612b748e8e6129dc565b9b50506020612b858e828f016129dc565b9a505060408c013567ffffffffffffffff811115612ba257600080fd5b612bae8e828f01612a7f565b99509950506060612bc18e828f01612a73565b9750506080612bd28e828f01612a73565b96505060a0612be38e828f01612a73565b95505060c0612bf48e828f01612a73565b94505060e08c013567ffffffffffffffff811115612c1157600080fd5b612c1d8e828f01612a7f565b9350935050610100612c318e828f01612a73565b9150509295989b509295989b9093969950565b600060208284031215612c5657600080fd5b60006114f38484612a73565b60008060408385031215612c7557600080fd5b6000612c818585612a73565b9250506020612c9285828601612a73565b9150509250929050565b60008060008060808587031215612cb257600080fd5b6000612cbe8787612a73565b9450506020612ccf87828801612a73565b935050604085013567ffffffffffffffff811115612cec57600080fd5b612cf8878288016129e8565b925050606085013567ffffffffffffffff811115612d1557600080fd5b612d21878288016129e8565b91505092959194509250565b600080600060608486031215612d4257600080fd5b6000612d4e8686612a73565b9350506020612d5f86828701612a73565b9250506040612d7086828701612a73565b9150509250925092565b60008060008060808587031215612d9057600080fd5b6000612d9c8787612a73565b9450506020612dad87828801612a73565b9350506040612dbe87828801612a73565b9250506060612d2187828801612a73565b600080600080600060a08688031215612de757600080fd5b6000612df38888612a73565b9550506020612e0488828901612a73565b9450506040612e1588828901612a73565b9350506060612e2688828901612a73565b9250506080612e3788828901612a73565b9150509295509295909350565b600080600080600060a08688031215612e5c57600080fd5b6000612e688888612a73565b9550506020612e7988828901612a73565b9450506040612e8a88828901612a73565b9350506060612e9b88828901612a73565b925050608086013567ffffffffffffffff811115612eb857600080fd5b612e3788828901612ac1565b600080600080600060a08688031215612edc57600080fd5b6000612ee88888612a73565b9550506020612ef988828901612a73565b9450506040612f0a88828901612b1c565b935050606086013567ffffffffffffffff811115612f2757600080fd5b612f33888289016129e8565b925050608086013567ffffffffffffffff811115612f5057600080fd5b612e37888289016129e8565b60008060208385031215612f6f57600080fd5b823567ffffffffffffffff811115612f8657600080fd5b612f9285828601612a7f565b92509250509250929050565b600080600080600060808688031215612fb657600080fd5b853567ffffffffffffffff811115612fcd57600080fd5b612fd988828901612a7f565b95509550506020612fec88828901612a67565b9350506040612ffd88828901612a73565b9250506060612e3788828901612a73565b60006020828403121561302057600080fd5b60006114f38484612b10565b6000806040838503121561303f57600080fd5b600061304b8585612a73565b9250506020612c92858286016129dc565b61306581613b7a565b82525050565b61306581613b29565b600061307f82613b25565b80845260208401935061309183613b1f565b60005b828110156130c1576130a7868351613121565b6130b082613b1f565b602096909601959150600101613094565b5093949350505050565b60006130d682613b25565b8084526020840193506130e883613b1f565b60005b828110156130c1576130fe8683516137ce565b61310782613b1f565b6040969096019591506001016130eb565b61306581613b34565b61306581610624565b61306581613b39565b600061313e82613b25565b808452613152816020860160208601613b97565b61315b81613bc3565b9093016020019392505050565b601c81527f456e636f64696e67204572726f723a206f666673657420213d20302e00000000602082015260400190565b602681527f47534e426f756e636572426173653a2063616c6c6572206973206e6f7420526560208201527f6c61794875620000000000000000000000000000000000000000000000000000604082015260600190565b601f81527f43616e6e6f742044454c4554452066726f6d2073797374656d207461626c6500602082015260400190565b601a81527f43616e6e6f74205550444154452073797374656d207461626c65000000000000602082015260400190565b602681527f4f776e61626c653a206e6577206f776e657220697320746865207a65726f206160208201527f6464726573730000000000000000000000000000000000000000000000000000604082015260600190565b601f81527f43616e6e6f7420494e5345525420696e746f2073797374656d207461626c6500602082015260400190565b602b81527f47534e436f6e746578743a206e65772052656c6179487562206973207468652060208201527f63757272656e74206f6e65000000000000000000000000000000000000000000604082015260600190565b602e81527f4f6e6c79206f776e65722f64656c65676174652063616e20555044415445206960208201527f6e746f2074686973207461626c65000000000000000000000000000000000000604082015260600190565b60208082527f4572726f723a206b65792065786973747320696e206f7468657220646963742e9082015260400190565b601581527f726f7720616c726561647920686173206f776e65720000000000000000000000602082015260400190565b601081527f4572726f7220616c69676e6d656e742e00000000000000000000000000000000602082015260400190565b603981527f4e6f7420726f774f776e6572206f72206f776e65722f64656c6567617465206660208201527f6f722055504441544520696e746f2074686973207461626c6500000000000000604082015260600190565b602e81527f4f6e6c79206f776e65722f64656c65676174652063616e20494e53455254206960208201527f6e746f2074686973207461626c65000000000000000000000000000000000000604082015260600190565b601281527f6572726f722072656d6f76696e67206b65790000000000000000000000000000602082015260400190565b60208082527f4f776e61626c653a2063616c6c6572206973206e6f7420746865206f776e65729082015260400190565b602e81527f436f6e747261637420696e7374616e63652068617320616c726561647920626560208201527f656e20696e697469616c697a6564000000000000000000000000000000000000604082015260600190565b601781527f69642b6669656c6420616c726561647920657869737473000000000000000000602082015260400190565b602e81527f4f6e6c79206f776e65722f64656c65676174652063616e2044454c455445206660208201527f726f6d2074686973207461626c65000000000000000000000000000000000000604082015260600190565b602c81527f47534e436f6e746578743a206e65772052656c6179487562206973207468652060208201527f7a65726f20616464726573730000000000000000000000000000000000000000604082015260600190565b601381527f496e76616c6964207461626c6520747970652100000000000000000000000000602082015260400190565b601481527f5461626c6520616c726561647920657869737473000000000000000000000000602082015260400190565b601081527f696420646f65736e277420657869737400000000000000000000000000000000602082015260400190565b601181527f7461626c65206e6f742063726561746564000000000000000000000000000000602082015260400190565b601381527f4b657920646f6573206e6f742065786973742100000000000000000000000000602082015260400190565b601c81527f696420646f65736e27742065786973742c2075736520494e5345525400000000602082015260400190565b601481527f7461626c6520646f6573206e6f74206578697374000000000000000000000000602082015260400190565b601781527f53656e646572206e6f74206f776e6572206f6620726f77000000000000000000602082015260400190565b805160408301906137df8482613121565b506020820151611e926020850182613121565b805160009060408401906138068582613121565b506020830151848203602086015261381e82826130cb565b95945050505050565b61306581613b6a565b60208101610c07828461306b565b60208101610c07828461305c565b6040810161385a828561306b565b610d72602083018461312a565b60208082528101610c048184613074565b60208101610c078284613118565b60208101610c078284613121565b604081016138a28285613121565b610d72602083018461306b565b60208082528101610c048184613133565b6020808252810161070281613168565b6020808252810161070281613198565b60208082528101610702816131ee565b602080825281016107028161321e565b602080825281016107028161324e565b60208082528101610702816132a4565b60208082528101610702816132d4565b602080825281016107028161332a565b6020808252810161070281613380565b60208082528101610702816133b0565b60208082528101610702816133e0565b6020808252810161070281613410565b6020808252810161070281613466565b60208082528101610702816134bc565b60208082528101610702816134ec565b602080825281016107028161351c565b6020808252810161070281613572565b60208082528101610702816135a2565b60208082528101610702816135f8565b602080825281016107028161364e565b602080825281016107028161367e565b60208082528101610702816136ae565b60208082528101610702816136de565b602080825281016107028161370e565b602080825281016107028161373e565b602080825281016107028161376e565b602080825281016107028161379e565b60208082528101610c0481846137f2565b60408101613a8f8285613121565b81810360208301526114f38184613133565b60208101610c078284613827565b60405181810167ffffffffffffffff81118282101715613ace57600080fd5b604052919050565b600067ffffffffffffffff821115613aed57600080fd5b5060209081020190565b600067ffffffffffffffff821115613b0e57600080fd5b506020601f91909101601f19160190565b60200190565b5190565b600061070282613b5e565b151590565b7fffffffff000000000000000000000000000000000000000000000000000000001690565b600160a060020a031690565b64ffffffffff1690565b60ff1690565b600061070282600061070282613b29565b82818337506000910152565b60005b83811015613bb2578181015183820152602001613b9a565b83811115611e925750506000910152565b601f01601f19169056fe736368656d61732e7075626c69632e7461626c65730000000000000000000000a265627a7a72305820c45e3e45efe17362b26053dc0c68289f8bbbdf3b6dbfe8908af36c3cbf24641c6c6578706572696d656e74616cf50037",
  "compiler": {
    "name": "solc",
    "version": "0.5.0+commit.1d4f565a.Emscripten.clang",
    "optimizer": {
      "enabled": true,
      "runs": 200
    },
    "evmVersion": "byzantium"
  }
}