{
  "fileName": "ELAJSStore.sol",
  "contractName": "ELAJSStore",
  "source": "pragma solidity ^0.5.0;\npragma experimental ABIEncoderV2;\n\nimport \"sol-datastructs/src/contracts/PolymorphicDictionaryLib.sol\";\n\n// import \"sol-datastructs/src/contracts/Bytes32DictionaryLib.sol\";\nimport \"sol-datastructs/src/contracts/Bytes32SetDictionaryLib.sol\";\n\n// import \"./oz/EnumerableSetDictionary.sol\";\n\nimport \"sol-sql/src/contracts/src/structs/TableLib.sol\";\n\nimport \"./ozEla/OwnableELA.sol\";\nimport \"./gsnEla/GSNRecipientELA.sol\";\nimport \"./gsnEla/IRelayHubELA.sol\";\n\n// TODO: move schema methods to another contract, we're hitting limits for this\n// TODO: good practice to have functions not callable externally and internally\ncontract ELAJSStore is OwnableELA, GSNRecipientELA {\n\n    uint constant DAY_IN_SECONDS = 86400;\n\n    // TODO: have a dynamic mode to only use Events -> https://thegraph.com\n    // bool public useEvents = false;\n\n    // This counts the number of times this contract was called via GSN (expended owner gas) for rate limiting\n    // mapping is a keccak256('YYYY-MM-DD') => uint (TODO: we can probably compress this by week (4 bytes per day -> 28 bytes)\n    mapping(uint256 => uint256) public gsnCounter;\n\n    // Max times we allow this to be called per day\n    uint40 public gsnMaxCallsPerDay;\n\n    using PolymorphicDictionaryLib for PolymorphicDictionaryLib.PolymorphicDictionary;\n    using Bytes32SetDictionaryLib for Bytes32SetDictionaryLib.Bytes32SetDictionary;\n\n    // _table = system table (bytes32 Dict) of each table's metadata marshaled\n    // 8 bits - permissions (00 = system, 01 = private, 10 = public, 11 = shared - owner can always edit)\n    // 20 bytes - address delegate - other address allowed to edit\n    mapping(bytes32 => bytes32) internal _table;\n\n    // table = dict, where the key is the table, and the value is a set of byte32 ids\n    Bytes32SetDictionaryLib.Bytes32SetDictionary internal tableId;\n\n    // Schema dictionary, key (schemasPublicTables) points to a set of table names\n    using TableLib for TableLib.Table;\n    using TableLib for bytes;\n    // using ColumnLib for ColumnLib.Column;\n    // using ColumnLib for bytes;\n\n    // schemaTables -> Set of tables (raw table name values) for enumeration\n    bytes32 constant public schemasTables = 0x736368656d61732e7075626c69632e7461626c65730000000000000000000000;\n\n    // namehash([tableName]) => encoded table schema\n    // ownership of each row (id) - key = namehash([id].[table]) which has a value that is the owner's address\n    // ultimately namehash([field].[id].[table]) gives us a bytes32 which maps to the single data value\n    PolymorphicDictionaryLib.PolymorphicDictionary internal database;\n\n\n    // ************************************* SETUP FUNCTIONS *************************************\n    function initialize(address relayHubAddr) public initializer {\n        OwnableELA.initialize(msg.sender);\n        GSNRecipientELA.initialize(relayHubAddr);\n        _initialize();\n    }\n\n    function _initialize() internal {\n        gsnMaxCallsPerDay = uint40(1000);\n\n        // init the key for schemasTables, our set is one-to-many-fixed, so table names must be max 32 bytes\n        database.addKey(schemasTables, PolymorphicDictionaryLib.DictionaryType.OneToManyFixed);\n    }\n\n    // ************************************* SCHEMA FUNCTIONS *************************************\n    /**\n     * @dev create a new table, only the owner may create this\n     *\n     * @param tableName right padded zeroes (Web3.utils.stringToHex)\n     * @param tableKey this is the namehash of tableName\n     */\n    function createTable(\n        bytes32 tableName,\n        bytes32 tableKey,\n        uint8 permission,\n        bytes32[] memory columnName,\n        bytes32[] memory columnDtype\n\n    ) public onlyOwner {\n\n        // this only works if tableName is trimmed of padding zeroes, since this is an onlyOwner call we won't bother\n        // require(isNamehashSubOf(keccak256(tableNameBytes), bytes32(0), tableKey), \"tableName does not match tableKey\");\n\n        // check if table exists\n        require(_table[tableKey] == 0, \"Table already exists\");\n\n        address delegate = address(0x0);\n\n        // claim the key slot and set the metadata\n        setTableMetadata(tableKey, permission, delegate);\n\n        database.addValueForKey(schemasTables, tableName);\n\n        // table stores the row ids set as the value, set up the key\n        tableId.addKey(tableKey);\n\n        // now insert the schema\n        saveSchema(tableName, tableKey, columnName, columnDtype);\n    }\n\n    // TODO: this isn't complete\n    function deleteTable(\n        bytes32 tableName,\n        bytes32 tableKey\n    ) public onlyOwner {\n        _table[tableKey] = 0;\n        database.removeValueForKey(schemasTables, tableName);\n        tableId.removeKey(tableKey);\n    }\n\n    function getTables() external view returns (bytes32[] memory){\n        return database.enumerateForKeyOneToManyFixed(schemasTables);\n    }\n\n    /*\n    function tableExists(bytes32 tableKey) public view returns (bool) {\n        return tableId.containsKey(tableKey);\n    }\n    */\n\n    function saveSchema(\n        bytes32 tableName,\n        bytes32 tableKey,\n        bytes32[] memory columnName,\n        bytes32[] memory columnDtype\n\n    ) public onlyOwner returns (bool) {\n\n        TableLib.Table memory tableSchema = TableLib.create(\n            tableName,\n            columnName,\n            columnDtype\n        );\n\n        bytes memory encoded = tableSchema.encode();\n\n        // we store the encoded table schema on the base tableKey\n        return database.setValueForKey(tableKey, encoded);\n    }\n\n    // EXPERIMENTAL\n    function getSchema(bytes32 _name) public view returns (TableLib.Table memory) {\n        bytes memory encoded = database.getBytesForKey(_name);\n        return encoded.decodeTable();\n    }\n\n    // ************************************* CRUD FUNCTIONS *************************************\n\n    /**\n     * @dev Table level permission checks\n     */\n    modifier insertCheck(bytes32 tableKey) {\n\n        (uint256 permission, address delegate) = getTableMetadata(tableKey);\n\n        // if permission = 0, system table we can't do anything\n        require(permission > 0, \"Cannot INSERT into system table\");\n\n        // if permission = 1, we must be the owner/delegate\n        require(permission > 1 || isOwner() == true || delegate == _msgSender(), \"Only owner/delegate can INSERT into this table\");\n\n        _;\n    }\n\n\n    /**\n     * Primarily exists to assist in query WHERE searches, therefore we\n     * want the index to exist on the value and table, filtering on owner\n     * is important for performance\n     */\n    event InsertVal (\n        bytes32 indexed tableKey,\n        bytes32 indexed fieldKey,\n        bytes32 indexed val,\n\n        bytes32 id,\n\n        address owner\n    );\n\n\n    /**\n     * @dev Prior to insert, we check the permissions and autoIncrement\n     * TODO: use the schema and determine the proper type of data to insert\n     *\n     * @param tableKey the namehashed [table] name string\n     * @param idKey the sha3 hashed idKey\n     * @param id as the raw string (unhashed)\n     */\n    function insertVal(\n\n        bytes32 tableKey,\n        bytes32 idKey,\n        bytes32 fieldKey,\n\n        bytes32 id,\n        bytes32 val)\n\n    public insertCheck(tableKey){\n\n        bytes32 idTableKey = namehash(idKey, tableKey);\n        bytes32 fieldIdTableKey = namehash(fieldKey, idTableKey);\n\n        require(database.containsKey(fieldIdTableKey) == false, \"id+field already exists\");\n\n        // increment counter\n        increaseGsnCounter();\n\n        // add an id entry to the table's set of ids for the row (this is a set so we don't need to check first)\n        // TODO: should we check the id/row ownership?\n        tableId.addValueForKey(tableKey, id);\n\n        // add the \"row owner\" if it doesn't exist, the row may already exist in which case we don't update it\n        if (database.containsKey(idTableKey) == false){\n            _setRowOwner(idTableKey, id, tableKey);\n        }\n\n        // finally set the data\n        // we won't serialize the type, that's way too much redundant data\n        database.setValueForKey(fieldIdTableKey, bytes32(val));\n\n        // emit an event to assist in queries\n        emit InsertVal(tableKey, fieldKey, val, id, _msgSender());\n\n    }\n\n    function insertValVar(\n        bytes32 tableKey,\n        bytes32 idKey,\n        bytes32 fieldKey,\n\n        bytes32 id,\n        bytes memory val)\n\n    public insertCheck(tableKey){\n\n        bytes32 idTableKey = namehash(idKey, tableKey);\n        bytes32 fieldIdTableKey = namehash(fieldKey, idTableKey);\n\n        require(database.containsKey(fieldIdTableKey) == false, \"id+field already exists\");\n\n        // increment counter\n        increaseGsnCounter();\n\n        // add an id entry to the table's set of ids for the row\n        tableId.addValueForKey(tableKey, id);\n\n        // add the \"row owner\" if it doesn't exist, the row may already exist in which case we don't update it\n        if (database.containsKey(idTableKey) == false){\n            _setRowOwner(idTableKey, id, tableKey);\n        }\n\n        // finally set the data\n        database.setValueForKey(fieldIdTableKey, val);\n    }\n\n    /**\n     * @dev we are essentially claiming this [id].[table] for the msg.sender, and setting the id createdDate\n     */\n    function _setRowOwner(bytes32 idTableKey, bytes32 id, bytes32 tableKey) internal {\n\n        require(database.containsKey(idTableKey) == false, \"row already has owner\");\n\n        uint256 rowMetadata = uint256(uint32(now));\n\n        rowMetadata |= uint256(_msgSender())<<32;\n\n        database.setValueForKey(idTableKey, bytes32(rowMetadata));\n    }\n\n    /**\n     * Primarily to assist querying all ids belonging to an owner\n     */\n    /*\n    event InsertRow (\n        bytes32 indexed _id,\n        bytes32 indexed _tableKey,\n        address indexed _rowOwner\n    );\n    */\n\n    function getRowOwner(bytes32 idTableKey) external returns (address rowOwner, bytes4 createdDate){\n\n        uint256 rowMetadata = uint256(database.getBytes32ForKey(idTableKey));\n\n        createdDate = bytes4(uint32(rowMetadata));\n        rowOwner = address(rowMetadata>>32);\n\n    }\n\n    function updateCheck(bytes32 tableKey, bytes32 idKey, bytes32 idTableKey, bytes32 id) internal {\n\n        require(tableId.containsValueForKey(tableKey, id) == true, \"id doesn't exist, use INSERT\");\n\n        (uint256 permission, address delegate) = getTableMetadata(tableKey);\n\n        // if permission = 0, system table we can't do anything\n        require(permission > 0, \"Cannot UPDATE system table\");\n\n        // if permission = 1, we must be the owner/delegate\n        require(permission > 1 || isOwner() == true || delegate == _msgSender(), \"Only owner/delegate can UPDATE into this table\");\n\n        // permissions check (public table = 2, shared table = 3),\n        // if 2 or 3 is the _msg.sender() the row owner? But if 3 owner() is always allowed\n        if (permission >= 2) {\n\n            // rowMetaData is packed as address (bytes20) + createdDate (bytes4)\n            bytes32 rowMetaData = database.getBytes32ForKey(idTableKey);\n            address rowOwner = address(uint256(rowMetaData)>>32);\n\n            // if either 2 or 3, if you're the row owner it's fine\n            if (rowOwner == _msgSender()){\n                // pass\n            } else {\n                require(isOwner() == true || delegate == _msgSender(), \"Not rowOwner or owner/delegate for UPDATE into this table\");\n            }\n        }\n    }\n\n    function updateVal(\n\n        bytes32 tableKey,\n        bytes32 idKey,\n        bytes32 fieldKey,\n\n        bytes32 id,\n        bytes32 val)\n\n    public {\n\n        bytes32 idTableKey = namehash(idKey, tableKey);\n        bytes32 fieldIdTableKey = namehash(fieldKey, idTableKey);\n\n        updateCheck(tableKey, idKey, idTableKey, id);\n\n        // increment counter\n        increaseGsnCounter();\n\n        // set data (overwrite)\n        database.setValueForKey(fieldIdTableKey, bytes32(val));\n\n        // emit an event to assist in queries\n        emit InsertVal(tableKey, fieldKey, val, id, _msgSender());\n    }\n\n    function deleteCheck(bytes32 tableKey, bytes32 idTableKey, bytes32 idKey, bytes32 id) internal {\n\n        require(tableId.containsValueForKey(tableKey, id) == true, \"id doesn't exist\");\n\n        (uint256 permission, address delegate) = getTableMetadata(tableKey);\n\n        // if permission = 0, system table we can't do anything\n        require(permission > 0, \"Cannot DELETE from system table\");\n\n        // if permission = 1, we must be the owner/delegate\n        require(permission > 1 || isOwner() == true || delegate == _msgSender(), \"Only owner/delegate can DELETE from this table\");\n\n        // permissions check (public table = 2, shared table = 3),\n        // if 2 or 3 is the _msg.sender() the row owner? But if 3 owner() is always allowed\n        if (permission >= 2) {\n            if (isOwner() || delegate == _msgSender()){\n                // pass\n            } else {\n                // rowMetaData is packed as address (bytes20) + createdDate (bytes4)\n                bytes32 rowMetaData = database.getBytes32ForKey(idTableKey);\n                address rowOwner = address(uint256(rowMetaData)>>32);\n                require(rowOwner == _msgSender(), \"Sender not owner of row\");\n            }\n        }\n    }\n\n    /**\n     * @dev TODO: add modifier checks based on update\n     *\n     * TODO: this needs to properly remove the row when there are multiple ids\n     *\n     */\n    function deleteVal(\n\n        bytes32 tableKey,\n        bytes32 idKey,\n        bytes32 fieldKey,\n\n        bytes32 id\n\n    ) public {\n\n        bytes32 idTableKey = namehash(idKey, tableKey);\n        bytes32 fieldIdTableKey = namehash(fieldKey, idTableKey);\n\n        deleteCheck(tableKey, idTableKey, idKey, id);\n\n        // increment counter\n        increaseGsnCounter();\n\n        // remove the key\n        bool removed = database.removeKey(fieldIdTableKey);\n\n        require(removed == true, \"error removing key\");\n\n        // TODO: zero out the data? Why bother everything is public\n\n        // we can't really pass in enough data to make a loop worthwhile\n        /*\n        uint8 len = uint8(fieldKeys.length);\n        require(fieldKeys.length == fieldIdTableKeys.length, \"fields, id array length mismatch\");\n        for (uint8 i = 0; i < len; i++) {\n\n            // for each row check if the full field + id + table is a subhash\n            // require(isNamehashSubOf(fieldKeys[i], idTableKey, fieldIdTableKeys[i]) == true, \"fieldKey not a subhash [field].[id].[table]\");\n\n            // zero out the data\n            elajsStore[fieldIdTableKeys[i]] = bytes32(0);\n        }\n        */\n    }\n\n    // TODO: improve this, we don't want to cause data consistency if the client doesn't call this\n    // Right now we manually call this, but ideally we iterate over all the data and delete each column\n    // but this would require decoding and having all the field names\n    function deleteRow(\n\n        bytes32 tableKey,\n        bytes32 idKey,\n        bytes32 id\n\n    ) public {\n\n        bytes32 idTableKey = namehash(idKey, tableKey);\n\n        deleteCheck(tableKey, idTableKey, idKey, id);\n\n        // increment counter\n        increaseGsnCounter();\n\n        // remove the id\n        tableId.removeValueForKey(tableKey, id);\n    }\n\n    /**\n     * @dev Table actual insert call, NOTE this doesn't work on testnet currently due to a stack size issue,\n     *      but it can work with a paid transaction I guess\n     */\n    /*\n    function insert(\n        bytes32 tableKey,\n        bytes32 idTableKey,\n\n        bytes32 idKey,\n        bytes32 id,\n\n        bytes32[] memory fieldKeys,\n        bytes32[] memory fieldIdTableKeys,\n        bytes32[] memory values)\n\n    public insertCheck(tableKey, idKey, idTableKey){\n\n        require(table.containsValueForKey(tableKey, id) == false, \"id already exists\");\n\n        uint len = fieldKeys.length;\n\n        require(fieldKeys.length == fieldIdTableKeys.length == values.length, \"fields, values array length mismatch\");\n\n        // add an id entry to the table's set of ids for the row\n        table.addValueForKey(tableKey, id);\n\n        for (uint i = 0; i < len; i++) {\n\n            // for each row check if the full field + id + table is a subhash\n            require(isNamehashSubOf(fieldKeys[i], idTableKey, fieldIdTableKeys[i]) == true, \"fieldKey not a subhash [field].[id].[table]\");\n\n            elajsStore[fieldIdTableKeys[i]] = bytes32(values[i]);\n        }\n\n    }\n    */\n\n    /*\n    function getAllDataKeys() external view returns (bytes32[] memory) {\n        return database.enumerate();\n    }\n    */\n\n    function checkDataKey(bytes32 key) external view returns (bool) {\n        return database.containsKey(key);\n    }\n\n    /**\n     * @dev all data is public, so no need for security checks, we leave the data type handling to the client\n     */\n    function getRowValue(bytes32 fieldIdTableKey) external view returns (bytes32) {\n\n        if (database.containsKey(fieldIdTableKey)) {\n            return database.getBytes32ForKey(fieldIdTableKey);\n        } else {\n            return bytes32(0);\n        }\n    }\n\n    function getRowValueVar(bytes32 fieldIdTableKey) external view returns (bytes memory) {\n\n        if (database.containsKey(fieldIdTableKey)) {\n            return database.getBytesForKey(fieldIdTableKey);\n        } else {\n            return new bytes(0);\n        }\n    }\n\n    /**\n     * @dev Warning this produces an Error: overflow (operation=\"setValue\", fault=\"overflow\", details=\"Number can only safely store up to 53 bits\")\n     *      if the table doesn't exist\n     */\n    function getTableIds(bytes32 tableKey) external view returns (bytes32[] memory){\n\n        require(tableId.containsKey(tableKey) == true, \"table not created\");\n\n        return tableId.enumerateForKey(tableKey);\n    }\n\n    function getIdExists(bytes32 tableKey, bytes32 id) external view returns (bool) {\n        return tableId.containsValueForKey(tableKey, id);\n    }\n\n    /*\n    function isNamehashSubOf(bytes32 subKey, bytes32 base, bytes32 target) internal pure returns (bool) {\n        bytes32 result = namehash(subKey, base);\n        return result == target;\n    }\n    */\n\n    function namehash(bytes32 subKey, bytes32 base) internal pure returns (bytes32) {\n        bytes memory concat = new bytes(64);\n\n        assembly {\n            mstore(add(concat, 64), subKey)\n            mstore(add(concat, 32), base)\n        }\n\n        bytes32 result = keccak256(concat);\n\n        return result;\n    }\n\n    // ************************************* _TABLE FUNCTIONS *************************************\n    function getTableMetadata(bytes32 _tableKey)\n        view\n        public\n        returns (uint256 permission, address delegate)\n    {\n        require(_table[_tableKey] > 0, \"table does not exist\");\n\n        uint256 tableMetadata = uint256(_table[_tableKey]);\n\n        permission = uint256(uint8(tableMetadata));\n        delegate = address(tableMetadata>>8);\n    }\n\n    // TODO: we want to add the schema updated time here, then we can have a reliable schema cache\n    function setTableMetadata(bytes32 _tableKey, uint8 permission, address delegate) private onlyOwner {\n        uint256 tableMetadata;\n\n        tableMetadata |= permission;\n        tableMetadata |= uint160(delegate)<<8;\n\n        _table[_tableKey] = bytes32(tableMetadata);\n    }\n\n    // ************************************* MISC FUNCTIONS *************************************\n\n    function() external payable {}\n\n    // ************************************* GSN FUNCTIONS *************************************\n    /*\n    event AcceptRelayCall (\n        uint256 curCounter,\n        uint40 gsnMaxCallsPerDay\n    );\n    */\n\n    /**\n     * As a first layer of defense we employ a max number of checks per day\n     */\n    function acceptRelayedCall(\n        address relay,\n        address from,\n        bytes calldata encodedFunction,\n        uint256 transactionFee,\n        uint256 gasPrice,\n        uint256 gasLimit,\n        uint256 nonce,\n        bytes calldata approvalData,\n        uint256 maxPossibleCharge\n    ) external view returns (uint256, bytes memory) {\n\n        uint256 curDay = getCurDay();\n        uint256 curCounter = gsnCounter[curDay];\n\n        if (curCounter >= gsnMaxCallsPerDay){\n            return _rejectRelayedCall(11);\n        }\n\n        return _approveRelayedCall();\n    }\n\n    function setGsnMaxCallsPerDay(uint256 max) external onlyOwner {\n        gsnMaxCallsPerDay = uint40(max);\n    }\n\n    /*\n    event GsnCounterIncrease (\n        address indexed _from,\n        bytes4 indexed curDate\n    );\n    */\n\n    /**\n     * Increase the GSN Counter for today\n     */\n    function increaseGsnCounter() internal {\n\n        uint256 curDay = getCurDay();\n        uint256 curCounter = gsnCounter[curDay];\n\n        gsnCounter[curDay] = curCounter + 1;\n\n        // emit GsnCounterIncrease(_msgSender(), bytes4(uint32(curDate)));\n    }\n\n    /*\n     *\n     */\n    function getCurDay() public view returns (uint256) {\n        return uint256(uint(now) / uint(DAY_IN_SECONDS));\n    }\n\n    // We won't do any pre or post processing, so leave _preRelayedCall and _postRelayedCall empty\n    function _preRelayedCall(bytes memory context) internal returns (bytes32) {\n    }\n\n    function _postRelayedCall(bytes memory context, bool, uint256 actualCharge, bytes32) internal {\n    }\n\n    /**\n     * @dev Withdraw a specific amount of the GSNReceipient funds\n     * @param amt Amount of wei to withdraw\n     * @param dest This is the arbitrary withdrawal destination address\n     */\n    function withdraw(uint256 amt, address payable dest) public onlyOwner {\n        IRelayHubELA relayHub = getRelayHub();\n        relayHub.withdraw(amt, dest);\n    }\n\n    /**\n     * @dev Withdraw all the GSNReceipient funds\n     * @param dest This is the arbitrary withdrawal destination address\n     */\n    function withdrawAll(address payable dest) public onlyOwner returns (uint256) {\n        IRelayHubELA relayHub = getRelayHub();\n        uint256 balance = getRelayHub().balanceOf(address(this));\n        relayHub.withdraw(balance, dest);\n        return balance;\n    }\n\n    function getGSNBalance() public view returns (uint256) {\n        return getRelayHub().balanceOf(address(this));\n    }\n\n    function getRelayHub() internal view returns (IRelayHubELA) {\n        return IRelayHubELA(_getRelayHub());\n    }\n}\n",
  "sourcePath": "contracts/ELAJSStore.sol",
  "abi": [
    {
      "constant": true,
      "inputs": [],
      "name": "getCurDay",
      "outputs": [
        {
          "name": "",
          "type": "uint256"
        }
      ],
      "payable": false,
      "stateMutability": "view",
      "type": "function"
    },
    {
      "constant": false,
      "inputs": [
        {
          "name": "amt",
          "type": "uint256"
        },
        {
          "name": "dest",
          "type": "address"
        }
      ],
      "name": "withdraw",
      "outputs": [],
      "payable": false,
      "stateMutability": "nonpayable",
      "type": "function"
    },
    {
      "constant": true,
      "inputs": [],
      "name": "gsnMaxCallsPerDay",
      "outputs": [
        {
          "name": "",
          "type": "uint40"
        }
      ],
      "payable": false,
      "stateMutability": "view",
      "type": "function"
    },
    {
      "constant": true,
      "inputs": [
        {
          "name": "key",
          "type": "bytes32"
        }
      ],
      "name": "checkDataKey",
      "outputs": [
        {
          "name": "",
          "type": "bool"
        }
      ],
      "payable": false,
      "stateMutability": "view",
      "type": "function"
    },
    {
      "constant": true,
      "inputs": [],
      "name": "getTables",
      "outputs": [
        {
          "name": "",
          "type": "bytes32[]"
        }
      ],
      "payable": false,
      "stateMutability": "view",
      "type": "function"
    },
    {
      "constant": false,
      "inputs": [
        {
          "name": "idTableKey",
          "type": "bytes32"
        }
      ],
      "name": "getRowOwner",
      "outputs": [
        {
          "name": "rowOwner",
          "type": "address"
        },
        {
          "name": "createdDate",
          "type": "bytes4"
        }
      ],
      "payable": false,
      "stateMutability": "nonpayable",
      "type": "function"
    },
    {
      "constant": false,
      "inputs": [
        {
          "name": "tableName",
          "type": "bytes32"
        },
        {
          "name": "tableKey",
          "type": "bytes32"
        },
        {
          "name": "permission",
          "type": "uint8"
        },
        {
          "name": "columnName",
          "type": "bytes32[]"
        },
        {
          "name": "columnDtype",
          "type": "bytes32[]"
        }
      ],
      "name": "createTable",
      "outputs": [],
      "payable": false,
      "stateMutability": "nonpayable",
      "type": "function"
    },
    {
      "constant": true,
      "inputs": [],
      "name": "getGSNBalance",
      "outputs": [
        {
          "name": "",
          "type": "uint256"
        }
      ],
      "payable": false,
      "stateMutability": "view",
      "type": "function"
    },
    {
      "constant": false,
      "inputs": [
        {
          "name": "tableKey",
          "type": "bytes32"
        },
        {
          "name": "idKey",
          "type": "bytes32"
        },
        {
          "name": "fieldKey",
          "type": "bytes32"
        },
        {
          "name": "id",
          "type": "bytes32"
        },
        {
          "name": "val",
          "type": "bytes"
        }
      ],
      "name": "insertValVar",
      "outputs": [],
      "payable": false,
      "stateMutability": "nonpayable",
      "type": "function"
    },
    {
      "constant": true,
      "inputs": [],
      "name": "schemasTables",
      "outputs": [
        {
          "name": "",
          "type": "bytes32"
        }
      ],
      "payable": false,
      "stateMutability": "view",
      "type": "function"
    },
    {
      "constant": true,
      "inputs": [
        {
          "name": "fieldIdTableKey",
          "type": "bytes32"
        }
      ],
      "name": "getRowValue",
      "outputs": [
        {
          "name": "",
          "type": "bytes32"
        }
      ],
      "payable": false,
      "stateMutability": "view",
      "type": "function"
    },
    {
      "constant": false,
      "inputs": [],
      "name": "renounceOwnership",
      "outputs": [],
      "payable": false,
      "stateMutability": "nonpayable",
      "type": "function"
    },
    {
      "constant": true,
      "inputs": [],
      "name": "getHubAddr",
      "outputs": [
        {
          "name": "",
          "type": "address"
        }
      ],
      "payable": false,
      "stateMutability": "view",
      "type": "function"
    },
    {
      "constant": false,
      "inputs": [
        {
          "name": "tableName",
          "type": "bytes32"
        },
        {
          "name": "tableKey",
          "type": "bytes32"
        },
        {
          "name": "columnName",
          "type": "bytes32[]"
        },
        {
          "name": "columnDtype",
          "type": "bytes32[]"
        }
      ],
      "name": "saveSchema",
      "outputs": [
        {
          "name": "",
          "type": "bool"
        }
      ],
      "payable": false,
      "stateMutability": "nonpayable",
      "type": "function"
    },
    {
      "constant": false,
      "inputs": [
        {
          "name": "tableKey",
          "type": "bytes32"
        },
        {
          "name": "idKey",
          "type": "bytes32"
        },
        {
          "name": "fieldKey",
          "type": "bytes32"
        },
        {
          "name": "id",
          "type": "bytes32"
        },
        {
          "name": "val",
          "type": "bytes32"
        }
      ],
      "name": "updateVal",
      "outputs": [],
      "payable": false,
      "stateMutability": "nonpayable",
      "type": "function"
    },
    {
      "constant": false,
      "inputs": [
        {
          "name": "context",
          "type": "bytes"
        }
      ],
      "name": "preRelayedCall",
      "outputs": [
        {
          "name": "",
          "type": "bytes32"
        }
      ],
      "payable": false,
      "stateMutability": "nonpayable",
      "type": "function"
    },
    {
      "constant": false,
      "inputs": [
        {
          "name": "tableKey",
          "type": "bytes32"
        },
        {
          "name": "idKey",
          "type": "bytes32"
        },
        {
          "name": "id",
          "type": "bytes32"
        }
      ],
      "name": "deleteRow",
      "outputs": [],
      "payable": false,
      "stateMutability": "nonpayable",
      "type": "function"
    },
    {
      "constant": true,
      "inputs": [
        {
          "name": "relay",
          "type": "address"
        },
        {
          "name": "from",
          "type": "address"
        },
        {
          "name": "encodedFunction",
          "type": "bytes"
        },
        {
          "name": "transactionFee",
          "type": "uint256"
        },
        {
          "name": "gasPrice",
          "type": "uint256"
        },
        {
          "name": "gasLimit",
          "type": "uint256"
        },
        {
          "name": "nonce",
          "type": "uint256"
        },
        {
          "name": "approvalData",
          "type": "bytes"
        },
        {
          "name": "maxPossibleCharge",
          "type": "uint256"
        }
      ],
      "name": "acceptRelayedCall",
      "outputs": [
        {
          "name": "",
          "type": "uint256"
        },
        {
          "name": "",
          "type": "bytes"
        }
      ],
      "payable": false,
      "stateMutability": "view",
      "type": "function"
    },
    {
      "constant": false,
      "inputs": [
        {
          "name": "tableKey",
          "type": "bytes32"
        },
        {
          "name": "idKey",
          "type": "bytes32"
        },
        {
          "name": "fieldKey",
          "type": "bytes32"
        },
        {
          "name": "id",
          "type": "bytes32"
        }
      ],
      "name": "deleteVal",
      "outputs": [],
      "payable": false,
      "stateMutability": "nonpayable",
      "type": "function"
    },
    {
      "constant": true,
      "inputs": [],
      "name": "owner",
      "outputs": [
        {
          "name": "",
          "type": "address"
        }
      ],
      "payable": false,
      "stateMutability": "view",
      "type": "function"
    },
    {
      "constant": true,
      "inputs": [],
      "name": "isOwner",
      "outputs": [
        {
          "name": "",
          "type": "bool"
        }
      ],
      "payable": false,
      "stateMutability": "view",
      "type": "function"
    },
    {
      "constant": true,
      "inputs": [
        {
          "name": "_name",
          "type": "bytes32"
        }
      ],
      "name": "getSchema",
      "outputs": [
        {
          "components": [
            {
              "name": "name",
              "type": "bytes32"
            },
            {
              "components": [
                {
                  "name": "name",
                  "type": "bytes32"
                },
                {
                  "name": "_dtype",
                  "type": "bytes32"
                }
              ],
              "name": "columns",
              "type": "tuple[]"
            }
          ],
          "name": "",
          "type": "tuple"
        }
      ],
      "payable": false,
      "stateMutability": "view",
      "type": "function"
    },
    {
      "constant": true,
      "inputs": [
        {
          "name": "",
          "type": "uint256"
        }
      ],
      "name": "gsnCounter",
      "outputs": [
        {
          "name": "",
          "type": "uint256"
        }
      ],
      "payable": false,
      "stateMutability": "view",
      "type": "function"
    },
    {
      "constant": true,
      "inputs": [],
      "name": "relayHubVersion",
      "outputs": [
        {
          "name": "",
          "type": "string"
        }
      ],
      "payable": false,
      "stateMutability": "view",
      "type": "function"
    },
    {
      "constant": false,
      "inputs": [
        {
          "name": "tableKey",
          "type": "bytes32"
        },
        {
          "name": "idKey",
          "type": "bytes32"
        },
        {
          "name": "fieldKey",
          "type": "bytes32"
        },
        {
          "name": "id",
          "type": "bytes32"
        },
        {
          "name": "val",
          "type": "bytes32"
        }
      ],
      "name": "insertVal",
      "outputs": [],
      "payable": false,
      "stateMutability": "nonpayable",
      "type": "function"
    },
    {
      "constant": false,
      "inputs": [
        {
          "name": "max",
          "type": "uint256"
        }
      ],
      "name": "setGsnMaxCallsPerDay",
      "outputs": [],
      "payable": false,
      "stateMutability": "nonpayable",
      "type": "function"
    },
    {
      "constant": true,
      "inputs": [
        {
          "name": "tableKey",
          "type": "bytes32"
        }
      ],
      "name": "getTableIds",
      "outputs": [
        {
          "name": "",
          "type": "bytes32[]"
        }
      ],
      "payable": false,
      "stateMutability": "view",
      "type": "function"
    },
    {
      "constant": false,
      "inputs": [
        {
          "name": "relayHubAddr",
          "type": "address"
        }
      ],
      "name": "initialize",
      "outputs": [],
      "payable": false,
      "stateMutability": "nonpayable",
      "type": "function"
    },
    {
      "constant": true,
      "inputs": [
        {
          "name": "_tableKey",
          "type": "bytes32"
        }
      ],
      "name": "getTableMetadata",
      "outputs": [
        {
          "name": "permission",
          "type": "uint256"
        },
        {
          "name": "delegate",
          "type": "address"
        }
      ],
      "payable": false,
      "stateMutability": "view",
      "type": "function"
    },
    {
      "constant": false,
      "inputs": [
        {
          "name": "context",
          "type": "bytes"
        },
        {
          "name": "success",
          "type": "bool"
        },
        {
          "name": "actualCharge",
          "type": "uint256"
        },
        {
          "name": "preRetVal",
          "type": "bytes32"
        }
      ],
      "name": "postRelayedCall",
      "outputs": [],
      "payable": false,
      "stateMutability": "nonpayable",
      "type": "function"
    },
    {
      "constant": true,
      "inputs": [
        {
          "name": "fieldIdTableKey",
          "type": "bytes32"
        }
      ],
      "name": "getRowValueVar",
      "outputs": [
        {
          "name": "",
          "type": "bytes"
        }
      ],
      "payable": false,
      "stateMutability": "view",
      "type": "function"
    },
    {
      "constant": false,
      "inputs": [
        {
          "name": "tableName",
          "type": "bytes32"
        },
        {
          "name": "tableKey",
          "type": "bytes32"
        }
      ],
      "name": "deleteTable",
      "outputs": [],
      "payable": false,
      "stateMutability": "nonpayable",
      "type": "function"
    },
    {
      "constant": true,
      "inputs": [
        {
          "name": "tableKey",
          "type": "bytes32"
        },
        {
          "name": "id",
          "type": "bytes32"
        }
      ],
      "name": "getIdExists",
      "outputs": [
        {
          "name": "",
          "type": "bool"
        }
      ],
      "payable": false,
      "stateMutability": "view",
      "type": "function"
    },
    {
      "constant": false,
      "inputs": [
        {
          "name": "newOwner",
          "type": "address"
        }
      ],
      "name": "transferOwnership",
      "outputs": [],
      "payable": false,
      "stateMutability": "nonpayable",
      "type": "function"
    },
    {
      "constant": false,
      "inputs": [
        {
          "name": "dest",
          "type": "address"
        }
      ],
      "name": "withdrawAll",
      "outputs": [
        {
          "name": "",
          "type": "uint256"
        }
      ],
      "payable": false,
      "stateMutability": "nonpayable",
      "type": "function"
    },
    {
      "payable": true,
      "stateMutability": "payable",
      "type": "fallback"
    },
    {
      "anonymous": false,
      "inputs": [
        {
          "indexed": true,
          "name": "tableKey",
          "type": "bytes32"
        },
        {
          "indexed": true,
          "name": "fieldKey",
          "type": "bytes32"
        },
        {
          "indexed": true,
          "name": "val",
          "type": "bytes32"
        },
        {
          "indexed": false,
          "name": "id",
          "type": "bytes32"
        },
        {
          "indexed": false,
          "name": "owner",
          "type": "address"
        }
      ],
      "name": "InsertVal",
      "type": "event"
    },
    {
      "anonymous": false,
      "inputs": [
        {
          "indexed": true,
          "name": "oldRelayHub",
          "type": "address"
        },
        {
          "indexed": true,
          "name": "newRelayHub",
          "type": "address"
        }
      ],
      "name": "RelayHubChanged",
      "type": "event"
    },
    {
      "anonymous": false,
      "inputs": [
        {
          "indexed": true,
          "name": "previousOwner",
          "type": "address"
        },
        {
          "indexed": true,
          "name": "newOwner",
          "type": "address"
        }
      ],
      "name": "OwnershipTransferred",
      "type": "event"
    }
  ],
  "bytecode": "0x608060405261596a806100136000396000f3fe6080604052600436106101b5576000357c0100000000000000000000000000000000000000000000000000000000900463ffffffff168062a7a56e146101b7578062f714ce146101e257806301ee810a1461020b5780631fd6dda51461023657806328343c3414610273578063287e72461461029e578063365628a2146102dc5780633c2e8599146103055780633ffe300e146103305780634102fbf6146103595780636729003c14610384578063715018a6146103c157806374e861d6146103d85780637af9c663146104035780637e03a8241461044057806380274db7146104695780638175d7eb146104a657806383947ea0146104cf5780638d3178cc1461050d5780638da5cb5b146105365780638f32d59b14610561578063a2ea7c6e1461058c578063aba99fc9146105c9578063ad61ccd514610606578063b467949b14610631578063bc41c3dd1461065a578063c2309bf914610683578063c4d66de8146106c0578063d887f105146106e9578063e06e0e2214610727578063e3c504e414610750578063ed90cb371461078d578063f201fe2a146107b6578063f2fde38b146107f3578063fa09e6301461081c575b005b3480156101c357600080fd5b506101cc610859565b6040516101d9919061561c565b60405180910390f35b3480156101ee57600080fd5b5061020960048036036102049190810190614811565b61086f565b005b34801561021757600080fd5b50610220610951565b60405161022d91906156b9565b60405180910390f35b34801561024257600080fd5b5061025d600480360361025891908101906143a3565b610968565b60405161026a91906151f7565b60405180910390f35b34801561027f57600080fd5b50610288610985565b60405161029591906151d5565b60405180910390f35b3480156102aa57600080fd5b506102c560048036036102c091908101906143a3565b6109c3565b6040516102d39291906151ac565b60405180910390f35b3480156102e857600080fd5b5061030360048036036102fe9190810190614653565b610a19565b005b34801561031157600080fd5b5061031a610b31565b604051610327919061561c565b60405180910390f35b34801561033c57600080fd5b50610357600480360361035291908101906145c4565b610be4565b005b34801561036557600080fd5b5061036e610db8565b60405161037b9190615212565b60405180910390f35b34801561039057600080fd5b506103ab60048036036103a691908101906143a3565b610ddf565b6040516103b89190615212565b60405180910390f35b3480156103cd57600080fd5b506103d6610e22565b005b3480156103e457600080fd5b506103ed610f2c565b6040516103fa9190615176565b60405180910390f35b34801561040f57600080fd5b5061042a60048036036104259190810190614408565b610f3b565b60405161043791906151f7565b60405180910390f35b34801561044c57600080fd5b506104676004803603610462919081019061454d565b610fca565b005b34801561047557600080fd5b50610490600480360361048b91908101906146fa565b61105d565b60405161049d9190615212565b60405180910390f35b3480156104b257600080fd5b506104cd60048036036104c8919081019061449b565b61112b565b005b3480156104db57600080fd5b506104f660048036036104f191908101906142a3565b61116a565b604051610504929190615689565b60405180910390f35b34801561051957600080fd5b50610534600480360361052f91908101906144ea565b6111e9565b005b34801561054257600080fd5b5061054b611283565b6040516105589190615176565b60405180910390f35b34801561056d57600080fd5b506105766112ad565b60405161058391906151f7565b60405180910390f35b34801561059857600080fd5b506105b360048036036105ae91908101906143a3565b61130c565b6040516105c091906155fa565b60405180910390f35b3480156105d557600080fd5b506105f060048036036105eb91908101906147bf565b61133d565b6040516105fd919061561c565b60405180910390f35b34801561061257600080fd5b5061061b611355565b6040516106289190615278565b60405180910390f35b34801561063d57600080fd5b506106586004803603610653919081019061454d565b611392565b005b34801561066657600080fd5b50610681600480360361067c91908101906147bf565b6115a9565b005b34801561068f57600080fd5b506106aa60048036036106a591908101906143a3565b611618565b6040516106b791906151d5565b60405180910390f35b3480156106cc57600080fd5b506106e760048036036106e29190810190614251565b611691565b005b3480156106f557600080fd5b50610710600480360361070b91908101906143a3565b611797565b60405161071e929190615637565b60405180910390f35b34801561073357600080fd5b5061074e6004803603610749919081019061473f565b61182c565b005b34801561075c57600080fd5b50610777600480360361077291908101906143a3565b6118fa565b6040516107849190615256565b60405180910390f35b34801561079957600080fd5b506107b460048036036107af91908101906143cc565b61196d565b005b3480156107c257600080fd5b506107dd60048036036107d891908101906143cc565b611a25565b6040516107ea91906151f7565b60405180910390f35b3480156107ff57600080fd5b5061081a60048036036108159190810190614251565b611a45565b005b34801561082857600080fd5b50610843600480360361083e919081019061427a565b611a9a565b604051610850919061561c565b60405180910390f35b6000620151804281151561086957fe5b04905090565b6108776112ad565b15156108b8576040517f08c379a00000000000000000000000000000000000000000000000000000000081526004016108af9061545a565b60405180910390fd5b60006108c2611c33565b90508073ffffffffffffffffffffffffffffffffffffffff1662f714ce84846040518363ffffffff167c010000000000000000000000000000000000000000000000000000000002815260040161091a929190615660565b600060405180830381600087803b15801561093457600080fd5b505af1158015610948573d6000803e3d6000fd5b50505050505050565b606760009054906101000a900464ffffffffff1681565b600061097e82606c611c4290919063ffffffff16565b9050919050565b60606109be7f736368656d61732e7075626c69632e7461626c65730000000000000000000000600102606c611cb990919063ffffffff16565b905090565b60008060006109dc84606c611cd990919063ffffffff16565b600190049050807c0100000000000000000000000000000000000000000000000000000000029150602081908060020a8204915050925050915091565b610a216112ad565b1515610a62576040517f08c379a0000000000000000000000000000000000000000000000000000000008152600401610a599061545a565b60405180910390fd5b60006001026068600086815260200190815260200160002054141515610abd576040517f08c379a0000000000000000000000000000000000000000000000000000000008152600401610ab49061551a565b60405180910390fd5b6000809050610acd858583611cf9565b610b067f736368656d61732e7075626c69632e7461626c6573000000000000000000000060010287606c611da59092919063ffffffff16565b50610b1b856069611ed090919063ffffffff16565b50610b2886868585610f3b565b50505050505050565b6000610b3b611c33565b73ffffffffffffffffffffffffffffffffffffffff166370a08231306040518263ffffffff167c0100000000000000000000000000000000000000000000000000000000028152600401610b8f9190615191565b60206040518083038186803b158015610ba757600080fd5b505afa158015610bbb573d6000803e3d6000fd5b505050506040513d601f19601f82011682018060405250610bdf91908101906147e8565b905090565b84600080610bf183611797565b91509150600082111515610c3a576040517f08c379a0000000000000000000000000000000000000000000000000000000008152600401610c319061533a565b60405180910390fd5b6001821180610c54575060011515610c506112ad565b1515145b80610c915750610c62611ef0565b73ffffffffffffffffffffffffffffffffffffffff168173ffffffffffffffffffffffffffffffffffffffff16145b1515610cd2576040517f08c379a0000000000000000000000000000000000000000000000000000000008152600401610cc99061541a565b60405180910390fd5b6000610cde888a611f44565b90506000610cec8883611f44565b905060001515610d0682606c611c4290919063ffffffff16565b1515141515610d4a576040517f08c379a0000000000000000000000000000000000000000000000000000000008152600401610d419061549a565b60405180910390fd5b610d52611fa1565b610d688a886069611fe49092919063ffffffff16565b5060001515610d8183606c611c4290919063ffffffff16565b15151415610d9557610d9482888c61202f565b5b610dab8187606c6120df9092919063ffffffff16565b5050505050505050505050565b7f736368656d61732e7075626c69632e7461626c6573000000000000000000000060010281565b6000610df582606c611c4290919063ffffffff16565b15610e1557610e0e82606c611cd990919063ffffffff16565b9050610e1d565b600060010290505b919050565b610e2a6112ad565b1515610e6b576040517f08c379a0000000000000000000000000000000000000000000000000000000008152600401610e629061545a565b60405180910390fd5b600073ffffffffffffffffffffffffffffffffffffffff16603360009054906101000a900473ffffffffffffffffffffffffffffffffffffffff1673ffffffffffffffffffffffffffffffffffffffff167f8be0079c531659141344cd1fd0a4f28419497f9722a3daafe3b4186f6b6457e060405160405180910390a36000603360006101000a81548173ffffffffffffffffffffffffffffffffffffffff021916908373ffffffffffffffffffffffffffffffffffffffff160217905550565b6000610f3661220a565b905090565b6000610f456112ad565b1515610f86576040517f08c379a0000000000000000000000000000000000000000000000000000000008152600401610f7d9061545a565b60405180910390fd5b610f8e613f54565b610f9986858561223b565b90506060610fa6826122b8565b9050610fbe8682606c6120df9092919063ffffffff16565b92505050949350505050565b6000610fd68587611f44565b90506000610fe48583611f44565b9050610ff287878487612388565b610ffa611fa1565b6110108184606c6125e39092919063ffffffff16565b508285887f73f74243127530ba96dc00b266dfa2b8da17d2b0489b55f8f947074436f23b718761103e611ef0565b60405161104c92919061522d565b60405180910390a450505050505050565b6000611067610f2c565b73ffffffffffffffffffffffffffffffffffffffff163373ffffffffffffffffffffffffffffffffffffffff161415156110d6576040517f08c379a00000000000000000000000000000000000000000000000000000000081526004016110cd906152ba565b60405180910390fd5b61112383838080601f016020809104026020016040519081016040528093929190818152602001838380828437600081840152601f19601f8201169050808301925050505050505061270e565b905092915050565b60006111378385611f44565b905061114584828585612715565b61114d611fa1565b611163848360696129699092919063ffffffff16565b5050505050565b600060606000611178610859565b9050600060666000838152602001908152602001600020549050606760009054906101000a900464ffffffffff1664ffffffffff16811015156111ca576111bf600b6129b4565b9350935050506111d9565b6111d26129d6565b9350935050505b9b509b9950505050505050505050565b60006111f58486611f44565b905060006112038483611f44565b905061121186838786612715565b611219611fa1565b600061122f82606c6129fb90919063ffffffff16565b90506001151581151514151561127a576040517f08c379a00000000000000000000000000000000000000000000000000000000081526004016112719061543a565b60405180910390fd5b50505050505050565b6000603360009054906101000a900473ffffffffffffffffffffffffffffffffffffffff16905090565b6000603360009054906101000a900473ffffffffffffffffffffffffffffffffffffffff1673ffffffffffffffffffffffffffffffffffffffff166112f0611ef0565b73ffffffffffffffffffffffffffffffffffffffff1614905090565b611314613f54565b606061132a83606c612a7290919063ffffffff16565b905061133581612a92565b915050919050565b60666020528060005260406000206000915090505481565b60606040805190810160405280600581526020017f312e302e30000000000000000000000000000000000000000000000000000000815250905090565b8460008061139f83611797565b915091506000821115156113e8576040517f08c379a00000000000000000000000000000000000000000000000000000000081526004016113df9061533a565b60405180910390fd5b60018211806114025750600115156113fe6112ad565b1515145b8061143f5750611410611ef0565b73ffffffffffffffffffffffffffffffffffffffff168173ffffffffffffffffffffffffffffffffffffffff16145b1515611480576040517f08c379a00000000000000000000000000000000000000000000000000000000081526004016114779061541a565b60405180910390fd5b600061148c888a611f44565b9050600061149a8883611f44565b9050600015156114b482606c611c4290919063ffffffff16565b15151415156114f8576040517f08c379a00000000000000000000000000000000000000000000000000000000081526004016114ef9061549a565b60405180910390fd5b611500611fa1565b6115168a886069611fe49092919063ffffffff16565b506000151561152f83606c611c4290919063ffffffff16565b151514156115435761154282888c61202f565b5b6115598187606c6125e39092919063ffffffff16565b5085888b7f73f74243127530ba96dc00b266dfa2b8da17d2b0489b55f8f947074436f23b718a611587611ef0565b60405161159592919061522d565b60405180910390a450505050505050505050565b6115b16112ad565b15156115f2576040517f08c379a00000000000000000000000000000000000000000000000000000000081526004016115e99061545a565b60405180910390fd5b80606760006101000a81548164ffffffffff021916908364ffffffffff16021790555050565b606060011515611632836069612b3b90919063ffffffff16565b1515141515611676576040517f08c379a000000000000000000000000000000000000000000000000000000000815260040161166d9061555a565b60405180910390fd5b61168a826069612b5b90919063ffffffff16565b9050919050565b600060019054906101000a900460ff16806116b057506116af612bca565b5b806116c757506000809054906101000a900460ff16155b1515611708576040517f08c379a00000000000000000000000000000000000000000000000000000000081526004016116ff9061547a565b60405180910390fd5b60008060019054906101000a900460ff161590508015611758576001600060016101000a81548160ff02191690831515021790555060016000806101000a81548160ff0219169083151502179055505b61176133612be1565b61176a82612d8b565b611772612e80565b80156117935760008060016101000a81548160ff0219169083151502179055505b5050565b600080600060010260686000858152602001908152602001600020541115156117f5576040517f08c379a00000000000000000000000000000000000000000000000000000000081526004016117ec906155ba565b60405180910390fd5b600060686000858152602001908152602001600020546001900490508060ff169250600881908060020a8204915050915050915091565b611834610f2c565b73ffffffffffffffffffffffffffffffffffffffff163373ffffffffffffffffffffffffffffffffffffffff161415156118a3576040517f08c379a000000000000000000000000000000000000000000000000000000000815260040161189a906152ba565b60405180910390fd5b6118f385858080601f016020809104026020016040519081016040528093929190818152602001838380828437600081840152601f19601f82011690508083019250505050505050848484612ee2565b5050505050565b606061191082606c611c4290919063ffffffff16565b156119305761192982606c612a7290919063ffffffff16565b9050611968565b60006040519080825280601f01601f1916602001820160405280156119645781602001600182028038833980820191505090505b5090505b919050565b6119756112ad565b15156119b6576040517f08c379a00000000000000000000000000000000000000000000000000000000081526004016119ad9061545a565b60405180910390fd5b60006001026068600083815260200190815260200160002081905550611a0b7f736368656d61732e7075626c69632e7461626c6573000000000000000000000060010283606c612ee89092919063ffffffff16565b50611a20816069612f0b90919063ffffffff16565b505050565b6000611a3d83836069612f449092919063ffffffff16565b905092915050565b611a4d6112ad565b1515611a8e576040517f08c379a0000000000000000000000000000000000000000000000000000000008152600401611a859061545a565b60405180910390fd5b611a9781612f8f565b50565b6000611aa46112ad565b1515611ae5576040517f08c379a0000000000000000000000000000000000000000000000000000000008152600401611adc9061545a565b60405180910390fd5b6000611aef611c33565b90506000611afb611c33565b73ffffffffffffffffffffffffffffffffffffffff166370a08231306040518263ffffffff167c0100000000000000000000000000000000000000000000000000000000028152600401611b4f9190615191565b60206040518083038186803b158015611b6757600080fd5b505afa158015611b7b573d6000803e3d6000fd5b505050506040513d601f19601f82011682018060405250611b9f91908101906147e8565b90508173ffffffffffffffffffffffffffffffffffffffff1662f714ce82866040518363ffffffff167c0100000000000000000000000000000000000000000000000000000000028152600401611bf7929190615660565b600060405180830381600087803b158015611c1157600080fd5b505af1158015611c25573d6000803e3d6000fd5b505050508092505050919050565b6000611c3d61220a565b905090565b6000611c5a82846000016130c190919063ffffffff16565b80611c775750611c7682846003016130e190919063ffffffff16565b5b80611c945750611c938284600601612b3b90919063ffffffff16565b5b80611cb15750611cb0828460090161310190919063ffffffff16565b5b905092915050565b6060611cd18284600601612b5b90919063ffffffff16565b905092915050565b6000611cf1828460000161312190919063ffffffff16565b905092915050565b611d016112ad565b1515611d42576040517f08c379a0000000000000000000000000000000000000000000000000000000008152600401611d399061545a565b60405180910390fd5b60008260ff168117905060088273ffffffffffffffffffffffffffffffffffffffff169060020a0273ffffffffffffffffffffffffffffffffffffffff168117905080600102606860008681526020019081526020016000208190555050505050565b6000611dbd83856000016130c190919063ffffffff16565b151515611dff576040517f08c379a0000000000000000000000000000000000000000000000000000000008152600401611df69061539a565b60405180910390fd5b611e1583856003016130e190919063ffffffff16565b151515611e57576040517f08c379a0000000000000000000000000000000000000000000000000000000008152600401611e4e9061539a565b60405180910390fd5b611e6d838560090161310190919063ffffffff16565b151515611eaf576040517f08c379a0000000000000000000000000000000000000000000000000000000008152600401611ea69061539a565b60405180910390fd5b611ec7838386600601611fe49092919063ffffffff16565b90509392505050565b6000611ee8828460010161318c90919063ffffffff16565b905092915050565b6000611efa61220a565b73ffffffffffffffffffffffffffffffffffffffff163373ffffffffffffffffffffffffffffffffffffffff16141515611f3657339050611f41565b611f3e6131f8565b90505b90565b60006060604080519080825280601f01601f191660200182016040528015611f7b5781602001600182028038833980820191505090505b509050836040820152826020820152600081805190602001209050809250505092915050565b6000611fab610859565b90506000606660008381526020019081526020016000205490506001810160666000848152602001908152602001600020819055505050565b6000611ff08484612b3b565b156120235761201c8285600001600086815260200190815260200160002061318c90919063ffffffff16565b9050612028565b600090505b9392505050565b6000151561204784606c611c4290919063ffffffff16565b151514151561208b576040517f08c379a0000000000000000000000000000000000000000000000000000000008152600401612082906153ba565b60405180910390fd5b60004263ffffffff16905060206120a0611ef0565b73ffffffffffffffffffffffffffffffffffffffff169060020a02811790506120d88482600102606c6125e39092919063ffffffff16565b5050505050565b60006120f783856000016130c190919063ffffffff16565b151515612139576040517f08c379a00000000000000000000000000000000000000000000000000000000081526004016121309061539a565b60405180910390fd5b61214f8385600601612b3b90919063ffffffff16565b151515612191576040517f08c379a00000000000000000000000000000000000000000000000000000000081526004016121889061539a565b60405180910390fd5b6121a7838560090161310190919063ffffffff16565b1515156121e9576040517f08c379a00000000000000000000000000000000000000000000000000000000081526004016121e09061539a565b60405180910390fd5b6122018383866003016132709092919063ffffffff16565b90509392505050565b6000807f06b7792c761dcc05af1761f0315ce8b01ac39c16cc934eb0b2f7a8e71414f2626001029050805491505090565b612243613f54565b81518351141515612289576040517f08c379a0000000000000000000000000000000000000000000000000000000008152600401612280906153da565b60405180910390fd5b612291613f54565b848160000181815250506122a584846132bb565b8160200181905250809150509392505050565b606060006122c5836133d1565b90506060816040519080825280601f01601f1916602001820160405280156122fc5781602001600182028038833980820191505090505b509050612318828286600001516133ec9092919063ffffffff16565b602082039150612337828286602001516133f69092919063ffffffff16565b915060008214151561237e576040517f08c379a00000000000000000000000000000000000000000000000000000000081526004016123759061529a565b60405180910390fd5b8092505050919050565b600115156123a285836069612f449092919063ffffffff16565b15151415156123e6576040517f08c379a00000000000000000000000000000000000000000000000000000000081526004016123dd9061559a565b60405180910390fd5b6000806123f286611797565b9150915060008211151561243b576040517f08c379a0000000000000000000000000000000000000000000000000000000008152600401612432906152fa565b60405180910390fd5b60018211806124555750600115156124516112ad565b1515145b806124925750612463611ef0565b73ffffffffffffffffffffffffffffffffffffffff168173ffffffffffffffffffffffffffffffffffffffff16145b15156124d3576040517f08c379a00000000000000000000000000000000000000000000000000000000081526004016124ca9061537a565b60405180910390fd5b6002821015156125db5760006124f385606c611cd990919063ffffffff16565b9050600060208260019004908060020a82049150509050612512611ef0565b73ffffffffffffffffffffffffffffffffffffffff168173ffffffffffffffffffffffffffffffffffffffff16141561254a576125d8565b600115156125566112ad565b151514806125965750612567611ef0565b73ffffffffffffffffffffffffffffffffffffffff168373ffffffffffffffffffffffffffffffffffffffff16145b15156125d7576040517f08c379a00000000000000000000000000000000000000000000000000000000081526004016125ce906153fa565b60405180910390fd5b5b50505b505050505050565b60006125fb83856003016130e190919063ffffffff16565b15151561263d576040517f08c379a00000000000000000000000000000000000000000000000000000000081526004016126349061539a565b60405180910390fd5b6126538385600601612b3b90919063ffffffff16565b151515612695576040517f08c379a000000000000000000000000000000000000000000000000000000000815260040161268c9061539a565b60405180910390fd5b6126ab838560090161310190919063ffffffff16565b1515156126ed576040517f08c379a00000000000000000000000000000000000000000000000000000000081526004016126e49061539a565b60405180910390fd5b6127058383866000016134b39092919063ffffffff16565b90509392505050565b6000919050565b6001151561272f85836069612f449092919063ffffffff16565b1515141515612773576040517f08c379a000000000000000000000000000000000000000000000000000000000815260040161276a9061553a565b60405180910390fd5b60008061277f86611797565b915091506000821115156127c8576040517f08c379a00000000000000000000000000000000000000000000000000000000081526004016127bf906152da565b60405180910390fd5b60018211806127e25750600115156127de6112ad565b1515145b8061281f57506127f0611ef0565b73ffffffffffffffffffffffffffffffffffffffff168173ffffffffffffffffffffffffffffffffffffffff16145b1515612860576040517f08c379a0000000000000000000000000000000000000000000000000000000008152600401612857906154ba565b60405180910390fd5b600282101515612961576128726112ad565b806128af5750612880611ef0565b73ffffffffffffffffffffffffffffffffffffffff168173ffffffffffffffffffffffffffffffffffffffff16145b156128b957612960565b60006128cf86606c611cd990919063ffffffff16565b9050600060208260019004908060020a820491505090506128ee611ef0565b73ffffffffffffffffffffffffffffffffffffffff168173ffffffffffffffffffffffffffffffffffffffff1614151561295d576040517f08c379a0000000000000000000000000000000000000000000000000000000008152600401612954906155da565b60405180910390fd5b50505b5b505050505050565b60006129758484612b3b565b156129a8576129a1828560000160008681526020019081526020016000206134ee90919063ffffffff16565b90506129ad565b600090505b9392505050565b6000606082600b01602060405190810160405280600081525091509150915091565b600060606129f360206040519081016040528060008152506135e7565b915091509091565b6000612a1382846000016135f790919063ffffffff16565b80612a305750612a2f828460030161364990919063ffffffff16565b5b80612a4d5750612a4c8284600601612f0b90919063ffffffff16565b5b80612a6a5750612a6982846009016136a390919063ffffffff16565b5b905092915050565b6060612a8a82846003016136dc90919063ffffffff16565b905092915050565b612a9a613f54565b600082519050612aa8613f54565b612abb82856137df90919063ffffffff16565b816000018181525050602082039150612add82856137ed90919063ffffffff16565b819150826020018194508290525050600082141515612b31576040517f08c379a0000000000000000000000000000000000000000000000000000000008152600401612b289061529a565b60405180910390fd5b8092505050919050565b6000612b5382846001016138f890919063ffffffff16565b905092915050565b6060612b678383612b3b565b15612b9057612b8983600001600084815260200190815260200160002061391b565b9050612bc4565b6000604051908082528060200260200182016040528015612bc05781602001602082028038833980820191505090505b5090505b92915050565b6000803090506000813b9050600081149250505090565b600060019054906101000a900460ff1680612c005750612bff612bca565b5b80612c1757506000809054906101000a900460ff16155b1515612c58576040517f08c379a0000000000000000000000000000000000000000000000000000000008152600401612c4f9061547a565b60405180910390fd5b60008060019054906101000a900460ff161590508015612ca8576001600060016101000a81548160ff02191690831515021790555060016000806101000a81548160ff0219169083151502179055505b81603360006101000a81548173ffffffffffffffffffffffffffffffffffffffff021916908373ffffffffffffffffffffffffffffffffffffffff160217905550603360009054906101000a900473ffffffffffffffffffffffffffffffffffffffff1673ffffffffffffffffffffffffffffffffffffffff16600073ffffffffffffffffffffffffffffffffffffffff167f8be0079c531659141344cd1fd0a4f28419497f9722a3daafe3b4186f6b6457e060405160405180910390a38015612d875760008060016101000a81548160ff0219169083151502179055505b5050565b600060019054906101000a900460ff1680612daa5750612da9612bca565b5b80612dc157506000809054906101000a900460ff16155b1515612e02576040517f08c379a0000000000000000000000000000000000000000000000000000000008152600401612df99061547a565b60405180910390fd5b60008060019054906101000a900460ff161590508015612e52576001600060016101000a81548160ff02191690831515021790555060016000806101000a81548160ff0219169083151502179055505b612e5b826139b8565b8015612e7c5760008060016101000a81548160ff0219169083151502179055505b5050565b6103e8606760006101000a81548164ffffffffff021916908364ffffffffff160217905550612edf7f736368656d61732e7075626c69632e7461626c657300000000000000000000006001026000606c613aad9092919063ffffffff16565b50565b50505050565b6000612f028383866006016129699092919063ffffffff16565b90509392505050565b6000612f178383612b3b565b15612f3957612f3282846001016134ee90919063ffffffff16565b9050612f3e565b600090505b92915050565b6000612f508484612b3b565b15612f8357612f7c828560000160008681526020019081526020016000206138f890919063ffffffff16565b9050612f88565b600090505b9392505050565b600073ffffffffffffffffffffffffffffffffffffffff168173ffffffffffffffffffffffffffffffffffffffff1614151515613001576040517f08c379a0000000000000000000000000000000000000000000000000000000008152600401612ff89061531a565b60405180910390fd5b8073ffffffffffffffffffffffffffffffffffffffff16603360009054906101000a900473ffffffffffffffffffffffffffffffffffffffff1673ffffffffffffffffffffffffffffffffffffffff167f8be0079c531659141344cd1fd0a4f28419497f9722a3daafe3b4186f6b6457e060405160405180910390a380603360006101000a81548173ffffffffffffffffffffffffffffffffffffffff021916908373ffffffffffffffffffffffffffffffffffffffff16021790555050565b60006130d982846001016138f890919063ffffffff16565b905092915050565b60006130f982846001016138f890919063ffffffff16565b905092915050565b600061311982846001016138f890919063ffffffff16565b905092915050565b600061312d83836130c1565b151561316e576040517f08c379a00000000000000000000000000000000000000000000000000000000081526004016131659061557a565b60405180910390fd5b82600001600083815260200190815260200160002054905092915050565b600061319883836138f8565b15156131ed5782600101829080600181540180825580915050906001820390600052602060002001600090919290919091505583600001600084815260200190815260200160002081905550600190506131f2565b600090505b92915050565b600060606000368080601f016020809104026020016040519081016040528093929190818152602001838380828437600081840152601f19601f820116905080830192505050505050509050600080369050905073ffffffffffffffffffffffffffffffffffffffff81830151169250829250505090565b600081846000016000858152602001908152602001600020908051906020019061329b929190613f71565b506132b2838560010161318c90919063ffffffff16565b90509392505050565b606081518351141515613303576040517f08c379a00000000000000000000000000000000000000000000000000000000081526004016132fa906153da565b60405180910390fd5b6060835160405190808252806020026020018201604052801561334057816020015b61332d613ff1565b8152602001906001900390816133255790505b50905060008090505b84518110156133c65761335a614011565b858281518110151561336857fe5b90602001906020020151816000018181525050848281518110151561338957fe5b906020019060200201518160200181815250508083838151811015156133ab57fe5b90602001906020020181905250508080600101915050613349565b508091505092915050565b60006133e08260200151613d95565b60208001019050919050565b8282820152505050565b600080839050613419818461340a88613d95565b613da39092919063ffffffff16565b60208103905060008090505b85518110156134a75761345e8285888481518110151561344157fe5b90602001906020020151600001516133ec9092919063ffffffff16565b6020820391506134948285888481518110151561347757fe5b90602001906020020151602001516133ec9092919063ffffffff16565b6020820391508080600101915050613425565b50809150509392505050565b600081846000016000858152602001908152602001600020819055506134e5838560010161318c90919063ffffffff16565b90509392505050565b60006134fa83836138f8565b156135dc5760006001846000016000858152602001908152602001600020540390506000600185600101805490500390508181141515613593576000856001018281548110151561354757fe5b9060005260206000200154905080866001018481548110151561356657fe5b90600052602060002001819055506001830186600001600083815260200190815260200160002081905550505b846000016000858152602001908152602001600020600090558460010180548015156135bb57fe5b600190038181906000526020600020016000905590556001925050506135e1565b600090505b92915050565b6000606060008391509150915091565b600061360383836130c1565b1561363e578260000160008381526020019081526020016000206000905561363782846001016134ee90919063ffffffff16565b9050613643565b600090505b92915050565b600061365583836130e1565b1561369857826000016000838152602001908152602001600020600061367b9190614031565b61369182846001016134ee90919063ffffffff16565b905061369d565b600090505b92915050565b60006136af8383613101565b156136d1576136ca82846001016134ee90919063ffffffff16565b90506136d6565b600090505b92915050565b60606136e883836130e1565b1515613729576040517f08c379a00000000000000000000000000000000000000000000000000000000081526004016137209061557a565b60405180910390fd5b8260000160008381526020019081526020016000208054600181600116156101000203166002900480601f0160208091040260200160405190810160405280929190818152602001828054600181600116156101000203166002900480156137d25780601f106137a7576101008083540402835291602001916137d2565b820191906000526020600020905b8154815290600101906020018083116137b557829003601f168201915b5050505050905092915050565b600081830151905092915050565b6060600080839050600061380a8287613dad90919063ffffffff16565b9050602082039150600060408281151561382057fe5b04905060608160405190808252806020026020018201604052801561385f57816020015b61384c613ff1565b8152602001906001900390816138445790505b50905060008090505b828110156138e657613878614011565b61388b868b6137df90919063ffffffff16565b8160000181815250506020860395506138ad868b6137df90919063ffffffff16565b8160200181815250506020860395508083838151811015156138cb57fe5b90602001906020020181905250508080600101915050613868565b50808495509550505050509250929050565b600080836000016000848152602001908152602001600020541415905092915050565b60608082600101805490506040519080825280602002602001820160405280156139545781602001602082028038833980820191505090505b50905060005b83600101805490508110156139ae57836001018181548110151561397a57fe5b9060005260206000200154828281518110151561399357fe5b9060200190602002018181525050808060010191505061395a565b5080915050919050565b600060019054906101000a900460ff16806139d757506139d6612bca565b5b806139ee57506000809054906101000a900460ff16155b1515613a2f576040517f08c379a0000000000000000000000000000000000000000000000000000000008152600401613a269061547a565b60405180910390fd5b60008060019054906101000a900460ff161590508015613a7f576001600060016101000a81548160ff02191690831515021790555060016000806101000a81548160ff0219169083151502179055505b613a8882613dbb565b8015613aa95760008060016101000a81548160ff0219169083151502179055505b5050565b60006004826003811115613abd57fe5b60ff16101515613b02576040517f08c379a0000000000000000000000000000000000000000000000000000000008152600401613af9906154fa565b60405180910390fd5b613b1883856000016130c190919063ffffffff16565b151515613b5a576040517f08c379a0000000000000000000000000000000000000000000000000000000008152600401613b519061539a565b60405180910390fd5b613b7083856003016130e190919063ffffffff16565b151515613bb2576040517f08c379a0000000000000000000000000000000000000000000000000000000008152600401613ba99061539a565b60405180910390fd5b613bc88385600601612b3b90919063ffffffff16565b151515613c0a576040517f08c379a0000000000000000000000000000000000000000000000000000000008152600401613c019061539a565b60405180910390fd5b613c20838560090161310190919063ffffffff16565b151515613c62576040517f08c379a0000000000000000000000000000000000000000000000000000000008152600401613c599061539a565b60405180910390fd5b816003811115613c6e57fe5b60006003811115613c7b57fe5b1415613c9e57613c978385600601611ed090919063ffffffff16565b9050613d8e565b816003811115613caa57fe5b60016003811115613cb757fe5b1415613cda57613cd38385600901613f3490919063ffffffff16565b9050613d8e565b816003811115613ce657fe5b60026003811115613cf357fe5b1415613d1c57613d15836000600102866000016134b39092919063ffffffff16565b9050613d8e565b816003811115613d2857fe5b600380811115613d3457fe5b1415613d8d57613d868360006040519080825280601f01601f191660200182016040528015613d725781602001600182028038833980820191505090505b50866003016132709092919063ffffffff16565b9050613d8e565b5b9392505050565b600060408251029050919050565b8282820152505050565b600081830151905092915050565b6000613dc561220a565b9050600073ffffffffffffffffffffffffffffffffffffffff168273ffffffffffffffffffffffffffffffffffffffff1614151515613e39576040517f08c379a0000000000000000000000000000000000000000000000000000000008152600401613e30906154da565b60405180910390fd5b8073ffffffffffffffffffffffffffffffffffffffff168273ffffffffffffffffffffffffffffffffffffffff1614151515613eaa576040517f08c379a0000000000000000000000000000000000000000000000000000000008152600401613ea19061535a565b60405180910390fd5b8173ffffffffffffffffffffffffffffffffffffffff168173ffffffffffffffffffffffffffffffffffffffff167fb9f84b8e65164b14439ae3620df0a4d8786d896996c0282b683f9d8c08f046e860405160405180910390a360007f06b7792c761dcc05af1761f0315ce8b01ac39c16cc934eb0b2f7a8e71414f2626001029050828155505050565b6000613f4c828460010161318c90919063ffffffff16565b905092915050565b604080519081016040528060008019168152602001606081525090565b828054600181600116156101000203166002900490600052602060002090601f016020900481019282601f10613fb257805160ff1916838001178555613fe0565b82800160010185558215613fe0579182015b82811115613fdf578251825591602001919060010190613fc4565b5b509050613fed9190614079565b5090565b604080519081016040528060008019168152602001600080191681525090565b604080519081016040528060008019168152602001600080191681525090565b50805460018160011615610100020316600290046000825580601f106140575750614076565b601f0160209004906000526020600020908101906140759190614079565b5b50565b61409b91905b8082111561409757600081600090555060010161407f565b5090565b90565b60006140aa8235615856565b905092915050565b60006140be8235615868565b905092915050565b600082601f83011215156140d957600080fd5b81356140ec6140e782615701565b6156d4565b9150818183526020840193506020810190508385602084028201111561411157600080fd5b60005b838110156141415781614127888261415f565b845260208401935060208301925050600181019050614114565b5050505092915050565b6000614157823561587a565b905092915050565b600061416b8235615886565b905092915050565b60008083601f840112151561418757600080fd5b8235905067ffffffffffffffff8111156141a057600080fd5b6020830191508360018202830111156141b857600080fd5b9250929050565b600082601f83011215156141d257600080fd5b81356141e56141e082615729565b6156d4565b9150808252602083016020830185838301111561420157600080fd5b61420c8382846158dd565b50505092915050565b60006142218235615890565b905092915050565b60006142358251615890565b905092915050565b6000614249823561589a565b905092915050565b60006020828403121561426357600080fd5b60006142718482850161409e565b91505092915050565b60006020828403121561428c57600080fd5b600061429a848285016140b2565b91505092915050565b60008060008060008060008060008060006101208c8e0312156142c557600080fd5b60006142d38e828f0161409e565b9b505060206142e48e828f0161409e565b9a505060408c013567ffffffffffffffff81111561430157600080fd5b61430d8e828f01614173565b995099505060606143208e828f01614215565b97505060806143318e828f01614215565b96505060a06143428e828f01614215565b95505060c06143538e828f01614215565b94505060e08c013567ffffffffffffffff81111561437057600080fd5b61437c8e828f01614173565b93509350506101006143908e828f01614215565b9150509295989b509295989b9093969950565b6000602082840312156143b557600080fd5b60006143c38482850161415f565b91505092915050565b600080604083850312156143df57600080fd5b60006143ed8582860161415f565b92505060206143fe8582860161415f565b9150509250929050565b6000806000806080858703121561441e57600080fd5b600061442c8782880161415f565b945050602061443d8782880161415f565b935050604085013567ffffffffffffffff81111561445a57600080fd5b614466878288016140c6565b925050606085013567ffffffffffffffff81111561448357600080fd5b61448f878288016140c6565b91505092959194509250565b6000806000606084860312156144b057600080fd5b60006144be8682870161415f565b93505060206144cf8682870161415f565b92505060406144e08682870161415f565b9150509250925092565b6000806000806080858703121561450057600080fd5b600061450e8782880161415f565b945050602061451f8782880161415f565b93505060406145308782880161415f565b92505060606145418782880161415f565b91505092959194509250565b600080600080600060a0868803121561456557600080fd5b60006145738882890161415f565b95505060206145848882890161415f565b94505060406145958882890161415f565b93505060606145a68882890161415f565b92505060806145b78882890161415f565b9150509295509295909350565b600080600080600060a086880312156145dc57600080fd5b60006145ea8882890161415f565b95505060206145fb8882890161415f565b945050604061460c8882890161415f565b935050606061461d8882890161415f565b925050608086013567ffffffffffffffff81111561463a57600080fd5b614646888289016141bf565b9150509295509295909350565b600080600080600060a0868803121561466b57600080fd5b60006146798882890161415f565b955050602061468a8882890161415f565b945050604061469b8882890161423d565b935050606086013567ffffffffffffffff8111156146b857600080fd5b6146c4888289016140c6565b925050608086013567ffffffffffffffff8111156146e157600080fd5b6146ed888289016140c6565b9150509295509295909350565b6000806020838503121561470d57600080fd5b600083013567ffffffffffffffff81111561472757600080fd5b61473385828601614173565b92509250509250929050565b60008060008060006080868803121561475757600080fd5b600086013567ffffffffffffffff81111561477157600080fd5b61477d88828901614173565b955095505060206147908882890161414b565b93505060406147a188828901614215565b92505060606147b28882890161415f565b9150509295509295909350565b6000602082840312156147d157600080fd5b60006147df84828501614215565b91505092915050565b6000602082840312156147fa57600080fd5b600061480884828501614229565b91505092915050565b6000806040838503121561482457600080fd5b600061483285828601614215565b9250506020614843858286016140b2565b9150509250929050565b614856816158a7565b82525050565b614865816157c7565b82525050565b614874816157b5565b82525050565b60006148858261576f565b80845260208401935061489783615755565b60005b828110156148c9576148ad86835161493f565b6148b68261579b565b915060208601955060018101905061489a565b50849250505092915050565b60006148e08261577a565b8084526020840193506148f283615762565b60005b82811015614924576149088683516150ec565b614911826157a8565b91506040860195506001810190506148f5565b50849250505092915050565b614939816157d9565b82525050565b614948816157e5565b82525050565b614957816157ef565b82525050565b600061496882615785565b80845261497c8160208601602086016158ec565b6149858161591f565b602085010191505092915050565b600061499e82615790565b8084526149b28160208601602086016158ec565b6149bb8161591f565b602085010191505092915050565b6000601c82527f456e636f64696e67204572726f723a206f666673657420213d20302e000000006020830152604082019050919050565b6000602682527f47534e426f756e636572426173653a2063616c6c6572206973206e6f7420526560208301527f6c617948756200000000000000000000000000000000000000000000000000006040830152606082019050919050565b6000601f82527f43616e6e6f742044454c4554452066726f6d2073797374656d207461626c65006020830152604082019050919050565b6000601a82527f43616e6e6f74205550444154452073797374656d207461626c650000000000006020830152604082019050919050565b6000602682527f4f776e61626c653a206e6577206f776e657220697320746865207a65726f206160208301527f64647265737300000000000000000000000000000000000000000000000000006040830152606082019050919050565b6000601f82527f43616e6e6f7420494e5345525420696e746f2073797374656d207461626c65006020830152604082019050919050565b6000602b82527f47534e436f6e746578743a206e65772052656c6179487562206973207468652060208301527f63757272656e74206f6e650000000000000000000000000000000000000000006040830152606082019050919050565b6000602e82527f4f6e6c79206f776e65722f64656c65676174652063616e20555044415445206960208301527f6e746f2074686973207461626c650000000000000000000000000000000000006040830152606082019050919050565b6000602082527f4572726f723a206b65792065786973747320696e206f7468657220646963742e6020830152604082019050919050565b6000601582527f726f7720616c726561647920686173206f776e657200000000000000000000006020830152604082019050919050565b6000601082527f4572726f7220616c69676e6d656e742e000000000000000000000000000000006020830152604082019050919050565b6000603982527f4e6f7420726f774f776e6572206f72206f776e65722f64656c6567617465206660208301527f6f722055504441544520696e746f2074686973207461626c65000000000000006040830152606082019050919050565b6000602e82527f4f6e6c79206f776e65722f64656c65676174652063616e20494e53455254206960208301527f6e746f2074686973207461626c650000000000000000000000000000000000006040830152606082019050919050565b6000601282527f6572726f722072656d6f76696e67206b657900000000000000000000000000006020830152604082019050919050565b6000602082527f4f776e61626c653a2063616c6c6572206973206e6f7420746865206f776e65726020830152604082019050919050565b6000602e82527f436f6e747261637420696e7374616e63652068617320616c726561647920626560208301527f656e20696e697469616c697a65640000000000000000000000000000000000006040830152606082019050919050565b6000601782527f69642b6669656c6420616c7265616479206578697374730000000000000000006020830152604082019050919050565b6000602e82527f4f6e6c79206f776e65722f64656c65676174652063616e2044454c455445206660208301527f726f6d2074686973207461626c650000000000000000000000000000000000006040830152606082019050919050565b6000602c82527f47534e436f6e746578743a206e65772052656c6179487562206973207468652060208301527f7a65726f206164647265737300000000000000000000000000000000000000006040830152606082019050919050565b6000601382527f496e76616c6964207461626c65207479706521000000000000000000000000006020830152604082019050919050565b6000601482527f5461626c6520616c7265616479206578697374730000000000000000000000006020830152604082019050919050565b6000601082527f696420646f65736e2774206578697374000000000000000000000000000000006020830152604082019050919050565b6000601182527f7461626c65206e6f7420637265617465640000000000000000000000000000006020830152604082019050919050565b6000601382527f4b657920646f6573206e6f7420657869737421000000000000000000000000006020830152604082019050919050565b6000601c82527f696420646f65736e27742065786973742c2075736520494e53455254000000006020830152604082019050919050565b6000601482527f7461626c6520646f6573206e6f742065786973740000000000000000000000006020830152604082019050919050565b6000601782527f53656e646572206e6f74206f776e6572206f6620726f770000000000000000006020830152604082019050919050565b604082016000820151615102600085018261493f565b506020820151615115602085018261493f565b50505050565b6000604083016000830151615133600086018261493f565b506020830151848203602086015261514b82826148d5565b9150508091505092915050565b6151618161583b565b82525050565b61517081615845565b82525050565b600060208201905061518b600083018461486b565b92915050565b60006020820190506151a6600083018461484d565b92915050565b60006040820190506151c1600083018561486b565b6151ce602083018461494e565b9392505050565b600060208201905081810360008301526151ef818461487a565b905092915050565b600060208201905061520c6000830184614930565b92915050565b6000602082019050615227600083018461493f565b92915050565b6000604082019050615242600083018561493f565b61524f602083018461486b565b9392505050565b60006020820190508181036000830152615270818461495d565b905092915050565b600060208201905081810360008301526152928184614993565b905092915050565b600060208201905081810360008301526152b3816149c9565b9050919050565b600060208201905081810360008301526152d381614a00565b9050919050565b600060208201905081810360008301526152f381614a5d565b9050919050565b6000602082019050818103600083015261531381614a94565b9050919050565b6000602082019050818103600083015261533381614acb565b9050919050565b6000602082019050818103600083015261535381614b28565b9050919050565b6000602082019050818103600083015261537381614b5f565b9050919050565b6000602082019050818103600083015261539381614bbc565b9050919050565b600060208201905081810360008301526153b381614c19565b9050919050565b600060208201905081810360008301526153d381614c50565b9050919050565b600060208201905081810360008301526153f381614c87565b9050919050565b6000602082019050818103600083015261541381614cbe565b9050919050565b6000602082019050818103600083015261543381614d1b565b9050919050565b6000602082019050818103600083015261545381614d78565b9050919050565b6000602082019050818103600083015261547381614daf565b9050919050565b6000602082019050818103600083015261549381614de6565b9050919050565b600060208201905081810360008301526154b381614e43565b9050919050565b600060208201905081810360008301526154d381614e7a565b9050919050565b600060208201905081810360008301526154f381614ed7565b9050919050565b6000602082019050818103600083015261551381614f34565b9050919050565b6000602082019050818103600083015261553381614f6b565b9050919050565b6000602082019050818103600083015261555381614fa2565b9050919050565b6000602082019050818103600083015261557381614fd9565b9050919050565b6000602082019050818103600083015261559381615010565b9050919050565b600060208201905081810360008301526155b381615047565b9050919050565b600060208201905081810360008301526155d38161507e565b9050919050565b600060208201905081810360008301526155f3816150b5565b9050919050565b60006020820190508181036000830152615614818461511b565b905092915050565b60006020820190506156316000830184615158565b92915050565b600060408201905061564c6000830185615158565b615659602083018461486b565b9392505050565b60006040820190506156756000830185615158565b615682602083018461485c565b9392505050565b600060408201905061569e6000830185615158565b81810360208301526156b0818461495d565b90509392505050565b60006020820190506156ce6000830184615167565b92915050565b6000604051905081810181811067ffffffffffffffff821117156156f757600080fd5b8060405250919050565b600067ffffffffffffffff82111561571857600080fd5b602082029050602081019050919050565b600067ffffffffffffffff82111561574057600080fd5b601f19601f8301169050602081019050919050565b6000602082019050919050565b6000602082019050919050565b600081519050919050565b600081519050919050565b600081519050919050565b600081519050919050565b6000602082019050919050565b6000602082019050919050565b60006157c08261581b565b9050919050565b60006157d28261581b565b9050919050565b60008115159050919050565b6000819050919050565b60007fffffffff0000000000000000000000000000000000000000000000000000000082169050919050565b600073ffffffffffffffffffffffffffffffffffffffff82169050919050565b6000819050919050565b600064ffffffffff82169050919050565b60006158618261581b565b9050919050565b60006158738261581b565b9050919050565b60008115159050919050565b6000819050919050565b6000819050919050565b600060ff82169050919050565b60006158b2826158b9565b9050919050565b60006158c4826158cb565b9050919050565b60006158d68261581b565b9050919050565b82818337600083830152505050565b60005b8381101561590a5780820151818401526020810190506158ef565b83811115615919576000848401525b50505050565b6000601f19601f830116905091905056fea265627a7a723058204adf0a4d4d7fd656a78155f129f8697c6a17c9ce00b2b0657209b16fb78e194d6c6578706572696d656e74616cf50037",
  "compiler": {
    "name": "solc",
    "version": "0.5.0+commit.1d4f565a.Emscripten.clang",
    "optimizer": {
      "enabled": false,
      "runs": 200
    },
    "evmVersion": "byzantium"
  }
}