{
  "fileName": "ELAJSStore.sol",
  "contractName": "ELAJSStore",
  "source": "pragma solidity ^0.5.0;\npragma experimental ABIEncoderV2;\n\nimport \"sol-datastructs/src/contracts/PolymorphicDictionaryLib.sol\";\n\n// import \"sol-datastructs/src/contracts/Bytes32DictionaryLib.sol\";\nimport \"sol-datastructs/src/contracts/Bytes32SetDictionaryLib.sol\";\n\n// import \"./oz/EnumerableSetDictionary.sol\";\n\nimport \"sol-sql/src/contracts/src/structs/TableLib.sol\";\n\nimport \"./ozEla/OwnableELA.sol\";\nimport \"./gsnEla/GSNRecipientELA.sol\";\nimport \"./gsnEla/IRelayHubELA.sol\";\n\ncontract DateTime {\n    function getYear(uint timestamp) public pure returns (uint16);\n    function getMonth(uint timestamp) public pure returns (uint8);\n    function getDay(uint timestamp) public pure returns (uint8);\n}\n\n// TODO: good practice to have functions not callable externally and internally\ncontract ELAJSStore is OwnableELA, GSNRecipientELA {\n\n    // DateTime Contract address\n    address public dateTimeAddr = 0x9c71b2E820B067ea466ea81C0cd6852Bc8D8604e; // development\n    // address constant public dateTimeAddr = 0xEDb211a2dBbdE62012440177e65b68E0A66E4531; // testnet\n\n    // Initialize the DateTime contract ABI with the already deployed contract\n    DateTime dateTime = DateTime(dateTimeAddr);\n\n    // This counts the number of times this contract was called via GSN (expended owner gas) for rate limiting\n    // mapping is a keccak256('YYYY-MM-DD') => uint (TODO: we can probably compress this by week (4 bytes per day -> 28 bytes)\n    mapping(bytes32 => uint256) public gsnCounter;\n\n    // Max times we allow this to be called per day\n    uint40 public gsnMaxCallsPerDay;\n\n    using PolymorphicDictionaryLib for PolymorphicDictionaryLib.PolymorphicDictionary;\n    using Bytes32SetDictionaryLib for Bytes32SetDictionaryLib.Bytes32SetDictionary;\n\n    // _table = system table (bytes32 Dict) of each table's metadata marshaled\n    // 8 bits - permissions (00 = system, 01 = private, 10 = public, 11 = shared - owner can always edit)\n    // 20 bytes - address delegate - other address allowed to edit\n    mapping(bytes32 => bytes32) internal _table;\n\n    // table = dict, where the key is the table, and the value is a set of byte32 ids\n    Bytes32SetDictionaryLib.Bytes32SetDictionary internal tableId;\n\n    // Schema dictionary, key (schemasPublicTables) points to a set of table names\n    using TableLib for TableLib.Table;\n    using TableLib for bytes;\n    // using ColumnLib for ColumnLib.Column;\n    // using ColumnLib for bytes;\n\n    // schemaTables -> Set of tables (raw table name values) for enumeration\n    bytes32 constant public schemasTables = 0x736368656d61732e7075626c69632e7461626c65730000000000000000000000;\n\n    // namehash([tableName]) => encoded table schema\n    // ownership of each row (id) - key = namehash([id].[table]) which has a value that is the owner's address\n    // ultimately namehash([field].[id].[table]) gives us a bytes32 which maps to the single data value\n    PolymorphicDictionaryLib.PolymorphicDictionary internal database;\n\n\n    // ************************************* SETUP FUNCTIONS *************************************\n    function initialize() public initializer {\n        OwnableELA.initialize(msg.sender);\n        GSNRecipientELA.initialize();\n        _initialize();\n    }\n\n    function _initialize() internal {\n        gsnMaxCallsPerDay = 1000;\n\n        // init the key for schemasTables, our set is one-to-many-fixed, so table names must be max 32 bytes\n        database.addKey(schemasTables, PolymorphicDictionaryLib.DictionaryType.OneToManyFixed);\n    }\n\n    // ************************************* SCHEMA FUNCTIONS *************************************\n    /**\n     * @dev create a new table, only the owner may create this\n     *\n     * @param tableName right padded zeroes (Web3.utils.stringToHex)\n     * @param tableKey this is the namehash of tableName\n     */\n    function createTable(\n        bytes32 tableName,\n        bytes32 tableKey,\n        uint8 permission,\n        bytes32[] memory _columnName,\n        bytes32[] memory _columnDtype\n\n    ) public onlyOwner {\n\n        // this only works if tableName is trimmed of padding zeroes, since this is an onlyOwner call we won't bother\n        // require(isNamehashSubOf(keccak256(tableNameBytes), bytes32(0), tableKey), \"tableName does not match tableKey\");\n\n        // check if table exists\n        require(_table[tableKey] == 0, \"Table already exists\");\n\n        address delegate = address(0x0);\n\n        // claim the key slot and set the metadata\n        setTableMetadata(tableKey, permission, delegate);\n\n        database.addValueForKey(schemasTables, tableName);\n\n        // table stores the row ids set as the value, set up the key\n        tableId.addKey(tableKey);\n\n        // now insert the schema\n        TableLib.Table memory tableSchema = TableLib.create(\n            tableName,\n            _columnName,\n            _columnDtype\n        );\n\n        saveSchema(tableKey, tableSchema);\n    }\n\n    // TODO: this isn't complete\n    function deleteTable(\n        bytes32 tableName,\n        bytes32 tableKey\n    ) public onlyOwner {\n        _table[tableKey] = 0;\n        database.removeValueForKey(schemasTables, tableName);\n        tableId.removeKey(tableKey);\n    }\n\n    function getTables() external view returns (bytes32[] memory){\n        return database.enumerateForKeyOneToManyFixed(schemasTables);\n    }\n\n    /*\n    function tableExists(bytes32 tableKey) public view returns (bool) {\n        return tableId.containsKey(tableKey);\n    }\n    */\n\n    function saveSchema(bytes32 tableKey, TableLib.Table memory tableSchema) internal returns (bool) {\n        bytes memory encoded = tableSchema.encode();\n\n        // we store the encoded table schema on the base tableKey\n        return database.setValueForKey(tableKey, encoded);\n    }\n\n    // EXPERIMENTAL\n    function getSchema(bytes32 _name) public view returns (TableLib.Table memory) {\n        bytes memory encoded = database.getBytesForKey(_name);\n        return encoded.decodeTable();\n    }\n\n    // ************************************* CRUD FUNCTIONS *************************************\n\n    /**\n     * @dev Table level permission checks\n     */\n    modifier insertCheck(bytes32 tableKey, bytes32 idKey, bytes32 idTableKey) {\n\n        (uint256 permission, address delegate) = getTableMetadata(tableKey);\n\n        // if permission = 0, system table we can't do anything\n        require(permission > 0, \"Cannot INSERT into system table\");\n\n        // if permission = 1, we must be the owner/delegate\n        require(permission > 1 || isOwner() == true || delegate == _msgSender(), \"Only owner/delegate can INSERT into this table\");\n\n        // permissions check, is the idTableKey a subhash of the id and table?\n        require(isNamehashSubOf(idKey, tableKey, idTableKey) == true, \"idTableKey not a subhash [id].[table]\");\n\n        _;\n    }\n\n    /**\n     * @dev Prior to insert, we check the permissions and autoIncrement\n     * TODO: use the schema and determine the proper type of data to insert\n     *\n     * @param tableKey the namehashed [table] name string\n     * @param idKey the sha3 hashed idKey\n     * @param idTableKey the namehashed [id].[table] name string\n     *\n     * @param id as the raw string (unhashed)\n     *\n     *\n     */\n    function insertVal(\n\n        bytes32 tableKey,\n        bytes32 idTableKey,\n        bytes32 fieldIdTableKey,\n\n        bytes32 idKey,\n        bytes32 fieldKey,\n\n        bytes32 id,\n        bytes32 val)\n\n    public insertCheck(tableKey, idKey, idTableKey){\n\n        require(database.containsKey(fieldIdTableKey) == false, \"id+field already exists\");\n\n        // now check if the full field + id + table is a subhash\n        require(isNamehashSubOf(fieldKey, idTableKey, fieldIdTableKey) == true, \"fieldKey not a subhash [field].[id].[table]\");\n\n        // increment counter\n        increaseGsnCounter();\n\n        // add an id entry to the table's set of ids for the row (this is a set so we don't need to check first)\n        tableId.addValueForKey(tableKey, id);\n\n        // add the \"row owner\" if it doesn't exist, the row may already exist in which case we don't update it\n        if (database.containsKey(idTableKey) == false){\n            _setRowOwner(idTableKey, id, tableKey);\n        }\n\n        // finally set the data\n        // we won't serialize the type, that's way too much redundant data\n        database.setValueForKey(fieldIdTableKey, bytes32(val));\n\n    }\n\n    /*\n    function insertValVar(\n        bytes32 tableKey,\n        bytes32 idTableKey,\n        bytes32 fieldIdTableKey,\n\n        bytes32 idKey,\n        bytes32 fieldKey,\n\n        bytes32 id,\n        bytes memory val)\n\n    public insertCheck(tableKey, idKey, idTableKey){\n\n        require(database.containsKey(fieldIdTableKey) == false, \"id+field already exists\");\n\n        // now check if the full field + id + table is a subhash\n        require(isNamehashSubOf(fieldKey, idTableKey, fieldIdTableKey) == true, \"fieldKey not a subhash [field].[id].[table]\");\n\n        // increment counter\n        increaseGsnCounter();\n\n        // add an id entry to the table's set of ids for the row\n        tableId.addValueForKey(tableKey, id);\n\n        // finally set the data\n        database.setValueForKey(fieldIdTableKey, val);\n    }\n    */\n\n    /**\n     * @dev we are essentially claiming this [id].[table] for the msg.sender, and setting the id createdDate\n     */\n    function _setRowOwner(bytes32 idTableKey, bytes32 id, bytes32 tableKey) internal {\n\n        require(database.containsKey(idTableKey) == false, \"row already has owner\");\n\n        uint256 rowMetadata;\n\n        uint16 year = dateTime.getYear(now);\n        uint8 month = dateTime.getMonth(now);\n        uint8 day = dateTime.getDay(now);\n\n        rowMetadata |= year;\n        rowMetadata |= uint256(month)<<16;\n        rowMetadata |= uint256(day)<<24;\n\n        bytes4 createdDate = bytes4(uint32(rowMetadata));\n\n        rowMetadata |= uint256(_msgSender())<<32;\n\n        database.setValueForKey(idTableKey, bytes32(rowMetadata));\n\n        emit InsertRow(id, tableKey, _msgSender());\n    }\n\n    event InsertRow (\n        bytes32 indexed _id,\n        bytes32 indexed _tableKey,\n        address indexed _rowOwner\n    );\n\n    function getRowOwner(bytes32 idTableKey) external returns (address rowOwner, bytes4 createdDate){\n\n        uint256 rowMetadata = uint256(database.getBytes32ForKey(idTableKey));\n\n        createdDate = bytes4(uint32(rowMetadata));\n        rowOwner = address(rowMetadata>>32);\n\n    }\n\n    modifier updateCheck(bytes32 tableKey, bytes32 idKey, bytes32 idTableKey) {\n\n        (uint256 permission, address delegate) = getTableMetadata(tableKey);\n\n        // if permission = 0, system table we can't do anything\n        require(permission > 0, \"Cannot UPDATE system table\");\n\n        // if permission = 1, we must be the owner/delegate\n        require(permission > 1 || isOwner() == true || delegate == _msgSender(), \"Only owner/delegate can UPDATE into this table\");\n\n        // permissions check, is the idTableKey a subhash of the id and table?\n        require(isNamehashSubOf(idKey, tableKey, idTableKey) == true, \"idTableKey not a subhash [id].[table]\");\n\n        // permissions check (public table = 2, shared table = 3),\n        // if 2 or 3 is the _msg.sender() the row owner? But if 3 owner() is always allowed\n        if (permission >= 2) {\n\n            // rowMetaData is packed as address (bytes20) + createdDate (bytes4)\n            bytes32 rowMetaData = database.getBytes32ForKey(idTableKey);\n            address rowOwner = address(uint256(rowMetaData)>>32);\n\n            // if either 2 or 3, if you're the row owner it's fine\n            if (rowOwner == _msgSender()){\n                // pass\n            } else {\n                require(isOwner() == true || delegate == _msgSender(), \"Not rowOwner or owner/delegate for UPDATE into this table\");\n            }\n\n        }\n        _;\n    }\n\n    function updateVal(\n\n        bytes32 tableKey,\n        bytes32 idTableKey,\n        bytes32 fieldIdTableKey,\n\n        bytes32 idKey,\n        bytes32 fieldKey,\n\n        bytes32 id,\n        bytes32 val)\n\n    public updateCheck(tableKey, idKey, idTableKey) {\n\n        require(tableId.containsValueForKey(tableKey, id) == true, \"id doesn't exist, use INSERT\");\n\n        // now check if the full field + id + table is a subhash\n        require(isNamehashSubOf(fieldKey, idTableKey, fieldIdTableKey) == true, \"fieldKey not a subhash [field].[id].[table]\");\n\n        // increment counter\n        increaseGsnCounter();\n\n        // set data (overwrite)\n        database.setValueForKey(fieldIdTableKey, bytes32(val));\n\n    }\n\n    modifier deleteCheck(bytes32 tableKey, bytes32 idTableKey, bytes32 idKey, bytes32 id) {\n\n        require(tableId.containsValueForKey(tableKey, id) == true, \"id doesn't exist\");\n\n        (uint256 permission, address delegate) = getTableMetadata(tableKey);\n\n        // if permission = 0, system table we can't do anything\n        require(permission > 0, \"Cannot DELETE from system table\");\n\n        // if permission = 1, we must be the owner/delegate\n        require(permission > 1 || isOwner() == true || delegate == _msgSender(), \"Only owner/delegate can DELETE from this table\");\n\n        // permissions check, is the idTableKey a subhash of the id and table?\n        require(isNamehashSubOf(idKey, tableKey, idTableKey) == true, \"idTableKey not a subhash [id].[table]\");\n\n        // permissions check (public table = 2, shared table = 3),\n        // if 2 or 3 is the _msg.sender() the row owner? But if 3 owner() is always allowed\n        if (permission >= 2) {\n            if (isOwner() || delegate == _msgSender()){\n                // pass\n            } else {\n                // rowMetaData is packed as address (bytes20) + createdDate (bytes4)\n                bytes32 rowMetaData = database.getBytes32ForKey(idTableKey);\n                address rowOwner = address(uint256(rowMetaData)>>32);\n                require(rowOwner == _msgSender(), \"Sender not owner of row\");\n            }\n        }\n\n        _;\n    }\n\n    /**\n     * @dev TODO: add modifier checks based on update\n     *\n     * TODO: this needs to properly remove the row when there are multiple ids\n     *\n     */\n    function deleteVal(\n\n        bytes32 tableKey,\n        bytes32 idTableKey,\n\n        bytes32 idKey,\n        bytes32 id,\n\n        bytes32 fieldKey,\n        bytes32 fieldIdTableKey\n\n    ) public deleteCheck(tableKey, idTableKey, idKey, id){\n\n        // check if the full field + id + table is a subhash (permissions)\n        require(isNamehashSubOf(fieldKey, idTableKey, fieldIdTableKey) == true, \"fieldKey not a subhash [field].[id].[table]\");\n\n        // increment counter\n        increaseGsnCounter();\n\n        // remove the key\n        bool removed = database.removeKey(fieldIdTableKey);\n\n        require(removed == true, \"error removing key\");\n\n        // TODO: zero out the data? Why bother everything is public\n\n        // we can't really pass in enough data to make a loop worthwhile\n        /*\n        uint8 len = uint8(fieldKeys.length);\n        require(fieldKeys.length == fieldIdTableKeys.length, \"fields, id array length mismatch\");\n        for (uint8 i = 0; i < len; i++) {\n\n            // for each row check if the full field + id + table is a subhash\n            // require(isNamehashSubOf(fieldKeys[i], idTableKey, fieldIdTableKeys[i]) == true, \"fieldKey not a subhash [field].[id].[table]\");\n\n            // zero out the data\n            elajsStore[fieldIdTableKeys[i]] = bytes32(0);\n        }\n        */\n    }\n\n    // TODO: improve this, we don't want to cause data consistency if the client doesn't call this\n    // Right now we manually call this, but ideally we iterate over all the data and delete each column\n    // but this would require decoding and having all the field names\n    function deleteRow(\n\n        bytes32 tableKey,\n        bytes32 idTableKey,\n\n        bytes32 idKey,\n        bytes32 id\n\n    ) public deleteCheck(tableKey, idTableKey, idKey, id){\n\n        // increment counter\n        increaseGsnCounter();\n\n        // remove the id\n        tableId.removeValueForKey(tableKey, id);\n    }\n\n    /**\n     * @dev Table actual insert call, NOTE this doesn't work on testnet currently due to a stack size issue,\n     *      but it can work with a paid transaction I guess\n     */\n    /*\n    function insert(\n        bytes32 tableKey,\n        bytes32 idTableKey,\n\n        bytes32 idKey,\n        bytes32 id,\n\n        bytes32[] memory fieldKeys,\n        bytes32[] memory fieldIdTableKeys,\n        bytes32[] memory values)\n\n    public insertCheck(tableKey, idKey, idTableKey){\n\n        require(table.containsValueForKey(tableKey, id) == false, \"id already exists\");\n\n        uint len = fieldKeys.length;\n\n        require(fieldKeys.length == fieldIdTableKeys.length == values.length, \"fields, values array length mismatch\");\n\n        // add an id entry to the table's set of ids for the row\n        table.addValueForKey(tableKey, id);\n\n        for (uint i = 0; i < len; i++) {\n\n            // for each row check if the full field + id + table is a subhash\n            require(isNamehashSubOf(fieldKeys[i], idTableKey, fieldIdTableKeys[i]) == true, \"fieldKey not a subhash [field].[id].[table]\");\n\n            elajsStore[fieldIdTableKeys[i]] = bytes32(values[i]);\n        }\n\n    }\n    */\n\n    /*\n    function getAllDataKeys() external view returns (bytes32[] memory) {\n        return database.enumerate();\n    }\n    */\n\n    function checkDataKey(bytes32 key) external view returns (bool) {\n        return database.containsKey(key);\n    }\n\n    /**\n     * @dev all data is public, so no need for security checks, we leave the data type handling to the client\n     */\n    function getRowValue(bytes32 fieldIdTableKey) external view returns (bytes32) {\n\n        if (database.containsKey(fieldIdTableKey)) {\n            return database.getBytes32ForKey(fieldIdTableKey);\n        } else {\n            return bytes32(0);\n        }\n    }\n\n    /*\n    function getRowValueVar(bytes32 fieldIdTableKey) external view returns (bytes memory) {\n\n        if (database.containsKey(fieldIdTableKey)) {\n            return database.getBytesForKey(fieldIdTableKey);\n        } else {\n            return new bytes(0);\n        }\n    }\n    */\n\n    /**\n     * @dev Warning this produces an Error: overflow (operation=\"setValue\", fault=\"overflow\", details=\"Number can only safely store up to 53 bits\")\n     *      if the table doesn't exist\n     */\n    function getTableIds(bytes32 tableKey) external view returns (bytes32[] memory){\n\n        require(tableId.containsKey(tableKey) == true, \"table not created\");\n\n        return tableId.enumerateForKey(tableKey);\n    }\n\n    function getIdExists(bytes32 tableKey, bytes32 id) external view returns (bool) {\n        return tableId.containsValueForKey(tableKey, id);\n    }\n\n    function isNamehashSubOf(bytes32 subKey, bytes32 base, bytes32 target) internal pure returns (bool) {\n\n        bytes memory concat = new bytes(64);\n\n        assembly {\n            mstore(add(concat, 64), subKey)\n            mstore(add(concat, 32), base)\n        }\n\n        bytes32 result = keccak256(concat);\n\n        return result == target;\n    }\n\n    // ************************************* _TABLE FUNCTIONS *************************************\n    function getTableMetadata(bytes32 _tableKey)\n        view\n        public\n        returns (uint256 permission, address delegate)\n    {\n        require(_table[_tableKey] > 0, \"table does not exist\");\n\n        uint256 tableMetadata = uint256(_table[_tableKey]);\n\n        permission = uint256(uint8(tableMetadata));\n        delegate = address(tableMetadata>>8);\n    }\n\n    function setTableMetadata(bytes32 _tableKey, uint8 permission, address delegate) private onlyOwner {\n        uint256 tableMetadata;\n\n        tableMetadata |= permission;\n        tableMetadata |= uint160(delegate)<<8;\n\n        _table[_tableKey] = bytes32(tableMetadata);\n    }\n\n    // ************************************* MISC FUNCTIONS *************************************\n\n    function() external payable {}\n\n    // ************************************* GSN FUNCTIONS *************************************\n\n    /**\n     * As a first layer of defense we employ a max number of checks per day\n     */\n    function acceptRelayedCall(\n        address relay,\n        address from,\n        bytes calldata encodedFunction,\n        uint256 transactionFee,\n        uint256 gasPrice,\n        uint256 gasLimit,\n        uint256 nonce,\n        bytes calldata approvalData,\n        uint256 maxPossibleCharge\n    ) external view returns (uint256, bytes memory) {\n\n        bytes32 curDateHashed = getGsnCounter();\n\n        // check gsnCounter for today and compare to limit\n        uint256 curCounter = gsnCounter[curDateHashed];\n\n        if (curCounter >= gsnMaxCallsPerDay){\n            return _rejectRelayedCall(2);\n        }\n\n\n        return _approveRelayedCall();\n    }\n\n    function setGsnMaxCallsPerDay(uint256 max) external onlyOwner {\n        gsnMaxCallsPerDay = uint40(max);\n    }\n\n    /*\n    event GsnCounterIncrease (\n        address indexed _from,\n        bytes4 indexed curDate\n    );\n    */\n\n    /**\n     * Increase the GSN Counter for today\n     */\n    function increaseGsnCounter() internal {\n\n        bytes32 curDateHashed = getGsnCounter();\n\n        uint256 curCounter = gsnCounter[curDateHashed];\n\n        gsnCounter[curDateHashed] = curCounter + 1;\n\n        // emit GsnCounterIncrease(_msgSender(), bytes4(uint32(curDate)));\n    }\n\n    /*\n     *\n     */\n    function getGsnCounter() internal view returns (bytes32 curDateHashed) {\n\n        uint256 curDate;\n\n        uint16 year = dateTime.getYear(now);\n        uint8 month = dateTime.getMonth(now);\n        uint8 day = dateTime.getDay(now);\n\n        curDate |= year;\n        curDate |= uint256(month)<<16;\n        curDate |= uint256(day)<<24;\n\n        curDateHashed = keccak256(abi.encodePacked(curDate));\n    }\n\n    // We won't do any pre or post processing, so leave _preRelayedCall and _postRelayedCall empty\n    function _preRelayedCall(bytes memory context) internal returns (bytes32) {\n    }\n\n    function _postRelayedCall(bytes memory context, bool, uint256 actualCharge, bytes32) internal {\n    }\n\n    /**\n     * @dev Withdraw a specific amount of the GSNReceipient funds\n     * @param amt Amount of wei to withdraw\n     * @param dest This is the arbitrary withdrawal destination address\n     */\n    function withdraw(uint256 amt, address payable dest) public onlyOwner {\n        IRelayHubELA relayHub = getRelayHub();\n        relayHub.withdraw(amt, dest);\n    }\n\n    /**\n     * @dev Withdraw all the GSNReceipient funds\n     * @param dest This is the arbitrary withdrawal destination address\n     */\n    function withdrawAll(address payable dest) public onlyOwner returns (uint256) {\n        IRelayHubELA relayHub = getRelayHub();\n        uint256 balance = getRelayHub().balanceOf(address(this));\n        relayHub.withdraw(balance, dest);\n        return balance;\n    }\n\n    function getGSNBalance() public view returns (uint256) {\n        return getRelayHub().balanceOf(address(this));\n    }\n\n    function getRelayHub() internal view returns (IRelayHubELA) {\n        return IRelayHubELA(_getRelayHub());\n    }\n}\n",
  "sourcePath": "contracts/ELAJSStore.sol",
  "abi": [
    {
      "constant": false,
      "inputs": [
        {
          "name": "amt",
          "type": "uint256"
        },
        {
          "name": "dest",
          "type": "address"
        }
      ],
      "name": "withdraw",
      "outputs": [],
      "payable": false,
      "stateMutability": "nonpayable",
      "type": "function"
    },
    {
      "constant": true,
      "inputs": [],
      "name": "gsnMaxCallsPerDay",
      "outputs": [
        {
          "name": "",
          "type": "uint40"
        }
      ],
      "payable": false,
      "stateMutability": "view",
      "type": "function"
    },
    {
      "constant": true,
      "inputs": [
        {
          "name": "key",
          "type": "bytes32"
        }
      ],
      "name": "checkDataKey",
      "outputs": [
        {
          "name": "",
          "type": "bool"
        }
      ],
      "payable": false,
      "stateMutability": "view",
      "type": "function"
    },
    {
      "constant": true,
      "inputs": [],
      "name": "getTables",
      "outputs": [
        {
          "name": "",
          "type": "bytes32[]"
        }
      ],
      "payable": false,
      "stateMutability": "view",
      "type": "function"
    },
    {
      "constant": false,
      "inputs": [
        {
          "name": "idTableKey",
          "type": "bytes32"
        }
      ],
      "name": "getRowOwner",
      "outputs": [
        {
          "name": "rowOwner",
          "type": "address"
        },
        {
          "name": "createdDate",
          "type": "bytes4"
        }
      ],
      "payable": false,
      "stateMutability": "nonpayable",
      "type": "function"
    },
    {
      "constant": false,
      "inputs": [
        {
          "name": "tableName",
          "type": "bytes32"
        },
        {
          "name": "tableKey",
          "type": "bytes32"
        },
        {
          "name": "permission",
          "type": "uint8"
        },
        {
          "name": "_columnName",
          "type": "bytes32[]"
        },
        {
          "name": "_columnDtype",
          "type": "bytes32[]"
        }
      ],
      "name": "createTable",
      "outputs": [],
      "payable": false,
      "stateMutability": "nonpayable",
      "type": "function"
    },
    {
      "constant": true,
      "inputs": [],
      "name": "getGSNBalance",
      "outputs": [
        {
          "name": "",
          "type": "uint256"
        }
      ],
      "payable": false,
      "stateMutability": "view",
      "type": "function"
    },
    {
      "constant": true,
      "inputs": [],
      "name": "schemasTables",
      "outputs": [
        {
          "name": "",
          "type": "bytes32"
        }
      ],
      "payable": false,
      "stateMutability": "view",
      "type": "function"
    },
    {
      "constant": true,
      "inputs": [
        {
          "name": "",
          "type": "bytes32"
        }
      ],
      "name": "gsnCounter",
      "outputs": [
        {
          "name": "",
          "type": "uint256"
        }
      ],
      "payable": false,
      "stateMutability": "view",
      "type": "function"
    },
    {
      "constant": false,
      "inputs": [
        {
          "name": "tableKey",
          "type": "bytes32"
        },
        {
          "name": "idTableKey",
          "type": "bytes32"
        },
        {
          "name": "fieldIdTableKey",
          "type": "bytes32"
        },
        {
          "name": "idKey",
          "type": "bytes32"
        },
        {
          "name": "fieldKey",
          "type": "bytes32"
        },
        {
          "name": "id",
          "type": "bytes32"
        },
        {
          "name": "val",
          "type": "bytes32"
        }
      ],
      "name": "updateVal",
      "outputs": [],
      "payable": false,
      "stateMutability": "nonpayable",
      "type": "function"
    },
    {
      "constant": true,
      "inputs": [
        {
          "name": "fieldIdTableKey",
          "type": "bytes32"
        }
      ],
      "name": "getRowValue",
      "outputs": [
        {
          "name": "",
          "type": "bytes32"
        }
      ],
      "payable": false,
      "stateMutability": "view",
      "type": "function"
    },
    {
      "constant": false,
      "inputs": [],
      "name": "renounceOwnership",
      "outputs": [],
      "payable": false,
      "stateMutability": "nonpayable",
      "type": "function"
    },
    {
      "constant": true,
      "inputs": [],
      "name": "getHubAddr",
      "outputs": [
        {
          "name": "",
          "type": "address"
        }
      ],
      "payable": false,
      "stateMutability": "view",
      "type": "function"
    },
    {
      "constant": false,
      "inputs": [
        {
          "name": "context",
          "type": "bytes"
        }
      ],
      "name": "preRelayedCall",
      "outputs": [
        {
          "name": "",
          "type": "bytes32"
        }
      ],
      "payable": false,
      "stateMutability": "nonpayable",
      "type": "function"
    },
    {
      "constant": false,
      "inputs": [],
      "name": "initialize",
      "outputs": [],
      "payable": false,
      "stateMutability": "nonpayable",
      "type": "function"
    },
    {
      "constant": true,
      "inputs": [
        {
          "name": "relay",
          "type": "address"
        },
        {
          "name": "from",
          "type": "address"
        },
        {
          "name": "encodedFunction",
          "type": "bytes"
        },
        {
          "name": "transactionFee",
          "type": "uint256"
        },
        {
          "name": "gasPrice",
          "type": "uint256"
        },
        {
          "name": "gasLimit",
          "type": "uint256"
        },
        {
          "name": "nonce",
          "type": "uint256"
        },
        {
          "name": "approvalData",
          "type": "bytes"
        },
        {
          "name": "maxPossibleCharge",
          "type": "uint256"
        }
      ],
      "name": "acceptRelayedCall",
      "outputs": [
        {
          "name": "",
          "type": "uint256"
        },
        {
          "name": "",
          "type": "bytes"
        }
      ],
      "payable": false,
      "stateMutability": "view",
      "type": "function"
    },
    {
      "constant": true,
      "inputs": [],
      "name": "owner",
      "outputs": [
        {
          "name": "",
          "type": "address"
        }
      ],
      "payable": false,
      "stateMutability": "view",
      "type": "function"
    },
    {
      "constant": true,
      "inputs": [],
      "name": "isOwner",
      "outputs": [
        {
          "name": "",
          "type": "bool"
        }
      ],
      "payable": false,
      "stateMutability": "view",
      "type": "function"
    },
    {
      "constant": false,
      "inputs": [
        {
          "name": "tableKey",
          "type": "bytes32"
        },
        {
          "name": "idTableKey",
          "type": "bytes32"
        },
        {
          "name": "fieldIdTableKey",
          "type": "bytes32"
        },
        {
          "name": "idKey",
          "type": "bytes32"
        },
        {
          "name": "fieldKey",
          "type": "bytes32"
        },
        {
          "name": "id",
          "type": "bytes32"
        },
        {
          "name": "val",
          "type": "bytes32"
        }
      ],
      "name": "insertVal",
      "outputs": [],
      "payable": false,
      "stateMutability": "nonpayable",
      "type": "function"
    },
    {
      "constant": true,
      "inputs": [
        {
          "name": "_name",
          "type": "bytes32"
        }
      ],
      "name": "getSchema",
      "outputs": [
        {
          "components": [
            {
              "name": "name",
              "type": "bytes32"
            },
            {
              "components": [
                {
                  "name": "name",
                  "type": "bytes32"
                },
                {
                  "name": "_dtype",
                  "type": "bytes32"
                }
              ],
              "name": "columns",
              "type": "tuple[]"
            }
          ],
          "name": "",
          "type": "tuple"
        }
      ],
      "payable": false,
      "stateMutability": "view",
      "type": "function"
    },
    {
      "constant": true,
      "inputs": [],
      "name": "relayHubVersion",
      "outputs": [
        {
          "name": "",
          "type": "string"
        }
      ],
      "payable": false,
      "stateMutability": "view",
      "type": "function"
    },
    {
      "constant": false,
      "inputs": [
        {
          "name": "max",
          "type": "uint256"
        }
      ],
      "name": "setGsnMaxCallsPerDay",
      "outputs": [],
      "payable": false,
      "stateMutability": "nonpayable",
      "type": "function"
    },
    {
      "constant": true,
      "inputs": [
        {
          "name": "tableKey",
          "type": "bytes32"
        }
      ],
      "name": "getTableIds",
      "outputs": [
        {
          "name": "",
          "type": "bytes32[]"
        }
      ],
      "payable": false,
      "stateMutability": "view",
      "type": "function"
    },
    {
      "constant": false,
      "inputs": [
        {
          "name": "sender",
          "type": "address"
        }
      ],
      "name": "initialize",
      "outputs": [],
      "payable": false,
      "stateMutability": "nonpayable",
      "type": "function"
    },
    {
      "constant": true,
      "inputs": [],
      "name": "dateTimeAddr",
      "outputs": [
        {
          "name": "",
          "type": "address"
        }
      ],
      "payable": false,
      "stateMutability": "view",
      "type": "function"
    },
    {
      "constant": true,
      "inputs": [
        {
          "name": "_tableKey",
          "type": "bytes32"
        }
      ],
      "name": "getTableMetadata",
      "outputs": [
        {
          "name": "permission",
          "type": "uint256"
        },
        {
          "name": "delegate",
          "type": "address"
        }
      ],
      "payable": false,
      "stateMutability": "view",
      "type": "function"
    },
    {
      "constant": false,
      "inputs": [
        {
          "name": "context",
          "type": "bytes"
        },
        {
          "name": "success",
          "type": "bool"
        },
        {
          "name": "actualCharge",
          "type": "uint256"
        },
        {
          "name": "preRetVal",
          "type": "bytes32"
        }
      ],
      "name": "postRelayedCall",
      "outputs": [],
      "payable": false,
      "stateMutability": "nonpayable",
      "type": "function"
    },
    {
      "constant": false,
      "inputs": [
        {
          "name": "tableKey",
          "type": "bytes32"
        },
        {
          "name": "idTableKey",
          "type": "bytes32"
        },
        {
          "name": "idKey",
          "type": "bytes32"
        },
        {
          "name": "id",
          "type": "bytes32"
        }
      ],
      "name": "deleteRow",
      "outputs": [],
      "payable": false,
      "stateMutability": "nonpayable",
      "type": "function"
    },
    {
      "constant": false,
      "inputs": [
        {
          "name": "tableName",
          "type": "bytes32"
        },
        {
          "name": "tableKey",
          "type": "bytes32"
        }
      ],
      "name": "deleteTable",
      "outputs": [],
      "payable": false,
      "stateMutability": "nonpayable",
      "type": "function"
    },
    {
      "constant": true,
      "inputs": [
        {
          "name": "tableKey",
          "type": "bytes32"
        },
        {
          "name": "id",
          "type": "bytes32"
        }
      ],
      "name": "getIdExists",
      "outputs": [
        {
          "name": "",
          "type": "bool"
        }
      ],
      "payable": false,
      "stateMutability": "view",
      "type": "function"
    },
    {
      "constant": false,
      "inputs": [
        {
          "name": "newOwner",
          "type": "address"
        }
      ],
      "name": "transferOwnership",
      "outputs": [],
      "payable": false,
      "stateMutability": "nonpayable",
      "type": "function"
    },
    {
      "constant": false,
      "inputs": [
        {
          "name": "dest",
          "type": "address"
        }
      ],
      "name": "withdrawAll",
      "outputs": [
        {
          "name": "",
          "type": "uint256"
        }
      ],
      "payable": false,
      "stateMutability": "nonpayable",
      "type": "function"
    },
    {
      "constant": false,
      "inputs": [
        {
          "name": "tableKey",
          "type": "bytes32"
        },
        {
          "name": "idTableKey",
          "type": "bytes32"
        },
        {
          "name": "idKey",
          "type": "bytes32"
        },
        {
          "name": "id",
          "type": "bytes32"
        },
        {
          "name": "fieldKey",
          "type": "bytes32"
        },
        {
          "name": "fieldIdTableKey",
          "type": "bytes32"
        }
      ],
      "name": "deleteVal",
      "outputs": [],
      "payable": false,
      "stateMutability": "nonpayable",
      "type": "function"
    },
    {
      "payable": true,
      "stateMutability": "payable",
      "type": "fallback"
    },
    {
      "anonymous": false,
      "inputs": [
        {
          "indexed": true,
          "name": "_id",
          "type": "bytes32"
        },
        {
          "indexed": true,
          "name": "_tableKey",
          "type": "bytes32"
        },
        {
          "indexed": true,
          "name": "_rowOwner",
          "type": "address"
        }
      ],
      "name": "InsertRow",
      "type": "event"
    },
    {
      "anonymous": false,
      "inputs": [
        {
          "indexed": true,
          "name": "oldRelayHub",
          "type": "address"
        },
        {
          "indexed": true,
          "name": "newRelayHub",
          "type": "address"
        }
      ],
      "name": "RelayHubChanged",
      "type": "event"
    },
    {
      "anonymous": false,
      "inputs": [
        {
          "indexed": true,
          "name": "previousOwner",
          "type": "address"
        },
        {
          "indexed": true,
          "name": "newOwner",
          "type": "address"
        }
      ],
      "name": "OwnershipTransferred",
      "type": "event"
    }
  ],
  "bytecode": "0x6080604052739c71b2e820b067ea466ea81c0cd6852bc8d8604e606660006101000a81548173ffffffffffffffffffffffffffffffffffffffff021916908373ffffffffffffffffffffffffffffffffffffffff160217905550606660009054906101000a900473ffffffffffffffffffffffffffffffffffffffff16606760006101000a81548173ffffffffffffffffffffffffffffffffffffffff021916908373ffffffffffffffffffffffffffffffffffffffff160217905550615f7e806100cb6000396000f3fe6080604052600436106101a0576000357c0100000000000000000000000000000000000000000000000000000000900463ffffffff168062f714ce146101a257806301ee810a146101cb5780631fd6dda5146101f657806328343c3414610233578063287e72461461025e578063365628a21461029c5780633c2e8599146102c55780634102fbf6146102f057806359cb73a41461031b578063621d114e146103585780636729003c14610381578063715018a6146103be57806374e861d6146103d557806380274db7146104005780638129fc1c1461043d57806383947ea0146104545780638da5cb5b146104925780638f32d59b146104bd57806392e8aa6b146104e8578063a2ea7c6e14610511578063ad61ccd51461054e578063bc41c3dd14610579578063c2309bf9146105a2578063c4d66de8146105df578063d2c5ce3114610608578063d887f10514610633578063e06e0e2214610671578063e293d8171461069a578063ed90cb37146106c3578063f201fe2a146106ec578063f2fde38b14610729578063fa09e63014610752578063fc4812f21461078f575b005b3480156101ae57600080fd5b506101c960048036036101c49190810190614d7a565b6107b8565b005b3480156101d757600080fd5b506101e061089a565b6040516101ed9190615cfa565b60405180910390f35b34801561020257600080fd5b5061021d600480360361021891908101906149a4565b6108b1565b60405161022a9190615843565b60405180910390f35b34801561023f57600080fd5b506102486108ce565b6040516102559190615821565b60405180910390f35b34801561026a57600080fd5b50610285600480360361028091908101906149a4565b61090c565b6040516102939291906157f8565b60405180910390f35b3480156102a857600080fd5b506102c360048036036102be9190810190614b93565b610962565b005b3480156102d157600080fd5b506102da610a8e565b6040516102e79190615c5d565b60405180910390f35b3480156102fc57600080fd5b50610305610b41565b604051610312919061585e565b60405180910390f35b34801561032757600080fd5b50610342600480360361033d91908101906149a4565b610b68565b60405161034f9190615c5d565b60405180910390f35b34801561036457600080fd5b5061037f600480360361037a9190810190614af5565b610b80565b005b34801561038d57600080fd5b506103a860048036036103a391908101906149a4565b610ea9565b6040516103b5919061585e565b60405180910390f35b3480156103ca57600080fd5b506103d3610eec565b005b3480156103e157600080fd5b506103ea610ff6565b6040516103f791906157c2565b60405180910390f35b34801561040c57600080fd5b5061042760048036036104229190810190614c3a565b611005565b604051610434919061585e565b60405180910390f35b34801561044957600080fd5b506104526110d3565b005b34801561046057600080fd5b5061047b600480360361047691908101906148a4565b6111d7565b604051610489929190615cca565b60405180910390f35b34801561049e57600080fd5b506104a7611256565b6040516104b491906157c2565b60405180910390f35b3480156104c957600080fd5b506104d2611280565b6040516104df9190615843565b60405180910390f35b3480156104f457600080fd5b5061050f600480360361050a9190810190614af5565b6112df565b005b34801561051d57600080fd5b50610538600480360361053391908101906149a4565b611541565b6040516105459190615c3b565b60405180910390f35b34801561055a57600080fd5b50610563611572565b6040516105709190615879565b60405180910390f35b34801561058557600080fd5b506105a0600480360361059b9190810190614d28565b6115af565b005b3480156105ae57600080fd5b506105c960048036036105c491908101906149a4565b61161e565b6040516105d69190615821565b60405180910390f35b3480156105eb57600080fd5b5061060660048036036106019190810190614852565b611697565b005b34801561061457600080fd5b5061061d611841565b60405161062a91906157c2565b60405180910390f35b34801561063f57600080fd5b5061065a600480360361065591908101906149a4565b611867565b604051610668929190615c78565b60405180910390f35b34801561067d57600080fd5b5061069860048036036106939190810190614c7f565b6118fc565b005b3480156106a657600080fd5b506106c160048036036106bc9190810190614a09565b6119ca565b005b3480156106cf57600080fd5b506106ea60048036036106e591908101906149cd565b611c98565b005b3480156106f857600080fd5b50610713600480360361070e91908101906149cd565b611d50565b6040516107209190615843565b60405180910390f35b34801561073557600080fd5b50610750600480360361074b9190810190614852565b611d70565b005b34801561075e57600080fd5b506107796004803603610774919081019061487b565b611dc5565b6040516107869190615c5d565b60405180910390f35b34801561079b57600080fd5b506107b660048036036107b19190810190614a6c565b611f5e565b005b6107c0611280565b1515610801576040517f08c379a00000000000000000000000000000000000000000000000000000000081526004016107f890615a7b565b60405180910390fd5b600061080b6122cc565b90508073ffffffffffffffffffffffffffffffffffffffff1662f714ce84846040518363ffffffff167c0100000000000000000000000000000000000000000000000000000000028152600401610863929190615ca1565b600060405180830381600087803b15801561087d57600080fd5b505af1158015610891573d6000803e3d6000fd5b50505050505050565b606960009054906101000a900464ffffffffff1681565b60006108c782606e6122db90919063ffffffff16565b9050919050565b60606109077f736368656d61732e7075626c69632e7461626c65730000000000000000000000600102606e61235290919063ffffffff16565b905090565b600080600061092584606e61237290919063ffffffff16565b600190049050807c0100000000000000000000000000000000000000000000000000000000029150602081908060020a8204915050925050915091565b61096a611280565b15156109ab576040517f08c379a00000000000000000000000000000000000000000000000000000000081526004016109a290615a7b565b60405180910390fd5b6000600102606a600086815260200190815260200160002054141515610a06576040517f08c379a00000000000000000000000000000000000000000000000000000000081526004016109fd90615b3b565b60405180910390fd5b6000809050610a16858583612392565b610a4f7f736368656d61732e7075626c69632e7461626c6573000000000000000000000060010287606e61243e9092919063ffffffff16565b50610a6485606b61256990919063ffffffff16565b50610a6d614583565b610a78878585612589565b9050610a848682612606565b5050505050505050565b6000610a986122cc565b73ffffffffffffffffffffffffffffffffffffffff166370a08231306040518263ffffffff167c0100000000000000000000000000000000000000000000000000000000028152600401610aec91906157dd565b60206040518083038186803b158015610b0457600080fd5b505afa158015610b18573d6000803e3d6000fd5b505050506040513d601f19601f82011682018060405250610b3c9190810190614d51565b905090565b7f736368656d61732e7075626c69632e7461626c6573000000000000000000000060010281565b60686020528060005260406000206000915090505481565b868487600080610b8f85611867565b91509150600082111515610bd8576040517f08c379a0000000000000000000000000000000000000000000000000000000008152600401610bcf906158fb565b60405180910390fd5b6001821180610bf2575060011515610bee611280565b1515145b80610c2f5750610c00612634565b73ffffffffffffffffffffffffffffffffffffffff168173ffffffffffffffffffffffffffffffffffffffff16145b1515610c70576040517f08c379a0000000000000000000000000000000000000000000000000000000008152600401610c679061599b565b60405180910390fd5b60011515610c7f858786612688565b1515141515610cc3576040517f08c379a0000000000000000000000000000000000000000000000000000000008152600401610cba9061595b565b60405180910390fd5b600282101515610dcb576000610ce384606e61237290919063ffffffff16565b9050600060208260019004908060020a82049150509050610d02612634565b73ffffffffffffffffffffffffffffffffffffffff168173ffffffffffffffffffffffffffffffffffffffff161415610d3a57610dc8565b60011515610d46611280565b15151480610d865750610d57612634565b73ffffffffffffffffffffffffffffffffffffffff168373ffffffffffffffffffffffffffffffffffffffff16145b1515610dc7576040517f08c379a0000000000000000000000000000000000000000000000000000000008152600401610dbe90615a1b565b60405180910390fd5b5b50505b60011515610de58d89606b6126e89092919063ffffffff16565b1515141515610e29576040517f08c379a0000000000000000000000000000000000000000000000000000000008152600401610e2090615bbb565b60405180910390fd5b60011515610e38898d8d612688565b1515141515610e7c576040517f08c379a0000000000000000000000000000000000000000000000000000000008152600401610e7390615c1b565b60405180910390fd5b610e84612733565b610e9a8a87606e6127769092919063ffffffff16565b50505050505050505050505050565b6000610ebf82606e6122db90919063ffffffff16565b15610edf57610ed882606e61237290919063ffffffff16565b9050610ee7565b600060010290505b919050565b610ef4611280565b1515610f35576040517f08c379a0000000000000000000000000000000000000000000000000000000008152600401610f2c90615a7b565b60405180910390fd5b600073ffffffffffffffffffffffffffffffffffffffff16603360009054906101000a900473ffffffffffffffffffffffffffffffffffffffff1673ffffffffffffffffffffffffffffffffffffffff167f8be0079c531659141344cd1fd0a4f28419497f9722a3daafe3b4186f6b6457e060405160405180910390a36000603360006101000a81548173ffffffffffffffffffffffffffffffffffffffff021916908373ffffffffffffffffffffffffffffffffffffffff160217905550565b60006110006128a1565b905090565b600061100f610ff6565b73ffffffffffffffffffffffffffffffffffffffff163373ffffffffffffffffffffffffffffffffffffffff1614151561107e576040517f08c379a0000000000000000000000000000000000000000000000000000000008152600401611075906158bb565b60405180910390fd5b6110cb83838080601f016020809104026020016040519081016040528093929190818152602001838380828437600081840152601f19601f820116905080830192505050505050506128d2565b905092915050565b600060019054906101000a900460ff16806110f257506110f16128d9565b5b8061110957506000809054906101000a900460ff16155b151561114a576040517f08c379a000000000000000000000000000000000000000000000000000000000815260040161114190615a9b565b60405180910390fd5b60008060019054906101000a900460ff16159050801561119a576001600060016101000a81548160ff02191690831515021790555060016000806101000a81548160ff0219169083151502179055505b6111a333611697565b6111ab6128f0565b6111b36129e3565b80156111d45760008060016101000a81548160ff0219169083151502179055505b50565b6000606060006111e5612a45565b9050600060686000838152602001908152602001600020549050606960009054906101000a900464ffffffffff1664ffffffffff16811015156112375761122c6002612d00565b935093505050611246565b61123f612d22565b9350935050505b9b509b9950505050505050505050565b6000603360009054906101000a900473ffffffffffffffffffffffffffffffffffffffff16905090565b6000603360009054906101000a900473ffffffffffffffffffffffffffffffffffffffff1673ffffffffffffffffffffffffffffffffffffffff166112c3612634565b73ffffffffffffffffffffffffffffffffffffffff1614905090565b8684876000806112ee85611867565b91509150600082111515611337576040517f08c379a000000000000000000000000000000000000000000000000000000000815260040161132e9061593b565b60405180910390fd5b600182118061135157506001151561134d611280565b1515145b8061138e575061135f612634565b73ffffffffffffffffffffffffffffffffffffffff168173ffffffffffffffffffffffffffffffffffffffff16145b15156113cf576040517f08c379a00000000000000000000000000000000000000000000000000000000081526004016113c690615a3b565b60405180910390fd5b600115156113de858786612688565b1515141515611422576040517f08c379a00000000000000000000000000000000000000000000000000000000081526004016114199061595b565b60405180910390fd5b6000151561143a8b606e6122db90919063ffffffff16565b151514151561147e576040517f08c379a000000000000000000000000000000000000000000000000000000000815260040161147590615abb565b60405180910390fd5b6001151561148d898d8d612688565b15151415156114d1576040517f08c379a00000000000000000000000000000000000000000000000000000000081526004016114c890615c1b565b60405180910390fd5b6114d9612733565b6114ef8c88606b612d479092919063ffffffff16565b50600015156115088c606e6122db90919063ffffffff16565b1515141561151c5761151b8b888e612d92565b5b6115328a87606e6127769092919063ffffffff16565b50505050505050505050505050565b611549614583565b606061155f83606e61313490919063ffffffff16565b905061156a81613154565b915050919050565b60606040805190810160405280600581526020017f312e302e30000000000000000000000000000000000000000000000000000000815250905090565b6115b7611280565b15156115f8576040517f08c379a00000000000000000000000000000000000000000000000000000000081526004016115ef90615a7b565b60405180910390fd5b80606960006101000a81548164ffffffffff021916908364ffffffffff16021790555050565b60606001151561163883606b6131fd90919063ffffffff16565b151514151561167c576040517f08c379a000000000000000000000000000000000000000000000000000000000815260040161167390615b7b565b60405180910390fd5b61169082606b61321d90919063ffffffff16565b9050919050565b600060019054906101000a900460ff16806116b657506116b56128d9565b5b806116cd57506000809054906101000a900460ff16155b151561170e576040517f08c379a000000000000000000000000000000000000000000000000000000000815260040161170590615a9b565b60405180910390fd5b60008060019054906101000a900460ff16159050801561175e576001600060016101000a81548160ff02191690831515021790555060016000806101000a81548160ff0219169083151502179055505b81603360006101000a81548173ffffffffffffffffffffffffffffffffffffffff021916908373ffffffffffffffffffffffffffffffffffffffff160217905550603360009054906101000a900473ffffffffffffffffffffffffffffffffffffffff1673ffffffffffffffffffffffffffffffffffffffff16600073ffffffffffffffffffffffffffffffffffffffff167f8be0079c531659141344cd1fd0a4f28419497f9722a3daafe3b4186f6b6457e060405160405180910390a3801561183d5760008060016101000a81548160ff0219169083151502179055505b5050565b606660009054906101000a900473ffffffffffffffffffffffffffffffffffffffff1681565b6000806000600102606a6000858152602001908152602001600020541115156118c5576040517f08c379a00000000000000000000000000000000000000000000000000000000081526004016118bc90615bdb565b60405180910390fd5b6000606a6000858152602001908152602001600020546001900490508060ff169250600881908060020a8204915050915050915091565b611904610ff6565b73ffffffffffffffffffffffffffffffffffffffff163373ffffffffffffffffffffffffffffffffffffffff16141515611973576040517f08c379a000000000000000000000000000000000000000000000000000000000815260040161196a906158bb565b60405180910390fd5b6119c385858080601f016020809104026020016040519081016040528093929190818152602001838380828437600081840152601f19601f8201169050808301925050505050505084848461328c565b5050505050565b83838383600115156119e88583606b6126e89092919063ffffffff16565b1515141515611a2c576040517f08c379a0000000000000000000000000000000000000000000000000000000008152600401611a2390615b5b565b60405180910390fd5b600080611a3886611867565b91509150600082111515611a81576040517f08c379a0000000000000000000000000000000000000000000000000000000008152600401611a78906158db565b60405180910390fd5b6001821180611a9b575060011515611a97611280565b1515145b80611ad85750611aa9612634565b73ffffffffffffffffffffffffffffffffffffffff168173ffffffffffffffffffffffffffffffffffffffff16145b1515611b19576040517f08c379a0000000000000000000000000000000000000000000000000000000008152600401611b1090615adb565b60405180910390fd5b60011515611b28858888612688565b1515141515611b6c576040517f08c379a0000000000000000000000000000000000000000000000000000000008152600401611b639061595b565b60405180910390fd5b600282101515611c6d57611b7e611280565b80611bbb5750611b8c612634565b73ffffffffffffffffffffffffffffffffffffffff168173ffffffffffffffffffffffffffffffffffffffff16145b15611bc557611c6c565b6000611bdb86606e61237290919063ffffffff16565b9050600060208260019004908060020a82049150509050611bfa612634565b73ffffffffffffffffffffffffffffffffffffffff168173ffffffffffffffffffffffffffffffffffffffff16141515611c69576040517f08c379a0000000000000000000000000000000000000000000000000000000008152600401611c6090615bfb565b60405180910390fd5b50505b5b611c75612733565b611c8b8a88606b6132929092919063ffffffff16565b5050505050505050505050565b611ca0611280565b1515611ce1576040517f08c379a0000000000000000000000000000000000000000000000000000000008152600401611cd890615a7b565b60405180910390fd5b6000600102606a600083815260200190815260200160002081905550611d367f736368656d61732e7075626c69632e7461626c6573000000000000000000000060010283606e6132dd9092919063ffffffff16565b50611d4b81606b61330090919063ffffffff16565b505050565b6000611d688383606b6126e89092919063ffffffff16565b905092915050565b611d78611280565b1515611db9576040517f08c379a0000000000000000000000000000000000000000000000000000000008152600401611db090615a7b565b60405180910390fd5b611dc281613339565b50565b6000611dcf611280565b1515611e10576040517f08c379a0000000000000000000000000000000000000000000000000000000008152600401611e0790615a7b565b60405180910390fd5b6000611e1a6122cc565b90506000611e266122cc565b73ffffffffffffffffffffffffffffffffffffffff166370a08231306040518263ffffffff167c0100000000000000000000000000000000000000000000000000000000028152600401611e7a91906157dd565b60206040518083038186803b158015611e9257600080fd5b505afa158015611ea6573d6000803e3d6000fd5b505050506040513d601f19601f82011682018060405250611eca9190810190614d51565b90508173ffffffffffffffffffffffffffffffffffffffff1662f714ce82866040518363ffffffff167c0100000000000000000000000000000000000000000000000000000000028152600401611f22929190615ca1565b600060405180830381600087803b158015611f3c57600080fd5b505af1158015611f50573d6000803e3d6000fd5b505050508092505050919050565b8585858560011515611f7c8583606b6126e89092919063ffffffff16565b1515141515611fc0576040517f08c379a0000000000000000000000000000000000000000000000000000000008152600401611fb790615b5b565b60405180910390fd5b600080611fcc86611867565b91509150600082111515612015576040517f08c379a000000000000000000000000000000000000000000000000000000000815260040161200c906158db565b60405180910390fd5b600182118061202f57506001151561202b611280565b1515145b8061206c575061203d612634565b73ffffffffffffffffffffffffffffffffffffffff168173ffffffffffffffffffffffffffffffffffffffff16145b15156120ad576040517f08c379a00000000000000000000000000000000000000000000000000000000081526004016120a490615adb565b60405180910390fd5b600115156120bc858888612688565b1515141515612100576040517f08c379a00000000000000000000000000000000000000000000000000000000081526004016120f79061595b565b60405180910390fd5b60028210151561220157612112611280565b8061214f5750612120612634565b73ffffffffffffffffffffffffffffffffffffffff168173ffffffffffffffffffffffffffffffffffffffff16145b1561215957612200565b600061216f86606e61237290919063ffffffff16565b9050600060208260019004908060020a8204915050905061218e612634565b73ffffffffffffffffffffffffffffffffffffffff168173ffffffffffffffffffffffffffffffffffffffff161415156121fd576040517f08c379a00000000000000000000000000000000000000000000000000000000081526004016121f490615bfb565b60405180910390fd5b50505b5b60011515612210898d8a612688565b1515141515612254576040517f08c379a000000000000000000000000000000000000000000000000000000000815260040161224b90615c1b565b60405180910390fd5b61225c612733565b600061227288606e61346b90919063ffffffff16565b9050600115158115151415156122bd576040517f08c379a00000000000000000000000000000000000000000000000000000000081526004016122b490615a5b565b60405180910390fd5b50505050505050505050505050565b60006122d66128a1565b905090565b60006122f382846000016134e290919063ffffffff16565b80612310575061230f828460030161350290919063ffffffff16565b5b8061232d575061232c82846006016131fd90919063ffffffff16565b5b8061234a5750612349828460090161352290919063ffffffff16565b5b905092915050565b606061236a828460060161321d90919063ffffffff16565b905092915050565b600061238a828460000161354290919063ffffffff16565b905092915050565b61239a611280565b15156123db576040517f08c379a00000000000000000000000000000000000000000000000000000000081526004016123d290615a7b565b60405180910390fd5b60008260ff168117905060088273ffffffffffffffffffffffffffffffffffffffff169060020a0273ffffffffffffffffffffffffffffffffffffffff168117905080600102606a60008681526020019081526020016000208190555050505050565b600061245683856000016134e290919063ffffffff16565b151515612498576040517f08c379a000000000000000000000000000000000000000000000000000000000815260040161248f906159bb565b60405180910390fd5b6124ae838560030161350290919063ffffffff16565b1515156124f0576040517f08c379a00000000000000000000000000000000000000000000000000000000081526004016124e7906159bb565b60405180910390fd5b612506838560090161352290919063ffffffff16565b151515612548576040517f08c379a000000000000000000000000000000000000000000000000000000000815260040161253f906159bb565b60405180910390fd5b612560838386600601612d479092919063ffffffff16565b90509392505050565b600061258182846001016135ad90919063ffffffff16565b905092915050565b612591614583565b815183511415156125d7576040517f08c379a00000000000000000000000000000000000000000000000000000000081526004016125ce906159fb565b60405180910390fd5b6125df614583565b848160000181815250506125f38484613619565b8160200181905250809150509392505050565b600060606126138361372f565b905061262b8482606e6137ff9092919063ffffffff16565b91505092915050565b600061263e6128a1565b73ffffffffffffffffffffffffffffffffffffffff163373ffffffffffffffffffffffffffffffffffffffff1614151561267a57339050612685565b61268261392a565b90505b90565b60006060604080519080825280601f01601f1916602001820160405280156126bf5781602001600182028038833980820191505090505b509050846040820152836020820152600081805190602001209050838114925050509392505050565b60006126f484846131fd565b1561272757612720828560000160008681526020019081526020016000206139a290919063ffffffff16565b905061272c565b600090505b9392505050565b600061273d612a45565b90506000606860008381526020019081526020016000205490506001810160686000848152602001908152602001600020819055505050565b600061278e838560030161350290919063ffffffff16565b1515156127d0576040517f08c379a00000000000000000000000000000000000000000000000000000000081526004016127c7906159bb565b60405180910390fd5b6127e683856006016131fd90919063ffffffff16565b151515612828576040517f08c379a000000000000000000000000000000000000000000000000000000000815260040161281f906159bb565b60405180910390fd5b61283e838560090161352290919063ffffffff16565b151515612880576040517f08c379a0000000000000000000000000000000000000000000000000000000008152600401612877906159bb565b60405180910390fd5b6128988383866000016139c59092919063ffffffff16565b90509392505050565b6000807f06b7792c761dcc05af1761f0315ce8b01ac39c16cc934eb0b2f7a8e71414f2626001029050805491505090565b6000919050565b6000803090506000813b9050600081149250505090565b600060019054906101000a900460ff168061290f575061290e6128d9565b5b8061292657506000809054906101000a900460ff16155b1515612967576040517f08c379a000000000000000000000000000000000000000000000000000000000815260040161295e90615a9b565b60405180910390fd5b60008060019054906101000a900460ff1615905080156129b7576001600060016101000a81548160ff02191690831515021790555060016000806101000a81548160ff0219169083151502179055505b6129bf613a00565b80156129e05760008060016101000a81548160ff0219169083151502179055505b50565b6103e8606960006101000a81548164ffffffffff021916908364ffffffffff160217905550612a427f736368656d61732e7075626c69632e7461626c657300000000000000000000006001026000606e613b089092919063ffffffff16565b50565b6000806000606760009054906101000a900473ffffffffffffffffffffffffffffffffffffffff1673ffffffffffffffffffffffffffffffffffffffff166392d66313426040518263ffffffff167c0100000000000000000000000000000000000000000000000000000000028152600401612ac19190615c5d565b60206040518083038186803b158015612ad957600080fd5b505afa158015612aed573d6000803e3d6000fd5b505050506040513d601f19601f82011682018060405250612b119190810190614cff565b90506000606760009054906101000a900473ffffffffffffffffffffffffffffffffffffffff1673ffffffffffffffffffffffffffffffffffffffff1663a324ad24426040518263ffffffff167c0100000000000000000000000000000000000000000000000000000000028152600401612b8c9190615c5d565b60206040518083038186803b158015612ba457600080fd5b505afa158015612bb8573d6000803e3d6000fd5b505050506040513d601f19601f82011682018060405250612bdc9190810190614db6565b90506000606760009054906101000a900473ffffffffffffffffffffffffffffffffffffffff1673ffffffffffffffffffffffffffffffffffffffff166365c72840426040518263ffffffff167c0100000000000000000000000000000000000000000000000000000000028152600401612c579190615c5d565b60206040518083038186803b158015612c6f57600080fd5b505afa158015612c83573d6000803e3d6000fd5b505050506040513d601f19601f82011682018060405250612ca79190810190614db6565b90508261ffff168417935060108260ff169060020a028417935060188160ff169060020a028417935083604051602001808281526020019150506040516020818303038152906040528051906020012094505050505090565b6000606082600b01602060405190810160405280600081525091509150915091565b60006060612d3f6020604051908101604052806000815250613df0565b915091509091565b6000612d5384846131fd565b15612d8657612d7f828560000160008681526020019081526020016000206135ad90919063ffffffff16565b9050612d8b565b600090505b9392505050565b60001515612daa84606e6122db90919063ffffffff16565b1515141515612dee576040517f08c379a0000000000000000000000000000000000000000000000000000000008152600401612de5906159db565b60405180910390fd5b600080606760009054906101000a900473ffffffffffffffffffffffffffffffffffffffff1673ffffffffffffffffffffffffffffffffffffffff166392d66313426040518263ffffffff167c0100000000000000000000000000000000000000000000000000000000028152600401612e689190615c5d565b60206040518083038186803b158015612e8057600080fd5b505afa158015612e94573d6000803e3d6000fd5b505050506040513d601f19601f82011682018060405250612eb89190810190614cff565b90506000606760009054906101000a900473ffffffffffffffffffffffffffffffffffffffff1673ffffffffffffffffffffffffffffffffffffffff1663a324ad24426040518263ffffffff167c0100000000000000000000000000000000000000000000000000000000028152600401612f339190615c5d565b60206040518083038186803b158015612f4b57600080fd5b505afa158015612f5f573d6000803e3d6000fd5b505050506040513d601f19601f82011682018060405250612f839190810190614db6565b90506000606760009054906101000a900473ffffffffffffffffffffffffffffffffffffffff1673ffffffffffffffffffffffffffffffffffffffff166365c72840426040518263ffffffff167c0100000000000000000000000000000000000000000000000000000000028152600401612ffe9190615c5d565b60206040518083038186803b15801561301657600080fd5b505afa15801561302a573d6000803e3d6000fd5b505050506040513d601f19601f8201168201806040525061304e9190810190614db6565b90508261ffff168417935060108260ff169060020a028417935060188160ff169060020a02841793506000847c010000000000000000000000000000000000000000000000000000000002905060206130a5612634565b73ffffffffffffffffffffffffffffffffffffffff169060020a02851794506130dd8886600102606e6127769092919063ffffffff16565b506130e6612634565b73ffffffffffffffffffffffffffffffffffffffff1686887fc3b047ab84cb81685163ad3ef7de856809a7d1cd6d900310242d6c3dca034bc160405160405180910390a45050505050505050565b606061314c8284600301613e0090919063ffffffff16565b905092915050565b61315c614583565b60008251905061316a614583565b61317d8285613f0390919063ffffffff16565b81600001818152505060208203915061319f8285613f1190919063ffffffff16565b8191508260200181945082905250506000821415156131f3576040517f08c379a00000000000000000000000000000000000000000000000000000000081526004016131ea9061589b565b60405180910390fd5b8092505050919050565b600061321582846001016139a290919063ffffffff16565b905092915050565b606061322983836131fd565b156132525761324b83600001600084815260200190815260200160002061401c565b9050613286565b60006040519080825280602002602001820160405280156132825781602001602082028038833980820191505090505b5090505b92915050565b50505050565b600061329e84846131fd565b156132d1576132ca828560000160008681526020019081526020016000206140b990919063ffffffff16565b90506132d6565b600090505b9392505050565b60006132f78383866006016132929092919063ffffffff16565b90509392505050565b600061330c83836131fd565b1561332e5761332782846001016140b990919063ffffffff16565b9050613333565b600090505b92915050565b600073ffffffffffffffffffffffffffffffffffffffff168173ffffffffffffffffffffffffffffffffffffffff16141515156133ab576040517f08c379a00000000000000000000000000000000000000000000000000000000081526004016133a29061591b565b60405180910390fd5b8073ffffffffffffffffffffffffffffffffffffffff16603360009054906101000a900473ffffffffffffffffffffffffffffffffffffffff1673ffffffffffffffffffffffffffffffffffffffff167f8be0079c531659141344cd1fd0a4f28419497f9722a3daafe3b4186f6b6457e060405160405180910390a380603360006101000a81548173ffffffffffffffffffffffffffffffffffffffff021916908373ffffffffffffffffffffffffffffffffffffffff16021790555050565b600061348382846000016141b290919063ffffffff16565b806134a0575061349f828460030161420490919063ffffffff16565b5b806134bd57506134bc828460060161330090919063ffffffff16565b5b806134da57506134d9828460090161425e90919063ffffffff16565b5b905092915050565b60006134fa82846001016139a290919063ffffffff16565b905092915050565b600061351a82846001016139a290919063ffffffff16565b905092915050565b600061353a82846001016139a290919063ffffffff16565b905092915050565b600061354e83836134e2565b151561358f576040517f08c379a000000000000000000000000000000000000000000000000000000000815260040161358690615b9b565b60405180910390fd5b82600001600083815260200190815260200160002054905092915050565b60006135b983836139a2565b151561360e578260010182908060018154018082558091505090600182039060005260206000200160009091929091909150558360000160008481526020019081526020016000208190555060019050613613565b600090505b92915050565b606081518351141515613661576040517f08c379a0000000000000000000000000000000000000000000000000000000008152600401613658906159fb565b60405180910390fd5b6060835160405190808252806020026020018201604052801561369e57816020015b61368b6145a0565b8152602001906001900390816136835790505b50905060008090505b8451811015613724576136b86145c0565b85828151811015156136c657fe5b9060200190602002015181600001818152505084828151811015156136e757fe5b9060200190602002015181602001818152505080838381518110151561370957fe5b906020019060200201819052505080806001019150506136a7565b508091505092915050565b6060600061373c83614297565b90506060816040519080825280601f01601f1916602001820160405280156137735781602001600182028038833980820191505090505b50905061378f828286600001516142b29092919063ffffffff16565b6020820391506137ae828286602001516142bc9092919063ffffffff16565b91506000821415156137f5576040517f08c379a00000000000000000000000000000000000000000000000000000000081526004016137ec9061589b565b60405180910390fd5b8092505050919050565b600061381783856000016134e290919063ffffffff16565b151515613859576040517f08c379a0000000000000000000000000000000000000000000000000000000008152600401613850906159bb565b60405180910390fd5b61386f83856006016131fd90919063ffffffff16565b1515156138b1576040517f08c379a00000000000000000000000000000000000000000000000000000000081526004016138a8906159bb565b60405180910390fd5b6138c7838560090161352290919063ffffffff16565b151515613909576040517f08c379a0000000000000000000000000000000000000000000000000000000008152600401613900906159bb565b60405180910390fd5b6139218383866003016143799092919063ffffffff16565b90509392505050565b600060606000368080601f016020809104026020016040519081016040528093929190818152602001838380828437600081840152601f19601f820116905080830192505050505050509050600080369050905073ffffffffffffffffffffffffffffffffffffffff81830151169250829250505090565b600080836000016000848152602001908152602001600020541415905092915050565b600081846000016000858152602001908152602001600020819055506139f783856001016135ad90919063ffffffff16565b90509392505050565b600060019054906101000a900460ff1680613a1f5750613a1e6128d9565b5b80613a3657506000809054906101000a900460ff16155b1515613a77576040517f08c379a0000000000000000000000000000000000000000000000000000000008152600401613a6e90615a9b565b60405180910390fd5b60008060019054906101000a900460ff161590508015613ac7576001600060016101000a81548160ff02191690831515021790555060016000806101000a81548160ff0219169083151502179055505b613ae473d216153c06e857cd7f72665e0af1d7d82172f4946143c4565b8015613b055760008060016101000a81548160ff0219169083151502179055505b50565b60006004826003811115613b1857fe5b60ff16101515613b5d576040517f08c379a0000000000000000000000000000000000000000000000000000000008152600401613b5490615b1b565b60405180910390fd5b613b7383856000016134e290919063ffffffff16565b151515613bb5576040517f08c379a0000000000000000000000000000000000000000000000000000000008152600401613bac906159bb565b60405180910390fd5b613bcb838560030161350290919063ffffffff16565b151515613c0d576040517f08c379a0000000000000000000000000000000000000000000000000000000008152600401613c04906159bb565b60405180910390fd5b613c2383856006016131fd90919063ffffffff16565b151515613c65576040517f08c379a0000000000000000000000000000000000000000000000000000000008152600401613c5c906159bb565b60405180910390fd5b613c7b838560090161352290919063ffffffff16565b151515613cbd576040517f08c379a0000000000000000000000000000000000000000000000000000000008152600401613cb4906159bb565b60405180910390fd5b816003811115613cc957fe5b60006003811115613cd657fe5b1415613cf957613cf2838560060161256990919063ffffffff16565b9050613de9565b816003811115613d0557fe5b60016003811115613d1257fe5b1415613d3557613d2e838560090161453d90919063ffffffff16565b9050613de9565b816003811115613d4157fe5b60026003811115613d4e57fe5b1415613d7757613d70836000600102866000016139c59092919063ffffffff16565b9050613de9565b816003811115613d8357fe5b600380811115613d8f57fe5b1415613de857613de18360006040519080825280601f01601f191660200182016040528015613dcd5781602001600182028038833980820191505090505b50866003016143799092919063ffffffff16565b9050613de9565b5b9392505050565b6000606060008391509150915091565b6060613e0c8383613502565b1515613e4d576040517f08c379a0000000000000000000000000000000000000000000000000000000008152600401613e4490615b9b565b60405180910390fd5b8260000160008381526020019081526020016000208054600181600116156101000203166002900480601f016020809104026020016040519081016040528092919081815260200182805460018160011615610100020316600290048015613ef65780601f10613ecb57610100808354040283529160200191613ef6565b820191906000526020600020905b815481529060010190602001808311613ed957829003601f168201915b5050505050905092915050565b600081830151905092915050565b60606000808390506000613f2e828761455d90919063ffffffff16565b90506020820391506000604082811515613f4457fe5b049050606081604051908082528060200260200182016040528015613f8357816020015b613f706145a0565b815260200190600190039081613f685790505b50905060008090505b8281101561400a57613f9c6145c0565b613faf868b613f0390919063ffffffff16565b816000018181525050602086039550613fd1868b613f0390919063ffffffff16565b816020018181525050602086039550808383815181101515613fef57fe5b90602001906020020181905250508080600101915050613f8c565b50808495509550505050509250929050565b60608082600101805490506040519080825280602002602001820160405280156140555781602001602082028038833980820191505090505b50905060005b83600101805490508110156140af57836001018181548110151561407b57fe5b9060005260206000200154828281518110151561409457fe5b9060200190602002018181525050808060010191505061405b565b5080915050919050565b60006140c583836139a2565b156141a7576000600184600001600085815260200190815260200160002054039050600060018560010180549050039050818114151561415e576000856001018281548110151561411257fe5b9060005260206000200154905080866001018481548110151561413157fe5b90600052602060002001819055506001830186600001600083815260200190815260200160002081905550505b8460000160008581526020019081526020016000206000905584600101805480151561418657fe5b600190038181906000526020600020016000905590556001925050506141ac565b600090505b92915050565b60006141be83836134e2565b156141f957826000016000838152602001908152602001600020600090556141f282846001016140b990919063ffffffff16565b90506141fe565b600090505b92915050565b60006142108383613502565b1561425357826000016000838152602001908152602001600020600061423691906145e0565b61424c82846001016140b990919063ffffffff16565b9050614258565b600090505b92915050565b600061426a8383613522565b1561428c5761428582846001016140b990919063ffffffff16565b9050614291565b600090505b92915050565b60006142a6826020015161456b565b60208001019050919050565b8282820152505050565b6000808390506142df81846142d08861456b565b6145799092919063ffffffff16565b60208103905060008090505b855181101561436d576143248285888481518110151561430757fe5b90602001906020020151600001516142b29092919063ffffffff16565b60208203915061435a8285888481518110151561433d57fe5b90602001906020020151602001516142b29092919063ffffffff16565b60208203915080806001019150506142eb565b50809150509392505050565b60008184600001600085815260200190815260200160002090805190602001906143a4929190614628565b506143bb83856001016135ad90919063ffffffff16565b90509392505050565b60006143ce6128a1565b9050600073ffffffffffffffffffffffffffffffffffffffff168273ffffffffffffffffffffffffffffffffffffffff1614151515614442576040517f08c379a000000000000000000000000000000000000000000000000000000000815260040161443990615afb565b60405180910390fd5b8073ffffffffffffffffffffffffffffffffffffffff168273ffffffffffffffffffffffffffffffffffffffff16141515156144b3576040517f08c379a00000000000000000000000000000000000000000000000000000000081526004016144aa9061597b565b60405180910390fd5b8173ffffffffffffffffffffffffffffffffffffffff168173ffffffffffffffffffffffffffffffffffffffff167fb9f84b8e65164b14439ae3620df0a4d8786d896996c0282b683f9d8c08f046e860405160405180910390a360007f06b7792c761dcc05af1761f0315ce8b01ac39c16cc934eb0b2f7a8e71414f2626001029050828155505050565b600061455582846001016135ad90919063ffffffff16565b905092915050565b600081830151905092915050565b600060408251029050919050565b8282820152505050565b604080519081016040528060008019168152602001606081525090565b604080519081016040528060008019168152602001600080191681525090565b604080519081016040528060008019168152602001600080191681525090565b50805460018160011615610100020316600290046000825580601f106146065750614625565b601f01602090049060005260206000209081019061462491906146a8565b5b50565b828054600181600116156101000203166002900490600052602060002090601f016020900481019282601f1061466957805160ff1916838001178555614697565b82800160010185558215614697579182015b8281111561469657825182559160200191906001019061467b565b5b5090506146a491906146a8565b5090565b6146ca91905b808211156146c65760008160009055506001016146ae565b5090565b90565b60006146d98235615e6b565b905092915050565b60006146ed8235615e7d565b905092915050565b600082601f830112151561470857600080fd5b813561471b61471682615d42565b615d15565b9150818183526020840193506020810190508385602084028201111561474057600080fd5b60005b838110156147705781614756888261478e565b845260208401935060208301925050600181019050614743565b5050505092915050565b60006147868235615e8f565b905092915050565b600061479a8235615e9b565b905092915050565b60008083601f84011215156147b657600080fd5b8235905067ffffffffffffffff8111156147cf57600080fd5b6020830191508360018202830111156147e757600080fd5b9250929050565b60006147fa8251615ea5565b905092915050565b600061480e8235615eb3565b905092915050565b60006148228251615eb3565b905092915050565b60006148368235615ebd565b905092915050565b600061484a8251615ebd565b905092915050565b60006020828403121561486457600080fd5b6000614872848285016146cd565b91505092915050565b60006020828403121561488d57600080fd5b600061489b848285016146e1565b91505092915050565b60008060008060008060008060008060006101208c8e0312156148c657600080fd5b60006148d48e828f016146cd565b9b505060206148e58e828f016146cd565b9a505060408c013567ffffffffffffffff81111561490257600080fd5b61490e8e828f016147a2565b995099505060606149218e828f01614802565b97505060806149328e828f01614802565b96505060a06149438e828f01614802565b95505060c06149548e828f01614802565b94505060e08c013567ffffffffffffffff81111561497157600080fd5b61497d8e828f016147a2565b93509350506101006149918e828f01614802565b9150509295989b509295989b9093969950565b6000602082840312156149b657600080fd5b60006149c48482850161478e565b91505092915050565b600080604083850312156149e057600080fd5b60006149ee8582860161478e565b92505060206149ff8582860161478e565b9150509250929050565b60008060008060808587031215614a1f57600080fd5b6000614a2d8782880161478e565b9450506020614a3e8782880161478e565b9350506040614a4f8782880161478e565b9250506060614a608782880161478e565b91505092959194509250565b60008060008060008060c08789031215614a8557600080fd5b6000614a9389828a0161478e565b9650506020614aa489828a0161478e565b9550506040614ab589828a0161478e565b9450506060614ac689828a0161478e565b9350506080614ad789828a0161478e565b92505060a0614ae889828a0161478e565b9150509295509295509295565b600080600080600080600060e0888a031215614b1057600080fd5b6000614b1e8a828b0161478e565b9750506020614b2f8a828b0161478e565b9650506040614b408a828b0161478e565b9550506060614b518a828b0161478e565b9450506080614b628a828b0161478e565b93505060a0614b738a828b0161478e565b92505060c0614b848a828b0161478e565b91505092959891949750929550565b600080600080600060a08688031215614bab57600080fd5b6000614bb98882890161478e565b9550506020614bca8882890161478e565b9450506040614bdb8882890161482a565b935050606086013567ffffffffffffffff811115614bf857600080fd5b614c04888289016146f5565b925050608086013567ffffffffffffffff811115614c2157600080fd5b614c2d888289016146f5565b9150509295509295909350565b60008060208385031215614c4d57600080fd5b600083013567ffffffffffffffff811115614c6757600080fd5b614c73858286016147a2565b92509250509250929050565b600080600080600060808688031215614c9757600080fd5b600086013567ffffffffffffffff811115614cb157600080fd5b614cbd888289016147a2565b95509550506020614cd08882890161477a565b9350506040614ce188828901614802565b9250506060614cf28882890161478e565b9150509295509295909350565b600060208284031215614d1157600080fd5b6000614d1f848285016147ee565b91505092915050565b600060208284031215614d3a57600080fd5b6000614d4884828501614802565b91505092915050565b600060208284031215614d6357600080fd5b6000614d7184828501614816565b91505092915050565b60008060408385031215614d8d57600080fd5b6000614d9b85828601614802565b9250506020614dac858286016146e1565b9150509250929050565b600060208284031215614dc857600080fd5b6000614dd68482850161483e565b91505092915050565b614de881615eca565b82525050565b614df781615ddc565b82525050565b614e0681615dca565b82525050565b6000614e1782615d84565b808452602084019350614e2983615d6a565b60005b82811015614e5b57614e3f868351614ed1565b614e4882615db0565b9150602086019550600181019050614e2c565b50849250505092915050565b6000614e7282615d8f565b808452602084019350614e8483615d77565b60005b82811015614eb657614e9a868351615738565b614ea382615dbd565b9150604086019550600181019050614e87565b50849250505092915050565b614ecb81615dee565b82525050565b614eda81615dfa565b82525050565b614ee981615e04565b82525050565b6000614efa82615d9a565b808452614f0e816020860160208601615f00565b614f1781615f33565b602085010191505092915050565b6000614f3082615da5565b808452614f44816020860160208601615f00565b614f4d81615f33565b602085010191505092915050565b6000601c82527f456e636f64696e67204572726f723a206f666673657420213d20302e000000006020830152604082019050919050565b6000602682527f47534e426f756e636572426173653a2063616c6c6572206973206e6f7420526560208301527f6c617948756200000000000000000000000000000000000000000000000000006040830152606082019050919050565b6000601f82527f43616e6e6f742044454c4554452066726f6d2073797374656d207461626c65006020830152604082019050919050565b6000601a82527f43616e6e6f74205550444154452073797374656d207461626c650000000000006020830152604082019050919050565b6000602682527f4f776e61626c653a206e6577206f776e657220697320746865207a65726f206160208301527f64647265737300000000000000000000000000000000000000000000000000006040830152606082019050919050565b6000601f82527f43616e6e6f7420494e5345525420696e746f2073797374656d207461626c65006020830152604082019050919050565b6000602582527f69645461626c654b6579206e6f7420612073756268617368205b69645d2e5b7460208301527f61626c655d0000000000000000000000000000000000000000000000000000006040830152606082019050919050565b6000602b82527f47534e436f6e746578743a206e65772052656c6179487562206973207468652060208301527f63757272656e74206f6e650000000000000000000000000000000000000000006040830152606082019050919050565b6000602e82527f4f6e6c79206f776e65722f64656c65676174652063616e20555044415445206960208301527f6e746f2074686973207461626c650000000000000000000000000000000000006040830152606082019050919050565b6000602082527f4572726f723a206b65792065786973747320696e206f7468657220646963742e6020830152604082019050919050565b6000601582527f726f7720616c726561647920686173206f776e657200000000000000000000006020830152604082019050919050565b6000601082527f4572726f7220616c69676e6d656e742e000000000000000000000000000000006020830152604082019050919050565b6000603982527f4e6f7420726f774f776e6572206f72206f776e65722f64656c6567617465206660208301527f6f722055504441544520696e746f2074686973207461626c65000000000000006040830152606082019050919050565b6000602e82527f4f6e6c79206f776e65722f64656c65676174652063616e20494e53455254206960208301527f6e746f2074686973207461626c650000000000000000000000000000000000006040830152606082019050919050565b6000601282527f6572726f722072656d6f76696e67206b657900000000000000000000000000006020830152604082019050919050565b6000602082527f4f776e61626c653a2063616c6c6572206973206e6f7420746865206f776e65726020830152604082019050919050565b6000602e82527f436f6e747261637420696e7374616e63652068617320616c726561647920626560208301527f656e20696e697469616c697a65640000000000000000000000000000000000006040830152606082019050919050565b6000601782527f69642b6669656c6420616c7265616479206578697374730000000000000000006020830152604082019050919050565b6000602e82527f4f6e6c79206f776e65722f64656c65676174652063616e2044454c455445206660208301527f726f6d2074686973207461626c650000000000000000000000000000000000006040830152606082019050919050565b6000602c82527f47534e436f6e746578743a206e65772052656c6179487562206973207468652060208301527f7a65726f206164647265737300000000000000000000000000000000000000006040830152606082019050919050565b6000601382527f496e76616c6964207461626c65207479706521000000000000000000000000006020830152604082019050919050565b6000601482527f5461626c6520616c7265616479206578697374730000000000000000000000006020830152604082019050919050565b6000601082527f696420646f65736e2774206578697374000000000000000000000000000000006020830152604082019050919050565b6000601182527f7461626c65206e6f7420637265617465640000000000000000000000000000006020830152604082019050919050565b6000601382527f4b657920646f6573206e6f7420657869737421000000000000000000000000006020830152604082019050919050565b6000601c82527f696420646f65736e27742065786973742c2075736520494e53455254000000006020830152604082019050919050565b6000601482527f7461626c6520646f6573206e6f742065786973740000000000000000000000006020830152604082019050919050565b6000601782527f53656e646572206e6f74206f776e6572206f6620726f770000000000000000006020830152604082019050919050565b6000602b82527f6669656c644b6579206e6f7420612073756268617368205b6669656c645d2e5b60208301527f69645d2e5b7461626c655d0000000000000000000000000000000000000000006040830152606082019050919050565b60408201600082015161574e6000850182614ed1565b5060208201516157616020850182614ed1565b50505050565b600060408301600083015161577f6000860182614ed1565b50602083015184820360208601526157978282614e67565b9150508091505092915050565b6157ad81615e50565b82525050565b6157bc81615e5a565b82525050565b60006020820190506157d76000830184614dfd565b92915050565b60006020820190506157f26000830184614ddf565b92915050565b600060408201905061580d6000830185614dfd565b61581a6020830184614ee0565b9392505050565b6000602082019050818103600083015261583b8184614e0c565b905092915050565b60006020820190506158586000830184614ec2565b92915050565b60006020820190506158736000830184614ed1565b92915050565b600060208201905081810360008301526158938184614f25565b905092915050565b600060208201905081810360008301526158b481614f5b565b9050919050565b600060208201905081810360008301526158d481614f92565b9050919050565b600060208201905081810360008301526158f481614fef565b9050919050565b6000602082019050818103600083015261591481615026565b9050919050565b600060208201905081810360008301526159348161505d565b9050919050565b60006020820190508181036000830152615954816150ba565b9050919050565b60006020820190508181036000830152615974816150f1565b9050919050565b600060208201905081810360008301526159948161514e565b9050919050565b600060208201905081810360008301526159b4816151ab565b9050919050565b600060208201905081810360008301526159d481615208565b9050919050565b600060208201905081810360008301526159f48161523f565b9050919050565b60006020820190508181036000830152615a1481615276565b9050919050565b60006020820190508181036000830152615a34816152ad565b9050919050565b60006020820190508181036000830152615a548161530a565b9050919050565b60006020820190508181036000830152615a7481615367565b9050919050565b60006020820190508181036000830152615a948161539e565b9050919050565b60006020820190508181036000830152615ab4816153d5565b9050919050565b60006020820190508181036000830152615ad481615432565b9050919050565b60006020820190508181036000830152615af481615469565b9050919050565b60006020820190508181036000830152615b14816154c6565b9050919050565b60006020820190508181036000830152615b3481615523565b9050919050565b60006020820190508181036000830152615b548161555a565b9050919050565b60006020820190508181036000830152615b7481615591565b9050919050565b60006020820190508181036000830152615b94816155c8565b9050919050565b60006020820190508181036000830152615bb4816155ff565b9050919050565b60006020820190508181036000830152615bd481615636565b9050919050565b60006020820190508181036000830152615bf48161566d565b9050919050565b60006020820190508181036000830152615c14816156a4565b9050919050565b60006020820190508181036000830152615c34816156db565b9050919050565b60006020820190508181036000830152615c558184615767565b905092915050565b6000602082019050615c7260008301846157a4565b92915050565b6000604082019050615c8d60008301856157a4565b615c9a6020830184614dfd565b9392505050565b6000604082019050615cb660008301856157a4565b615cc36020830184614dee565b9392505050565b6000604082019050615cdf60008301856157a4565b8181036020830152615cf18184614eef565b90509392505050565b6000602082019050615d0f60008301846157b3565b92915050565b6000604051905081810181811067ffffffffffffffff82111715615d3857600080fd5b8060405250919050565b600067ffffffffffffffff821115615d5957600080fd5b602082029050602081019050919050565b6000602082019050919050565b6000602082019050919050565b600081519050919050565b600081519050919050565b600081519050919050565b600081519050919050565b6000602082019050919050565b6000602082019050919050565b6000615dd582615e30565b9050919050565b6000615de782615e30565b9050919050565b60008115159050919050565b6000819050919050565b60007fffffffff0000000000000000000000000000000000000000000000000000000082169050919050565b600073ffffffffffffffffffffffffffffffffffffffff82169050919050565b6000819050919050565b600064ffffffffff82169050919050565b6000615e7682615e30565b9050919050565b6000615e8882615e30565b9050919050565b60008115159050919050565b6000819050919050565b600061ffff82169050919050565b6000819050919050565b600060ff82169050919050565b6000615ed582615edc565b9050919050565b6000615ee782615eee565b9050919050565b6000615ef982615e30565b9050919050565b60005b83811015615f1e578082015181840152602081019050615f03565b83811115615f2d576000848401525b50505050565b6000601f19601f830116905091905056fea265627a7a72305820e9e7270152260224ce160b40220986f9325d9b8d9da838abd45b11a3878c7a8f6c6578706572696d656e74616cf50037",
  "compiler": {
    "name": "solc",
    "version": "0.5.0+commit.1d4f565a.Emscripten.clang",
    "optimizer": {
      "enabled": false,
      "runs": 200
    },
    "evmVersion": "byzantium"
  }
}