{
  "fileName": "ELAJSStore.sol",
  "contractName": "ELAJSStore",
  "source": "pragma solidity ^0.5.0;\npragma experimental ABIEncoderV2;\n\nimport \"sol-datastructs/src/contracts/PolymorphicDictionaryLib.sol\";\n\n// import \"sol-datastructs/src/contracts/Bytes32DictionaryLib.sol\";\nimport \"sol-datastructs/src/contracts/Bytes32SetDictionaryLib.sol\";\n\n// import \"./oz/EnumerableSetDictionary.sol\";\n\nimport \"sol-sql/src/contracts/src/structs/TableLib.sol\";\n\nimport \"./ozEla/OwnableELA.sol\";\nimport \"./gsnEla/GSNRecipientELA.sol\";\nimport \"./gsnEla/IRelayHubELA.sol\";\n\ncontract DateTime {\n    function getYear(uint timestamp) public pure returns (uint16);\n    function getMonth(uint timestamp) public pure returns (uint8);\n    function getDay(uint timestamp) public pure returns (uint8);\n}\n\n// TODO: good practice to have functions not callable externally and internally\ncontract ELAJSStore is OwnableELA, GSNRecipientELA {\n\n    // TODO: have a dynamic mode to only use Events -> https://thegraph.com\n    // bool public useEvents = false;\n\n    // DateTime Contract address\n    address public dateTimeAddr = 0xe982E462b094850F12AF94d21D470e21bE9D0E9C; // development\n    // address constant public dateTimeAddr = 0xEDb211a2dBbdE62012440177e65b68E0A66E4531; // testnet\n\n    // Initialize the DateTime contract ABI with the already deployed contract\n    DateTime dateTime = DateTime(dateTimeAddr);\n\n    // This counts the number of times this contract was called via GSN (expended owner gas) for rate limiting\n    // mapping is a keccak256('YYYY-MM-DD') => uint (TODO: we can probably compress this by week (4 bytes per day -> 28 bytes)\n    mapping(bytes32 => uint256) public gsnCounter;\n\n    // Max times we allow this to be called per day\n    uint40 public gsnMaxCallsPerDay;\n\n    using PolymorphicDictionaryLib for PolymorphicDictionaryLib.PolymorphicDictionary;\n    using Bytes32SetDictionaryLib for Bytes32SetDictionaryLib.Bytes32SetDictionary;\n\n    // _table = system table (bytes32 Dict) of each table's metadata marshaled\n    // 8 bits - permissions (00 = system, 01 = private, 10 = public, 11 = shared - owner can always edit)\n    // 20 bytes - address delegate - other address allowed to edit\n    mapping(bytes32 => bytes32) internal _table;\n\n    // table = dict, where the key is the table, and the value is a set of byte32 ids\n    Bytes32SetDictionaryLib.Bytes32SetDictionary internal tableId;\n\n    // Schema dictionary, key (schemasPublicTables) points to a set of table names\n    using TableLib for TableLib.Table;\n    using TableLib for bytes;\n    // using ColumnLib for ColumnLib.Column;\n    // using ColumnLib for bytes;\n\n    // schemaTables -> Set of tables (raw table name values) for enumeration\n    bytes32 constant public schemasTables = 0x736368656d61732e7075626c69632e7461626c65730000000000000000000000;\n\n    // namehash([tableName]) => encoded table schema\n    // ownership of each row (id) - key = namehash([id].[table]) which has a value that is the owner's address\n    // ultimately namehash([field].[id].[table]) gives us a bytes32 which maps to the single data value\n    PolymorphicDictionaryLib.PolymorphicDictionary internal database;\n\n\n    // ************************************* SETUP FUNCTIONS *************************************\n    function initialize() public initializer {\n        OwnableELA.initialize(msg.sender);\n        GSNRecipientELA.initialize();\n        _initialize();\n    }\n\n    function _initialize() internal {\n        gsnMaxCallsPerDay = 1000;\n\n        // init the key for schemasTables, our set is one-to-many-fixed, so table names must be max 32 bytes\n        database.addKey(schemasTables, PolymorphicDictionaryLib.DictionaryType.OneToManyFixed);\n    }\n\n    // ************************************* SCHEMA FUNCTIONS *************************************\n    /**\n     * @dev create a new table, only the owner may create this\n     *\n     * @param tableName right padded zeroes (Web3.utils.stringToHex)\n     * @param tableKey this is the namehash of tableName\n     */\n    function createTable(\n        bytes32 tableName,\n        bytes32 tableKey,\n        uint8 permission,\n        bytes32[] memory columnName,\n        bytes32[] memory columnDtype\n\n    ) public onlyOwner {\n\n        // this only works if tableName is trimmed of padding zeroes, since this is an onlyOwner call we won't bother\n        // require(isNamehashSubOf(keccak256(tableNameBytes), bytes32(0), tableKey), \"tableName does not match tableKey\");\n\n        // check if table exists\n        require(_table[tableKey] == 0, \"Table already exists\");\n\n        address delegate = address(0x0);\n\n        // claim the key slot and set the metadata\n        setTableMetadata(tableKey, permission, delegate);\n\n        database.addValueForKey(schemasTables, tableName);\n\n        // table stores the row ids set as the value, set up the key\n        tableId.addKey(tableKey);\n\n        // now insert the schema\n        saveSchema(tableName, tableKey, columnName, columnDtype);\n    }\n\n    // TODO: this isn't complete\n    function deleteTable(\n        bytes32 tableName,\n        bytes32 tableKey\n    ) public onlyOwner {\n        _table[tableKey] = 0;\n        database.removeValueForKey(schemasTables, tableName);\n        tableId.removeKey(tableKey);\n    }\n\n    function getTables() external view returns (bytes32[] memory){\n        return database.enumerateForKeyOneToManyFixed(schemasTables);\n    }\n\n    /*\n    function tableExists(bytes32 tableKey) public view returns (bool) {\n        return tableId.containsKey(tableKey);\n    }\n    */\n\n    function saveSchema(\n        bytes32 tableName,\n        bytes32 tableKey,\n        bytes32[] memory columnName,\n        bytes32[] memory columnDtype\n\n    ) public onlyOwner returns (bool) {\n\n        TableLib.Table memory tableSchema = TableLib.create(\n            tableName,\n            columnName,\n            columnDtype\n        );\n\n        bytes memory encoded = tableSchema.encode();\n\n        // we store the encoded table schema on the base tableKey\n        return database.setValueForKey(tableKey, encoded);\n    }\n\n    // EXPERIMENTAL\n    function getSchema(bytes32 _name) public view returns (TableLib.Table memory) {\n        bytes memory encoded = database.getBytesForKey(_name);\n        return encoded.decodeTable();\n    }\n\n    // ************************************* CRUD FUNCTIONS *************************************\n\n    /**\n     * @dev Table level permission checks\n     */\n    modifier insertCheck(bytes32 tableKey) {\n\n        (uint256 permission, address delegate) = getTableMetadata(tableKey);\n\n        // if permission = 0, system table we can't do anything\n        require(permission > 0, \"Cannot INSERT into system table\");\n\n        // if permission = 1, we must be the owner/delegate\n        require(permission > 1 || isOwner() == true || delegate == _msgSender(), \"Only owner/delegate can INSERT into this table\");\n\n        _;\n    }\n\n\n    /**\n     * Primarily exists to assist in query WHERE searches, therefore we\n     * want the index to exist on the value and table, filtering on owner\n     * is important for performance\n     */\n    event InsertVal (\n        bytes32 indexed tableKey,\n        bytes32 indexed fieldKey,\n        bytes32 indexed val,\n\n        bytes32 id,\n\n        address owner\n    );\n\n\n    /**\n     * @dev Prior to insert, we check the permissions and autoIncrement\n     * TODO: use the schema and determine the proper type of data to insert\n     *\n     * @param tableKey the namehashed [table] name string\n     * @param idKey the sha3 hashed idKey\n     * @param id as the raw string (unhashed)\n     */\n    function insertVal(\n\n        bytes32 tableKey,\n        bytes32 idKey,\n        bytes32 fieldKey,\n\n        bytes32 id,\n        bytes32 val)\n\n    public insertCheck(tableKey){\n\n        bytes32 idTableKey = namehash(idKey, tableKey);\n        bytes32 fieldIdTableKey = namehash(fieldKey, idTableKey);\n\n        require(database.containsKey(fieldIdTableKey) == false, \"id+field already exists\");\n\n        // increment counter\n        increaseGsnCounter();\n\n        // add an id entry to the table's set of ids for the row (this is a set so we don't need to check first)\n        // TODO: should we check the id/row ownership?\n        tableId.addValueForKey(tableKey, id);\n\n        // add the \"row owner\" if it doesn't exist, the row may already exist in which case we don't update it\n        if (database.containsKey(idTableKey) == false){\n            _setRowOwner(idTableKey, id, tableKey);\n        }\n\n        // finally set the data\n        // we won't serialize the type, that's way too much redundant data\n        database.setValueForKey(fieldIdTableKey, bytes32(val));\n\n        // emit an event to assist in queries\n        emit InsertVal(tableKey, fieldKey, val, id, _msgSender());\n\n    }\n\n    function insertValVar(\n        bytes32 tableKey,\n        bytes32 idKey,\n        bytes32 fieldKey,\n\n        bytes32 id,\n        bytes memory val)\n\n    public insertCheck(tableKey){\n\n        bytes32 idTableKey = namehash(idKey, tableKey);\n        bytes32 fieldIdTableKey = namehash(fieldKey, idTableKey);\n\n        require(database.containsKey(fieldIdTableKey) == false, \"id+field already exists\");\n\n        // increment counter\n        increaseGsnCounter();\n\n        // add an id entry to the table's set of ids for the row\n        tableId.addValueForKey(tableKey, id);\n\n        // add the \"row owner\" if it doesn't exist, the row may already exist in which case we don't update it\n        if (database.containsKey(idTableKey) == false){\n            _setRowOwner(idTableKey, id, tableKey);\n        }\n\n        // finally set the data\n        database.setValueForKey(fieldIdTableKey, val);\n    }\n\n    /**\n     * @dev we are essentially claiming this [id].[table] for the msg.sender, and setting the id createdDate\n     */\n    function _setRowOwner(bytes32 idTableKey, bytes32 id, bytes32 tableKey) internal {\n\n        require(database.containsKey(idTableKey) == false, \"row already has owner\");\n\n        uint256 rowMetadata;\n\n        uint16 year = dateTime.getYear(now);\n        uint8 month = dateTime.getMonth(now);\n        uint8 day = dateTime.getDay(now);\n\n        rowMetadata |= year;\n        rowMetadata |= uint256(month)<<16;\n        rowMetadata |= uint256(day)<<24;\n\n        bytes4 createdDate = bytes4(uint32(rowMetadata));\n\n        rowMetadata |= uint256(_msgSender())<<32;\n\n        database.setValueForKey(idTableKey, bytes32(rowMetadata));\n\n        // emit InsertRow(id, tableKey, _msgSender());\n    }\n\n    /**\n     * Primarily to assist querying all ids belonging to an owner\n     */\n    /*\n    event InsertRow (\n        bytes32 indexed _id,\n        bytes32 indexed _tableKey,\n        address indexed _rowOwner\n    );\n    */\n\n    function getRowOwner(bytes32 idTableKey) external returns (address rowOwner, bytes4 createdDate){\n\n        uint256 rowMetadata = uint256(database.getBytes32ForKey(idTableKey));\n\n        createdDate = bytes4(uint32(rowMetadata));\n        rowOwner = address(rowMetadata>>32);\n\n    }\n\n    function updateCheck(bytes32 tableKey, bytes32 idKey, bytes32 idTableKey, bytes32 id) internal {\n\n        require(tableId.containsValueForKey(tableKey, id) == true, \"id doesn't exist, use INSERT\");\n\n        (uint256 permission, address delegate) = getTableMetadata(tableKey);\n\n        // if permission = 0, system table we can't do anything\n        require(permission > 0, \"Cannot UPDATE system table\");\n\n        // if permission = 1, we must be the owner/delegate\n        require(permission > 1 || isOwner() == true || delegate == _msgSender(), \"Only owner/delegate can UPDATE into this table\");\n\n        // permissions check (public table = 2, shared table = 3),\n        // if 2 or 3 is the _msg.sender() the row owner? But if 3 owner() is always allowed\n        if (permission >= 2) {\n\n            // rowMetaData is packed as address (bytes20) + createdDate (bytes4)\n            bytes32 rowMetaData = database.getBytes32ForKey(idTableKey);\n            address rowOwner = address(uint256(rowMetaData)>>32);\n\n            // if either 2 or 3, if you're the row owner it's fine\n            if (rowOwner == _msgSender()){\n                // pass\n            } else {\n                require(isOwner() == true || delegate == _msgSender(), \"Not rowOwner or owner/delegate for UPDATE into this table\");\n            }\n        }\n    }\n\n    function updateVal(\n\n        bytes32 tableKey,\n        bytes32 idKey,\n        bytes32 fieldKey,\n\n        bytes32 id,\n        bytes32 val)\n\n    public {\n\n        bytes32 idTableKey = namehash(idKey, tableKey);\n        bytes32 fieldIdTableKey = namehash(fieldKey, idTableKey);\n\n        updateCheck(tableKey, idKey, idTableKey, id);\n\n        // increment counter\n        increaseGsnCounter();\n\n        // set data (overwrite)\n        database.setValueForKey(fieldIdTableKey, bytes32(val));\n\n        // emit an event to assist in queries\n        emit InsertVal(tableKey, fieldKey, val, id, _msgSender());\n    }\n\n    function deleteCheck(bytes32 tableKey, bytes32 idTableKey, bytes32 idKey, bytes32 id) internal {\n\n        require(tableId.containsValueForKey(tableKey, id) == true, \"id doesn't exist\");\n\n        (uint256 permission, address delegate) = getTableMetadata(tableKey);\n\n        // if permission = 0, system table we can't do anything\n        require(permission > 0, \"Cannot DELETE from system table\");\n\n        // if permission = 1, we must be the owner/delegate\n        require(permission > 1 || isOwner() == true || delegate == _msgSender(), \"Only owner/delegate can DELETE from this table\");\n\n        // permissions check (public table = 2, shared table = 3),\n        // if 2 or 3 is the _msg.sender() the row owner? But if 3 owner() is always allowed\n        if (permission >= 2) {\n            if (isOwner() || delegate == _msgSender()){\n                // pass\n            } else {\n                // rowMetaData is packed as address (bytes20) + createdDate (bytes4)\n                bytes32 rowMetaData = database.getBytes32ForKey(idTableKey);\n                address rowOwner = address(uint256(rowMetaData)>>32);\n                require(rowOwner == _msgSender(), \"Sender not owner of row\");\n            }\n        }\n    }\n\n    /**\n     * @dev TODO: add modifier checks based on update\n     *\n     * TODO: this needs to properly remove the row when there are multiple ids\n     *\n     */\n    function deleteVal(\n\n        bytes32 tableKey,\n        bytes32 idKey,\n        bytes32 fieldKey,\n\n        bytes32 id\n\n    ) public {\n\n        bytes32 idTableKey = namehash(idKey, tableKey);\n        bytes32 fieldIdTableKey = namehash(fieldKey, idTableKey);\n\n        deleteCheck(tableKey, idTableKey, idKey, id);\n\n        // increment counter\n        increaseGsnCounter();\n\n        // remove the key\n        bool removed = database.removeKey(fieldIdTableKey);\n\n        require(removed == true, \"error removing key\");\n\n        // TODO: zero out the data? Why bother everything is public\n\n        // we can't really pass in enough data to make a loop worthwhile\n        /*\n        uint8 len = uint8(fieldKeys.length);\n        require(fieldKeys.length == fieldIdTableKeys.length, \"fields, id array length mismatch\");\n        for (uint8 i = 0; i < len; i++) {\n\n            // for each row check if the full field + id + table is a subhash\n            // require(isNamehashSubOf(fieldKeys[i], idTableKey, fieldIdTableKeys[i]) == true, \"fieldKey not a subhash [field].[id].[table]\");\n\n            // zero out the data\n            elajsStore[fieldIdTableKeys[i]] = bytes32(0);\n        }\n        */\n    }\n\n    // TODO: improve this, we don't want to cause data consistency if the client doesn't call this\n    // Right now we manually call this, but ideally we iterate over all the data and delete each column\n    // but this would require decoding and having all the field names\n    function deleteRow(\n\n        bytes32 tableKey,\n        bytes32 idKey,\n        bytes32 id\n\n    ) public {\n\n        bytes32 idTableKey = namehash(idKey, tableKey);\n\n        deleteCheck(tableKey, idTableKey, idKey, id);\n\n        // increment counter\n        increaseGsnCounter();\n\n        // remove the id\n        tableId.removeValueForKey(tableKey, id);\n    }\n\n    /**\n     * @dev Table actual insert call, NOTE this doesn't work on testnet currently due to a stack size issue,\n     *      but it can work with a paid transaction I guess\n     */\n    /*\n    function insert(\n        bytes32 tableKey,\n        bytes32 idTableKey,\n\n        bytes32 idKey,\n        bytes32 id,\n\n        bytes32[] memory fieldKeys,\n        bytes32[] memory fieldIdTableKeys,\n        bytes32[] memory values)\n\n    public insertCheck(tableKey, idKey, idTableKey){\n\n        require(table.containsValueForKey(tableKey, id) == false, \"id already exists\");\n\n        uint len = fieldKeys.length;\n\n        require(fieldKeys.length == fieldIdTableKeys.length == values.length, \"fields, values array length mismatch\");\n\n        // add an id entry to the table's set of ids for the row\n        table.addValueForKey(tableKey, id);\n\n        for (uint i = 0; i < len; i++) {\n\n            // for each row check if the full field + id + table is a subhash\n            require(isNamehashSubOf(fieldKeys[i], idTableKey, fieldIdTableKeys[i]) == true, \"fieldKey not a subhash [field].[id].[table]\");\n\n            elajsStore[fieldIdTableKeys[i]] = bytes32(values[i]);\n        }\n\n    }\n    */\n\n    /*\n    function getAllDataKeys() external view returns (bytes32[] memory) {\n        return database.enumerate();\n    }\n    */\n\n    function checkDataKey(bytes32 key) external view returns (bool) {\n        return database.containsKey(key);\n    }\n\n    /**\n     * @dev all data is public, so no need for security checks, we leave the data type handling to the client\n     */\n    function getRowValue(bytes32 fieldIdTableKey) external view returns (bytes32) {\n\n        if (database.containsKey(fieldIdTableKey)) {\n            return database.getBytes32ForKey(fieldIdTableKey);\n        } else {\n            return bytes32(0);\n        }\n    }\n\n    function getRowValueVar(bytes32 fieldIdTableKey) external view returns (bytes memory) {\n\n        if (database.containsKey(fieldIdTableKey)) {\n            return database.getBytesForKey(fieldIdTableKey);\n        } else {\n            return new bytes(0);\n        }\n    }\n\n    /**\n     * @dev Warning this produces an Error: overflow (operation=\"setValue\", fault=\"overflow\", details=\"Number can only safely store up to 53 bits\")\n     *      if the table doesn't exist\n     */\n    function getTableIds(bytes32 tableKey) external view returns (bytes32[] memory){\n\n        require(tableId.containsKey(tableKey) == true, \"table not created\");\n\n        return tableId.enumerateForKey(tableKey);\n    }\n\n    function getIdExists(bytes32 tableKey, bytes32 id) external view returns (bool) {\n        return tableId.containsValueForKey(tableKey, id);\n    }\n\n    /*\n    function isNamehashSubOf(bytes32 subKey, bytes32 base, bytes32 target) internal pure returns (bool) {\n        bytes32 result = namehash(subKey, base);\n        return result == target;\n    }\n    */\n\n    function namehash(bytes32 subKey, bytes32 base) internal pure returns (bytes32) {\n        bytes memory concat = new bytes(64);\n\n        assembly {\n            mstore(add(concat, 64), subKey)\n            mstore(add(concat, 32), base)\n        }\n\n        bytes32 result = keccak256(concat);\n\n        return result;\n    }\n\n    // ************************************* _TABLE FUNCTIONS *************************************\n    function getTableMetadata(bytes32 _tableKey)\n        view\n        public\n        returns (uint256 permission, address delegate)\n    {\n        require(_table[_tableKey] > 0, \"table does not exist\");\n\n        uint256 tableMetadata = uint256(_table[_tableKey]);\n\n        permission = uint256(uint8(tableMetadata));\n        delegate = address(tableMetadata>>8);\n    }\n\n    function setTableMetadata(bytes32 _tableKey, uint8 permission, address delegate) private onlyOwner {\n        uint256 tableMetadata;\n\n        tableMetadata |= permission;\n        tableMetadata |= uint160(delegate)<<8;\n\n        _table[_tableKey] = bytes32(tableMetadata);\n    }\n\n    // ************************************* MISC FUNCTIONS *************************************\n\n    function() external payable {}\n\n    // ************************************* GSN FUNCTIONS *************************************\n\n    /**\n     * As a first layer of defense we employ a max number of checks per day\n     */\n    function acceptRelayedCall(\n        address relay,\n        address from,\n        bytes calldata encodedFunction,\n        uint256 transactionFee,\n        uint256 gasPrice,\n        uint256 gasLimit,\n        uint256 nonce,\n        bytes calldata approvalData,\n        uint256 maxPossibleCharge\n    ) external view returns (uint256, bytes memory) {\n\n        bytes32 curDateHashed = getGsnCounter();\n\n        // check gsnCounter for today and compare to limit\n        uint256 curCounter = gsnCounter[curDateHashed];\n\n        if (curCounter >= gsnMaxCallsPerDay){\n            return _rejectRelayedCall(2);\n        }\n\n\n        return _approveRelayedCall();\n    }\n\n    function setGsnMaxCallsPerDay(uint256 max) external onlyOwner {\n        gsnMaxCallsPerDay = uint40(max);\n    }\n\n    /*\n    event GsnCounterIncrease (\n        address indexed _from,\n        bytes4 indexed curDate\n    );\n    */\n\n    /**\n     * Increase the GSN Counter for today\n     */\n    function increaseGsnCounter() internal {\n\n        bytes32 curDateHashed = getGsnCounter();\n\n        uint256 curCounter = gsnCounter[curDateHashed];\n\n        gsnCounter[curDateHashed] = curCounter + 1;\n\n        // emit GsnCounterIncrease(_msgSender(), bytes4(uint32(curDate)));\n    }\n\n    /*\n     *\n     */\n    function getGsnCounter() internal view returns (bytes32 curDateHashed) {\n\n        uint256 curDate;\n\n        uint16 year = dateTime.getYear(now);\n        uint8 month = dateTime.getMonth(now);\n        uint8 day = dateTime.getDay(now);\n\n        curDate |= year;\n        curDate |= uint256(month)<<16;\n        curDate |= uint256(day)<<24;\n\n        curDateHashed = keccak256(abi.encodePacked(curDate));\n    }\n\n    // We won't do any pre or post processing, so leave _preRelayedCall and _postRelayedCall empty\n    function _preRelayedCall(bytes memory context) internal returns (bytes32) {\n    }\n\n    function _postRelayedCall(bytes memory context, bool, uint256 actualCharge, bytes32) internal {\n    }\n\n    /**\n     * @dev Withdraw a specific amount of the GSNReceipient funds\n     * @param amt Amount of wei to withdraw\n     * @param dest This is the arbitrary withdrawal destination address\n     */\n    function withdraw(uint256 amt, address payable dest) public onlyOwner {\n        IRelayHubELA relayHub = getRelayHub();\n        relayHub.withdraw(amt, dest);\n    }\n\n    /**\n     * @dev Withdraw all the GSNReceipient funds\n     * @param dest This is the arbitrary withdrawal destination address\n     */\n    function withdrawAll(address payable dest) public onlyOwner returns (uint256) {\n        IRelayHubELA relayHub = getRelayHub();\n        uint256 balance = getRelayHub().balanceOf(address(this));\n        relayHub.withdraw(balance, dest);\n        return balance;\n    }\n\n    function getGSNBalance() public view returns (uint256) {\n        return getRelayHub().balanceOf(address(this));\n    }\n\n    function getRelayHub() internal view returns (IRelayHubELA) {\n        return IRelayHubELA(_getRelayHub());\n    }\n}\n",
  "sourcePath": "contracts/ELAJSStore.sol",
  "abi": [
    {
      "constant": false,
      "inputs": [
        {
          "name": "amt",
          "type": "uint256"
        },
        {
          "name": "dest",
          "type": "address"
        }
      ],
      "name": "withdraw",
      "outputs": [],
      "payable": false,
      "stateMutability": "nonpayable",
      "type": "function"
    },
    {
      "constant": true,
      "inputs": [],
      "name": "gsnMaxCallsPerDay",
      "outputs": [
        {
          "name": "",
          "type": "uint40"
        }
      ],
      "payable": false,
      "stateMutability": "view",
      "type": "function"
    },
    {
      "constant": true,
      "inputs": [
        {
          "name": "key",
          "type": "bytes32"
        }
      ],
      "name": "checkDataKey",
      "outputs": [
        {
          "name": "",
          "type": "bool"
        }
      ],
      "payable": false,
      "stateMutability": "view",
      "type": "function"
    },
    {
      "constant": true,
      "inputs": [],
      "name": "getTables",
      "outputs": [
        {
          "name": "",
          "type": "bytes32[]"
        }
      ],
      "payable": false,
      "stateMutability": "view",
      "type": "function"
    },
    {
      "constant": false,
      "inputs": [
        {
          "name": "idTableKey",
          "type": "bytes32"
        }
      ],
      "name": "getRowOwner",
      "outputs": [
        {
          "name": "rowOwner",
          "type": "address"
        },
        {
          "name": "createdDate",
          "type": "bytes4"
        }
      ],
      "payable": false,
      "stateMutability": "nonpayable",
      "type": "function"
    },
    {
      "constant": false,
      "inputs": [
        {
          "name": "tableName",
          "type": "bytes32"
        },
        {
          "name": "tableKey",
          "type": "bytes32"
        },
        {
          "name": "permission",
          "type": "uint8"
        },
        {
          "name": "columnName",
          "type": "bytes32[]"
        },
        {
          "name": "columnDtype",
          "type": "bytes32[]"
        }
      ],
      "name": "createTable",
      "outputs": [],
      "payable": false,
      "stateMutability": "nonpayable",
      "type": "function"
    },
    {
      "constant": true,
      "inputs": [],
      "name": "getGSNBalance",
      "outputs": [
        {
          "name": "",
          "type": "uint256"
        }
      ],
      "payable": false,
      "stateMutability": "view",
      "type": "function"
    },
    {
      "constant": false,
      "inputs": [
        {
          "name": "tableKey",
          "type": "bytes32"
        },
        {
          "name": "idKey",
          "type": "bytes32"
        },
        {
          "name": "fieldKey",
          "type": "bytes32"
        },
        {
          "name": "id",
          "type": "bytes32"
        },
        {
          "name": "val",
          "type": "bytes"
        }
      ],
      "name": "insertValVar",
      "outputs": [],
      "payable": false,
      "stateMutability": "nonpayable",
      "type": "function"
    },
    {
      "constant": true,
      "inputs": [],
      "name": "schemasTables",
      "outputs": [
        {
          "name": "",
          "type": "bytes32"
        }
      ],
      "payable": false,
      "stateMutability": "view",
      "type": "function"
    },
    {
      "constant": true,
      "inputs": [
        {
          "name": "",
          "type": "bytes32"
        }
      ],
      "name": "gsnCounter",
      "outputs": [
        {
          "name": "",
          "type": "uint256"
        }
      ],
      "payable": false,
      "stateMutability": "view",
      "type": "function"
    },
    {
      "constant": true,
      "inputs": [
        {
          "name": "fieldIdTableKey",
          "type": "bytes32"
        }
      ],
      "name": "getRowValue",
      "outputs": [
        {
          "name": "",
          "type": "bytes32"
        }
      ],
      "payable": false,
      "stateMutability": "view",
      "type": "function"
    },
    {
      "constant": false,
      "inputs": [],
      "name": "renounceOwnership",
      "outputs": [],
      "payable": false,
      "stateMutability": "nonpayable",
      "type": "function"
    },
    {
      "constant": true,
      "inputs": [],
      "name": "getHubAddr",
      "outputs": [
        {
          "name": "",
          "type": "address"
        }
      ],
      "payable": false,
      "stateMutability": "view",
      "type": "function"
    },
    {
      "constant": false,
      "inputs": [
        {
          "name": "tableName",
          "type": "bytes32"
        },
        {
          "name": "tableKey",
          "type": "bytes32"
        },
        {
          "name": "columnName",
          "type": "bytes32[]"
        },
        {
          "name": "columnDtype",
          "type": "bytes32[]"
        }
      ],
      "name": "saveSchema",
      "outputs": [
        {
          "name": "",
          "type": "bool"
        }
      ],
      "payable": false,
      "stateMutability": "nonpayable",
      "type": "function"
    },
    {
      "constant": false,
      "inputs": [
        {
          "name": "tableKey",
          "type": "bytes32"
        },
        {
          "name": "idKey",
          "type": "bytes32"
        },
        {
          "name": "fieldKey",
          "type": "bytes32"
        },
        {
          "name": "id",
          "type": "bytes32"
        },
        {
          "name": "val",
          "type": "bytes32"
        }
      ],
      "name": "updateVal",
      "outputs": [],
      "payable": false,
      "stateMutability": "nonpayable",
      "type": "function"
    },
    {
      "constant": false,
      "inputs": [
        {
          "name": "context",
          "type": "bytes"
        }
      ],
      "name": "preRelayedCall",
      "outputs": [
        {
          "name": "",
          "type": "bytes32"
        }
      ],
      "payable": false,
      "stateMutability": "nonpayable",
      "type": "function"
    },
    {
      "constant": false,
      "inputs": [],
      "name": "initialize",
      "outputs": [],
      "payable": false,
      "stateMutability": "nonpayable",
      "type": "function"
    },
    {
      "constant": false,
      "inputs": [
        {
          "name": "tableKey",
          "type": "bytes32"
        },
        {
          "name": "idKey",
          "type": "bytes32"
        },
        {
          "name": "id",
          "type": "bytes32"
        }
      ],
      "name": "deleteRow",
      "outputs": [],
      "payable": false,
      "stateMutability": "nonpayable",
      "type": "function"
    },
    {
      "constant": true,
      "inputs": [
        {
          "name": "relay",
          "type": "address"
        },
        {
          "name": "from",
          "type": "address"
        },
        {
          "name": "encodedFunction",
          "type": "bytes"
        },
        {
          "name": "transactionFee",
          "type": "uint256"
        },
        {
          "name": "gasPrice",
          "type": "uint256"
        },
        {
          "name": "gasLimit",
          "type": "uint256"
        },
        {
          "name": "nonce",
          "type": "uint256"
        },
        {
          "name": "approvalData",
          "type": "bytes"
        },
        {
          "name": "maxPossibleCharge",
          "type": "uint256"
        }
      ],
      "name": "acceptRelayedCall",
      "outputs": [
        {
          "name": "",
          "type": "uint256"
        },
        {
          "name": "",
          "type": "bytes"
        }
      ],
      "payable": false,
      "stateMutability": "view",
      "type": "function"
    },
    {
      "constant": false,
      "inputs": [
        {
          "name": "tableKey",
          "type": "bytes32"
        },
        {
          "name": "idKey",
          "type": "bytes32"
        },
        {
          "name": "fieldKey",
          "type": "bytes32"
        },
        {
          "name": "id",
          "type": "bytes32"
        }
      ],
      "name": "deleteVal",
      "outputs": [],
      "payable": false,
      "stateMutability": "nonpayable",
      "type": "function"
    },
    {
      "constant": true,
      "inputs": [],
      "name": "owner",
      "outputs": [
        {
          "name": "",
          "type": "address"
        }
      ],
      "payable": false,
      "stateMutability": "view",
      "type": "function"
    },
    {
      "constant": true,
      "inputs": [],
      "name": "isOwner",
      "outputs": [
        {
          "name": "",
          "type": "bool"
        }
      ],
      "payable": false,
      "stateMutability": "view",
      "type": "function"
    },
    {
      "constant": true,
      "inputs": [
        {
          "name": "_name",
          "type": "bytes32"
        }
      ],
      "name": "getSchema",
      "outputs": [
        {
          "components": [
            {
              "name": "name",
              "type": "bytes32"
            },
            {
              "components": [
                {
                  "name": "name",
                  "type": "bytes32"
                },
                {
                  "name": "_dtype",
                  "type": "bytes32"
                }
              ],
              "name": "columns",
              "type": "tuple[]"
            }
          ],
          "name": "",
          "type": "tuple"
        }
      ],
      "payable": false,
      "stateMutability": "view",
      "type": "function"
    },
    {
      "constant": true,
      "inputs": [],
      "name": "relayHubVersion",
      "outputs": [
        {
          "name": "",
          "type": "string"
        }
      ],
      "payable": false,
      "stateMutability": "view",
      "type": "function"
    },
    {
      "constant": false,
      "inputs": [
        {
          "name": "tableKey",
          "type": "bytes32"
        },
        {
          "name": "idKey",
          "type": "bytes32"
        },
        {
          "name": "fieldKey",
          "type": "bytes32"
        },
        {
          "name": "id",
          "type": "bytes32"
        },
        {
          "name": "val",
          "type": "bytes32"
        }
      ],
      "name": "insertVal",
      "outputs": [],
      "payable": false,
      "stateMutability": "nonpayable",
      "type": "function"
    },
    {
      "constant": false,
      "inputs": [
        {
          "name": "max",
          "type": "uint256"
        }
      ],
      "name": "setGsnMaxCallsPerDay",
      "outputs": [],
      "payable": false,
      "stateMutability": "nonpayable",
      "type": "function"
    },
    {
      "constant": true,
      "inputs": [
        {
          "name": "tableKey",
          "type": "bytes32"
        }
      ],
      "name": "getTableIds",
      "outputs": [
        {
          "name": "",
          "type": "bytes32[]"
        }
      ],
      "payable": false,
      "stateMutability": "view",
      "type": "function"
    },
    {
      "constant": false,
      "inputs": [
        {
          "name": "sender",
          "type": "address"
        }
      ],
      "name": "initialize",
      "outputs": [],
      "payable": false,
      "stateMutability": "nonpayable",
      "type": "function"
    },
    {
      "constant": true,
      "inputs": [],
      "name": "dateTimeAddr",
      "outputs": [
        {
          "name": "",
          "type": "address"
        }
      ],
      "payable": false,
      "stateMutability": "view",
      "type": "function"
    },
    {
      "constant": true,
      "inputs": [
        {
          "name": "_tableKey",
          "type": "bytes32"
        }
      ],
      "name": "getTableMetadata",
      "outputs": [
        {
          "name": "permission",
          "type": "uint256"
        },
        {
          "name": "delegate",
          "type": "address"
        }
      ],
      "payable": false,
      "stateMutability": "view",
      "type": "function"
    },
    {
      "constant": false,
      "inputs": [
        {
          "name": "context",
          "type": "bytes"
        },
        {
          "name": "success",
          "type": "bool"
        },
        {
          "name": "actualCharge",
          "type": "uint256"
        },
        {
          "name": "preRetVal",
          "type": "bytes32"
        }
      ],
      "name": "postRelayedCall",
      "outputs": [],
      "payable": false,
      "stateMutability": "nonpayable",
      "type": "function"
    },
    {
      "constant": true,
      "inputs": [
        {
          "name": "fieldIdTableKey",
          "type": "bytes32"
        }
      ],
      "name": "getRowValueVar",
      "outputs": [
        {
          "name": "",
          "type": "bytes"
        }
      ],
      "payable": false,
      "stateMutability": "view",
      "type": "function"
    },
    {
      "constant": false,
      "inputs": [
        {
          "name": "tableName",
          "type": "bytes32"
        },
        {
          "name": "tableKey",
          "type": "bytes32"
        }
      ],
      "name": "deleteTable",
      "outputs": [],
      "payable": false,
      "stateMutability": "nonpayable",
      "type": "function"
    },
    {
      "constant": true,
      "inputs": [
        {
          "name": "tableKey",
          "type": "bytes32"
        },
        {
          "name": "id",
          "type": "bytes32"
        }
      ],
      "name": "getIdExists",
      "outputs": [
        {
          "name": "",
          "type": "bool"
        }
      ],
      "payable": false,
      "stateMutability": "view",
      "type": "function"
    },
    {
      "constant": false,
      "inputs": [
        {
          "name": "newOwner",
          "type": "address"
        }
      ],
      "name": "transferOwnership",
      "outputs": [],
      "payable": false,
      "stateMutability": "nonpayable",
      "type": "function"
    },
    {
      "constant": false,
      "inputs": [
        {
          "name": "dest",
          "type": "address"
        }
      ],
      "name": "withdrawAll",
      "outputs": [
        {
          "name": "",
          "type": "uint256"
        }
      ],
      "payable": false,
      "stateMutability": "nonpayable",
      "type": "function"
    },
    {
      "payable": true,
      "stateMutability": "payable",
      "type": "fallback"
    },
    {
      "anonymous": false,
      "inputs": [
        {
          "indexed": true,
          "name": "tableKey",
          "type": "bytes32"
        },
        {
          "indexed": true,
          "name": "fieldKey",
          "type": "bytes32"
        },
        {
          "indexed": true,
          "name": "val",
          "type": "bytes32"
        },
        {
          "indexed": false,
          "name": "id",
          "type": "bytes32"
        },
        {
          "indexed": false,
          "name": "owner",
          "type": "address"
        }
      ],
      "name": "InsertVal",
      "type": "event"
    },
    {
      "anonymous": false,
      "inputs": [
        {
          "indexed": true,
          "name": "oldRelayHub",
          "type": "address"
        },
        {
          "indexed": true,
          "name": "newRelayHub",
          "type": "address"
        }
      ],
      "name": "RelayHubChanged",
      "type": "event"
    },
    {
      "anonymous": false,
      "inputs": [
        {
          "indexed": true,
          "name": "previousOwner",
          "type": "address"
        },
        {
          "indexed": true,
          "name": "newOwner",
          "type": "address"
        }
      ],
      "name": "OwnershipTransferred",
      "type": "event"
    }
  ],
  "bytecode": "0x608060405273e982e462b094850f12af94d21d470e21be9d0e9c606660006101000a81548173ffffffffffffffffffffffffffffffffffffffff021916908373ffffffffffffffffffffffffffffffffffffffff160217905550606660009054906101000a900473ffffffffffffffffffffffffffffffffffffffff16606760006101000a81548173ffffffffffffffffffffffffffffffffffffffff021916908373ffffffffffffffffffffffffffffffffffffffff160217905550615f95806100cb6000396000f3fe6080604052600436106101c1576000357c0100000000000000000000000000000000000000000000000000000000900463ffffffff168062f714ce146101c357806301ee810a146101ec5780631fd6dda51461021757806328343c3414610254578063287e72461461027f578063365628a2146102bd5780633c2e8599146102e65780633ffe300e146103115780634102fbf61461033a57806359cb73a4146103655780636729003c146103a2578063715018a6146103df57806374e861d6146103f65780637af9c663146104215780637e03a8241461045e57806380274db7146104875780638129fc1c146104c45780638175d7eb146104db57806383947ea0146105045780638d3178cc146105425780638da5cb5b1461056b5780638f32d59b14610596578063a2ea7c6e146105c1578063ad61ccd5146105fe578063b467949b14610629578063bc41c3dd14610652578063c2309bf91461067b578063c4d66de8146106b8578063d2c5ce31146106e1578063d887f1051461070c578063e06e0e221461074a578063e3c504e414610773578063ed90cb37146107b0578063f201fe2a146107d9578063f2fde38b14610816578063fa09e6301461083f575b005b3480156101cf57600080fd5b506101ea60048036036101e59190810190614e05565b61087c565b005b3480156101f857600080fd5b5061020161095e565b60405161020e9190615cd6565b60405180910390f35b34801561022357600080fd5b5061023e6004803603610239919081019061496e565b610975565b60405161024b9190615814565b60405180910390f35b34801561026057600080fd5b50610269610992565b60405161027691906157f2565b60405180910390f35b34801561028b57600080fd5b506102a660048036036102a1919081019061496e565b6109d0565b6040516102b49291906157c9565b60405180910390f35b3480156102c957600080fd5b506102e460048036036102df9190810190614c1e565b610a26565b005b3480156102f257600080fd5b506102fb610b3e565b6040516103089190615c39565b60405180910390f35b34801561031d57600080fd5b5061033860048036036103339190810190614b8f565b610bf1565b005b34801561034657600080fd5b5061034f610dc5565b60405161035c919061582f565b60405180910390f35b34801561037157600080fd5b5061038c6004803603610387919081019061496e565b610dec565b6040516103999190615c39565b60405180910390f35b3480156103ae57600080fd5b506103c960048036036103c4919081019061496e565b610e04565b6040516103d6919061582f565b60405180910390f35b3480156103eb57600080fd5b506103f4610e47565b005b34801561040257600080fd5b5061040b610f51565b6040516104189190615793565b60405180910390f35b34801561042d57600080fd5b50610448600480360361044391908101906149d3565b610f60565b6040516104559190615814565b60405180910390f35b34801561046a57600080fd5b5061048560048036036104809190810190614b18565b610fef565b005b34801561049357600080fd5b506104ae60048036036104a99190810190614cc5565b611082565b6040516104bb919061582f565b60405180910390f35b3480156104d057600080fd5b506104d9611150565b005b3480156104e757600080fd5b5061050260048036036104fd9190810190614a66565b611254565b005b34801561051057600080fd5b5061052b6004803603610526919081019061486e565b611293565b604051610539929190615ca6565b60405180910390f35b34801561054e57600080fd5b5061056960048036036105649190810190614ab5565b611312565b005b34801561057757600080fd5b506105806113ac565b60405161058d9190615793565b60405180910390f35b3480156105a257600080fd5b506105ab6113d6565b6040516105b89190615814565b60405180910390f35b3480156105cd57600080fd5b506105e860048036036105e3919081019061496e565b611435565b6040516105f59190615c17565b60405180910390f35b34801561060a57600080fd5b50610613611466565b6040516106209190615895565b60405180910390f35b34801561063557600080fd5b50610650600480360361064b9190810190614b18565b6114a3565b005b34801561065e57600080fd5b5061067960048036036106749190810190614db3565b6116ba565b005b34801561068757600080fd5b506106a2600480360361069d919081019061496e565b611729565b6040516106af91906157f2565b60405180910390f35b3480156106c457600080fd5b506106df60048036036106da919081019061481c565b6117a2565b005b3480156106ed57600080fd5b506106f661194c565b6040516107039190615793565b60405180910390f35b34801561071857600080fd5b50610733600480360361072e919081019061496e565b611972565b604051610741929190615c54565b60405180910390f35b34801561075657600080fd5b50610771600480360361076c9190810190614d0a565b611a07565b005b34801561077f57600080fd5b5061079a6004803603610795919081019061496e565b611ad5565b6040516107a79190615873565b60405180910390f35b3480156107bc57600080fd5b506107d760048036036107d29190810190614997565b611b48565b005b3480156107e557600080fd5b5061080060048036036107fb9190810190614997565b611c00565b60405161080d9190615814565b60405180910390f35b34801561082257600080fd5b5061083d6004803603610838919081019061481c565b611c20565b005b34801561084b57600080fd5b5061086660048036036108619190810190614845565b611c75565b6040516108739190615c39565b60405180910390f35b6108846113d6565b15156108c5576040517f08c379a00000000000000000000000000000000000000000000000000000000081526004016108bc90615a77565b60405180910390fd5b60006108cf611e0e565b90508073ffffffffffffffffffffffffffffffffffffffff1662f714ce84846040518363ffffffff167c0100000000000000000000000000000000000000000000000000000000028152600401610927929190615c7d565b600060405180830381600087803b15801561094157600080fd5b505af1158015610955573d6000803e3d6000fd5b50505050505050565b606960009054906101000a900464ffffffffff1681565b600061098b82606e611e1d90919063ffffffff16565b9050919050565b60606109cb7f736368656d61732e7075626c69632e7461626c65730000000000000000000000600102606e611e9490919063ffffffff16565b905090565b60008060006109e984606e611eb490919063ffffffff16565b600190049050807c0100000000000000000000000000000000000000000000000000000000029150602081908060020a8204915050925050915091565b610a2e6113d6565b1515610a6f576040517f08c379a0000000000000000000000000000000000000000000000000000000008152600401610a6690615a77565b60405180910390fd5b6000600102606a600086815260200190815260200160002054141515610aca576040517f08c379a0000000000000000000000000000000000000000000000000000000008152600401610ac190615b37565b60405180910390fd5b6000809050610ada858583611ed4565b610b137f736368656d61732e7075626c69632e7461626c6573000000000000000000000060010287606e611f809092919063ffffffff16565b50610b2885606b6120ab90919063ffffffff16565b50610b3586868585610f60565b50505050505050565b6000610b48611e0e565b73ffffffffffffffffffffffffffffffffffffffff166370a08231306040518263ffffffff167c0100000000000000000000000000000000000000000000000000000000028152600401610b9c91906157ae565b60206040518083038186803b158015610bb457600080fd5b505afa158015610bc8573d6000803e3d6000fd5b505050506040513d601f19601f82011682018060405250610bec9190810190614ddc565b905090565b84600080610bfe83611972565b91509150600082111515610c47576040517f08c379a0000000000000000000000000000000000000000000000000000000008152600401610c3e90615957565b60405180910390fd5b6001821180610c61575060011515610c5d6113d6565b1515145b80610c9e5750610c6f6120cb565b73ffffffffffffffffffffffffffffffffffffffff168173ffffffffffffffffffffffffffffffffffffffff16145b1515610cdf576040517f08c379a0000000000000000000000000000000000000000000000000000000008152600401610cd690615a37565b60405180910390fd5b6000610ceb888a61211f565b90506000610cf9888361211f565b905060001515610d1382606e611e1d90919063ffffffff16565b1515141515610d57576040517f08c379a0000000000000000000000000000000000000000000000000000000008152600401610d4e90615ab7565b60405180910390fd5b610d5f61217c565b610d758a88606b6121bf9092919063ffffffff16565b5060001515610d8e83606e611e1d90919063ffffffff16565b15151415610da257610da182888c61220a565b5b610db88187606e6125609092919063ffffffff16565b5050505050505050505050565b7f736368656d61732e7075626c69632e7461626c6573000000000000000000000060010281565b60686020528060005260406000206000915090505481565b6000610e1a82606e611e1d90919063ffffffff16565b15610e3a57610e3382606e611eb490919063ffffffff16565b9050610e42565b600060010290505b919050565b610e4f6113d6565b1515610e90576040517f08c379a0000000000000000000000000000000000000000000000000000000008152600401610e8790615a77565b60405180910390fd5b600073ffffffffffffffffffffffffffffffffffffffff16603360009054906101000a900473ffffffffffffffffffffffffffffffffffffffff1673ffffffffffffffffffffffffffffffffffffffff167f8be0079c531659141344cd1fd0a4f28419497f9722a3daafe3b4186f6b6457e060405160405180910390a36000603360006101000a81548173ffffffffffffffffffffffffffffffffffffffff021916908373ffffffffffffffffffffffffffffffffffffffff160217905550565b6000610f5b61268b565b905090565b6000610f6a6113d6565b1515610fab576040517f08c379a0000000000000000000000000000000000000000000000000000000008152600401610fa290615a77565b60405180910390fd5b610fb36144f7565b610fbe8685856126bc565b90506060610fcb82612739565b9050610fe38682606e6125609092919063ffffffff16565b92505050949350505050565b6000610ffb858761211f565b90506000611009858361211f565b905061101787878487612809565b61101f61217c565b6110358184606e612a649092919063ffffffff16565b508285887f73f74243127530ba96dc00b266dfa2b8da17d2b0489b55f8f947074436f23b71876110636120cb565b60405161107192919061584a565b60405180910390a450505050505050565b600061108c610f51565b73ffffffffffffffffffffffffffffffffffffffff163373ffffffffffffffffffffffffffffffffffffffff161415156110fb576040517f08c379a00000000000000000000000000000000000000000000000000000000081526004016110f2906158d7565b60405180910390fd5b61114883838080601f016020809104026020016040519081016040528093929190818152602001838380828437600081840152601f19601f82011690508083019250505050505050612b8f565b905092915050565b600060019054906101000a900460ff168061116f575061116e612b96565b5b8061118657506000809054906101000a900460ff16155b15156111c7576040517f08c379a00000000000000000000000000000000000000000000000000000000081526004016111be90615a97565b60405180910390fd5b60008060019054906101000a900460ff161590508015611217576001600060016101000a81548160ff02191690831515021790555060016000806101000a81548160ff0219169083151502179055505b611220336117a2565b611228612bad565b611230612ca0565b80156112515760008060016101000a81548160ff0219169083151502179055505b50565b6000611260838561211f565b905061126e84828585612d02565b61127661217c565b61128c8483606b612f569092919063ffffffff16565b5050505050565b6000606060006112a1612fa1565b9050600060686000838152602001908152602001600020549050606960009054906101000a900464ffffffffff1664ffffffffff16811015156112f3576112e8600261325c565b935093505050611302565b6112fb61327e565b9350935050505b9b509b9950505050505050505050565b600061131e848661211f565b9050600061132c848361211f565b905061133a86838786612d02565b61134261217c565b600061135882606e6132a390919063ffffffff16565b9050600115158115151415156113a3576040517f08c379a000000000000000000000000000000000000000000000000000000000815260040161139a90615a57565b60405180910390fd5b50505050505050565b6000603360009054906101000a900473ffffffffffffffffffffffffffffffffffffffff16905090565b6000603360009054906101000a900473ffffffffffffffffffffffffffffffffffffffff1673ffffffffffffffffffffffffffffffffffffffff166114196120cb565b73ffffffffffffffffffffffffffffffffffffffff1614905090565b61143d6144f7565b606061145383606e61331a90919063ffffffff16565b905061145e8161333a565b915050919050565b60606040805190810160405280600581526020017f312e302e30000000000000000000000000000000000000000000000000000000815250905090565b846000806114b083611972565b915091506000821115156114f9576040517f08c379a00000000000000000000000000000000000000000000000000000000081526004016114f090615957565b60405180910390fd5b600182118061151357506001151561150f6113d6565b1515145b8061155057506115216120cb565b73ffffffffffffffffffffffffffffffffffffffff168173ffffffffffffffffffffffffffffffffffffffff16145b1515611591576040517f08c379a000000000000000000000000000000000000000000000000000000000815260040161158890615a37565b60405180910390fd5b600061159d888a61211f565b905060006115ab888361211f565b9050600015156115c582606e611e1d90919063ffffffff16565b1515141515611609576040517f08c379a000000000000000000000000000000000000000000000000000000000815260040161160090615ab7565b60405180910390fd5b61161161217c565b6116278a88606b6121bf9092919063ffffffff16565b506000151561164083606e611e1d90919063ffffffff16565b151514156116545761165382888c61220a565b5b61166a8187606e612a649092919063ffffffff16565b5085888b7f73f74243127530ba96dc00b266dfa2b8da17d2b0489b55f8f947074436f23b718a6116986120cb565b6040516116a692919061584a565b60405180910390a450505050505050505050565b6116c26113d6565b1515611703576040517f08c379a00000000000000000000000000000000000000000000000000000000081526004016116fa90615a77565b60405180910390fd5b80606960006101000a81548164ffffffffff021916908364ffffffffff16021790555050565b60606001151561174383606b6133e390919063ffffffff16565b1515141515611787576040517f08c379a000000000000000000000000000000000000000000000000000000000815260040161177e90615b77565b60405180910390fd5b61179b82606b61340390919063ffffffff16565b9050919050565b600060019054906101000a900460ff16806117c157506117c0612b96565b5b806117d857506000809054906101000a900460ff16155b1515611819576040517f08c379a000000000000000000000000000000000000000000000000000000000815260040161181090615a97565b60405180910390fd5b60008060019054906101000a900460ff161590508015611869576001600060016101000a81548160ff02191690831515021790555060016000806101000a81548160ff0219169083151502179055505b81603360006101000a81548173ffffffffffffffffffffffffffffffffffffffff021916908373ffffffffffffffffffffffffffffffffffffffff160217905550603360009054906101000a900473ffffffffffffffffffffffffffffffffffffffff1673ffffffffffffffffffffffffffffffffffffffff16600073ffffffffffffffffffffffffffffffffffffffff167f8be0079c531659141344cd1fd0a4f28419497f9722a3daafe3b4186f6b6457e060405160405180910390a380156119485760008060016101000a81548160ff0219169083151502179055505b5050565b606660009054906101000a900473ffffffffffffffffffffffffffffffffffffffff1681565b6000806000600102606a6000858152602001908152602001600020541115156119d0576040517f08c379a00000000000000000000000000000000000000000000000000000000081526004016119c790615bd7565b60405180910390fd5b6000606a6000858152602001908152602001600020546001900490508060ff169250600881908060020a8204915050915050915091565b611a0f610f51565b73ffffffffffffffffffffffffffffffffffffffff163373ffffffffffffffffffffffffffffffffffffffff16141515611a7e576040517f08c379a0000000000000000000000000000000000000000000000000000000008152600401611a75906158d7565b60405180910390fd5b611ace85858080601f016020809104026020016040519081016040528093929190818152602001838380828437600081840152601f19601f82011690508083019250505050505050848484613472565b5050505050565b6060611aeb82606e611e1d90919063ffffffff16565b15611b0b57611b0482606e61331a90919063ffffffff16565b9050611b43565b60006040519080825280601f01601f191660200182016040528015611b3f5781602001600182028038833980820191505090505b5090505b919050565b611b506113d6565b1515611b91576040517f08c379a0000000000000000000000000000000000000000000000000000000008152600401611b8890615a77565b60405180910390fd5b6000600102606a600083815260200190815260200160002081905550611be67f736368656d61732e7075626c69632e7461626c6573000000000000000000000060010283606e6134789092919063ffffffff16565b50611bfb81606b61349b90919063ffffffff16565b505050565b6000611c188383606b6134d49092919063ffffffff16565b905092915050565b611c286113d6565b1515611c69576040517f08c379a0000000000000000000000000000000000000000000000000000000008152600401611c6090615a77565b60405180910390fd5b611c728161351f565b50565b6000611c7f6113d6565b1515611cc0576040517f08c379a0000000000000000000000000000000000000000000000000000000008152600401611cb790615a77565b60405180910390fd5b6000611cca611e0e565b90506000611cd6611e0e565b73ffffffffffffffffffffffffffffffffffffffff166370a08231306040518263ffffffff167c0100000000000000000000000000000000000000000000000000000000028152600401611d2a91906157ae565b60206040518083038186803b158015611d4257600080fd5b505afa158015611d56573d6000803e3d6000fd5b505050506040513d601f19601f82011682018060405250611d7a9190810190614ddc565b90508173ffffffffffffffffffffffffffffffffffffffff1662f714ce82866040518363ffffffff167c0100000000000000000000000000000000000000000000000000000000028152600401611dd2929190615c7d565b600060405180830381600087803b158015611dec57600080fd5b505af1158015611e00573d6000803e3d6000fd5b505050508092505050919050565b6000611e1861268b565b905090565b6000611e35828460000161365190919063ffffffff16565b80611e525750611e51828460030161367190919063ffffffff16565b5b80611e6f5750611e6e82846006016133e390919063ffffffff16565b5b80611e8c5750611e8b828460090161369190919063ffffffff16565b5b905092915050565b6060611eac828460060161340390919063ffffffff16565b905092915050565b6000611ecc82846000016136b190919063ffffffff16565b905092915050565b611edc6113d6565b1515611f1d576040517f08c379a0000000000000000000000000000000000000000000000000000000008152600401611f1490615a77565b60405180910390fd5b60008260ff168117905060088273ffffffffffffffffffffffffffffffffffffffff169060020a0273ffffffffffffffffffffffffffffffffffffffff168117905080600102606a60008681526020019081526020016000208190555050505050565b6000611f98838560000161365190919063ffffffff16565b151515611fda576040517f08c379a0000000000000000000000000000000000000000000000000000000008152600401611fd1906159b7565b60405180910390fd5b611ff0838560030161367190919063ffffffff16565b151515612032576040517f08c379a0000000000000000000000000000000000000000000000000000000008152600401612029906159b7565b60405180910390fd5b612048838560090161369190919063ffffffff16565b15151561208a576040517f08c379a0000000000000000000000000000000000000000000000000000000008152600401612081906159b7565b60405180910390fd5b6120a28383866006016121bf9092919063ffffffff16565b90509392505050565b60006120c3828460010161371c90919063ffffffff16565b905092915050565b60006120d561268b565b73ffffffffffffffffffffffffffffffffffffffff163373ffffffffffffffffffffffffffffffffffffffff161415156121115733905061211c565b612119613788565b90505b90565b60006060604080519080825280601f01601f1916602001820160405280156121565781602001600182028038833980820191505090505b509050836040820152826020820152600081805190602001209050809250505092915050565b6000612186612fa1565b90506000606860008381526020019081526020016000205490506001810160686000848152602001908152602001600020819055505050565b60006121cb84846133e3565b156121fe576121f78285600001600086815260200190815260200160002061371c90919063ffffffff16565b9050612203565b600090505b9392505050565b6000151561222284606e611e1d90919063ffffffff16565b1515141515612266576040517f08c379a000000000000000000000000000000000000000000000000000000000815260040161225d906159d7565b60405180910390fd5b600080606760009054906101000a900473ffffffffffffffffffffffffffffffffffffffff1673ffffffffffffffffffffffffffffffffffffffff166392d66313426040518263ffffffff167c01000000000000000000000000000000000000000000000000000000000281526004016122e09190615c39565b60206040518083038186803b1580156122f857600080fd5b505afa15801561230c573d6000803e3d6000fd5b505050506040513d601f19601f820116820180604052506123309190810190614d8a565b90506000606760009054906101000a900473ffffffffffffffffffffffffffffffffffffffff1673ffffffffffffffffffffffffffffffffffffffff1663a324ad24426040518263ffffffff167c01000000000000000000000000000000000000000000000000000000000281526004016123ab9190615c39565b60206040518083038186803b1580156123c357600080fd5b505afa1580156123d7573d6000803e3d6000fd5b505050506040513d601f19601f820116820180604052506123fb9190810190614e41565b90506000606760009054906101000a900473ffffffffffffffffffffffffffffffffffffffff1673ffffffffffffffffffffffffffffffffffffffff166365c72840426040518263ffffffff167c01000000000000000000000000000000000000000000000000000000000281526004016124769190615c39565b60206040518083038186803b15801561248e57600080fd5b505afa1580156124a2573d6000803e3d6000fd5b505050506040513d601f19601f820116820180604052506124c69190810190614e41565b90508261ffff168417935060108260ff169060020a028417935060188160ff169060020a02841793506000847c0100000000000000000000000000000000000000000000000000000000029050602061251d6120cb565b73ffffffffffffffffffffffffffffffffffffffff169060020a02851794506125558886600102606e612a649092919063ffffffff16565b505050505050505050565b6000612578838560000161365190919063ffffffff16565b1515156125ba576040517f08c379a00000000000000000000000000000000000000000000000000000000081526004016125b1906159b7565b60405180910390fd5b6125d083856006016133e390919063ffffffff16565b151515612612576040517f08c379a0000000000000000000000000000000000000000000000000000000008152600401612609906159b7565b60405180910390fd5b612628838560090161369190919063ffffffff16565b15151561266a576040517f08c379a0000000000000000000000000000000000000000000000000000000008152600401612661906159b7565b60405180910390fd5b6126828383866003016138009092919063ffffffff16565b90509392505050565b6000807f06b7792c761dcc05af1761f0315ce8b01ac39c16cc934eb0b2f7a8e71414f2626001029050805491505090565b6126c46144f7565b8151835114151561270a576040517f08c379a0000000000000000000000000000000000000000000000000000000008152600401612701906159f7565b60405180910390fd5b6127126144f7565b84816000018181525050612726848461384b565b8160200181905250809150509392505050565b6060600061274683613961565b90506060816040519080825280601f01601f19166020018201604052801561277d5781602001600182028038833980820191505090505b5090506127998282866000015161397c9092919063ffffffff16565b6020820391506127b8828286602001516139869092919063ffffffff16565b91506000821415156127ff576040517f08c379a00000000000000000000000000000000000000000000000000000000081526004016127f6906158b7565b60405180910390fd5b8092505050919050565b600115156128238583606b6134d49092919063ffffffff16565b1515141515612867576040517f08c379a000000000000000000000000000000000000000000000000000000000815260040161285e90615bb7565b60405180910390fd5b60008061287386611972565b915091506000821115156128bc576040517f08c379a00000000000000000000000000000000000000000000000000000000081526004016128b390615917565b60405180910390fd5b60018211806128d65750600115156128d26113d6565b1515145b8061291357506128e46120cb565b73ffffffffffffffffffffffffffffffffffffffff168173ffffffffffffffffffffffffffffffffffffffff16145b1515612954576040517f08c379a000000000000000000000000000000000000000000000000000000000815260040161294b90615997565b60405180910390fd5b600282101515612a5c57600061297485606e611eb490919063ffffffff16565b9050600060208260019004908060020a820491505090506129936120cb565b73ffffffffffffffffffffffffffffffffffffffff168173ffffffffffffffffffffffffffffffffffffffff1614156129cb57612a59565b600115156129d76113d6565b15151480612a1757506129e86120cb565b73ffffffffffffffffffffffffffffffffffffffff168373ffffffffffffffffffffffffffffffffffffffff16145b1515612a58576040517f08c379a0000000000000000000000000000000000000000000000000000000008152600401612a4f90615a17565b60405180910390fd5b5b50505b505050505050565b6000612a7c838560030161367190919063ffffffff16565b151515612abe576040517f08c379a0000000000000000000000000000000000000000000000000000000008152600401612ab5906159b7565b60405180910390fd5b612ad483856006016133e390919063ffffffff16565b151515612b16576040517f08c379a0000000000000000000000000000000000000000000000000000000008152600401612b0d906159b7565b60405180910390fd5b612b2c838560090161369190919063ffffffff16565b151515612b6e576040517f08c379a0000000000000000000000000000000000000000000000000000000008152600401612b65906159b7565b60405180910390fd5b612b86838386600001613a439092919063ffffffff16565b90509392505050565b6000919050565b6000803090506000813b9050600081149250505090565b600060019054906101000a900460ff1680612bcc5750612bcb612b96565b5b80612be357506000809054906101000a900460ff16155b1515612c24576040517f08c379a0000000000000000000000000000000000000000000000000000000008152600401612c1b90615a97565b60405180910390fd5b60008060019054906101000a900460ff161590508015612c74576001600060016101000a81548160ff02191690831515021790555060016000806101000a81548160ff0219169083151502179055505b612c7c613a7e565b8015612c9d5760008060016101000a81548160ff0219169083151502179055505b50565b6103e8606960006101000a81548164ffffffffff021916908364ffffffffff160217905550612cff7f736368656d61732e7075626c69632e7461626c657300000000000000000000006001026000606e613b869092919063ffffffff16565b50565b60011515612d1c8583606b6134d49092919063ffffffff16565b1515141515612d60576040517f08c379a0000000000000000000000000000000000000000000000000000000008152600401612d5790615b57565b60405180910390fd5b600080612d6c86611972565b91509150600082111515612db5576040517f08c379a0000000000000000000000000000000000000000000000000000000008152600401612dac906158f7565b60405180910390fd5b6001821180612dcf575060011515612dcb6113d6565b1515145b80612e0c5750612ddd6120cb565b73ffffffffffffffffffffffffffffffffffffffff168173ffffffffffffffffffffffffffffffffffffffff16145b1515612e4d576040517f08c379a0000000000000000000000000000000000000000000000000000000008152600401612e4490615ad7565b60405180910390fd5b600282101515612f4e57612e5f6113d6565b80612e9c5750612e6d6120cb565b73ffffffffffffffffffffffffffffffffffffffff168173ffffffffffffffffffffffffffffffffffffffff16145b15612ea657612f4d565b6000612ebc86606e611eb490919063ffffffff16565b9050600060208260019004908060020a82049150509050612edb6120cb565b73ffffffffffffffffffffffffffffffffffffffff168173ffffffffffffffffffffffffffffffffffffffff16141515612f4a576040517f08c379a0000000000000000000000000000000000000000000000000000000008152600401612f4190615bf7565b60405180910390fd5b50505b5b505050505050565b6000612f6284846133e3565b15612f9557612f8e82856000016000868152602001908152602001600020613e6e90919063ffffffff16565b9050612f9a565b600090505b9392505050565b6000806000606760009054906101000a900473ffffffffffffffffffffffffffffffffffffffff1673ffffffffffffffffffffffffffffffffffffffff166392d66313426040518263ffffffff167c010000000000000000000000000000000000000000000000000000000002815260040161301d9190615c39565b60206040518083038186803b15801561303557600080fd5b505afa158015613049573d6000803e3d6000fd5b505050506040513d601f19601f8201168201806040525061306d9190810190614d8a565b90506000606760009054906101000a900473ffffffffffffffffffffffffffffffffffffffff1673ffffffffffffffffffffffffffffffffffffffff1663a324ad24426040518263ffffffff167c01000000000000000000000000000000000000000000000000000000000281526004016130e89190615c39565b60206040518083038186803b15801561310057600080fd5b505afa158015613114573d6000803e3d6000fd5b505050506040513d601f19601f820116820180604052506131389190810190614e41565b90506000606760009054906101000a900473ffffffffffffffffffffffffffffffffffffffff1673ffffffffffffffffffffffffffffffffffffffff166365c72840426040518263ffffffff167c01000000000000000000000000000000000000000000000000000000000281526004016131b39190615c39565b60206040518083038186803b1580156131cb57600080fd5b505afa1580156131df573d6000803e3d6000fd5b505050506040513d601f19601f820116820180604052506132039190810190614e41565b90508261ffff168417935060108260ff169060020a028417935060188160ff169060020a028417935083604051602001808281526020019150506040516020818303038152906040528051906020012094505050505090565b6000606082600b01602060405190810160405280600081525091509150915091565b6000606061329b6020604051908101604052806000815250613f67565b915091509091565b60006132bb8284600001613f7790919063ffffffff16565b806132d857506132d78284600301613fc990919063ffffffff16565b5b806132f557506132f4828460060161349b90919063ffffffff16565b5b806133125750613311828460090161402390919063ffffffff16565b5b905092915050565b6060613332828460030161405c90919063ffffffff16565b905092915050565b6133426144f7565b6000825190506133506144f7565b613363828561415f90919063ffffffff16565b816000018181525050602082039150613385828561416d90919063ffffffff16565b8191508260200181945082905250506000821415156133d9576040517f08c379a00000000000000000000000000000000000000000000000000000000081526004016133d0906158b7565b60405180910390fd5b8092505050919050565b60006133fb828460010161427890919063ffffffff16565b905092915050565b606061340f83836133e3565b156134385761343183600001600084815260200190815260200160002061429b565b905061346c565b60006040519080825280602002602001820160405280156134685781602001602082028038833980820191505090505b5090505b92915050565b50505050565b6000613492838386600601612f569092919063ffffffff16565b90509392505050565b60006134a783836133e3565b156134c9576134c28284600101613e6e90919063ffffffff16565b90506134ce565b600090505b92915050565b60006134e084846133e3565b156135135761350c8285600001600086815260200190815260200160002061427890919063ffffffff16565b9050613518565b600090505b9392505050565b600073ffffffffffffffffffffffffffffffffffffffff168173ffffffffffffffffffffffffffffffffffffffff1614151515613591576040517f08c379a000000000000000000000000000000000000000000000000000000000815260040161358890615937565b60405180910390fd5b8073ffffffffffffffffffffffffffffffffffffffff16603360009054906101000a900473ffffffffffffffffffffffffffffffffffffffff1673ffffffffffffffffffffffffffffffffffffffff167f8be0079c531659141344cd1fd0a4f28419497f9722a3daafe3b4186f6b6457e060405160405180910390a380603360006101000a81548173ffffffffffffffffffffffffffffffffffffffff021916908373ffffffffffffffffffffffffffffffffffffffff16021790555050565b6000613669828460010161427890919063ffffffff16565b905092915050565b6000613689828460010161427890919063ffffffff16565b905092915050565b60006136a9828460010161427890919063ffffffff16565b905092915050565b60006136bd8383613651565b15156136fe576040517f08c379a00000000000000000000000000000000000000000000000000000000081526004016136f590615b97565b60405180910390fd5b82600001600083815260200190815260200160002054905092915050565b60006137288383614278565b151561377d578260010182908060018154018082558091505090600182039060005260206000200160009091929091909150558360000160008481526020019081526020016000208190555060019050613782565b600090505b92915050565b600060606000368080601f016020809104026020016040519081016040528093929190818152602001838380828437600081840152601f19601f820116905080830192505050505050509050600080369050905073ffffffffffffffffffffffffffffffffffffffff81830151169250829250505090565b600081846000016000858152602001908152602001600020908051906020019061382b929190614514565b50613842838560010161371c90919063ffffffff16565b90509392505050565b606081518351141515613893576040517f08c379a000000000000000000000000000000000000000000000000000000000815260040161388a906159f7565b60405180910390fd5b606083516040519080825280602002602001820160405280156138d057816020015b6138bd614594565b8152602001906001900390816138b55790505b50905060008090505b8451811015613956576138ea6145b4565b85828151811015156138f857fe5b90602001906020020151816000018181525050848281518110151561391957fe5b9060200190602002015181602001818152505080838381518110151561393b57fe5b906020019060200201819052505080806001019150506138d9565b508091505092915050565b60006139708260200151614338565b60208001019050919050565b8282820152505050565b6000808390506139a9818461399a88614338565b6143469092919063ffffffff16565b60208103905060008090505b8551811015613a37576139ee828588848151811015156139d157fe5b906020019060200201516000015161397c9092919063ffffffff16565b602082039150613a2482858884815181101515613a0757fe5b906020019060200201516020015161397c9092919063ffffffff16565b60208203915080806001019150506139b5565b50809150509392505050565b60008184600001600085815260200190815260200160002081905550613a75838560010161371c90919063ffffffff16565b90509392505050565b600060019054906101000a900460ff1680613a9d5750613a9c612b96565b5b80613ab457506000809054906101000a900460ff16155b1515613af5576040517f08c379a0000000000000000000000000000000000000000000000000000000008152600401613aec90615a97565b60405180910390fd5b60008060019054906101000a900460ff161590508015613b45576001600060016101000a81548160ff02191690831515021790555060016000806101000a81548160ff0219169083151502179055505b613b6273d216153c06e857cd7f72665e0af1d7d82172f494614350565b8015613b835760008060016101000a81548160ff0219169083151502179055505b50565b60006004826003811115613b9657fe5b60ff16101515613bdb576040517f08c379a0000000000000000000000000000000000000000000000000000000008152600401613bd290615b17565b60405180910390fd5b613bf1838560000161365190919063ffffffff16565b151515613c33576040517f08c379a0000000000000000000000000000000000000000000000000000000008152600401613c2a906159b7565b60405180910390fd5b613c49838560030161367190919063ffffffff16565b151515613c8b576040517f08c379a0000000000000000000000000000000000000000000000000000000008152600401613c82906159b7565b60405180910390fd5b613ca183856006016133e390919063ffffffff16565b151515613ce3576040517f08c379a0000000000000000000000000000000000000000000000000000000008152600401613cda906159b7565b60405180910390fd5b613cf9838560090161369190919063ffffffff16565b151515613d3b576040517f08c379a0000000000000000000000000000000000000000000000000000000008152600401613d32906159b7565b60405180910390fd5b816003811115613d4757fe5b60006003811115613d5457fe5b1415613d7757613d7083856006016120ab90919063ffffffff16565b9050613e67565b816003811115613d8357fe5b60016003811115613d9057fe5b1415613db357613dac83856009016144c990919063ffffffff16565b9050613e67565b816003811115613dbf57fe5b60026003811115613dcc57fe5b1415613df557613dee83600060010286600001613a439092919063ffffffff16565b9050613e67565b816003811115613e0157fe5b600380811115613e0d57fe5b1415613e6657613e5f8360006040519080825280601f01601f191660200182016040528015613e4b5781602001600182028038833980820191505090505b50866003016138009092919063ffffffff16565b9050613e67565b5b9392505050565b6000613e7a8383614278565b15613f5c5760006001846000016000858152602001908152602001600020540390506000600185600101805490500390508181141515613f135760008560010182815481101515613ec757fe5b90600052602060002001549050808660010184815481101515613ee657fe5b90600052602060002001819055506001830186600001600083815260200190815260200160002081905550505b84600001600085815260200190815260200160002060009055846001018054801515613f3b57fe5b60019003818190600052602060002001600090559055600192505050613f61565b600090505b92915050565b6000606060008391509150915091565b6000613f838383613651565b15613fbe5782600001600083815260200190815260200160002060009055613fb78284600101613e6e90919063ffffffff16565b9050613fc3565b600090505b92915050565b6000613fd58383613671565b15614018578260000160008381526020019081526020016000206000613ffb91906145d4565b6140118284600101613e6e90919063ffffffff16565b905061401d565b600090505b92915050565b600061402f8383613691565b156140515761404a8284600101613e6e90919063ffffffff16565b9050614056565b600090505b92915050565b60606140688383613671565b15156140a9576040517f08c379a00000000000000000000000000000000000000000000000000000000081526004016140a090615b97565b60405180910390fd5b8260000160008381526020019081526020016000208054600181600116156101000203166002900480601f0160208091040260200160405190810160405280929190818152602001828054600181600116156101000203166002900480156141525780601f1061412757610100808354040283529160200191614152565b820191906000526020600020905b81548152906001019060200180831161413557829003601f168201915b5050505050905092915050565b600081830151905092915050565b6060600080839050600061418a82876144e990919063ffffffff16565b905060208203915060006040828115156141a057fe5b0490506060816040519080825280602002602001820160405280156141df57816020015b6141cc614594565b8152602001906001900390816141c45790505b50905060008090505b82811015614266576141f86145b4565b61420b868b61415f90919063ffffffff16565b81600001818152505060208603955061422d868b61415f90919063ffffffff16565b81602001818152505060208603955080838381518110151561424b57fe5b906020019060200201819052505080806001019150506141e8565b50808495509550505050509250929050565b600080836000016000848152602001908152602001600020541415905092915050565b60608082600101805490506040519080825280602002602001820160405280156142d45781602001602082028038833980820191505090505b50905060005b836001018054905081101561432e5783600101818154811015156142fa57fe5b9060005260206000200154828281518110151561431357fe5b906020019060200201818152505080806001019150506142da565b5080915050919050565b600060408251029050919050565b8282820152505050565b600061435a61268b565b9050600073ffffffffffffffffffffffffffffffffffffffff168273ffffffffffffffffffffffffffffffffffffffff16141515156143ce576040517f08c379a00000000000000000000000000000000000000000000000000000000081526004016143c590615af7565b60405180910390fd5b8073ffffffffffffffffffffffffffffffffffffffff168273ffffffffffffffffffffffffffffffffffffffff161415151561443f576040517f08c379a000000000000000000000000000000000000000000000000000000000815260040161443690615977565b60405180910390fd5b8173ffffffffffffffffffffffffffffffffffffffff168173ffffffffffffffffffffffffffffffffffffffff167fb9f84b8e65164b14439ae3620df0a4d8786d896996c0282b683f9d8c08f046e860405160405180910390a360007f06b7792c761dcc05af1761f0315ce8b01ac39c16cc934eb0b2f7a8e71414f2626001029050828155505050565b60006144e1828460010161371c90919063ffffffff16565b905092915050565b600081830151905092915050565b604080519081016040528060008019168152602001606081525090565b828054600181600116156101000203166002900490600052602060002090601f016020900481019282601f1061455557805160ff1916838001178555614583565b82800160010185558215614583579182015b82811115614582578251825591602001919060010190614567565b5b509050614590919061461c565b5090565b604080519081016040528060008019168152602001600080191681525090565b604080519081016040528060008019168152602001600080191681525090565b50805460018160011615610100020316600290046000825580601f106145fa5750614619565b601f016020900490600052602060002090810190614618919061461c565b5b50565b61463e91905b8082111561463a576000816000905550600101614622565b5090565b90565b600061464d8235615e73565b905092915050565b60006146618235615e85565b905092915050565b600082601f830112151561467c57600080fd5b813561468f61468a82615d1e565b615cf1565b915081818352602084019350602081019050838560208402820111156146b457600080fd5b60005b838110156146e457816146ca8882614702565b8452602084019350602083019250506001810190506146b7565b5050505092915050565b60006146fa8235615e97565b905092915050565b600061470e8235615ea3565b905092915050565b60008083601f840112151561472a57600080fd5b8235905067ffffffffffffffff81111561474357600080fd5b60208301915083600182028301111561475b57600080fd5b9250929050565b600082601f830112151561477557600080fd5b813561478861478382615d46565b615cf1565b915080825260208301602083018583830111156147a457600080fd5b6147af838284615f08565b50505092915050565b60006147c48251615ead565b905092915050565b60006147d88235615ebb565b905092915050565b60006147ec8251615ebb565b905092915050565b60006148008235615ec5565b905092915050565b60006148148251615ec5565b905092915050565b60006020828403121561482e57600080fd5b600061483c84828501614641565b91505092915050565b60006020828403121561485757600080fd5b600061486584828501614655565b91505092915050565b60008060008060008060008060008060006101208c8e03121561489057600080fd5b600061489e8e828f01614641565b9b505060206148af8e828f01614641565b9a505060408c013567ffffffffffffffff8111156148cc57600080fd5b6148d88e828f01614716565b995099505060606148eb8e828f016147cc565b97505060806148fc8e828f016147cc565b96505060a061490d8e828f016147cc565b95505060c061491e8e828f016147cc565b94505060e08c013567ffffffffffffffff81111561493b57600080fd5b6149478e828f01614716565b935093505061010061495b8e828f016147cc565b9150509295989b509295989b9093969950565b60006020828403121561498057600080fd5b600061498e84828501614702565b91505092915050565b600080604083850312156149aa57600080fd5b60006149b885828601614702565b92505060206149c985828601614702565b9150509250929050565b600080600080608085870312156149e957600080fd5b60006149f787828801614702565b9450506020614a0887828801614702565b935050604085013567ffffffffffffffff811115614a2557600080fd5b614a3187828801614669565b925050606085013567ffffffffffffffff811115614a4e57600080fd5b614a5a87828801614669565b91505092959194509250565b600080600060608486031215614a7b57600080fd5b6000614a8986828701614702565b9350506020614a9a86828701614702565b9250506040614aab86828701614702565b9150509250925092565b60008060008060808587031215614acb57600080fd5b6000614ad987828801614702565b9450506020614aea87828801614702565b9350506040614afb87828801614702565b9250506060614b0c87828801614702565b91505092959194509250565b600080600080600060a08688031215614b3057600080fd5b6000614b3e88828901614702565b9550506020614b4f88828901614702565b9450506040614b6088828901614702565b9350506060614b7188828901614702565b9250506080614b8288828901614702565b9150509295509295909350565b600080600080600060a08688031215614ba757600080fd5b6000614bb588828901614702565b9550506020614bc688828901614702565b9450506040614bd788828901614702565b9350506060614be888828901614702565b925050608086013567ffffffffffffffff811115614c0557600080fd5b614c1188828901614762565b9150509295509295909350565b600080600080600060a08688031215614c3657600080fd5b6000614c4488828901614702565b9550506020614c5588828901614702565b9450506040614c66888289016147f4565b935050606086013567ffffffffffffffff811115614c8357600080fd5b614c8f88828901614669565b925050608086013567ffffffffffffffff811115614cac57600080fd5b614cb888828901614669565b9150509295509295909350565b60008060208385031215614cd857600080fd5b600083013567ffffffffffffffff811115614cf257600080fd5b614cfe85828601614716565b92509250509250929050565b600080600080600060808688031215614d2257600080fd5b600086013567ffffffffffffffff811115614d3c57600080fd5b614d4888828901614716565b95509550506020614d5b888289016146ee565b9350506040614d6c888289016147cc565b9250506060614d7d88828901614702565b9150509295509295909350565b600060208284031215614d9c57600080fd5b6000614daa848285016147b8565b91505092915050565b600060208284031215614dc557600080fd5b6000614dd3848285016147cc565b91505092915050565b600060208284031215614dee57600080fd5b6000614dfc848285016147e0565b91505092915050565b60008060408385031215614e1857600080fd5b6000614e26858286016147cc565b9250506020614e3785828601614655565b9150509250929050565b600060208284031215614e5357600080fd5b6000614e6184828501614808565b91505092915050565b614e7381615ed2565b82525050565b614e8281615de4565b82525050565b614e9181615dd2565b82525050565b6000614ea282615d8c565b808452602084019350614eb483615d72565b60005b82811015614ee657614eca868351614f5c565b614ed382615db8565b9150602086019550600181019050614eb7565b50849250505092915050565b6000614efd82615d97565b808452602084019350614f0f83615d7f565b60005b82811015614f4157614f25868351615709565b614f2e82615dc5565b9150604086019550600181019050614f12565b50849250505092915050565b614f5681615df6565b82525050565b614f6581615e02565b82525050565b614f7481615e0c565b82525050565b6000614f8582615da2565b808452614f99816020860160208601615f17565b614fa281615f4a565b602085010191505092915050565b6000614fbb82615dad565b808452614fcf816020860160208601615f17565b614fd881615f4a565b602085010191505092915050565b6000601c82527f456e636f64696e67204572726f723a206f666673657420213d20302e000000006020830152604082019050919050565b6000602682527f47534e426f756e636572426173653a2063616c6c6572206973206e6f7420526560208301527f6c617948756200000000000000000000000000000000000000000000000000006040830152606082019050919050565b6000601f82527f43616e6e6f742044454c4554452066726f6d2073797374656d207461626c65006020830152604082019050919050565b6000601a82527f43616e6e6f74205550444154452073797374656d207461626c650000000000006020830152604082019050919050565b6000602682527f4f776e61626c653a206e6577206f776e657220697320746865207a65726f206160208301527f64647265737300000000000000000000000000000000000000000000000000006040830152606082019050919050565b6000601f82527f43616e6e6f7420494e5345525420696e746f2073797374656d207461626c65006020830152604082019050919050565b6000602b82527f47534e436f6e746578743a206e65772052656c6179487562206973207468652060208301527f63757272656e74206f6e650000000000000000000000000000000000000000006040830152606082019050919050565b6000602e82527f4f6e6c79206f776e65722f64656c65676174652063616e20555044415445206960208301527f6e746f2074686973207461626c650000000000000000000000000000000000006040830152606082019050919050565b6000602082527f4572726f723a206b65792065786973747320696e206f7468657220646963742e6020830152604082019050919050565b6000601582527f726f7720616c726561647920686173206f776e657200000000000000000000006020830152604082019050919050565b6000601082527f4572726f7220616c69676e6d656e742e000000000000000000000000000000006020830152604082019050919050565b6000603982527f4e6f7420726f774f776e6572206f72206f776e65722f64656c6567617465206660208301527f6f722055504441544520696e746f2074686973207461626c65000000000000006040830152606082019050919050565b6000602e82527f4f6e6c79206f776e65722f64656c65676174652063616e20494e53455254206960208301527f6e746f2074686973207461626c650000000000000000000000000000000000006040830152606082019050919050565b6000601282527f6572726f722072656d6f76696e67206b657900000000000000000000000000006020830152604082019050919050565b6000602082527f4f776e61626c653a2063616c6c6572206973206e6f7420746865206f776e65726020830152604082019050919050565b6000602e82527f436f6e747261637420696e7374616e63652068617320616c726561647920626560208301527f656e20696e697469616c697a65640000000000000000000000000000000000006040830152606082019050919050565b6000601782527f69642b6669656c6420616c7265616479206578697374730000000000000000006020830152604082019050919050565b6000602e82527f4f6e6c79206f776e65722f64656c65676174652063616e2044454c455445206660208301527f726f6d2074686973207461626c650000000000000000000000000000000000006040830152606082019050919050565b6000602c82527f47534e436f6e746578743a206e65772052656c6179487562206973207468652060208301527f7a65726f206164647265737300000000000000000000000000000000000000006040830152606082019050919050565b6000601382527f496e76616c6964207461626c65207479706521000000000000000000000000006020830152604082019050919050565b6000601482527f5461626c6520616c7265616479206578697374730000000000000000000000006020830152604082019050919050565b6000601082527f696420646f65736e2774206578697374000000000000000000000000000000006020830152604082019050919050565b6000601182527f7461626c65206e6f7420637265617465640000000000000000000000000000006020830152604082019050919050565b6000601382527f4b657920646f6573206e6f7420657869737421000000000000000000000000006020830152604082019050919050565b6000601c82527f696420646f65736e27742065786973742c2075736520494e53455254000000006020830152604082019050919050565b6000601482527f7461626c6520646f6573206e6f742065786973740000000000000000000000006020830152604082019050919050565b6000601782527f53656e646572206e6f74206f776e6572206f6620726f770000000000000000006020830152604082019050919050565b60408201600082015161571f6000850182614f5c565b5060208201516157326020850182614f5c565b50505050565b60006040830160008301516157506000860182614f5c565b50602083015184820360208601526157688282614ef2565b9150508091505092915050565b61577e81615e58565b82525050565b61578d81615e62565b82525050565b60006020820190506157a86000830184614e88565b92915050565b60006020820190506157c36000830184614e6a565b92915050565b60006040820190506157de6000830185614e88565b6157eb6020830184614f6b565b9392505050565b6000602082019050818103600083015261580c8184614e97565b905092915050565b60006020820190506158296000830184614f4d565b92915050565b60006020820190506158446000830184614f5c565b92915050565b600060408201905061585f6000830185614f5c565b61586c6020830184614e88565b9392505050565b6000602082019050818103600083015261588d8184614f7a565b905092915050565b600060208201905081810360008301526158af8184614fb0565b905092915050565b600060208201905081810360008301526158d081614fe6565b9050919050565b600060208201905081810360008301526158f08161501d565b9050919050565b600060208201905081810360008301526159108161507a565b9050919050565b60006020820190508181036000830152615930816150b1565b9050919050565b60006020820190508181036000830152615950816150e8565b9050919050565b6000602082019050818103600083015261597081615145565b9050919050565b600060208201905081810360008301526159908161517c565b9050919050565b600060208201905081810360008301526159b0816151d9565b9050919050565b600060208201905081810360008301526159d081615236565b9050919050565b600060208201905081810360008301526159f08161526d565b9050919050565b60006020820190508181036000830152615a10816152a4565b9050919050565b60006020820190508181036000830152615a30816152db565b9050919050565b60006020820190508181036000830152615a5081615338565b9050919050565b60006020820190508181036000830152615a7081615395565b9050919050565b60006020820190508181036000830152615a90816153cc565b9050919050565b60006020820190508181036000830152615ab081615403565b9050919050565b60006020820190508181036000830152615ad081615460565b9050919050565b60006020820190508181036000830152615af081615497565b9050919050565b60006020820190508181036000830152615b10816154f4565b9050919050565b60006020820190508181036000830152615b3081615551565b9050919050565b60006020820190508181036000830152615b5081615588565b9050919050565b60006020820190508181036000830152615b70816155bf565b9050919050565b60006020820190508181036000830152615b90816155f6565b9050919050565b60006020820190508181036000830152615bb08161562d565b9050919050565b60006020820190508181036000830152615bd081615664565b9050919050565b60006020820190508181036000830152615bf08161569b565b9050919050565b60006020820190508181036000830152615c10816156d2565b9050919050565b60006020820190508181036000830152615c318184615738565b905092915050565b6000602082019050615c4e6000830184615775565b92915050565b6000604082019050615c696000830185615775565b615c766020830184614e88565b9392505050565b6000604082019050615c926000830185615775565b615c9f6020830184614e79565b9392505050565b6000604082019050615cbb6000830185615775565b8181036020830152615ccd8184614f7a565b90509392505050565b6000602082019050615ceb6000830184615784565b92915050565b6000604051905081810181811067ffffffffffffffff82111715615d1457600080fd5b8060405250919050565b600067ffffffffffffffff821115615d3557600080fd5b602082029050602081019050919050565b600067ffffffffffffffff821115615d5d57600080fd5b601f19601f8301169050602081019050919050565b6000602082019050919050565b6000602082019050919050565b600081519050919050565b600081519050919050565b600081519050919050565b600081519050919050565b6000602082019050919050565b6000602082019050919050565b6000615ddd82615e38565b9050919050565b6000615def82615e38565b9050919050565b60008115159050919050565b6000819050919050565b60007fffffffff0000000000000000000000000000000000000000000000000000000082169050919050565b600073ffffffffffffffffffffffffffffffffffffffff82169050919050565b6000819050919050565b600064ffffffffff82169050919050565b6000615e7e82615e38565b9050919050565b6000615e9082615e38565b9050919050565b60008115159050919050565b6000819050919050565b600061ffff82169050919050565b6000819050919050565b600060ff82169050919050565b6000615edd82615ee4565b9050919050565b6000615eef82615ef6565b9050919050565b6000615f0182615e38565b9050919050565b82818337600083830152505050565b60005b83811015615f35578082015181840152602081019050615f1a565b83811115615f44576000848401525b50505050565b6000601f19601f830116905091905056fea265627a7a723058201d5f3d6ec07f30d723f65e499d850bfa669904f053e07221879cfbd616a0c2e96c6578706572696d656e74616cf50037",
  "compiler": {
    "name": "solc",
    "version": "0.5.0+commit.1d4f565a.Emscripten.clang",
    "optimizer": {
      "enabled": false,
      "runs": 200
    },
    "evmVersion": "byzantium"
  }
}