{
  "fileName": "ELAJSStore.sol",
  "contractName": "ELAJSStore",
  "source": "pragma solidity ^0.5.0;\npragma experimental ABIEncoderV2;\n\nimport \"sol-datastructs/src/contracts/PolymorphicDictionaryLib.sol\";\n\n// import \"sol-datastructs/src/contracts/Bytes32DictionaryLib.sol\";\nimport \"sol-datastructs/src/contracts/Bytes32SetDictionaryLib.sol\";\n\n// import \"./oz/EnumerableSetDictionary.sol\";\n\nimport \"sol-sql/src/contracts/src/structs/TableLib.sol\";\n\nimport \"./ozEla/OwnableELA.sol\";\nimport \"./gsnEla/GSNRecipientELA.sol\";\nimport \"./gsnEla/IRelayHubELA.sol\";\n\ncontract DateTime {\n    function getYear(uint timestamp) public pure returns (uint16);\n    function getMonth(uint timestamp) public pure returns (uint8);\n    function getDay(uint timestamp) public pure returns (uint8);\n}\n\n// TODO: good practice to have functions not callable externally and internally\ncontract ELAJSStore is OwnableELA, GSNRecipientELA {\n\n    // TODO: have a dynamic mode to only use Events -> https://thegraph.com\n    // bool public useEvents = false;\n\n    // DateTime Contract address\n    address public dateTimeAddr = 0x9c71b2E820B067ea466ea81C0cd6852Bc8D8604e; // development\n    // address constant public dateTimeAddr = 0xEDb211a2dBbdE62012440177e65b68E0A66E4531; // testnet\n\n    // Initialize the DateTime contract ABI with the already deployed contract\n    DateTime dateTime = DateTime(dateTimeAddr);\n\n    // This counts the number of times this contract was called via GSN (expended owner gas) for rate limiting\n    // mapping is a keccak256('YYYY-MM-DD') => uint (TODO: we can probably compress this by week (4 bytes per day -> 28 bytes)\n    mapping(bytes32 => uint256) public gsnCounter;\n\n    // Max times we allow this to be called per day\n    uint40 public gsnMaxCallsPerDay;\n\n    using PolymorphicDictionaryLib for PolymorphicDictionaryLib.PolymorphicDictionary;\n    using Bytes32SetDictionaryLib for Bytes32SetDictionaryLib.Bytes32SetDictionary;\n\n    // _table = system table (bytes32 Dict) of each table's metadata marshaled\n    // 8 bits - permissions (00 = system, 01 = private, 10 = public, 11 = shared - owner can always edit)\n    // 20 bytes - address delegate - other address allowed to edit\n    mapping(bytes32 => bytes32) internal _table;\n\n    // table = dict, where the key is the table, and the value is a set of byte32 ids\n    Bytes32SetDictionaryLib.Bytes32SetDictionary internal tableId;\n\n    // Schema dictionary, key (schemasPublicTables) points to a set of table names\n    using TableLib for TableLib.Table;\n    using TableLib for bytes;\n    // using ColumnLib for ColumnLib.Column;\n    // using ColumnLib for bytes;\n\n    // schemaTables -> Set of tables (raw table name values) for enumeration\n    bytes32 constant public schemasTables = 0x736368656d61732e7075626c69632e7461626c65730000000000000000000000;\n\n    // namehash([tableName]) => encoded table schema\n    // ownership of each row (id) - key = namehash([id].[table]) which has a value that is the owner's address\n    // ultimately namehash([field].[id].[table]) gives us a bytes32 which maps to the single data value\n    PolymorphicDictionaryLib.PolymorphicDictionary internal database;\n\n\n    // ************************************* SETUP FUNCTIONS *************************************\n    function initialize() public initializer {\n        OwnableELA.initialize(msg.sender);\n        GSNRecipientELA.initialize();\n        _initialize();\n    }\n\n    function _initialize() internal {\n        gsnMaxCallsPerDay = 1000;\n\n        // init the key for schemasTables, our set is one-to-many-fixed, so table names must be max 32 bytes\n        database.addKey(schemasTables, PolymorphicDictionaryLib.DictionaryType.OneToManyFixed);\n    }\n\n    // ************************************* SCHEMA FUNCTIONS *************************************\n    /**\n     * @dev create a new table, only the owner may create this\n     *\n     * @param tableName right padded zeroes (Web3.utils.stringToHex)\n     * @param tableKey this is the namehash of tableName\n     */\n    function createTable(\n        bytes32 tableName,\n        bytes32 tableKey,\n        uint8 permission,\n        bytes32[] memory _columnName,\n        bytes32[] memory _columnDtype\n\n    ) public onlyOwner {\n\n        // this only works if tableName is trimmed of padding zeroes, since this is an onlyOwner call we won't bother\n        // require(isNamehashSubOf(keccak256(tableNameBytes), bytes32(0), tableKey), \"tableName does not match tableKey\");\n\n        // check if table exists\n        require(_table[tableKey] == 0, \"Table already exists\");\n\n        address delegate = address(0x0);\n\n        // claim the key slot and set the metadata\n        setTableMetadata(tableKey, permission, delegate);\n\n        database.addValueForKey(schemasTables, tableName);\n\n        // table stores the row ids set as the value, set up the key\n        tableId.addKey(tableKey);\n\n        // now insert the schema\n        TableLib.Table memory tableSchema = TableLib.create(\n            tableName,\n            _columnName,\n            _columnDtype\n        );\n\n        saveSchema(tableKey, tableSchema);\n    }\n\n    // TODO: this isn't complete\n    function deleteTable(\n        bytes32 tableName,\n        bytes32 tableKey\n    ) public onlyOwner {\n        _table[tableKey] = 0;\n        database.removeValueForKey(schemasTables, tableName);\n        tableId.removeKey(tableKey);\n    }\n\n    function getTables() external view returns (bytes32[] memory){\n        return database.enumerateForKeyOneToManyFixed(schemasTables);\n    }\n\n    /*\n    function tableExists(bytes32 tableKey) public view returns (bool) {\n        return tableId.containsKey(tableKey);\n    }\n    */\n\n    function saveSchema(bytes32 tableKey, TableLib.Table memory tableSchema) internal returns (bool) {\n        bytes memory encoded = tableSchema.encode();\n\n        // we store the encoded table schema on the base tableKey\n        return database.setValueForKey(tableKey, encoded);\n    }\n\n    // EXPERIMENTAL\n    function getSchema(bytes32 _name) public view returns (TableLib.Table memory) {\n        bytes memory encoded = database.getBytesForKey(_name);\n        return encoded.decodeTable();\n    }\n\n    // ************************************* CRUD FUNCTIONS *************************************\n\n    /**\n     * @dev Table level permission checks\n     */\n    modifier insertCheck(bytes32 tableKey) {\n\n        (uint256 permission, address delegate) = getTableMetadata(tableKey);\n\n        // if permission = 0, system table we can't do anything\n        require(permission > 0, \"Cannot INSERT into system table\");\n\n        // if permission = 1, we must be the owner/delegate\n        require(permission > 1 || isOwner() == true || delegate == _msgSender(), \"Only owner/delegate can INSERT into this table\");\n\n        _;\n    }\n\n    /*\n    event InsertVal (\n        bytes32 indexed fieldIdTableKey,\n        address indexed owner,\n        bytes32 val\n    );\n    */\n\n    /**\n     * @dev Prior to insert, we check the permissions and autoIncrement\n     * TODO: use the schema and determine the proper type of data to insert\n     *\n     * @param tableKey the namehashed [table] name string\n     * @param idKey the sha3 hashed idKey\n     * @param id as the raw string (unhashed)\n     */\n    function insertVal(\n\n        bytes32 tableKey,\n        bytes32 idKey,\n        bytes32 fieldKey,\n\n        bytes32 id,\n        bytes32 val)\n\n    public insertCheck(tableKey){\n\n        bytes32 idTableKey = namehash(idKey, tableKey);\n        bytes32 fieldIdTableKey = namehash(fieldKey, idTableKey);\n\n        require(database.containsKey(fieldIdTableKey) == false, \"id+field already exists\");\n\n        // increment counter\n        increaseGsnCounter();\n\n        // add an id entry to the table's set of ids for the row (this is a set so we don't need to check first)\n        // TODO: should we check the id/row ownership?\n        tableId.addValueForKey(tableKey, id);\n\n        // add the \"row owner\" if it doesn't exist, the row may already exist in which case we don't update it\n        if (database.containsKey(idTableKey) == false){\n            _setRowOwner(idTableKey, id, tableKey);\n        }\n\n        // finally set the data\n        // we won't serialize the type, that's way too much redundant data\n        database.setValueForKey(fieldIdTableKey, bytes32(val));\n\n        // emit InsertVal(fieldIdTableKey, _msgSender(), val);\n\n    }\n\n    function insertValVar(\n        bytes32 tableKey,\n        bytes32 idKey,\n        bytes32 fieldKey,\n\n        bytes32 id,\n        bytes memory val)\n\n    public insertCheck(tableKey){\n\n        bytes32 idTableKey = namehash(idKey, tableKey);\n        bytes32 fieldIdTableKey = namehash(fieldKey, idTableKey);\n\n        require(database.containsKey(fieldIdTableKey) == false, \"id+field already exists\");\n\n        // increment counter\n        increaseGsnCounter();\n\n        // add an id entry to the table's set of ids for the row\n        tableId.addValueForKey(tableKey, id);\n\n        // add the \"row owner\" if it doesn't exist, the row may already exist in which case we don't update it\n        if (database.containsKey(idTableKey) == false){\n            _setRowOwner(idTableKey, id, tableKey);\n        }\n\n        // finally set the data\n        database.setValueForKey(fieldIdTableKey, val);\n    }\n\n    /**\n     * @dev we are essentially claiming this [id].[table] for the msg.sender, and setting the id createdDate\n     */\n    function _setRowOwner(bytes32 idTableKey, bytes32 id, bytes32 tableKey) internal {\n\n        require(database.containsKey(idTableKey) == false, \"row already has owner\");\n\n        uint256 rowMetadata;\n\n        uint16 year = dateTime.getYear(now);\n        uint8 month = dateTime.getMonth(now);\n        uint8 day = dateTime.getDay(now);\n\n        rowMetadata |= year;\n        rowMetadata |= uint256(month)<<16;\n        rowMetadata |= uint256(day)<<24;\n\n        bytes4 createdDate = bytes4(uint32(rowMetadata));\n\n        rowMetadata |= uint256(_msgSender())<<32;\n\n        database.setValueForKey(idTableKey, bytes32(rowMetadata));\n\n        emit InsertRow(id, tableKey, _msgSender());\n    }\n\n    event InsertRow (\n        bytes32 indexed _id,\n        bytes32 indexed _tableKey,\n        address indexed _rowOwner\n    );\n\n    function getRowOwner(bytes32 idTableKey) external returns (address rowOwner, bytes4 createdDate){\n\n        uint256 rowMetadata = uint256(database.getBytes32ForKey(idTableKey));\n\n        createdDate = bytes4(uint32(rowMetadata));\n        rowOwner = address(rowMetadata>>32);\n\n    }\n\n    function updateCheck(bytes32 tableKey, bytes32 idKey, bytes32 idTableKey, bytes32 id) internal {\n\n        require(tableId.containsValueForKey(tableKey, id) == true, \"id doesn't exist, use INSERT\");\n\n        (uint256 permission, address delegate) = getTableMetadata(tableKey);\n\n        // if permission = 0, system table we can't do anything\n        require(permission > 0, \"Cannot UPDATE system table\");\n\n        // if permission = 1, we must be the owner/delegate\n        require(permission > 1 || isOwner() == true || delegate == _msgSender(), \"Only owner/delegate can UPDATE into this table\");\n\n        // permissions check (public table = 2, shared table = 3),\n        // if 2 or 3 is the _msg.sender() the row owner? But if 3 owner() is always allowed\n        if (permission >= 2) {\n\n            // rowMetaData is packed as address (bytes20) + createdDate (bytes4)\n            bytes32 rowMetaData = database.getBytes32ForKey(idTableKey);\n            address rowOwner = address(uint256(rowMetaData)>>32);\n\n            // if either 2 or 3, if you're the row owner it's fine\n            if (rowOwner == _msgSender()){\n                // pass\n            } else {\n                require(isOwner() == true || delegate == _msgSender(), \"Not rowOwner or owner/delegate for UPDATE into this table\");\n            }\n        }\n    }\n\n    function updateVal(\n\n        bytes32 tableKey,\n        bytes32 idKey,\n        bytes32 fieldKey,\n\n        bytes32 id,\n        bytes32 val)\n\n    public {\n\n        bytes32 idTableKey = namehash(idKey, tableKey);\n        bytes32 fieldIdTableKey = namehash(fieldKey, idTableKey);\n\n        updateCheck(tableKey, idKey, idTableKey, id);\n\n        // increment counter\n        increaseGsnCounter();\n\n        // set data (overwrite)\n        database.setValueForKey(fieldIdTableKey, bytes32(val));\n\n    }\n\n    function deleteCheck(bytes32 tableKey, bytes32 idTableKey, bytes32 idKey, bytes32 id) internal {\n\n        require(tableId.containsValueForKey(tableKey, id) == true, \"id doesn't exist\");\n\n        (uint256 permission, address delegate) = getTableMetadata(tableKey);\n\n        // if permission = 0, system table we can't do anything\n        require(permission > 0, \"Cannot DELETE from system table\");\n\n        // if permission = 1, we must be the owner/delegate\n        require(permission > 1 || isOwner() == true || delegate == _msgSender(), \"Only owner/delegate can DELETE from this table\");\n\n        // permissions check (public table = 2, shared table = 3),\n        // if 2 or 3 is the _msg.sender() the row owner? But if 3 owner() is always allowed\n        if (permission >= 2) {\n            if (isOwner() || delegate == _msgSender()){\n                // pass\n            } else {\n                // rowMetaData is packed as address (bytes20) + createdDate (bytes4)\n                bytes32 rowMetaData = database.getBytes32ForKey(idTableKey);\n                address rowOwner = address(uint256(rowMetaData)>>32);\n                require(rowOwner == _msgSender(), \"Sender not owner of row\");\n            }\n        }\n    }\n\n    /**\n     * @dev TODO: add modifier checks based on update\n     *\n     * TODO: this needs to properly remove the row when there are multiple ids\n     *\n     */\n    function deleteVal(\n\n        bytes32 tableKey,\n        bytes32 idKey,\n        bytes32 fieldKey,\n\n        bytes32 id\n\n    ) public {\n\n        bytes32 idTableKey = namehash(idKey, tableKey);\n        bytes32 fieldIdTableKey = namehash(fieldKey, idTableKey);\n\n        deleteCheck(tableKey, idTableKey, idKey, id);\n\n        // increment counter\n        increaseGsnCounter();\n\n        // remove the key\n        bool removed = database.removeKey(fieldIdTableKey);\n\n        require(removed == true, \"error removing key\");\n\n        // TODO: zero out the data? Why bother everything is public\n\n        // we can't really pass in enough data to make a loop worthwhile\n        /*\n        uint8 len = uint8(fieldKeys.length);\n        require(fieldKeys.length == fieldIdTableKeys.length, \"fields, id array length mismatch\");\n        for (uint8 i = 0; i < len; i++) {\n\n            // for each row check if the full field + id + table is a subhash\n            // require(isNamehashSubOf(fieldKeys[i], idTableKey, fieldIdTableKeys[i]) == true, \"fieldKey not a subhash [field].[id].[table]\");\n\n            // zero out the data\n            elajsStore[fieldIdTableKeys[i]] = bytes32(0);\n        }\n        */\n    }\n\n    // TODO: improve this, we don't want to cause data consistency if the client doesn't call this\n    // Right now we manually call this, but ideally we iterate over all the data and delete each column\n    // but this would require decoding and having all the field names\n    function deleteRow(\n\n        bytes32 tableKey,\n        bytes32 idKey,\n        bytes32 id\n\n    ) public {\n\n        bytes32 idTableKey = namehash(idKey, tableKey);\n\n        deleteCheck(tableKey, idTableKey, idKey, id);\n\n        // increment counter\n        increaseGsnCounter();\n\n        // remove the id\n        tableId.removeValueForKey(tableKey, id);\n    }\n\n    /**\n     * @dev Table actual insert call, NOTE this doesn't work on testnet currently due to a stack size issue,\n     *      but it can work with a paid transaction I guess\n     */\n    /*\n    function insert(\n        bytes32 tableKey,\n        bytes32 idTableKey,\n\n        bytes32 idKey,\n        bytes32 id,\n\n        bytes32[] memory fieldKeys,\n        bytes32[] memory fieldIdTableKeys,\n        bytes32[] memory values)\n\n    public insertCheck(tableKey, idKey, idTableKey){\n\n        require(table.containsValueForKey(tableKey, id) == false, \"id already exists\");\n\n        uint len = fieldKeys.length;\n\n        require(fieldKeys.length == fieldIdTableKeys.length == values.length, \"fields, values array length mismatch\");\n\n        // add an id entry to the table's set of ids for the row\n        table.addValueForKey(tableKey, id);\n\n        for (uint i = 0; i < len; i++) {\n\n            // for each row check if the full field + id + table is a subhash\n            require(isNamehashSubOf(fieldKeys[i], idTableKey, fieldIdTableKeys[i]) == true, \"fieldKey not a subhash [field].[id].[table]\");\n\n            elajsStore[fieldIdTableKeys[i]] = bytes32(values[i]);\n        }\n\n    }\n    */\n\n    /*\n    function getAllDataKeys() external view returns (bytes32[] memory) {\n        return database.enumerate();\n    }\n    */\n\n    function checkDataKey(bytes32 key) external view returns (bool) {\n        return database.containsKey(key);\n    }\n\n    /**\n     * @dev all data is public, so no need for security checks, we leave the data type handling to the client\n     */\n    function getRowValue(bytes32 fieldIdTableKey) external view returns (bytes32) {\n\n        if (database.containsKey(fieldIdTableKey)) {\n            return database.getBytes32ForKey(fieldIdTableKey);\n        } else {\n            return bytes32(0);\n        }\n    }\n\n    function getRowValueVar(bytes32 fieldIdTableKey) external view returns (bytes memory) {\n\n        if (database.containsKey(fieldIdTableKey)) {\n            return database.getBytesForKey(fieldIdTableKey);\n        } else {\n            return new bytes(0);\n        }\n    }\n\n    /**\n     * @dev Warning this produces an Error: overflow (operation=\"setValue\", fault=\"overflow\", details=\"Number can only safely store up to 53 bits\")\n     *      if the table doesn't exist\n     */\n    function getTableIds(bytes32 tableKey) external view returns (bytes32[] memory){\n\n        require(tableId.containsKey(tableKey) == true, \"table not created\");\n\n        return tableId.enumerateForKey(tableKey);\n    }\n\n    function getIdExists(bytes32 tableKey, bytes32 id) external view returns (bool) {\n        return tableId.containsValueForKey(tableKey, id);\n    }\n\n    /*\n    function isNamehashSubOf(bytes32 subKey, bytes32 base, bytes32 target) internal pure returns (bool) {\n        bytes32 result = namehash(subKey, base);\n        return result == target;\n    }\n    */\n\n    function namehash(bytes32 subKey, bytes32 base) internal pure returns (bytes32) {\n        bytes memory concat = new bytes(64);\n\n        assembly {\n            mstore(add(concat, 64), subKey)\n            mstore(add(concat, 32), base)\n        }\n\n        bytes32 result = keccak256(concat);\n\n        return result;\n    }\n\n    // ************************************* _TABLE FUNCTIONS *************************************\n    function getTableMetadata(bytes32 _tableKey)\n        view\n        public\n        returns (uint256 permission, address delegate)\n    {\n        require(_table[_tableKey] > 0, \"table does not exist\");\n\n        uint256 tableMetadata = uint256(_table[_tableKey]);\n\n        permission = uint256(uint8(tableMetadata));\n        delegate = address(tableMetadata>>8);\n    }\n\n    function setTableMetadata(bytes32 _tableKey, uint8 permission, address delegate) private onlyOwner {\n        uint256 tableMetadata;\n\n        tableMetadata |= permission;\n        tableMetadata |= uint160(delegate)<<8;\n\n        _table[_tableKey] = bytes32(tableMetadata);\n    }\n\n    // ************************************* MISC FUNCTIONS *************************************\n\n    function() external payable {}\n\n    // ************************************* GSN FUNCTIONS *************************************\n\n    /**\n     * As a first layer of defense we employ a max number of checks per day\n     */\n    function acceptRelayedCall(\n        address relay,\n        address from,\n        bytes calldata encodedFunction,\n        uint256 transactionFee,\n        uint256 gasPrice,\n        uint256 gasLimit,\n        uint256 nonce,\n        bytes calldata approvalData,\n        uint256 maxPossibleCharge\n    ) external view returns (uint256, bytes memory) {\n\n        bytes32 curDateHashed = getGsnCounter();\n\n        // check gsnCounter for today and compare to limit\n        uint256 curCounter = gsnCounter[curDateHashed];\n\n        if (curCounter >= gsnMaxCallsPerDay){\n            return _rejectRelayedCall(2);\n        }\n\n\n        return _approveRelayedCall();\n    }\n\n    function setGsnMaxCallsPerDay(uint256 max) external onlyOwner {\n        gsnMaxCallsPerDay = uint40(max);\n    }\n\n    /*\n    event GsnCounterIncrease (\n        address indexed _from,\n        bytes4 indexed curDate\n    );\n    */\n\n    /**\n     * Increase the GSN Counter for today\n     */\n    function increaseGsnCounter() internal {\n\n        bytes32 curDateHashed = getGsnCounter();\n\n        uint256 curCounter = gsnCounter[curDateHashed];\n\n        gsnCounter[curDateHashed] = curCounter + 1;\n\n        // emit GsnCounterIncrease(_msgSender(), bytes4(uint32(curDate)));\n    }\n\n    /*\n     *\n     */\n    function getGsnCounter() internal view returns (bytes32 curDateHashed) {\n\n        uint256 curDate;\n\n        uint16 year = dateTime.getYear(now);\n        uint8 month = dateTime.getMonth(now);\n        uint8 day = dateTime.getDay(now);\n\n        curDate |= year;\n        curDate |= uint256(month)<<16;\n        curDate |= uint256(day)<<24;\n\n        curDateHashed = keccak256(abi.encodePacked(curDate));\n    }\n\n    // We won't do any pre or post processing, so leave _preRelayedCall and _postRelayedCall empty\n    function _preRelayedCall(bytes memory context) internal returns (bytes32) {\n    }\n\n    function _postRelayedCall(bytes memory context, bool, uint256 actualCharge, bytes32) internal {\n    }\n\n    /**\n     * @dev Withdraw a specific amount of the GSNReceipient funds\n     * @param amt Amount of wei to withdraw\n     * @param dest This is the arbitrary withdrawal destination address\n     */\n    function withdraw(uint256 amt, address payable dest) public onlyOwner {\n        IRelayHubELA relayHub = getRelayHub();\n        relayHub.withdraw(amt, dest);\n    }\n\n    /**\n     * @dev Withdraw all the GSNReceipient funds\n     * @param dest This is the arbitrary withdrawal destination address\n     */\n    function withdrawAll(address payable dest) public onlyOwner returns (uint256) {\n        IRelayHubELA relayHub = getRelayHub();\n        uint256 balance = getRelayHub().balanceOf(address(this));\n        relayHub.withdraw(balance, dest);\n        return balance;\n    }\n\n    function getGSNBalance() public view returns (uint256) {\n        return getRelayHub().balanceOf(address(this));\n    }\n\n    function getRelayHub() internal view returns (IRelayHubELA) {\n        return IRelayHubELA(_getRelayHub());\n    }\n}\n",
  "sourcePath": "contracts/ELAJSStore.sol",
  "abi": [
    {
      "constant": false,
      "inputs": [
        {
          "name": "amt",
          "type": "uint256"
        },
        {
          "name": "dest",
          "type": "address"
        }
      ],
      "name": "withdraw",
      "outputs": [],
      "payable": false,
      "stateMutability": "nonpayable",
      "type": "function"
    },
    {
      "constant": true,
      "inputs": [],
      "name": "gsnMaxCallsPerDay",
      "outputs": [
        {
          "name": "",
          "type": "uint40"
        }
      ],
      "payable": false,
      "stateMutability": "view",
      "type": "function"
    },
    {
      "constant": true,
      "inputs": [
        {
          "name": "key",
          "type": "bytes32"
        }
      ],
      "name": "checkDataKey",
      "outputs": [
        {
          "name": "",
          "type": "bool"
        }
      ],
      "payable": false,
      "stateMutability": "view",
      "type": "function"
    },
    {
      "constant": true,
      "inputs": [],
      "name": "getTables",
      "outputs": [
        {
          "name": "",
          "type": "bytes32[]"
        }
      ],
      "payable": false,
      "stateMutability": "view",
      "type": "function"
    },
    {
      "constant": false,
      "inputs": [
        {
          "name": "idTableKey",
          "type": "bytes32"
        }
      ],
      "name": "getRowOwner",
      "outputs": [
        {
          "name": "rowOwner",
          "type": "address"
        },
        {
          "name": "createdDate",
          "type": "bytes4"
        }
      ],
      "payable": false,
      "stateMutability": "nonpayable",
      "type": "function"
    },
    {
      "constant": false,
      "inputs": [
        {
          "name": "tableName",
          "type": "bytes32"
        },
        {
          "name": "tableKey",
          "type": "bytes32"
        },
        {
          "name": "permission",
          "type": "uint8"
        },
        {
          "name": "_columnName",
          "type": "bytes32[]"
        },
        {
          "name": "_columnDtype",
          "type": "bytes32[]"
        }
      ],
      "name": "createTable",
      "outputs": [],
      "payable": false,
      "stateMutability": "nonpayable",
      "type": "function"
    },
    {
      "constant": true,
      "inputs": [],
      "name": "getGSNBalance",
      "outputs": [
        {
          "name": "",
          "type": "uint256"
        }
      ],
      "payable": false,
      "stateMutability": "view",
      "type": "function"
    },
    {
      "constant": false,
      "inputs": [
        {
          "name": "tableKey",
          "type": "bytes32"
        },
        {
          "name": "idKey",
          "type": "bytes32"
        },
        {
          "name": "fieldKey",
          "type": "bytes32"
        },
        {
          "name": "id",
          "type": "bytes32"
        },
        {
          "name": "val",
          "type": "bytes"
        }
      ],
      "name": "insertValVar",
      "outputs": [],
      "payable": false,
      "stateMutability": "nonpayable",
      "type": "function"
    },
    {
      "constant": true,
      "inputs": [],
      "name": "schemasTables",
      "outputs": [
        {
          "name": "",
          "type": "bytes32"
        }
      ],
      "payable": false,
      "stateMutability": "view",
      "type": "function"
    },
    {
      "constant": true,
      "inputs": [
        {
          "name": "",
          "type": "bytes32"
        }
      ],
      "name": "gsnCounter",
      "outputs": [
        {
          "name": "",
          "type": "uint256"
        }
      ],
      "payable": false,
      "stateMutability": "view",
      "type": "function"
    },
    {
      "constant": true,
      "inputs": [
        {
          "name": "fieldIdTableKey",
          "type": "bytes32"
        }
      ],
      "name": "getRowValue",
      "outputs": [
        {
          "name": "",
          "type": "bytes32"
        }
      ],
      "payable": false,
      "stateMutability": "view",
      "type": "function"
    },
    {
      "constant": false,
      "inputs": [],
      "name": "renounceOwnership",
      "outputs": [],
      "payable": false,
      "stateMutability": "nonpayable",
      "type": "function"
    },
    {
      "constant": true,
      "inputs": [],
      "name": "getHubAddr",
      "outputs": [
        {
          "name": "",
          "type": "address"
        }
      ],
      "payable": false,
      "stateMutability": "view",
      "type": "function"
    },
    {
      "constant": false,
      "inputs": [
        {
          "name": "tableKey",
          "type": "bytes32"
        },
        {
          "name": "idKey",
          "type": "bytes32"
        },
        {
          "name": "fieldKey",
          "type": "bytes32"
        },
        {
          "name": "id",
          "type": "bytes32"
        },
        {
          "name": "val",
          "type": "bytes32"
        }
      ],
      "name": "updateVal",
      "outputs": [],
      "payable": false,
      "stateMutability": "nonpayable",
      "type": "function"
    },
    {
      "constant": false,
      "inputs": [
        {
          "name": "context",
          "type": "bytes"
        }
      ],
      "name": "preRelayedCall",
      "outputs": [
        {
          "name": "",
          "type": "bytes32"
        }
      ],
      "payable": false,
      "stateMutability": "nonpayable",
      "type": "function"
    },
    {
      "constant": false,
      "inputs": [],
      "name": "initialize",
      "outputs": [],
      "payable": false,
      "stateMutability": "nonpayable",
      "type": "function"
    },
    {
      "constant": false,
      "inputs": [
        {
          "name": "tableKey",
          "type": "bytes32"
        },
        {
          "name": "idKey",
          "type": "bytes32"
        },
        {
          "name": "id",
          "type": "bytes32"
        }
      ],
      "name": "deleteRow",
      "outputs": [],
      "payable": false,
      "stateMutability": "nonpayable",
      "type": "function"
    },
    {
      "constant": true,
      "inputs": [
        {
          "name": "relay",
          "type": "address"
        },
        {
          "name": "from",
          "type": "address"
        },
        {
          "name": "encodedFunction",
          "type": "bytes"
        },
        {
          "name": "transactionFee",
          "type": "uint256"
        },
        {
          "name": "gasPrice",
          "type": "uint256"
        },
        {
          "name": "gasLimit",
          "type": "uint256"
        },
        {
          "name": "nonce",
          "type": "uint256"
        },
        {
          "name": "approvalData",
          "type": "bytes"
        },
        {
          "name": "maxPossibleCharge",
          "type": "uint256"
        }
      ],
      "name": "acceptRelayedCall",
      "outputs": [
        {
          "name": "",
          "type": "uint256"
        },
        {
          "name": "",
          "type": "bytes"
        }
      ],
      "payable": false,
      "stateMutability": "view",
      "type": "function"
    },
    {
      "constant": false,
      "inputs": [
        {
          "name": "tableKey",
          "type": "bytes32"
        },
        {
          "name": "idKey",
          "type": "bytes32"
        },
        {
          "name": "fieldKey",
          "type": "bytes32"
        },
        {
          "name": "id",
          "type": "bytes32"
        }
      ],
      "name": "deleteVal",
      "outputs": [],
      "payable": false,
      "stateMutability": "nonpayable",
      "type": "function"
    },
    {
      "constant": true,
      "inputs": [],
      "name": "owner",
      "outputs": [
        {
          "name": "",
          "type": "address"
        }
      ],
      "payable": false,
      "stateMutability": "view",
      "type": "function"
    },
    {
      "constant": true,
      "inputs": [],
      "name": "isOwner",
      "outputs": [
        {
          "name": "",
          "type": "bool"
        }
      ],
      "payable": false,
      "stateMutability": "view",
      "type": "function"
    },
    {
      "constant": true,
      "inputs": [
        {
          "name": "_name",
          "type": "bytes32"
        }
      ],
      "name": "getSchema",
      "outputs": [
        {
          "components": [
            {
              "name": "name",
              "type": "bytes32"
            },
            {
              "components": [
                {
                  "name": "name",
                  "type": "bytes32"
                },
                {
                  "name": "_dtype",
                  "type": "bytes32"
                }
              ],
              "name": "columns",
              "type": "tuple[]"
            }
          ],
          "name": "",
          "type": "tuple"
        }
      ],
      "payable": false,
      "stateMutability": "view",
      "type": "function"
    },
    {
      "constant": true,
      "inputs": [],
      "name": "relayHubVersion",
      "outputs": [
        {
          "name": "",
          "type": "string"
        }
      ],
      "payable": false,
      "stateMutability": "view",
      "type": "function"
    },
    {
      "constant": false,
      "inputs": [
        {
          "name": "tableKey",
          "type": "bytes32"
        },
        {
          "name": "idKey",
          "type": "bytes32"
        },
        {
          "name": "fieldKey",
          "type": "bytes32"
        },
        {
          "name": "id",
          "type": "bytes32"
        },
        {
          "name": "val",
          "type": "bytes32"
        }
      ],
      "name": "insertVal",
      "outputs": [],
      "payable": false,
      "stateMutability": "nonpayable",
      "type": "function"
    },
    {
      "constant": false,
      "inputs": [
        {
          "name": "max",
          "type": "uint256"
        }
      ],
      "name": "setGsnMaxCallsPerDay",
      "outputs": [],
      "payable": false,
      "stateMutability": "nonpayable",
      "type": "function"
    },
    {
      "constant": true,
      "inputs": [
        {
          "name": "tableKey",
          "type": "bytes32"
        }
      ],
      "name": "getTableIds",
      "outputs": [
        {
          "name": "",
          "type": "bytes32[]"
        }
      ],
      "payable": false,
      "stateMutability": "view",
      "type": "function"
    },
    {
      "constant": false,
      "inputs": [
        {
          "name": "sender",
          "type": "address"
        }
      ],
      "name": "initialize",
      "outputs": [],
      "payable": false,
      "stateMutability": "nonpayable",
      "type": "function"
    },
    {
      "constant": true,
      "inputs": [],
      "name": "dateTimeAddr",
      "outputs": [
        {
          "name": "",
          "type": "address"
        }
      ],
      "payable": false,
      "stateMutability": "view",
      "type": "function"
    },
    {
      "constant": true,
      "inputs": [
        {
          "name": "_tableKey",
          "type": "bytes32"
        }
      ],
      "name": "getTableMetadata",
      "outputs": [
        {
          "name": "permission",
          "type": "uint256"
        },
        {
          "name": "delegate",
          "type": "address"
        }
      ],
      "payable": false,
      "stateMutability": "view",
      "type": "function"
    },
    {
      "constant": false,
      "inputs": [
        {
          "name": "context",
          "type": "bytes"
        },
        {
          "name": "success",
          "type": "bool"
        },
        {
          "name": "actualCharge",
          "type": "uint256"
        },
        {
          "name": "preRetVal",
          "type": "bytes32"
        }
      ],
      "name": "postRelayedCall",
      "outputs": [],
      "payable": false,
      "stateMutability": "nonpayable",
      "type": "function"
    },
    {
      "constant": true,
      "inputs": [
        {
          "name": "fieldIdTableKey",
          "type": "bytes32"
        }
      ],
      "name": "getRowValueVar",
      "outputs": [
        {
          "name": "",
          "type": "bytes"
        }
      ],
      "payable": false,
      "stateMutability": "view",
      "type": "function"
    },
    {
      "constant": false,
      "inputs": [
        {
          "name": "tableName",
          "type": "bytes32"
        },
        {
          "name": "tableKey",
          "type": "bytes32"
        }
      ],
      "name": "deleteTable",
      "outputs": [],
      "payable": false,
      "stateMutability": "nonpayable",
      "type": "function"
    },
    {
      "constant": true,
      "inputs": [
        {
          "name": "tableKey",
          "type": "bytes32"
        },
        {
          "name": "id",
          "type": "bytes32"
        }
      ],
      "name": "getIdExists",
      "outputs": [
        {
          "name": "",
          "type": "bool"
        }
      ],
      "payable": false,
      "stateMutability": "view",
      "type": "function"
    },
    {
      "constant": false,
      "inputs": [
        {
          "name": "newOwner",
          "type": "address"
        }
      ],
      "name": "transferOwnership",
      "outputs": [],
      "payable": false,
      "stateMutability": "nonpayable",
      "type": "function"
    },
    {
      "constant": false,
      "inputs": [
        {
          "name": "dest",
          "type": "address"
        }
      ],
      "name": "withdrawAll",
      "outputs": [
        {
          "name": "",
          "type": "uint256"
        }
      ],
      "payable": false,
      "stateMutability": "nonpayable",
      "type": "function"
    },
    {
      "payable": true,
      "stateMutability": "payable",
      "type": "fallback"
    },
    {
      "anonymous": false,
      "inputs": [
        {
          "indexed": true,
          "name": "_id",
          "type": "bytes32"
        },
        {
          "indexed": true,
          "name": "_tableKey",
          "type": "bytes32"
        },
        {
          "indexed": true,
          "name": "_rowOwner",
          "type": "address"
        }
      ],
      "name": "InsertRow",
      "type": "event"
    },
    {
      "anonymous": false,
      "inputs": [
        {
          "indexed": true,
          "name": "oldRelayHub",
          "type": "address"
        },
        {
          "indexed": true,
          "name": "newRelayHub",
          "type": "address"
        }
      ],
      "name": "RelayHubChanged",
      "type": "event"
    },
    {
      "anonymous": false,
      "inputs": [
        {
          "indexed": true,
          "name": "previousOwner",
          "type": "address"
        },
        {
          "indexed": true,
          "name": "newOwner",
          "type": "address"
        }
      ],
      "name": "OwnershipTransferred",
      "type": "event"
    }
  ],
  "bytecode": "0x6080604052739c71b2e820b067ea466ea81c0cd6852bc8d8604e606660006101000a81548173ffffffffffffffffffffffffffffffffffffffff021916908373ffffffffffffffffffffffffffffffffffffffff160217905550606660009054906101000a900473ffffffffffffffffffffffffffffffffffffffff16606760006101000a81548173ffffffffffffffffffffffffffffffffffffffff021916908373ffffffffffffffffffffffffffffffffffffffff160217905550615e0a806100cb6000396000f3fe6080604052600436106101b6576000357c0100000000000000000000000000000000000000000000000000000000900463ffffffff168062f714ce146101b857806301ee810a146101e15780631fd6dda51461020c57806328343c3414610249578063287e724614610274578063365628a2146102b25780633c2e8599146102db5780633ffe300e146103065780634102fbf61461032f57806359cb73a41461035a5780636729003c14610397578063715018a6146103d457806374e861d6146103eb5780637e03a8241461041657806380274db71461043f5780638129fc1c1461047c5780638175d7eb1461049357806383947ea0146104bc5780638d3178cc146104fa5780638da5cb5b146105235780638f32d59b1461054e578063a2ea7c6e14610579578063ad61ccd5146105b6578063b467949b146105e1578063bc41c3dd1461060a578063c2309bf914610633578063c4d66de814610670578063d2c5ce3114610699578063d887f105146106c4578063e06e0e2214610702578063e3c504e41461072b578063ed90cb3714610768578063f201fe2a14610791578063f2fde38b146107ce578063fa09e630146107f7575b005b3480156101c457600080fd5b506101df60048036036101da9190810190614ca3565b610834565b005b3480156101ed57600080fd5b506101f6610916565b6040516102039190615b4b565b60405180910390f35b34801561021857600080fd5b50610233600480360361022e919081019061489f565b61092d565b60405161024091906156b2565b60405180910390f35b34801561025557600080fd5b5061025e61094a565b60405161026b9190615690565b60405180910390f35b34801561028057600080fd5b5061029b6004803603610296919081019061489f565b610988565b6040516102a9929190615667565b60405180910390f35b3480156102be57600080fd5b506102d960048036036102d49190810190614abc565b6109de565b005b3480156102e757600080fd5b506102f0610b0a565b6040516102fd9190615aae565b60405180910390f35b34801561031257600080fd5b5061032d60048036036103289190810190614a2d565b610bbd565b005b34801561033b57600080fd5b50610344610d91565b60405161035191906156cd565b60405180910390f35b34801561036657600080fd5b50610381600480360361037c919081019061489f565b610db8565b60405161038e9190615aae565b60405180910390f35b3480156103a357600080fd5b506103be60048036036103b9919081019061489f565b610dd0565b6040516103cb91906156cd565b60405180910390f35b3480156103e057600080fd5b506103e9610e13565b005b3480156103f757600080fd5b50610400610f1d565b60405161040d9190615631565b60405180910390f35b34801561042257600080fd5b5061043d600480360361043891908101906149b6565b610f2c565b005b34801561044b57600080fd5b5061046660048036036104619190810190614b63565b610f7c565b60405161047391906156cd565b60405180910390f35b34801561048857600080fd5b5061049161104a565b005b34801561049f57600080fd5b506104ba60048036036104b59190810190614904565b61114e565b005b3480156104c857600080fd5b506104e360048036036104de919081019061479f565b61118d565b6040516104f1929190615b1b565b60405180910390f35b34801561050657600080fd5b50610521600480360361051c9190810190614953565b61120c565b005b34801561052f57600080fd5b506105386112a6565b6040516105459190615631565b60405180910390f35b34801561055a57600080fd5b506105636112d0565b60405161057091906156b2565b60405180910390f35b34801561058557600080fd5b506105a0600480360361059b919081019061489f565b61132f565b6040516105ad9190615a8c565b60405180910390f35b3480156105c257600080fd5b506105cb611360565b6040516105d8919061570a565b60405180910390f35b3480156105ed57600080fd5b50610608600480360361060391908101906149b6565b61139d565b005b34801561061657600080fd5b50610631600480360361062c9190810190614c51565b611571565b005b34801561063f57600080fd5b5061065a6004803603610655919081019061489f565b6115e0565b6040516106679190615690565b60405180910390f35b34801561067c57600080fd5b506106976004803603610692919081019061474d565b611659565b005b3480156106a557600080fd5b506106ae611803565b6040516106bb9190615631565b60405180910390f35b3480156106d057600080fd5b506106eb60048036036106e6919081019061489f565b611829565b6040516106f9929190615ac9565b60405180910390f35b34801561070e57600080fd5b5061072960048036036107249190810190614ba8565b6118be565b005b34801561073757600080fd5b50610752600480360361074d919081019061489f565b61198c565b60405161075f91906156e8565b60405180910390f35b34801561077457600080fd5b5061078f600480360361078a91908101906148c8565b6119ff565b005b34801561079d57600080fd5b506107b860048036036107b391908101906148c8565b611ab7565b6040516107c591906156b2565b60405180910390f35b3480156107da57600080fd5b506107f560048036036107f0919081019061474d565b611ad7565b005b34801561080357600080fd5b5061081e60048036036108199190810190614776565b611b2c565b60405161082b9190615aae565b60405180910390f35b61083c6112d0565b151561087d576040517f08c379a0000000000000000000000000000000000000000000000000000000008152600401610874906158ec565b60405180910390fd5b6000610887611cc5565b90508073ffffffffffffffffffffffffffffffffffffffff1662f714ce84846040518363ffffffff167c01000000000000000000000000000000000000000000000000000000000281526004016108df929190615af2565b600060405180830381600087803b1580156108f957600080fd5b505af115801561090d573d6000803e3d6000fd5b50505050505050565b606960009054906101000a900464ffffffffff1681565b600061094382606e611cd490919063ffffffff16565b9050919050565b60606109837f736368656d61732e7075626c69632e7461626c65730000000000000000000000600102606e611d4b90919063ffffffff16565b905090565b60008060006109a184606e611d6b90919063ffffffff16565b600190049050807c0100000000000000000000000000000000000000000000000000000000029150602081908060020a8204915050925050915091565b6109e66112d0565b1515610a27576040517f08c379a0000000000000000000000000000000000000000000000000000000008152600401610a1e906158ec565b60405180910390fd5b6000600102606a600086815260200190815260200160002054141515610a82576040517f08c379a0000000000000000000000000000000000000000000000000000000008152600401610a79906159ac565b60405180910390fd5b6000809050610a92858583611d8b565b610acb7f736368656d61732e7075626c69632e7461626c6573000000000000000000000060010287606e611e379092919063ffffffff16565b50610ae085606b611f6290919063ffffffff16565b50610ae9614428565b610af4878585611f82565b9050610b008682611fff565b5050505050505050565b6000610b14611cc5565b73ffffffffffffffffffffffffffffffffffffffff166370a08231306040518263ffffffff167c0100000000000000000000000000000000000000000000000000000000028152600401610b68919061564c565b60206040518083038186803b158015610b8057600080fd5b505afa158015610b94573d6000803e3d6000fd5b505050506040513d601f19601f82011682018060405250610bb89190810190614c7a565b905090565b84600080610bca83611829565b91509150600082111515610c13576040517f08c379a0000000000000000000000000000000000000000000000000000000008152600401610c0a906157cc565b60405180910390fd5b6001821180610c2d575060011515610c296112d0565b1515145b80610c6a5750610c3b61202d565b73ffffffffffffffffffffffffffffffffffffffff168173ffffffffffffffffffffffffffffffffffffffff16145b1515610cab576040517f08c379a0000000000000000000000000000000000000000000000000000000008152600401610ca2906158ac565b60405180910390fd5b6000610cb7888a612081565b90506000610cc58883612081565b905060001515610cdf82606e611cd490919063ffffffff16565b1515141515610d23576040517f08c379a0000000000000000000000000000000000000000000000000000000008152600401610d1a9061592c565b60405180910390fd5b610d2b6120de565b610d418a88606b6121219092919063ffffffff16565b5060001515610d5a83606e611cd490919063ffffffff16565b15151415610d6e57610d6d82888c61216c565b5b610d848187606e61250e9092919063ffffffff16565b5050505050505050505050565b7f736368656d61732e7075626c69632e7461626c6573000000000000000000000060010281565b60686020528060005260406000206000915090505481565b6000610de682606e611cd490919063ffffffff16565b15610e0657610dff82606e611d6b90919063ffffffff16565b9050610e0e565b600060010290505b919050565b610e1b6112d0565b1515610e5c576040517f08c379a0000000000000000000000000000000000000000000000000000000008152600401610e53906158ec565b60405180910390fd5b600073ffffffffffffffffffffffffffffffffffffffff16603360009054906101000a900473ffffffffffffffffffffffffffffffffffffffff1673ffffffffffffffffffffffffffffffffffffffff167f8be0079c531659141344cd1fd0a4f28419497f9722a3daafe3b4186f6b6457e060405160405180910390a36000603360006101000a81548173ffffffffffffffffffffffffffffffffffffffff021916908373ffffffffffffffffffffffffffffffffffffffff160217905550565b6000610f27612639565b905090565b6000610f388587612081565b90506000610f468583612081565b9050610f548787848761266a565b610f5c6120de565b610f728184606e6128c59092919063ffffffff16565b5050505050505050565b6000610f86610f1d565b73ffffffffffffffffffffffffffffffffffffffff163373ffffffffffffffffffffffffffffffffffffffff16141515610ff5576040517f08c379a0000000000000000000000000000000000000000000000000000000008152600401610fec9061574c565b60405180910390fd5b61104283838080601f016020809104026020016040519081016040528093929190818152602001838380828437600081840152601f19601f820116905080830192505050505050506129f0565b905092915050565b600060019054906101000a900460ff168061106957506110686129f7565b5b8061108057506000809054906101000a900460ff16155b15156110c1576040517f08c379a00000000000000000000000000000000000000000000000000000000081526004016110b89061590c565b60405180910390fd5b60008060019054906101000a900460ff161590508015611111576001600060016101000a81548160ff02191690831515021790555060016000806101000a81548160ff0219169083151502179055505b61111a33611659565b611122612a0e565b61112a612b01565b801561114b5760008060016101000a81548160ff0219169083151502179055505b50565b600061115a8385612081565b905061116884828585612b63565b6111706120de565b6111868483606b612db79092919063ffffffff16565b5050505050565b60006060600061119b612e02565b9050600060686000838152602001908152602001600020549050606960009054906101000a900464ffffffffff1664ffffffffff16811015156111ed576111e260026130bd565b9350935050506111fc565b6111f56130df565b9350935050505b9b509b9950505050505050505050565b60006112188486612081565b905060006112268483612081565b905061123486838786612b63565b61123c6120de565b600061125282606e61310490919063ffffffff16565b90506001151581151514151561129d576040517f08c379a0000000000000000000000000000000000000000000000000000000008152600401611294906158cc565b60405180910390fd5b50505050505050565b6000603360009054906101000a900473ffffffffffffffffffffffffffffffffffffffff16905090565b6000603360009054906101000a900473ffffffffffffffffffffffffffffffffffffffff1673ffffffffffffffffffffffffffffffffffffffff1661131361202d565b73ffffffffffffffffffffffffffffffffffffffff1614905090565b611337614428565b606061134d83606e61317b90919063ffffffff16565b90506113588161319b565b915050919050565b60606040805190810160405280600581526020017f312e302e30000000000000000000000000000000000000000000000000000000815250905090565b846000806113aa83611829565b915091506000821115156113f3576040517f08c379a00000000000000000000000000000000000000000000000000000000081526004016113ea906157cc565b60405180910390fd5b600182118061140d5750600115156114096112d0565b1515145b8061144a575061141b61202d565b73ffffffffffffffffffffffffffffffffffffffff168173ffffffffffffffffffffffffffffffffffffffff16145b151561148b576040517f08c379a0000000000000000000000000000000000000000000000000000000008152600401611482906158ac565b60405180910390fd5b6000611497888a612081565b905060006114a58883612081565b9050600015156114bf82606e611cd490919063ffffffff16565b1515141515611503576040517f08c379a00000000000000000000000000000000000000000000000000000000081526004016114fa9061592c565b60405180910390fd5b61150b6120de565b6115218a88606b6121219092919063ffffffff16565b506000151561153a83606e611cd490919063ffffffff16565b1515141561154e5761154d82888c61216c565b5b6115648187606e6128c59092919063ffffffff16565b5050505050505050505050565b6115796112d0565b15156115ba576040517f08c379a00000000000000000000000000000000000000000000000000000000081526004016115b1906158ec565b60405180910390fd5b80606960006101000a81548164ffffffffff021916908364ffffffffff16021790555050565b6060600115156115fa83606b61324490919063ffffffff16565b151514151561163e576040517f08c379a0000000000000000000000000000000000000000000000000000000008152600401611635906159ec565b60405180910390fd5b61165282606b61326490919063ffffffff16565b9050919050565b600060019054906101000a900460ff168061167857506116776129f7565b5b8061168f57506000809054906101000a900460ff16155b15156116d0576040517f08c379a00000000000000000000000000000000000000000000000000000000081526004016116c79061590c565b60405180910390fd5b60008060019054906101000a900460ff161590508015611720576001600060016101000a81548160ff02191690831515021790555060016000806101000a81548160ff0219169083151502179055505b81603360006101000a81548173ffffffffffffffffffffffffffffffffffffffff021916908373ffffffffffffffffffffffffffffffffffffffff160217905550603360009054906101000a900473ffffffffffffffffffffffffffffffffffffffff1673ffffffffffffffffffffffffffffffffffffffff16600073ffffffffffffffffffffffffffffffffffffffff167f8be0079c531659141344cd1fd0a4f28419497f9722a3daafe3b4186f6b6457e060405160405180910390a380156117ff5760008060016101000a81548160ff0219169083151502179055505b5050565b606660009054906101000a900473ffffffffffffffffffffffffffffffffffffffff1681565b6000806000600102606a600085815260200190815260200160002054111515611887576040517f08c379a000000000000000000000000000000000000000000000000000000000815260040161187e90615a4c565b60405180910390fd5b6000606a6000858152602001908152602001600020546001900490508060ff169250600881908060020a8204915050915050915091565b6118c6610f1d565b73ffffffffffffffffffffffffffffffffffffffff163373ffffffffffffffffffffffffffffffffffffffff16141515611935576040517f08c379a000000000000000000000000000000000000000000000000000000000815260040161192c9061574c565b60405180910390fd5b61198585858080601f016020809104026020016040519081016040528093929190818152602001838380828437600081840152601f19601f820116905080830192505050505050508484846132d3565b5050505050565b60606119a282606e611cd490919063ffffffff16565b156119c2576119bb82606e61317b90919063ffffffff16565b90506119fa565b60006040519080825280601f01601f1916602001820160405280156119f65781602001600182028038833980820191505090505b5090505b919050565b611a076112d0565b1515611a48576040517f08c379a0000000000000000000000000000000000000000000000000000000008152600401611a3f906158ec565b60405180910390fd5b6000600102606a600083815260200190815260200160002081905550611a9d7f736368656d61732e7075626c69632e7461626c6573000000000000000000000060010283606e6132d99092919063ffffffff16565b50611ab281606b6132fc90919063ffffffff16565b505050565b6000611acf8383606b6133359092919063ffffffff16565b905092915050565b611adf6112d0565b1515611b20576040517f08c379a0000000000000000000000000000000000000000000000000000000008152600401611b17906158ec565b60405180910390fd5b611b2981613380565b50565b6000611b366112d0565b1515611b77576040517f08c379a0000000000000000000000000000000000000000000000000000000008152600401611b6e906158ec565b60405180910390fd5b6000611b81611cc5565b90506000611b8d611cc5565b73ffffffffffffffffffffffffffffffffffffffff166370a08231306040518263ffffffff167c0100000000000000000000000000000000000000000000000000000000028152600401611be1919061564c565b60206040518083038186803b158015611bf957600080fd5b505afa158015611c0d573d6000803e3d6000fd5b505050506040513d601f19601f82011682018060405250611c319190810190614c7a565b90508173ffffffffffffffffffffffffffffffffffffffff1662f714ce82866040518363ffffffff167c0100000000000000000000000000000000000000000000000000000000028152600401611c89929190615af2565b600060405180830381600087803b158015611ca357600080fd5b505af1158015611cb7573d6000803e3d6000fd5b505050508092505050919050565b6000611ccf612639565b905090565b6000611cec82846000016134b290919063ffffffff16565b80611d095750611d0882846003016134d290919063ffffffff16565b5b80611d265750611d25828460060161324490919063ffffffff16565b5b80611d435750611d4282846009016134f290919063ffffffff16565b5b905092915050565b6060611d63828460060161326490919063ffffffff16565b905092915050565b6000611d83828460000161351290919063ffffffff16565b905092915050565b611d936112d0565b1515611dd4576040517f08c379a0000000000000000000000000000000000000000000000000000000008152600401611dcb906158ec565b60405180910390fd5b60008260ff168117905060088273ffffffffffffffffffffffffffffffffffffffff169060020a0273ffffffffffffffffffffffffffffffffffffffff168117905080600102606a60008681526020019081526020016000208190555050505050565b6000611e4f83856000016134b290919063ffffffff16565b151515611e91576040517f08c379a0000000000000000000000000000000000000000000000000000000008152600401611e889061582c565b60405180910390fd5b611ea783856003016134d290919063ffffffff16565b151515611ee9576040517f08c379a0000000000000000000000000000000000000000000000000000000008152600401611ee09061582c565b60405180910390fd5b611eff83856009016134f290919063ffffffff16565b151515611f41576040517f08c379a0000000000000000000000000000000000000000000000000000000008152600401611f389061582c565b60405180910390fd5b611f598383866006016121219092919063ffffffff16565b90509392505050565b6000611f7a828460010161357d90919063ffffffff16565b905092915050565b611f8a614428565b81518351141515611fd0576040517f08c379a0000000000000000000000000000000000000000000000000000000008152600401611fc79061586c565b60405180910390fd5b611fd8614428565b84816000018181525050611fec84846135e9565b8160200181905250809150509392505050565b6000606061200c836136ff565b90506120248482606e61250e9092919063ffffffff16565b91505092915050565b6000612037612639565b73ffffffffffffffffffffffffffffffffffffffff163373ffffffffffffffffffffffffffffffffffffffff161415156120735733905061207e565b61207b6137cf565b90505b90565b60006060604080519080825280601f01601f1916602001820160405280156120b85781602001600182028038833980820191505090505b509050836040820152826020820152600081805190602001209050809250505092915050565b60006120e8612e02565b90506000606860008381526020019081526020016000205490506001810160686000848152602001908152602001600020819055505050565b600061212d8484613244565b15612160576121598285600001600086815260200190815260200160002061357d90919063ffffffff16565b9050612165565b600090505b9392505050565b6000151561218484606e611cd490919063ffffffff16565b15151415156121c8576040517f08c379a00000000000000000000000000000000000000000000000000000000081526004016121bf9061584c565b60405180910390fd5b600080606760009054906101000a900473ffffffffffffffffffffffffffffffffffffffff1673ffffffffffffffffffffffffffffffffffffffff166392d66313426040518263ffffffff167c01000000000000000000000000000000000000000000000000000000000281526004016122429190615aae565b60206040518083038186803b15801561225a57600080fd5b505afa15801561226e573d6000803e3d6000fd5b505050506040513d601f19601f820116820180604052506122929190810190614c28565b90506000606760009054906101000a900473ffffffffffffffffffffffffffffffffffffffff1673ffffffffffffffffffffffffffffffffffffffff1663a324ad24426040518263ffffffff167c010000000000000000000000000000000000000000000000000000000002815260040161230d9190615aae565b60206040518083038186803b15801561232557600080fd5b505afa158015612339573d6000803e3d6000fd5b505050506040513d601f19601f8201168201806040525061235d9190810190614cdf565b90506000606760009054906101000a900473ffffffffffffffffffffffffffffffffffffffff1673ffffffffffffffffffffffffffffffffffffffff166365c72840426040518263ffffffff167c01000000000000000000000000000000000000000000000000000000000281526004016123d89190615aae565b60206040518083038186803b1580156123f057600080fd5b505afa158015612404573d6000803e3d6000fd5b505050506040513d601f19601f820116820180604052506124289190810190614cdf565b90508261ffff168417935060108260ff169060020a028417935060188160ff169060020a02841793506000847c0100000000000000000000000000000000000000000000000000000000029050602061247f61202d565b73ffffffffffffffffffffffffffffffffffffffff169060020a02851794506124b78886600102606e6128c59092919063ffffffff16565b506124c061202d565b73ffffffffffffffffffffffffffffffffffffffff1686887fc3b047ab84cb81685163ad3ef7de856809a7d1cd6d900310242d6c3dca034bc160405160405180910390a45050505050505050565b600061252683856000016134b290919063ffffffff16565b151515612568576040517f08c379a000000000000000000000000000000000000000000000000000000000815260040161255f9061582c565b60405180910390fd5b61257e838560060161324490919063ffffffff16565b1515156125c0576040517f08c379a00000000000000000000000000000000000000000000000000000000081526004016125b79061582c565b60405180910390fd5b6125d683856009016134f290919063ffffffff16565b151515612618576040517f08c379a000000000000000000000000000000000000000000000000000000000815260040161260f9061582c565b60405180910390fd5b6126308383866003016138479092919063ffffffff16565b90509392505050565b6000807f06b7792c761dcc05af1761f0315ce8b01ac39c16cc934eb0b2f7a8e71414f2626001029050805491505090565b600115156126848583606b6133359092919063ffffffff16565b15151415156126c8576040517f08c379a00000000000000000000000000000000000000000000000000000000081526004016126bf90615a2c565b60405180910390fd5b6000806126d486611829565b9150915060008211151561271d576040517f08c379a00000000000000000000000000000000000000000000000000000000081526004016127149061578c565b60405180910390fd5b60018211806127375750600115156127336112d0565b1515145b80612774575061274561202d565b73ffffffffffffffffffffffffffffffffffffffff168173ffffffffffffffffffffffffffffffffffffffff16145b15156127b5576040517f08c379a00000000000000000000000000000000000000000000000000000000081526004016127ac9061580c565b60405180910390fd5b6002821015156128bd5760006127d585606e611d6b90919063ffffffff16565b9050600060208260019004908060020a820491505090506127f461202d565b73ffffffffffffffffffffffffffffffffffffffff168173ffffffffffffffffffffffffffffffffffffffff16141561282c576128ba565b600115156128386112d0565b15151480612878575061284961202d565b73ffffffffffffffffffffffffffffffffffffffff168373ffffffffffffffffffffffffffffffffffffffff16145b15156128b9576040517f08c379a00000000000000000000000000000000000000000000000000000000081526004016128b09061588c565b60405180910390fd5b5b50505b505050505050565b60006128dd83856003016134d290919063ffffffff16565b15151561291f576040517f08c379a00000000000000000000000000000000000000000000000000000000081526004016129169061582c565b60405180910390fd5b612935838560060161324490919063ffffffff16565b151515612977576040517f08c379a000000000000000000000000000000000000000000000000000000000815260040161296e9061582c565b60405180910390fd5b61298d83856009016134f290919063ffffffff16565b1515156129cf576040517f08c379a00000000000000000000000000000000000000000000000000000000081526004016129c69061582c565b60405180910390fd5b6129e78383866000016138929092919063ffffffff16565b90509392505050565b6000919050565b6000803090506000813b9050600081149250505090565b600060019054906101000a900460ff1680612a2d5750612a2c6129f7565b5b80612a4457506000809054906101000a900460ff16155b1515612a85576040517f08c379a0000000000000000000000000000000000000000000000000000000008152600401612a7c9061590c565b60405180910390fd5b60008060019054906101000a900460ff161590508015612ad5576001600060016101000a81548160ff02191690831515021790555060016000806101000a81548160ff0219169083151502179055505b612add6138cd565b8015612afe5760008060016101000a81548160ff0219169083151502179055505b50565b6103e8606960006101000a81548164ffffffffff021916908364ffffffffff160217905550612b607f736368656d61732e7075626c69632e7461626c657300000000000000000000006001026000606e6139d59092919063ffffffff16565b50565b60011515612b7d8583606b6133359092919063ffffffff16565b1515141515612bc1576040517f08c379a0000000000000000000000000000000000000000000000000000000008152600401612bb8906159cc565b60405180910390fd5b600080612bcd86611829565b91509150600082111515612c16576040517f08c379a0000000000000000000000000000000000000000000000000000000008152600401612c0d9061576c565b60405180910390fd5b6001821180612c30575060011515612c2c6112d0565b1515145b80612c6d5750612c3e61202d565b73ffffffffffffffffffffffffffffffffffffffff168173ffffffffffffffffffffffffffffffffffffffff16145b1515612cae576040517f08c379a0000000000000000000000000000000000000000000000000000000008152600401612ca59061594c565b60405180910390fd5b600282101515612daf57612cc06112d0565b80612cfd5750612cce61202d565b73ffffffffffffffffffffffffffffffffffffffff168173ffffffffffffffffffffffffffffffffffffffff16145b15612d0757612dae565b6000612d1d86606e611d6b90919063ffffffff16565b9050600060208260019004908060020a82049150509050612d3c61202d565b73ffffffffffffffffffffffffffffffffffffffff168173ffffffffffffffffffffffffffffffffffffffff16141515612dab576040517f08c379a0000000000000000000000000000000000000000000000000000000008152600401612da290615a6c565b60405180910390fd5b50505b5b505050505050565b6000612dc38484613244565b15612df657612def82856000016000868152602001908152602001600020613cbd90919063ffffffff16565b9050612dfb565b600090505b9392505050565b6000806000606760009054906101000a900473ffffffffffffffffffffffffffffffffffffffff1673ffffffffffffffffffffffffffffffffffffffff166392d66313426040518263ffffffff167c0100000000000000000000000000000000000000000000000000000000028152600401612e7e9190615aae565b60206040518083038186803b158015612e9657600080fd5b505afa158015612eaa573d6000803e3d6000fd5b505050506040513d601f19601f82011682018060405250612ece9190810190614c28565b90506000606760009054906101000a900473ffffffffffffffffffffffffffffffffffffffff1673ffffffffffffffffffffffffffffffffffffffff1663a324ad24426040518263ffffffff167c0100000000000000000000000000000000000000000000000000000000028152600401612f499190615aae565b60206040518083038186803b158015612f6157600080fd5b505afa158015612f75573d6000803e3d6000fd5b505050506040513d601f19601f82011682018060405250612f999190810190614cdf565b90506000606760009054906101000a900473ffffffffffffffffffffffffffffffffffffffff1673ffffffffffffffffffffffffffffffffffffffff166365c72840426040518263ffffffff167c01000000000000000000000000000000000000000000000000000000000281526004016130149190615aae565b60206040518083038186803b15801561302c57600080fd5b505afa158015613040573d6000803e3d6000fd5b505050506040513d601f19601f820116820180604052506130649190810190614cdf565b90508261ffff168417935060108260ff169060020a028417935060188160ff169060020a028417935083604051602001808281526020019150506040516020818303038152906040528051906020012094505050505090565b6000606082600b01602060405190810160405280600081525091509150915091565b600060606130fc6020604051908101604052806000815250613db6565b915091509091565b600061311c8284600001613dc690919063ffffffff16565b8061313957506131388284600301613e1890919063ffffffff16565b5b80613156575061315582846006016132fc90919063ffffffff16565b5b8061317357506131728284600901613e7290919063ffffffff16565b5b905092915050565b60606131938284600301613eab90919063ffffffff16565b905092915050565b6131a3614428565b6000825190506131b1614428565b6131c48285613fae90919063ffffffff16565b8160000181815250506020820391506131e68285613fbc90919063ffffffff16565b81915082602001819450829052505060008214151561323a576040517f08c379a00000000000000000000000000000000000000000000000000000000081526004016132319061572c565b60405180910390fd5b8092505050919050565b600061325c82846001016140c790919063ffffffff16565b905092915050565b60606132708383613244565b15613299576132928360000160008481526020019081526020016000206140ea565b90506132cd565b60006040519080825280602002602001820160405280156132c95781602001602082028038833980820191505090505b5090505b92915050565b50505050565b60006132f3838386600601612db79092919063ffffffff16565b90509392505050565b60006133088383613244565b1561332a576133238284600101613cbd90919063ffffffff16565b905061332f565b600090505b92915050565b60006133418484613244565b156133745761336d828560000160008681526020019081526020016000206140c790919063ffffffff16565b9050613379565b600090505b9392505050565b600073ffffffffffffffffffffffffffffffffffffffff168173ffffffffffffffffffffffffffffffffffffffff16141515156133f2576040517f08c379a00000000000000000000000000000000000000000000000000000000081526004016133e9906157ac565b60405180910390fd5b8073ffffffffffffffffffffffffffffffffffffffff16603360009054906101000a900473ffffffffffffffffffffffffffffffffffffffff1673ffffffffffffffffffffffffffffffffffffffff167f8be0079c531659141344cd1fd0a4f28419497f9722a3daafe3b4186f6b6457e060405160405180910390a380603360006101000a81548173ffffffffffffffffffffffffffffffffffffffff021916908373ffffffffffffffffffffffffffffffffffffffff16021790555050565b60006134ca82846001016140c790919063ffffffff16565b905092915050565b60006134ea82846001016140c790919063ffffffff16565b905092915050565b600061350a82846001016140c790919063ffffffff16565b905092915050565b600061351e83836134b2565b151561355f576040517f08c379a000000000000000000000000000000000000000000000000000000000815260040161355690615a0c565b60405180910390fd5b82600001600083815260200190815260200160002054905092915050565b600061358983836140c7565b15156135de5782600101829080600181540180825580915050906001820390600052602060002001600090919290919091505583600001600084815260200190815260200160002081905550600190506135e3565b600090505b92915050565b606081518351141515613631576040517f08c379a00000000000000000000000000000000000000000000000000000000081526004016136289061586c565b60405180910390fd5b6060835160405190808252806020026020018201604052801561366e57816020015b61365b614445565b8152602001906001900390816136535790505b50905060008090505b84518110156136f457613688614465565b858281518110151561369657fe5b9060200190602002015181600001818152505084828151811015156136b757fe5b906020019060200201518160200181815250508083838151811015156136d957fe5b90602001906020020181905250508080600101915050613677565b508091505092915050565b6060600061370c83614187565b90506060816040519080825280601f01601f1916602001820160405280156137435781602001600182028038833980820191505090505b50905061375f828286600001516141a29092919063ffffffff16565b60208203915061377e828286602001516141ac9092919063ffffffff16565b91506000821415156137c5576040517f08c379a00000000000000000000000000000000000000000000000000000000081526004016137bc9061572c565b60405180910390fd5b8092505050919050565b600060606000368080601f016020809104026020016040519081016040528093929190818152602001838380828437600081840152601f19601f820116905080830192505050505050509050600080369050905073ffffffffffffffffffffffffffffffffffffffff81830151169250829250505090565b6000818460000160008581526020019081526020016000209080519060200190613872929190614485565b50613889838560010161357d90919063ffffffff16565b90509392505050565b600081846000016000858152602001908152602001600020819055506138c4838560010161357d90919063ffffffff16565b90509392505050565b600060019054906101000a900460ff16806138ec57506138eb6129f7565b5b8061390357506000809054906101000a900460ff16155b1515613944576040517f08c379a000000000000000000000000000000000000000000000000000000000815260040161393b9061590c565b60405180910390fd5b60008060019054906101000a900460ff161590508015613994576001600060016101000a81548160ff02191690831515021790555060016000806101000a81548160ff0219169083151502179055505b6139b173d216153c06e857cd7f72665e0af1d7d82172f494614269565b80156139d25760008060016101000a81548160ff0219169083151502179055505b50565b600060048260038111156139e557fe5b60ff16101515613a2a576040517f08c379a0000000000000000000000000000000000000000000000000000000008152600401613a219061598c565b60405180910390fd5b613a4083856000016134b290919063ffffffff16565b151515613a82576040517f08c379a0000000000000000000000000000000000000000000000000000000008152600401613a799061582c565b60405180910390fd5b613a9883856003016134d290919063ffffffff16565b151515613ada576040517f08c379a0000000000000000000000000000000000000000000000000000000008152600401613ad19061582c565b60405180910390fd5b613af0838560060161324490919063ffffffff16565b151515613b32576040517f08c379a0000000000000000000000000000000000000000000000000000000008152600401613b299061582c565b60405180910390fd5b613b4883856009016134f290919063ffffffff16565b151515613b8a576040517f08c379a0000000000000000000000000000000000000000000000000000000008152600401613b819061582c565b60405180910390fd5b816003811115613b9657fe5b60006003811115613ba357fe5b1415613bc657613bbf8385600601611f6290919063ffffffff16565b9050613cb6565b816003811115613bd257fe5b60016003811115613bdf57fe5b1415613c0257613bfb83856009016143e290919063ffffffff16565b9050613cb6565b816003811115613c0e57fe5b60026003811115613c1b57fe5b1415613c4457613c3d836000600102866000016138929092919063ffffffff16565b9050613cb6565b816003811115613c5057fe5b600380811115613c5c57fe5b1415613cb557613cae8360006040519080825280601f01601f191660200182016040528015613c9a5781602001600182028038833980820191505090505b50866003016138479092919063ffffffff16565b9050613cb6565b5b9392505050565b6000613cc983836140c7565b15613dab5760006001846000016000858152602001908152602001600020540390506000600185600101805490500390508181141515613d625760008560010182815481101515613d1657fe5b90600052602060002001549050808660010184815481101515613d3557fe5b90600052602060002001819055506001830186600001600083815260200190815260200160002081905550505b84600001600085815260200190815260200160002060009055846001018054801515613d8a57fe5b60019003818190600052602060002001600090559055600192505050613db0565b600090505b92915050565b6000606060008391509150915091565b6000613dd283836134b2565b15613e0d5782600001600083815260200190815260200160002060009055613e068284600101613cbd90919063ffffffff16565b9050613e12565b600090505b92915050565b6000613e2483836134d2565b15613e67578260000160008381526020019081526020016000206000613e4a9190614505565b613e608284600101613cbd90919063ffffffff16565b9050613e6c565b600090505b92915050565b6000613e7e83836134f2565b15613ea057613e998284600101613cbd90919063ffffffff16565b9050613ea5565b600090505b92915050565b6060613eb783836134d2565b1515613ef8576040517f08c379a0000000000000000000000000000000000000000000000000000000008152600401613eef90615a0c565b60405180910390fd5b8260000160008381526020019081526020016000208054600181600116156101000203166002900480601f016020809104026020016040519081016040528092919081815260200182805460018160011615610100020316600290048015613fa15780601f10613f7657610100808354040283529160200191613fa1565b820191906000526020600020905b815481529060010190602001808311613f8457829003601f168201915b5050505050905092915050565b600081830151905092915050565b60606000808390506000613fd9828761440290919063ffffffff16565b90506020820391506000604082811515613fef57fe5b04905060608160405190808252806020026020018201604052801561402e57816020015b61401b614445565b8152602001906001900390816140135790505b50905060008090505b828110156140b557614047614465565b61405a868b613fae90919063ffffffff16565b81600001818152505060208603955061407c868b613fae90919063ffffffff16565b81602001818152505060208603955080838381518110151561409a57fe5b90602001906020020181905250508080600101915050614037565b50808495509550505050509250929050565b600080836000016000848152602001908152602001600020541415905092915050565b60608082600101805490506040519080825280602002602001820160405280156141235781602001602082028038833980820191505090505b50905060005b836001018054905081101561417d57836001018181548110151561414957fe5b9060005260206000200154828281518110151561416257fe5b90602001906020020181815250508080600101915050614129565b5080915050919050565b60006141968260200151614410565b60208001019050919050565b8282820152505050565b6000808390506141cf81846141c088614410565b61441e9092919063ffffffff16565b60208103905060008090505b855181101561425d57614214828588848151811015156141f757fe5b90602001906020020151600001516141a29092919063ffffffff16565b60208203915061424a8285888481518110151561422d57fe5b90602001906020020151602001516141a29092919063ffffffff16565b60208203915080806001019150506141db565b50809150509392505050565b6000614273612639565b9050600073ffffffffffffffffffffffffffffffffffffffff168273ffffffffffffffffffffffffffffffffffffffff16141515156142e7576040517f08c379a00000000000000000000000000000000000000000000000000000000081526004016142de9061596c565b60405180910390fd5b8073ffffffffffffffffffffffffffffffffffffffff168273ffffffffffffffffffffffffffffffffffffffff1614151515614358576040517f08c379a000000000000000000000000000000000000000000000000000000000815260040161434f906157ec565b60405180910390fd5b8173ffffffffffffffffffffffffffffffffffffffff168173ffffffffffffffffffffffffffffffffffffffff167fb9f84b8e65164b14439ae3620df0a4d8786d896996c0282b683f9d8c08f046e860405160405180910390a360007f06b7792c761dcc05af1761f0315ce8b01ac39c16cc934eb0b2f7a8e71414f2626001029050828155505050565b60006143fa828460010161357d90919063ffffffff16565b905092915050565b600081830151905092915050565b600060408251029050919050565b8282820152505050565b604080519081016040528060008019168152602001606081525090565b604080519081016040528060008019168152602001600080191681525090565b604080519081016040528060008019168152602001600080191681525090565b828054600181600116156101000203166002900490600052602060002090601f016020900481019282601f106144c657805160ff19168380011785556144f4565b828001600101855582156144f4579182015b828111156144f35782518255916020019190600101906144d8565b5b509050614501919061454d565b5090565b50805460018160011615610100020316600290046000825580601f1061452b575061454a565b601f016020900490600052602060002090810190614549919061454d565b5b50565b61456f91905b8082111561456b576000816000905550600101614553565b5090565b90565b600061457e8235615ce8565b905092915050565b60006145928235615cfa565b905092915050565b600082601f83011215156145ad57600080fd5b81356145c06145bb82615b93565b615b66565b915081818352602084019350602081019050838560208402820111156145e557600080fd5b60005b8381101561461557816145fb8882614633565b8452602084019350602083019250506001810190506145e8565b5050505092915050565b600061462b8235615d0c565b905092915050565b600061463f8235615d18565b905092915050565b60008083601f840112151561465b57600080fd5b8235905067ffffffffffffffff81111561467457600080fd5b60208301915083600182028301111561468c57600080fd5b9250929050565b600082601f83011215156146a657600080fd5b81356146b96146b482615bbb565b615b66565b915080825260208301602083018583830111156146d557600080fd5b6146e0838284615d7d565b50505092915050565b60006146f58251615d22565b905092915050565b60006147098235615d30565b905092915050565b600061471d8251615d30565b905092915050565b60006147318235615d3a565b905092915050565b60006147458251615d3a565b905092915050565b60006020828403121561475f57600080fd5b600061476d84828501614572565b91505092915050565b60006020828403121561478857600080fd5b600061479684828501614586565b91505092915050565b60008060008060008060008060008060006101208c8e0312156147c157600080fd5b60006147cf8e828f01614572565b9b505060206147e08e828f01614572565b9a505060408c013567ffffffffffffffff8111156147fd57600080fd5b6148098e828f01614647565b9950995050606061481c8e828f016146fd565b975050608061482d8e828f016146fd565b96505060a061483e8e828f016146fd565b95505060c061484f8e828f016146fd565b94505060e08c013567ffffffffffffffff81111561486c57600080fd5b6148788e828f01614647565b935093505061010061488c8e828f016146fd565b9150509295989b509295989b9093969950565b6000602082840312156148b157600080fd5b60006148bf84828501614633565b91505092915050565b600080604083850312156148db57600080fd5b60006148e985828601614633565b92505060206148fa85828601614633565b9150509250929050565b60008060006060848603121561491957600080fd5b600061492786828701614633565b935050602061493886828701614633565b925050604061494986828701614633565b9150509250925092565b6000806000806080858703121561496957600080fd5b600061497787828801614633565b945050602061498887828801614633565b935050604061499987828801614633565b92505060606149aa87828801614633565b91505092959194509250565b600080600080600060a086880312156149ce57600080fd5b60006149dc88828901614633565b95505060206149ed88828901614633565b94505060406149fe88828901614633565b9350506060614a0f88828901614633565b9250506080614a2088828901614633565b9150509295509295909350565b600080600080600060a08688031215614a4557600080fd5b6000614a5388828901614633565b9550506020614a6488828901614633565b9450506040614a7588828901614633565b9350506060614a8688828901614633565b925050608086013567ffffffffffffffff811115614aa357600080fd5b614aaf88828901614693565b9150509295509295909350565b600080600080600060a08688031215614ad457600080fd5b6000614ae288828901614633565b9550506020614af388828901614633565b9450506040614b0488828901614725565b935050606086013567ffffffffffffffff811115614b2157600080fd5b614b2d8882890161459a565b925050608086013567ffffffffffffffff811115614b4a57600080fd5b614b568882890161459a565b9150509295509295909350565b60008060208385031215614b7657600080fd5b600083013567ffffffffffffffff811115614b9057600080fd5b614b9c85828601614647565b92509250509250929050565b600080600080600060808688031215614bc057600080fd5b600086013567ffffffffffffffff811115614bda57600080fd5b614be688828901614647565b95509550506020614bf98882890161461f565b9350506040614c0a888289016146fd565b9250506060614c1b88828901614633565b9150509295509295909350565b600060208284031215614c3a57600080fd5b6000614c48848285016146e9565b91505092915050565b600060208284031215614c6357600080fd5b6000614c71848285016146fd565b91505092915050565b600060208284031215614c8c57600080fd5b6000614c9a84828501614711565b91505092915050565b60008060408385031215614cb657600080fd5b6000614cc4858286016146fd565b9250506020614cd585828601614586565b9150509250929050565b600060208284031215614cf157600080fd5b6000614cff84828501614739565b91505092915050565b614d1181615d47565b82525050565b614d2081615c59565b82525050565b614d2f81615c47565b82525050565b6000614d4082615c01565b808452602084019350614d5283615be7565b60005b82811015614d8457614d68868351614dfa565b614d7182615c2d565b9150602086019550600181019050614d55565b50849250505092915050565b6000614d9b82615c0c565b808452602084019350614dad83615bf4565b60005b82811015614ddf57614dc38683516155a7565b614dcc82615c3a565b9150604086019550600181019050614db0565b50849250505092915050565b614df481615c6b565b82525050565b614e0381615c77565b82525050565b614e1281615c81565b82525050565b6000614e2382615c17565b808452614e37816020860160208601615d8c565b614e4081615dbf565b602085010191505092915050565b6000614e5982615c22565b808452614e6d816020860160208601615d8c565b614e7681615dbf565b602085010191505092915050565b6000601c82527f456e636f64696e67204572726f723a206f666673657420213d20302e000000006020830152604082019050919050565b6000602682527f47534e426f756e636572426173653a2063616c6c6572206973206e6f7420526560208301527f6c617948756200000000000000000000000000000000000000000000000000006040830152606082019050919050565b6000601f82527f43616e6e6f742044454c4554452066726f6d2073797374656d207461626c65006020830152604082019050919050565b6000601a82527f43616e6e6f74205550444154452073797374656d207461626c650000000000006020830152604082019050919050565b6000602682527f4f776e61626c653a206e6577206f776e657220697320746865207a65726f206160208301527f64647265737300000000000000000000000000000000000000000000000000006040830152606082019050919050565b6000601f82527f43616e6e6f7420494e5345525420696e746f2073797374656d207461626c65006020830152604082019050919050565b6000602b82527f47534e436f6e746578743a206e65772052656c6179487562206973207468652060208301527f63757272656e74206f6e650000000000000000000000000000000000000000006040830152606082019050919050565b6000602e82527f4f6e6c79206f776e65722f64656c65676174652063616e20555044415445206960208301527f6e746f2074686973207461626c650000000000000000000000000000000000006040830152606082019050919050565b6000602082527f4572726f723a206b65792065786973747320696e206f7468657220646963742e6020830152604082019050919050565b6000601582527f726f7720616c726561647920686173206f776e657200000000000000000000006020830152604082019050919050565b6000601082527f4572726f7220616c69676e6d656e742e000000000000000000000000000000006020830152604082019050919050565b6000603982527f4e6f7420726f774f776e6572206f72206f776e65722f64656c6567617465206660208301527f6f722055504441544520696e746f2074686973207461626c65000000000000006040830152606082019050919050565b6000602e82527f4f6e6c79206f776e65722f64656c65676174652063616e20494e53455254206960208301527f6e746f2074686973207461626c650000000000000000000000000000000000006040830152606082019050919050565b6000601282527f6572726f722072656d6f76696e67206b657900000000000000000000000000006020830152604082019050919050565b6000602082527f4f776e61626c653a2063616c6c6572206973206e6f7420746865206f776e65726020830152604082019050919050565b6000602e82527f436f6e747261637420696e7374616e63652068617320616c726561647920626560208301527f656e20696e697469616c697a65640000000000000000000000000000000000006040830152606082019050919050565b6000601782527f69642b6669656c6420616c7265616479206578697374730000000000000000006020830152604082019050919050565b6000602e82527f4f6e6c79206f776e65722f64656c65676174652063616e2044454c455445206660208301527f726f6d2074686973207461626c650000000000000000000000000000000000006040830152606082019050919050565b6000602c82527f47534e436f6e746578743a206e65772052656c6179487562206973207468652060208301527f7a65726f206164647265737300000000000000000000000000000000000000006040830152606082019050919050565b6000601382527f496e76616c6964207461626c65207479706521000000000000000000000000006020830152604082019050919050565b6000601482527f5461626c6520616c7265616479206578697374730000000000000000000000006020830152604082019050919050565b6000601082527f696420646f65736e2774206578697374000000000000000000000000000000006020830152604082019050919050565b6000601182527f7461626c65206e6f7420637265617465640000000000000000000000000000006020830152604082019050919050565b6000601382527f4b657920646f6573206e6f7420657869737421000000000000000000000000006020830152604082019050919050565b6000601c82527f696420646f65736e27742065786973742c2075736520494e53455254000000006020830152604082019050919050565b6000601482527f7461626c6520646f6573206e6f742065786973740000000000000000000000006020830152604082019050919050565b6000601782527f53656e646572206e6f74206f776e6572206f6620726f770000000000000000006020830152604082019050919050565b6040820160008201516155bd6000850182614dfa565b5060208201516155d06020850182614dfa565b50505050565b60006040830160008301516155ee6000860182614dfa565b50602083015184820360208601526156068282614d90565b9150508091505092915050565b61561c81615ccd565b82525050565b61562b81615cd7565b82525050565b60006020820190506156466000830184614d26565b92915050565b60006020820190506156616000830184614d08565b92915050565b600060408201905061567c6000830185614d26565b6156896020830184614e09565b9392505050565b600060208201905081810360008301526156aa8184614d35565b905092915050565b60006020820190506156c76000830184614deb565b92915050565b60006020820190506156e26000830184614dfa565b92915050565b600060208201905081810360008301526157028184614e18565b905092915050565b600060208201905081810360008301526157248184614e4e565b905092915050565b6000602082019050818103600083015261574581614e84565b9050919050565b6000602082019050818103600083015261576581614ebb565b9050919050565b6000602082019050818103600083015261578581614f18565b9050919050565b600060208201905081810360008301526157a581614f4f565b9050919050565b600060208201905081810360008301526157c581614f86565b9050919050565b600060208201905081810360008301526157e581614fe3565b9050919050565b600060208201905081810360008301526158058161501a565b9050919050565b6000602082019050818103600083015261582581615077565b9050919050565b60006020820190508181036000830152615845816150d4565b9050919050565b600060208201905081810360008301526158658161510b565b9050919050565b6000602082019050818103600083015261588581615142565b9050919050565b600060208201905081810360008301526158a581615179565b9050919050565b600060208201905081810360008301526158c5816151d6565b9050919050565b600060208201905081810360008301526158e581615233565b9050919050565b600060208201905081810360008301526159058161526a565b9050919050565b60006020820190508181036000830152615925816152a1565b9050919050565b60006020820190508181036000830152615945816152fe565b9050919050565b6000602082019050818103600083015261596581615335565b9050919050565b6000602082019050818103600083015261598581615392565b9050919050565b600060208201905081810360008301526159a5816153ef565b9050919050565b600060208201905081810360008301526159c581615426565b9050919050565b600060208201905081810360008301526159e58161545d565b9050919050565b60006020820190508181036000830152615a0581615494565b9050919050565b60006020820190508181036000830152615a25816154cb565b9050919050565b60006020820190508181036000830152615a4581615502565b9050919050565b60006020820190508181036000830152615a6581615539565b9050919050565b60006020820190508181036000830152615a8581615570565b9050919050565b60006020820190508181036000830152615aa681846155d6565b905092915050565b6000602082019050615ac36000830184615613565b92915050565b6000604082019050615ade6000830185615613565b615aeb6020830184614d26565b9392505050565b6000604082019050615b076000830185615613565b615b146020830184614d17565b9392505050565b6000604082019050615b306000830185615613565b8181036020830152615b428184614e18565b90509392505050565b6000602082019050615b606000830184615622565b92915050565b6000604051905081810181811067ffffffffffffffff82111715615b8957600080fd5b8060405250919050565b600067ffffffffffffffff821115615baa57600080fd5b602082029050602081019050919050565b600067ffffffffffffffff821115615bd257600080fd5b601f19601f8301169050602081019050919050565b6000602082019050919050565b6000602082019050919050565b600081519050919050565b600081519050919050565b600081519050919050565b600081519050919050565b6000602082019050919050565b6000602082019050919050565b6000615c5282615cad565b9050919050565b6000615c6482615cad565b9050919050565b60008115159050919050565b6000819050919050565b60007fffffffff0000000000000000000000000000000000000000000000000000000082169050919050565b600073ffffffffffffffffffffffffffffffffffffffff82169050919050565b6000819050919050565b600064ffffffffff82169050919050565b6000615cf382615cad565b9050919050565b6000615d0582615cad565b9050919050565b60008115159050919050565b6000819050919050565b600061ffff82169050919050565b6000819050919050565b600060ff82169050919050565b6000615d5282615d59565b9050919050565b6000615d6482615d6b565b9050919050565b6000615d7682615cad565b9050919050565b82818337600083830152505050565b60005b83811015615daa578082015181840152602081019050615d8f565b83811115615db9576000848401525b50505050565b6000601f19601f830116905091905056fea265627a7a723058203362989f31410f0409f097eb583ae09992d286d86a098a0d1b12c672ce7772946c6578706572696d656e74616cf50037",
  "compiler": {
    "name": "solc",
    "version": "0.5.0+commit.1d4f565a.Emscripten.clang",
    "optimizer": {
      "enabled": false,
      "runs": 200
    },
    "evmVersion": "byzantium"
  }
}