{
  "fileName": "ELAJSStore.sol",
  "contractName": "ELAJSStore",
  "source": "pragma solidity ^0.5.0;\npragma experimental ABIEncoderV2;\n\nimport \"sol-datastructs/src/contracts/PolymorphicDictionaryLib.sol\";\n\nimport \"sol-datastructs/src/contracts/Bytes32DictionaryLib.sol\";\nimport \"sol-datastructs/src/contracts/Bytes32SetDictionaryLib.sol\";\n\n// import \"./oz/EnumerableSetDictionary.sol\";\n\nimport \"sol-sql/src/contracts/src/structs/TableLib.sol\";\n\nimport \"./ozEla/OwnableELA.sol\";\nimport \"./gsnEla/GSNRecipientELA.sol\";\nimport \"./gsnEla/IRelayHubELA.sol\";\n\ncontract DateTime {\n    function getYear(uint timestamp) public pure returns (uint16);\n    function getMonth(uint timestamp) public pure returns (uint8);\n    function getDay(uint timestamp) public pure returns (uint8);\n}\n\n// TODO: good practice to have functions not callable externally and internally\ncontract ELAJSStore is OwnableELA, GSNRecipientELA {\n\n    // key to our table list\n    bytes32 constant public schemasTables = 0x736368656d61732e7075626c69632e7461626c65730000000000000000000000;\n\n    // DateTime Contract address\n    address public dateTimeAddr = 0x9c71b2E820B067ea466ea81C0cd6852Bc8D8604e; // development\n    // address constant public dateTimeAddr = 0xEDb211a2dBbdE62012440177e65b68E0A66E4531; // testnet\n\n    // Initialize the DateTime contract ABI with the already deployed contract\n    DateTime dateTime = DateTime(dateTimeAddr);\n\n    // This counts the number of times this contract was called via GSN (expended owner gas) for rate limiting\n    // mapping is a keccak256('YYYY-MM-DD') => uint (TODO: we can probably compress this by week (4 bytes per day -> 28 bytes)\n    mapping(bytes32 => uint256) public gsnCounter;\n\n    // Max times we allow this to be called per day\n    uint40 public gsnMaxCallsPerDay;\n\n    using PolymorphicDictionaryLib for PolymorphicDictionaryLib.PolymorphicDictionary;\n    using Bytes32DictionaryLib for Bytes32DictionaryLib.Bytes32Dictionary;\n    using Bytes32SetDictionaryLib for Bytes32SetDictionaryLib.Bytes32SetDictionary;\n\n    // _table = system table (bytes32 Dict) of each table's metadata marshaled\n    // 8 bits - permissions (00 = system, 01 = private, 10 = public, 11 = shared - owner can always edit)\n    // 20 bytes - address delegate - other address allowed to edit\n    mapping(bytes32 => bytes32) internal _table;\n\n    // table = dict, where the key is the table, and the value is a set of byte32 ids\n    Bytes32SetDictionaryLib.Bytes32SetDictionary internal table;\n\n    // Schema dictionary, key (schemasPublicTables) points to a set of table names\n    using TableLib for TableLib.Table;\n    using TableLib for bytes;\n    // using ColumnLib for ColumnLib.Column;\n    // using ColumnLib for bytes;\n\n    // namehash([tableName]) => encoded table schema\n    // ownership of each row (id) - key = namehash([id].[table]) which has a value that is the owner's address\n    // ultimately namehash([field].[id].[table]) gives us a bytes32 which maps to the single data value\n    PolymorphicDictionaryLib.PolymorphicDictionary internal database;\n\n\n    // ************************************* SETUP FUNCTIONS *************************************\n    function initialize() public initializer {\n        OwnableELA.initialize(msg.sender);\n        GSNRecipientELA.initialize();\n        _initialize();\n    }\n\n    function _initialize() internal {\n        gsnMaxCallsPerDay = 1000;\n    }\n\n    // ************************************* SCHEMA FUNCTIONS *************************************\n    /**\n     * @dev create a new table, only the owner may create this\n     *\n     * @param tableKey this is the namehash of tableName\n     */\n    function createTable(\n\n        bytes32 tableName,\n        bytes32 tableKey,\n        uint8 permission,\n        bytes32[] memory _columnName,\n        bytes32[] memory _columnDtype\n\n    ) public onlyOwner {\n\n        // check if table exists\n        require(_table[tableKey] == 0, \"Table already exists\");\n\n        address delegate = address(0x0);\n\n        // claim the key slot and set the metadata\n        setTableMetadata(tableKey, permission, delegate);\n\n        // table stores the row ids set as the value, set up the key\n        table.addKey(tableKey);\n\n        // now insert the schema\n        TableLib.Table memory tableSchema = TableLib.create(\n            tableName,\n            _columnName,\n            _columnDtype\n        );\n\n        saveSchema(tableKey, tableSchema);\n\n    }\n\n    function tableExists(bytes32 tableKey) public view returns (bool) {\n        return table.containsKey(tableKey);\n    }\n\n    function saveSchema(bytes32 tableKey, TableLib.Table memory tableSchema) internal returns (bool) {\n        bytes memory encoded = tableSchema.encode();\n\n        // we store the encoded table schema on the base tableKey\n        return database.setValueForKey(tableKey, encoded);\n    }\n\n    // EXPERIMENTAL\n    function getSchema(bytes32 _name) public view returns (TableLib.Table memory) {\n        bytes memory encoded = database.getBytesForKey(_name);\n        return encoded.decodeTable();\n    }\n\n    // ************************************* CRUD FUNCTIONS *************************************\n\n    /**\n     * @dev Table level permission checks\n     */\n    modifier insertCheck(bytes32 tableKey, bytes32 idKey, bytes32 idTableKey) {\n\n        (uint256 permission, address delegate) = getTableMetadata(tableKey);\n\n        // if permission = 0, system table we can't do anything\n        require(permission > 0, \"Cannot INSERT into system table\");\n\n        // if permission = 1, we must be the owner/delegate\n        require(permission > 1 || isOwner() == true || delegate == _msgSender(), \"Only owner/delegate can INSERT into this table\");\n\n        // permissions check, is the idTableKey a subhash of the id and table?\n        require(isNamehashSubOf(idKey, tableKey, idTableKey) == true, \"idTableKey not a subhash [id].[table]\");\n\n        _;\n    }\n\n    /**\n     * @dev Prior to insert, we check the permissions and autoIncrement\n     * TODO: use the schema and determine the proper type of data to insert\n     *\n     * @param tableKey the namehashed [table] name string\n     * @param idKey the sha3 hashed idKey\n     * @param idTableKey the namehashed [id].[table] name string\n     *\n     * @param id as the raw string (unhashed)\n     *\n     *\n     */\n    function insertVal(\n\n        bytes32 tableKey,\n        bytes32 idTableKey,\n        bytes32 fieldIdTableKey,\n\n        bytes32 idKey,\n        bytes32 fieldKey,\n\n        bytes32 id,\n        bytes32 val)\n\n    public insertCheck(tableKey, idKey, idTableKey){\n\n        require(database.containsKey(fieldIdTableKey) == false, \"id+field already exists\");\n\n        // now check if the full field + id + table is a subhash\n        require(isNamehashSubOf(fieldKey, idTableKey, fieldIdTableKey) == true, \"fieldKey not a subhash [field].[id].[table]\");\n\n        // increment counter\n        increaseGsnCounter();\n\n        // add an id entry to the table's set of ids for the row\n        table.addValueForKey(tableKey, id);\n\n        // add the \"row owner\" if it doesn't exist, the row may already exist in which case we don't update it\n        if (database.containsKey(idTableKey) == false){\n            _setRowOwner(idTableKey, id, tableKey);\n        }\n\n        // finally set the data\n        // we won't serialize the type, that's way too much redundant data\n        database.setValueForKey(fieldIdTableKey, bytes32(val));\n\n    }\n\n    function insertValVar(\n        bytes32 tableKey,\n        bytes32 idTableKey,\n        bytes32 fieldIdTableKey,\n\n        bytes32 idKey,\n        bytes32 fieldKey,\n\n        bytes32 id,\n        bytes memory val)\n\n    public insertCheck(tableKey, idKey, idTableKey){\n\n        require(database.containsKey(fieldIdTableKey) == false, \"id+field already exists\");\n\n        // now check if the full field + id + table is a subhash\n        require(isNamehashSubOf(fieldKey, idTableKey, fieldIdTableKey) == true, \"fieldKey not a subhash [field].[id].[table]\");\n\n        // increment counter\n        increaseGsnCounter();\n\n        // add an id entry to the table's set of ids for the row\n        table.addValueForKey(tableKey, id);\n\n        // finally set the data\n        database.setValueForKey(fieldIdTableKey, val);\n    }\n\n    /**\n     * @dev we are essentially claiming this [id].[table] for the msg.sender, and setting the id createdDate\n     */\n    function _setRowOwner(bytes32 idTableKey, bytes32 id, bytes32 tableKey) internal {\n\n        require(database.containsKey(idTableKey) == false, \"row already has owner\");\n\n        uint256 rowMetadata;\n\n        uint16 year = dateTime.getYear(now);\n        uint8 month = dateTime.getMonth(now);\n        uint8 day = dateTime.getDay(now);\n\n        rowMetadata |= year;\n        rowMetadata |= uint256(month)<<16;\n        rowMetadata |= uint256(day)<<24;\n\n        bytes4 createdDate = bytes4(uint32(rowMetadata));\n\n        rowMetadata |= uint256(_msgSender())<<32;\n\n        database.setValueForKey(idTableKey, bytes32(rowMetadata));\n\n        emit InsertRow(id, tableKey, _msgSender());\n    }\n\n    event InsertRow (\n        bytes32 indexed _id,\n        bytes32 indexed _tableKey,\n        address indexed _rowOwner\n    );\n\n    function _getRowOwner(bytes32 idTableKey) internal returns (address rowOwner, bytes4 createdDate){\n\n        uint256 rowMetadata = uint256(database.getBytes32ForKey(idTableKey));\n\n        createdDate = bytes4(uint32(rowMetadata));\n        rowOwner = address(rowMetadata>>32);\n\n    }\n\n    function getRowOwner(bytes32 idTableKey) public returns (address rowOwner, bytes4 createdDate){\n        return _getRowOwner(idTableKey);\n    }\n\n    modifier updateCheck(bytes32 tableKey, bytes32 idKey, bytes32 idTableKey) {\n\n        (uint256 permission, address delegate) = getTableMetadata(tableKey);\n\n        // if permission = 0, system table we can't do anything\n        require(permission > 0, \"Cannot UPDATE system table\");\n\n        // if permission = 1, we must be the owner/delegate\n        require(permission > 1 || isOwner() == true || delegate == _msgSender(), \"Only owner/delegate can UPDATE into this table\");\n\n        // permissions check, is the idTableKey a subhash of the id and table?\n        require(isNamehashSubOf(idKey, tableKey, idTableKey) == true, \"idTableKey not a subhash [id].[table]\");\n\n        // permissions check (public table = 2, shared table = 3),\n        // if 2 or 3 is the _msg.sender() the row owner? But if 3 owner() is always allowed\n        if (permission >= 2) {\n\n            // rowMetaData is packed as address (bytes20) + createdDate (bytes4)\n            bytes32 rowMetaData = database.getBytes32ForKey(idTableKey);\n            address rowOwner = address(uint256(rowMetaData)>>32);\n\n            // if either 2 or 3, if you're the row owner it's fine\n            if (rowOwner == _msgSender()){\n                // pass\n            } else {\n                require(isOwner() == true || delegate == _msgSender(), \"Not rowOwner or owner/delegate for UPDATE into this table\");\n            }\n\n        }\n        _;\n    }\n\n    function updateVal(\n\n        bytes32 tableKey,\n        bytes32 idTableKey,\n        bytes32 fieldIdTableKey,\n\n        bytes32 idKey,\n        bytes32 fieldKey,\n\n        bytes32 id,\n        bytes32 val)\n\n    public updateCheck(tableKey, idKey, idTableKey) {\n\n        require(table.containsValueForKey(tableKey, id) == true, \"id doesn't exist, use INSERT\");\n\n        // now check if the full field + id + table is a subhash\n        require(isNamehashSubOf(fieldKey, idTableKey, fieldIdTableKey) == true, \"fieldKey not a subhash [field].[id].[table]\");\n\n        // increment counter\n        increaseGsnCounter();\n\n        // set data (overwrite)\n        database.setValueForKey(fieldIdTableKey, bytes32(val));\n\n    }\n\n    modifier deleteCheck(bytes32 tableKey, bytes32 idTableKey, bytes32 idKey, bytes32 id) {\n\n        require(table.containsValueForKey(tableKey, id) == true, \"id doesn't exist\");\n\n        (uint256 permission, address delegate) = getTableMetadata(tableKey);\n\n        // if permission = 0, system table we can't do anything\n        require(permission > 0, \"Cannot DELETE from system table\");\n\n        // if permission = 1, we must be the owner/delegate\n        require(permission > 1 || isOwner() == true || delegate == _msgSender(), \"Only owner/delegate can DELETE from this table\");\n\n        // permissions check, is the idTableKey a subhash of the id and table?\n        require(isNamehashSubOf(idKey, tableKey, idTableKey) == true, \"idTableKey not a subhash [id].[table]\");\n\n        // permissions check (public table = 2, shared table = 3),\n        // if 2 or 3 is the _msg.sender() the row owner? But if 3 owner() is always allowed\n        if (permission >= 2) {\n            if (isOwner() || delegate == _msgSender()){\n                // pass\n            } else {\n                // rowMetaData is packed as address (bytes20) + createdDate (bytes4)\n                bytes32 rowMetaData = database.getBytes32ForKey(idTableKey);\n                address rowOwner = address(uint256(rowMetaData)>>32);\n                require(rowOwner == _msgSender(), \"Sender not owner of row\");\n            }\n        }\n\n        _;\n    }\n\n    /**\n     * @dev TODO: add modifier checks based on update\n     *\n     * TODO: this needs to properly remove the row when there are multiple ids\n     *\n     */\n    function deleteVal(\n\n        bytes32 tableKey,\n        bytes32 idTableKey,\n\n        bytes32 idKey,\n        bytes32 id,\n\n        bytes32 fieldKey,\n        bytes32 fieldIdTableKey\n\n    ) public deleteCheck(tableKey, idTableKey, idKey, id){\n\n        // check if the full field + id + table is a subhash (permissions)\n        require(isNamehashSubOf(fieldKey, idTableKey, fieldIdTableKey) == true, \"fieldKey not a subhash [field].[id].[table]\");\n\n        // increment counter\n        increaseGsnCounter();\n\n        // remove the key\n        bool removed = database.removeKey(fieldIdTableKey);\n\n        require(removed == true, \"error removing key\");\n\n        // TODO: zero out the data? Why bother everything is public\n\n        // we can't really pass in enough data to make a loop worthwhile\n        /*\n        uint8 len = uint8(fieldKeys.length);\n        require(fieldKeys.length == fieldIdTableKeys.length, \"fields, id array length mismatch\");\n        for (uint8 i = 0; i < len; i++) {\n\n            // for each row check if the full field + id + table is a subhash\n            // require(isNamehashSubOf(fieldKeys[i], idTableKey, fieldIdTableKeys[i]) == true, \"fieldKey not a subhash [field].[id].[table]\");\n\n            // zero out the data\n            elajsStore[fieldIdTableKeys[i]] = bytes32(0);\n        }\n        */\n    }\n\n    // TODO: improve this, we don't want to cause data consistency if the client doesn't call this\n    // Right now we manually call this, but ideally we iterate over all the data and delete each column\n    // but this would require decoding and having all the field names\n    function deleteRow(\n\n        bytes32 tableKey,\n        bytes32 idTableKey,\n\n        bytes32 idKey,\n        bytes32 id\n\n    ) public deleteCheck(tableKey, idTableKey, idKey, id){\n\n        // increment counter\n        increaseGsnCounter();\n\n        // remove the id\n        table.removeValueForKey(tableKey, id);\n    }\n\n    /**\n     * @dev Table actual insert call, NOTE this doesn't work on testnet currently due to a stack size issue,\n     *      but it can work with a paid transaction I guess\n     */\n    /*\n    function insert(\n        bytes32 tableKey,\n        bytes32 idTableKey,\n\n        bytes32 idKey,\n        bytes32 id,\n\n        bytes32[] memory fieldKeys,\n        bytes32[] memory fieldIdTableKeys,\n        bytes32[] memory values)\n\n    public insertCheck(tableKey, idKey, idTableKey){\n\n        require(table.containsValueForKey(tableKey, id) == false, \"id already exists\");\n\n        uint len = fieldKeys.length;\n\n        require(fieldKeys.length == fieldIdTableKeys.length == values.length, \"fields, values array length mismatch\");\n\n        // add an id entry to the table's set of ids for the row\n        table.addValueForKey(tableKey, id);\n\n        for (uint i = 0; i < len; i++) {\n\n            // for each row check if the full field + id + table is a subhash\n            require(isNamehashSubOf(fieldKeys[i], idTableKey, fieldIdTableKeys[i]) == true, \"fieldKey not a subhash [field].[id].[table]\");\n\n            elajsStore[fieldIdTableKeys[i]] = bytes32(values[i]);\n        }\n\n    }\n    */\n\n    /*\n    function getAllDataKeys() external view returns (bytes32[] memory) {\n        return database.enumerate();\n    }\n    */\n\n    function checkDataKey(bytes32 key) external view returns (bool) {\n        return database.containsKey(key);\n    }\n\n    /**\n     * @dev all data is public, so no need for security checks, we leave the data type handling to the client\n     */\n    function getRowValue(bytes32 fieldIdTableKey) external view returns (bytes32) {\n\n        if (database.containsKey(fieldIdTableKey)) {\n            return database.getBytes32ForKey(fieldIdTableKey);\n        } else {\n            return bytes32(0);\n        }\n    }\n\n    function getRowValueVar(bytes32 fieldIdTableKey) external view returns (bytes memory) {\n\n        if (database.containsKey(fieldIdTableKey)) {\n            return database.getBytesForKey(fieldIdTableKey);\n        } else {\n            return new bytes(0);\n        }\n    }\n\n    /**\n     * @dev Warning this produces an Error: overflow (operation=\"setValue\", fault=\"overflow\", details=\"Number can only safely store up to 53 bits\")\n     *      if the table doesn't exist\n     */\n    function getTableIds(bytes32 tableKey) external view returns (bytes32[] memory){\n\n        require(table.containsKey(tableKey) == true, \"table not created\");\n\n        return table.enumerateForKey(tableKey);\n    }\n\n    function isNamehashSubOf(bytes32 subKey, bytes32 base, bytes32 target) internal pure returns (bool) {\n\n        bytes memory concat = new bytes(64);\n\n        assembly {\n            mstore(add(concat, 64), subKey)\n            mstore(add(concat, 32), base)\n        }\n\n        bytes32 result = keccak256(concat);\n\n        return result == target;\n    }\n\n    // ************************************* _TABLE FUNCTIONS *************************************\n    function getTableMetadata(bytes32 _tableKey)\n        view\n        public\n        returns (uint256 permission, address delegate)\n    {\n        require(_table[_tableKey] > 0, \"table does not exist\");\n\n        uint256 tableMetadata = uint256(_table[_tableKey]);\n\n        permission = uint256(uint8(tableMetadata));\n        delegate = address(tableMetadata>>8);\n    }\n\n    function setTableMetadata(bytes32 _tableKey, uint8 permission, address delegate) private onlyOwner {\n        uint256 tableMetadata;\n\n        tableMetadata |= permission;\n        tableMetadata |= uint160(delegate)<<8;\n\n        _table[_tableKey] = bytes32(tableMetadata);\n    }\n\n    // ************************************* MISC FUNCTIONS *************************************\n\n    function() external payable {}\n\n    // ************************************* GSN FUNCTIONS *************************************\n\n    /**\n     * As a first layer of defense we employ a max number of checks per day\n     */\n    function acceptRelayedCall(\n        address relay,\n        address from,\n        bytes calldata encodedFunction,\n        uint256 transactionFee,\n        uint256 gasPrice,\n        uint256 gasLimit,\n        uint256 nonce,\n        bytes calldata approvalData,\n        uint256 maxPossibleCharge\n    ) external view returns (uint256, bytes memory) {\n\n        bytes32 curDateHashed = getGsnCounter();\n\n        // check gsnCounter for today and compare to limit\n        uint256 curCounter = gsnCounter[curDateHashed];\n\n        if (curCounter >= gsnMaxCallsPerDay){\n            return _rejectRelayedCall(2);\n        }\n\n\n        return _approveRelayedCall();\n    }\n\n    function setGsnMaxCallsPerDay(uint256 max) external onlyOwner {\n        gsnMaxCallsPerDay = uint40(max);\n    }\n\n    /*\n    event GsnCounterIncrease (\n        address indexed _from,\n        bytes4 indexed curDate\n    );\n    */\n\n    /**\n     * Increase the GSN Counter for today\n     */\n    function increaseGsnCounter() internal {\n\n        bytes32 curDateHashed = getGsnCounter();\n\n        uint256 curCounter = gsnCounter[curDateHashed];\n\n        gsnCounter[curDateHashed] = curCounter + 1;\n\n        // emit GsnCounterIncrease(_msgSender(), bytes4(uint32(curDate)));\n    }\n\n    /*\n     *\n     */\n    function getGsnCounter() internal view returns (bytes32 curDateHashed) {\n\n        uint256 curDate;\n\n        uint16 year = dateTime.getYear(now);\n        uint8 month = dateTime.getMonth(now);\n        uint8 day = dateTime.getDay(now);\n\n        curDate |= year;\n        curDate |= uint256(month)<<16;\n        curDate |= uint256(day)<<24;\n\n        curDateHashed = keccak256(abi.encodePacked(curDate));\n    }\n\n    // We won't do any pre or post processing, so leave _preRelayedCall and _postRelayedCall empty\n    function _preRelayedCall(bytes memory context) internal returns (bytes32) {\n    }\n\n    function _postRelayedCall(bytes memory context, bool, uint256 actualCharge, bytes32) internal {\n    }\n\n    /**\n     * @dev Withdraw a specific amount of the GSNReceipient funds\n     * @param amt Amount of wei to withdraw\n     * @param dest This is the arbitrary withdrawal destination address\n     */\n    function withdraw(uint256 amt, address payable dest) public onlyOwner {\n        IRelayHubELA relayHub = getRelayHub();\n        relayHub.withdraw(amt, dest);\n    }\n\n    /**\n     * @dev Withdraw all the GSNReceipient funds\n     * @param dest This is the arbitrary withdrawal destination address\n     */\n    function withdrawAll(address payable dest) public onlyOwner returns (uint256) {\n        IRelayHubELA relayHub = getRelayHub();\n        uint256 balance = getRelayHub().balanceOf(address(this));\n        relayHub.withdraw(balance, dest);\n        return balance;\n    }\n\n    function getGSNBalance() public view returns (uint256) {\n        return getRelayHub().balanceOf(address(this));\n    }\n\n    function getRelayHub() internal view returns (IRelayHubELA) {\n        return IRelayHubELA(_getRelayHub());\n    }\n}\n",
  "sourcePath": "contracts/ELAJSStore.sol",
  "abi": [
    {
      "constant": false,
      "inputs": [
        {
          "name": "amt",
          "type": "uint256"
        },
        {
          "name": "dest",
          "type": "address"
        }
      ],
      "name": "withdraw",
      "outputs": [],
      "payable": false,
      "stateMutability": "nonpayable",
      "type": "function"
    },
    {
      "constant": true,
      "inputs": [],
      "name": "gsnMaxCallsPerDay",
      "outputs": [
        {
          "name": "",
          "type": "uint40"
        }
      ],
      "payable": false,
      "stateMutability": "view",
      "type": "function"
    },
    {
      "constant": false,
      "inputs": [
        {
          "name": "tableKey",
          "type": "bytes32"
        },
        {
          "name": "idTableKey",
          "type": "bytes32"
        },
        {
          "name": "fieldIdTableKey",
          "type": "bytes32"
        },
        {
          "name": "idKey",
          "type": "bytes32"
        },
        {
          "name": "fieldKey",
          "type": "bytes32"
        },
        {
          "name": "id",
          "type": "bytes32"
        },
        {
          "name": "val",
          "type": "bytes"
        }
      ],
      "name": "insertValVar",
      "outputs": [],
      "payable": false,
      "stateMutability": "nonpayable",
      "type": "function"
    },
    {
      "constant": true,
      "inputs": [
        {
          "name": "key",
          "type": "bytes32"
        }
      ],
      "name": "checkDataKey",
      "outputs": [
        {
          "name": "",
          "type": "bool"
        }
      ],
      "payable": false,
      "stateMutability": "view",
      "type": "function"
    },
    {
      "constant": false,
      "inputs": [
        {
          "name": "idTableKey",
          "type": "bytes32"
        }
      ],
      "name": "getRowOwner",
      "outputs": [
        {
          "name": "rowOwner",
          "type": "address"
        },
        {
          "name": "createdDate",
          "type": "bytes4"
        }
      ],
      "payable": false,
      "stateMutability": "nonpayable",
      "type": "function"
    },
    {
      "constant": false,
      "inputs": [
        {
          "name": "tableName",
          "type": "bytes32"
        },
        {
          "name": "tableKey",
          "type": "bytes32"
        },
        {
          "name": "permission",
          "type": "uint8"
        },
        {
          "name": "_columnName",
          "type": "bytes32[]"
        },
        {
          "name": "_columnDtype",
          "type": "bytes32[]"
        }
      ],
      "name": "createTable",
      "outputs": [],
      "payable": false,
      "stateMutability": "nonpayable",
      "type": "function"
    },
    {
      "constant": true,
      "inputs": [],
      "name": "getGSNBalance",
      "outputs": [
        {
          "name": "",
          "type": "uint256"
        }
      ],
      "payable": false,
      "stateMutability": "view",
      "type": "function"
    },
    {
      "constant": true,
      "inputs": [],
      "name": "schemasTables",
      "outputs": [
        {
          "name": "",
          "type": "bytes32"
        }
      ],
      "payable": false,
      "stateMutability": "view",
      "type": "function"
    },
    {
      "constant": true,
      "inputs": [
        {
          "name": "tableKey",
          "type": "bytes32"
        }
      ],
      "name": "tableExists",
      "outputs": [
        {
          "name": "",
          "type": "bool"
        }
      ],
      "payable": false,
      "stateMutability": "view",
      "type": "function"
    },
    {
      "constant": true,
      "inputs": [
        {
          "name": "",
          "type": "bytes32"
        }
      ],
      "name": "gsnCounter",
      "outputs": [
        {
          "name": "",
          "type": "uint256"
        }
      ],
      "payable": false,
      "stateMutability": "view",
      "type": "function"
    },
    {
      "constant": false,
      "inputs": [
        {
          "name": "tableKey",
          "type": "bytes32"
        },
        {
          "name": "idTableKey",
          "type": "bytes32"
        },
        {
          "name": "fieldIdTableKey",
          "type": "bytes32"
        },
        {
          "name": "idKey",
          "type": "bytes32"
        },
        {
          "name": "fieldKey",
          "type": "bytes32"
        },
        {
          "name": "id",
          "type": "bytes32"
        },
        {
          "name": "val",
          "type": "bytes32"
        }
      ],
      "name": "updateVal",
      "outputs": [],
      "payable": false,
      "stateMutability": "nonpayable",
      "type": "function"
    },
    {
      "constant": true,
      "inputs": [
        {
          "name": "fieldIdTableKey",
          "type": "bytes32"
        }
      ],
      "name": "getRowValue",
      "outputs": [
        {
          "name": "",
          "type": "bytes32"
        }
      ],
      "payable": false,
      "stateMutability": "view",
      "type": "function"
    },
    {
      "constant": false,
      "inputs": [],
      "name": "renounceOwnership",
      "outputs": [],
      "payable": false,
      "stateMutability": "nonpayable",
      "type": "function"
    },
    {
      "constant": true,
      "inputs": [],
      "name": "getHubAddr",
      "outputs": [
        {
          "name": "",
          "type": "address"
        }
      ],
      "payable": false,
      "stateMutability": "view",
      "type": "function"
    },
    {
      "constant": false,
      "inputs": [
        {
          "name": "context",
          "type": "bytes"
        }
      ],
      "name": "preRelayedCall",
      "outputs": [
        {
          "name": "",
          "type": "bytes32"
        }
      ],
      "payable": false,
      "stateMutability": "nonpayable",
      "type": "function"
    },
    {
      "constant": false,
      "inputs": [],
      "name": "initialize",
      "outputs": [],
      "payable": false,
      "stateMutability": "nonpayable",
      "type": "function"
    },
    {
      "constant": true,
      "inputs": [
        {
          "name": "relay",
          "type": "address"
        },
        {
          "name": "from",
          "type": "address"
        },
        {
          "name": "encodedFunction",
          "type": "bytes"
        },
        {
          "name": "transactionFee",
          "type": "uint256"
        },
        {
          "name": "gasPrice",
          "type": "uint256"
        },
        {
          "name": "gasLimit",
          "type": "uint256"
        },
        {
          "name": "nonce",
          "type": "uint256"
        },
        {
          "name": "approvalData",
          "type": "bytes"
        },
        {
          "name": "maxPossibleCharge",
          "type": "uint256"
        }
      ],
      "name": "acceptRelayedCall",
      "outputs": [
        {
          "name": "",
          "type": "uint256"
        },
        {
          "name": "",
          "type": "bytes"
        }
      ],
      "payable": false,
      "stateMutability": "view",
      "type": "function"
    },
    {
      "constant": true,
      "inputs": [],
      "name": "owner",
      "outputs": [
        {
          "name": "",
          "type": "address"
        }
      ],
      "payable": false,
      "stateMutability": "view",
      "type": "function"
    },
    {
      "constant": true,
      "inputs": [],
      "name": "isOwner",
      "outputs": [
        {
          "name": "",
          "type": "bool"
        }
      ],
      "payable": false,
      "stateMutability": "view",
      "type": "function"
    },
    {
      "constant": false,
      "inputs": [
        {
          "name": "tableKey",
          "type": "bytes32"
        },
        {
          "name": "idTableKey",
          "type": "bytes32"
        },
        {
          "name": "fieldIdTableKey",
          "type": "bytes32"
        },
        {
          "name": "idKey",
          "type": "bytes32"
        },
        {
          "name": "fieldKey",
          "type": "bytes32"
        },
        {
          "name": "id",
          "type": "bytes32"
        },
        {
          "name": "val",
          "type": "bytes32"
        }
      ],
      "name": "insertVal",
      "outputs": [],
      "payable": false,
      "stateMutability": "nonpayable",
      "type": "function"
    },
    {
      "constant": true,
      "inputs": [
        {
          "name": "_name",
          "type": "bytes32"
        }
      ],
      "name": "getSchema",
      "outputs": [
        {
          "components": [
            {
              "name": "name",
              "type": "bytes32"
            },
            {
              "components": [
                {
                  "name": "name",
                  "type": "bytes32"
                },
                {
                  "name": "_dtype",
                  "type": "bytes32"
                }
              ],
              "name": "columns",
              "type": "tuple[]"
            }
          ],
          "name": "",
          "type": "tuple"
        }
      ],
      "payable": false,
      "stateMutability": "view",
      "type": "function"
    },
    {
      "constant": true,
      "inputs": [],
      "name": "relayHubVersion",
      "outputs": [
        {
          "name": "",
          "type": "string"
        }
      ],
      "payable": false,
      "stateMutability": "view",
      "type": "function"
    },
    {
      "constant": false,
      "inputs": [
        {
          "name": "max",
          "type": "uint256"
        }
      ],
      "name": "setGsnMaxCallsPerDay",
      "outputs": [],
      "payable": false,
      "stateMutability": "nonpayable",
      "type": "function"
    },
    {
      "constant": true,
      "inputs": [
        {
          "name": "tableKey",
          "type": "bytes32"
        }
      ],
      "name": "getTableIds",
      "outputs": [
        {
          "name": "",
          "type": "bytes32[]"
        }
      ],
      "payable": false,
      "stateMutability": "view",
      "type": "function"
    },
    {
      "constant": false,
      "inputs": [
        {
          "name": "sender",
          "type": "address"
        }
      ],
      "name": "initialize",
      "outputs": [],
      "payable": false,
      "stateMutability": "nonpayable",
      "type": "function"
    },
    {
      "constant": true,
      "inputs": [],
      "name": "dateTimeAddr",
      "outputs": [
        {
          "name": "",
          "type": "address"
        }
      ],
      "payable": false,
      "stateMutability": "view",
      "type": "function"
    },
    {
      "constant": true,
      "inputs": [
        {
          "name": "_tableKey",
          "type": "bytes32"
        }
      ],
      "name": "getTableMetadata",
      "outputs": [
        {
          "name": "permission",
          "type": "uint256"
        },
        {
          "name": "delegate",
          "type": "address"
        }
      ],
      "payable": false,
      "stateMutability": "view",
      "type": "function"
    },
    {
      "constant": false,
      "inputs": [
        {
          "name": "context",
          "type": "bytes"
        },
        {
          "name": "success",
          "type": "bool"
        },
        {
          "name": "actualCharge",
          "type": "uint256"
        },
        {
          "name": "preRetVal",
          "type": "bytes32"
        }
      ],
      "name": "postRelayedCall",
      "outputs": [],
      "payable": false,
      "stateMutability": "nonpayable",
      "type": "function"
    },
    {
      "constant": false,
      "inputs": [
        {
          "name": "tableKey",
          "type": "bytes32"
        },
        {
          "name": "idTableKey",
          "type": "bytes32"
        },
        {
          "name": "idKey",
          "type": "bytes32"
        },
        {
          "name": "id",
          "type": "bytes32"
        }
      ],
      "name": "deleteRow",
      "outputs": [],
      "payable": false,
      "stateMutability": "nonpayable",
      "type": "function"
    },
    {
      "constant": true,
      "inputs": [
        {
          "name": "fieldIdTableKey",
          "type": "bytes32"
        }
      ],
      "name": "getRowValueVar",
      "outputs": [
        {
          "name": "",
          "type": "bytes"
        }
      ],
      "payable": false,
      "stateMutability": "view",
      "type": "function"
    },
    {
      "constant": false,
      "inputs": [
        {
          "name": "newOwner",
          "type": "address"
        }
      ],
      "name": "transferOwnership",
      "outputs": [],
      "payable": false,
      "stateMutability": "nonpayable",
      "type": "function"
    },
    {
      "constant": false,
      "inputs": [
        {
          "name": "dest",
          "type": "address"
        }
      ],
      "name": "withdrawAll",
      "outputs": [
        {
          "name": "",
          "type": "uint256"
        }
      ],
      "payable": false,
      "stateMutability": "nonpayable",
      "type": "function"
    },
    {
      "constant": false,
      "inputs": [
        {
          "name": "tableKey",
          "type": "bytes32"
        },
        {
          "name": "idTableKey",
          "type": "bytes32"
        },
        {
          "name": "idKey",
          "type": "bytes32"
        },
        {
          "name": "id",
          "type": "bytes32"
        },
        {
          "name": "fieldKey",
          "type": "bytes32"
        },
        {
          "name": "fieldIdTableKey",
          "type": "bytes32"
        }
      ],
      "name": "deleteVal",
      "outputs": [],
      "payable": false,
      "stateMutability": "nonpayable",
      "type": "function"
    },
    {
      "payable": true,
      "stateMutability": "payable",
      "type": "fallback"
    },
    {
      "anonymous": false,
      "inputs": [
        {
          "indexed": true,
          "name": "_id",
          "type": "bytes32"
        },
        {
          "indexed": true,
          "name": "_tableKey",
          "type": "bytes32"
        },
        {
          "indexed": true,
          "name": "_rowOwner",
          "type": "address"
        }
      ],
      "name": "InsertRow",
      "type": "event"
    },
    {
      "anonymous": false,
      "inputs": [
        {
          "indexed": true,
          "name": "oldRelayHub",
          "type": "address"
        },
        {
          "indexed": true,
          "name": "newRelayHub",
          "type": "address"
        }
      ],
      "name": "RelayHubChanged",
      "type": "event"
    },
    {
      "anonymous": false,
      "inputs": [
        {
          "indexed": true,
          "name": "previousOwner",
          "type": "address"
        },
        {
          "indexed": true,
          "name": "newOwner",
          "type": "address"
        }
      ],
      "name": "OwnershipTransferred",
      "type": "event"
    }
  ],
  "bytecode": "0x6080604052739c71b2e820b067ea466ea81c0cd6852bc8d8604e606660006101000a81548173ffffffffffffffffffffffffffffffffffffffff021916908373ffffffffffffffffffffffffffffffffffffffff160217905550606660009054906101000a900473ffffffffffffffffffffffffffffffffffffffff16606760006101000a81548173ffffffffffffffffffffffffffffffffffffffff021916908373ffffffffffffffffffffffffffffffffffffffff160217905550615d40806100cb6000396000f3fe6080604052600436106101a0576000357c0100000000000000000000000000000000000000000000000000000000900463ffffffff168062f714ce146101a257806301ee810a146101cb57806319de937a146101f65780631fd6dda51461021f578063287e72461461025c578063365628a21461029a5780633c2e8599146102c35780634102fbf6146102ee5780634635c2e61461031957806359cb73a414610356578063621d114e146103935780636729003c146103bc578063715018a6146103f957806374e861d61461041057806380274db71461043b5780638129fc1c1461047857806383947ea01461048f5780638da5cb5b146104cd5780638f32d59b146104f857806392e8aa6b14610523578063a2ea7c6e1461054c578063ad61ccd514610589578063bc41c3dd146105b4578063c2309bf9146105dd578063c4d66de81461061a578063d2c5ce3114610643578063d887f1051461066e578063e06e0e22146106ac578063e293d817146106d5578063e3c504e4146106fe578063f2fde38b1461073b578063fa09e63014610764578063fc4812f2146107a1575b005b3480156101ae57600080fd5b506101c960048036036101c49190810190614b36565b6107ca565b005b3480156101d757600080fd5b506101e06108ac565b6040516101ed9190615a81565b60405180910390f35b34801561020257600080fd5b5061021d60048036036102189190810190614899565b6108c3565b005b34801561022b57600080fd5b50610246600480360361024191908101906146e6565b610af9565b60405161025391906155c8565b60405180910390f35b34801561026857600080fd5b50610283600480360361027e91908101906146e6565b610b16565b60405161029192919061557d565b60405180910390f35b3480156102a657600080fd5b506102c160048036036102bc919081019061494f565b610b2b565b005b3480156102cf57600080fd5b506102d8610c1d565b6040516102e591906159e4565b60405180910390f35b3480156102fa57600080fd5b50610303610cd0565b60405161031091906155e3565b60405180910390f35b34801561032557600080fd5b50610340600480360361033b91908101906146e6565b610cf7565b60405161034d91906155c8565b60405180910390f35b34801561036257600080fd5b5061037d600480360361037891908101906146e6565b610d14565b60405161038a91906159e4565b60405180910390f35b34801561039f57600080fd5b506103ba60048036036103b591908101906147fb565b610d2c565b005b3480156103c857600080fd5b506103e360048036036103de91908101906146e6565b611055565b6040516103f091906155e3565b60405180910390f35b34801561040557600080fd5b5061040e611098565b005b34801561041c57600080fd5b506104256111a2565b6040516104329190615547565b60405180910390f35b34801561044757600080fd5b50610462600480360361045d91908101906149f6565b6111b1565b60405161046f91906155e3565b60405180910390f35b34801561048457600080fd5b5061048d61127f565b005b34801561049b57600080fd5b506104b660048036036104b191908101906145e6565b611383565b6040516104c4929190615a51565b60405180910390f35b3480156104d957600080fd5b506104e2611402565b6040516104ef9190615547565b60405180910390f35b34801561050457600080fd5b5061050d61142c565b60405161051a91906155c8565b60405180910390f35b34801561052f57600080fd5b5061054a600480360361054591908101906147fb565b61148b565b005b34801561055857600080fd5b50610573600480360361056e91908101906146e6565b6116ed565b60405161058091906159c2565b60405180910390f35b34801561059557600080fd5b5061059e61171e565b6040516105ab9190615620565b60405180910390f35b3480156105c057600080fd5b506105db60048036036105d69190810190614ae4565b61175b565b005b3480156105e957600080fd5b5061060460048036036105ff91908101906146e6565b6117ca565b60405161061191906155a6565b60405180910390f35b34801561062657600080fd5b50610641600480360361063c9190810190614594565b611843565b005b34801561064f57600080fd5b506106586119ed565b6040516106659190615547565b60405180910390f35b34801561067a57600080fd5b50610695600480360361069091908101906146e6565b611a13565b6040516106a39291906159ff565b60405180910390f35b3480156106b857600080fd5b506106d360048036036106ce9190810190614a3b565b611aa8565b005b3480156106e157600080fd5b506106fc60048036036106f7919081019061470f565b611b76565b005b34801561070a57600080fd5b50610725600480360361072091908101906146e6565b611e44565b60405161073291906155fe565b60405180910390f35b34801561074757600080fd5b50610762600480360361075d9190810190614594565b611eb7565b005b34801561077057600080fd5b5061078b600480360361078691908101906145bd565b611f0c565b60405161079891906159e4565b60405180910390f35b3480156107ad57600080fd5b506107c860048036036107c39190810190614772565b6120a5565b005b6107d261142c565b1515610813576040517f08c379a000000000000000000000000000000000000000000000000000000000815260040161080a90615822565b60405180910390fd5b600061081d612413565b90508073ffffffffffffffffffffffffffffffffffffffff1662f714ce84846040518363ffffffff167c0100000000000000000000000000000000000000000000000000000000028152600401610875929190615a28565b600060405180830381600087803b15801561088f57600080fd5b505af11580156108a3573d6000803e3d6000fd5b50505050505050565b606960009054906101000a900464ffffffffff1681565b8684876000806108d285611a13565b9150915060008211151561091b576040517f08c379a0000000000000000000000000000000000000000000000000000000008152600401610912906156e2565b60405180910390fd5b600182118061093557506001151561093161142c565b1515145b806109725750610943612422565b73ffffffffffffffffffffffffffffffffffffffff168173ffffffffffffffffffffffffffffffffffffffff16145b15156109b3576040517f08c379a00000000000000000000000000000000000000000000000000000000081526004016109aa906157e2565b60405180910390fd5b600115156109c2858786612476565b1515141515610a06576040517f08c379a00000000000000000000000000000000000000000000000000000000081526004016109fd90615702565b60405180910390fd5b60001515610a1e8b606e6124d690919063ffffffff16565b1515141515610a62576040517f08c379a0000000000000000000000000000000000000000000000000000000008152600401610a5990615862565b60405180910390fd5b60011515610a71898d8d612476565b1515141515610ab5576040517f08c379a0000000000000000000000000000000000000000000000000000000008152600401610aac906159a2565b60405180910390fd5b610abd61254d565b610ad38c88606b6125909092919063ffffffff16565b50610aea8a87606e6125db9092919063ffffffff16565b50505050505050505050505050565b6000610b0f82606e6124d690919063ffffffff16565b9050919050565b600080610b2283612706565b91509150915091565b610b3361142c565b1515610b74576040517f08c379a0000000000000000000000000000000000000000000000000000000008152600401610b6b90615822565b60405180910390fd5b6000600102606a600086815260200190815260200160002054141515610bcf576040517f08c379a0000000000000000000000000000000000000000000000000000000008152600401610bc6906158c2565b60405180910390fd5b6000809050610bdf85858361275c565b610bf385606b61280890919063ffffffff16565b50610bfc61426f565b610c07878585612828565b9050610c1386826128a5565b5050505050505050565b6000610c27612413565b73ffffffffffffffffffffffffffffffffffffffff166370a08231306040518263ffffffff167c0100000000000000000000000000000000000000000000000000000000028152600401610c7b9190615562565b60206040518083038186803b158015610c9357600080fd5b505afa158015610ca7573d6000803e3d6000fd5b505050506040513d601f19601f82011682018060405250610ccb9190810190614b0d565b905090565b7f736368656d61732e7075626c69632e7461626c6573000000000000000000000060010281565b6000610d0d82606b6128d390919063ffffffff16565b9050919050565b60686020528060005260406000206000915090505481565b868487600080610d3b85611a13565b91509150600082111515610d84576040517f08c379a0000000000000000000000000000000000000000000000000000000008152600401610d7b906156a2565b60405180910390fd5b6001821180610d9e575060011515610d9a61142c565b1515145b80610ddb5750610dac612422565b73ffffffffffffffffffffffffffffffffffffffff168173ffffffffffffffffffffffffffffffffffffffff16145b1515610e1c576040517f08c379a0000000000000000000000000000000000000000000000000000000008152600401610e1390615742565b60405180910390fd5b60011515610e2b858786612476565b1515141515610e6f576040517f08c379a0000000000000000000000000000000000000000000000000000000008152600401610e6690615702565b60405180910390fd5b600282101515610f77576000610e8f84606e6128f390919063ffffffff16565b9050600060208260019004908060020a82049150509050610eae612422565b73ffffffffffffffffffffffffffffffffffffffff168173ffffffffffffffffffffffffffffffffffffffff161415610ee657610f74565b60011515610ef261142c565b15151480610f325750610f03612422565b73ffffffffffffffffffffffffffffffffffffffff168373ffffffffffffffffffffffffffffffffffffffff16145b1515610f73576040517f08c379a0000000000000000000000000000000000000000000000000000000008152600401610f6a906157c2565b60405180910390fd5b5b50505b60011515610f918d89606b6129139092919063ffffffff16565b1515141515610fd5576040517f08c379a0000000000000000000000000000000000000000000000000000000008152600401610fcc90615942565b60405180910390fd5b60011515610fe4898d8d612476565b1515141515611028576040517f08c379a000000000000000000000000000000000000000000000000000000000815260040161101f906159a2565b60405180910390fd5b61103061254d565b6110468a87606e61295e9092919063ffffffff16565b50505050505050505050505050565b600061106b82606e6124d690919063ffffffff16565b1561108b5761108482606e6128f390919063ffffffff16565b9050611093565b600060010290505b919050565b6110a061142c565b15156110e1576040517f08c379a00000000000000000000000000000000000000000000000000000000081526004016110d890615822565b60405180910390fd5b600073ffffffffffffffffffffffffffffffffffffffff16603360009054906101000a900473ffffffffffffffffffffffffffffffffffffffff1673ffffffffffffffffffffffffffffffffffffffff167f8be0079c531659141344cd1fd0a4f28419497f9722a3daafe3b4186f6b6457e060405160405180910390a36000603360006101000a81548173ffffffffffffffffffffffffffffffffffffffff021916908373ffffffffffffffffffffffffffffffffffffffff160217905550565b60006111ac612a89565b905090565b60006111bb6111a2565b73ffffffffffffffffffffffffffffffffffffffff163373ffffffffffffffffffffffffffffffffffffffff1614151561122a576040517f08c379a000000000000000000000000000000000000000000000000000000000815260040161122190615662565b60405180910390fd5b61127783838080601f016020809104026020016040519081016040528093929190818152602001838380828437600081840152601f19601f82011690508083019250505050505050612aba565b905092915050565b600060019054906101000a900460ff168061129e575061129d612ac1565b5b806112b557506000809054906101000a900460ff16155b15156112f6576040517f08c379a00000000000000000000000000000000000000000000000000000000081526004016112ed90615842565b60405180910390fd5b60008060019054906101000a900460ff161590508015611346576001600060016101000a81548160ff02191690831515021790555060016000806101000a81548160ff0219169083151502179055505b61134f33611843565b611357612ad8565b61135f612bcb565b80156113805760008060016101000a81548160ff0219169083151502179055505b50565b600060606000611391612bf2565b9050600060686000838152602001908152602001600020549050606960009054906101000a900464ffffffffff1664ffffffffff16811015156113e3576113d86002612ead565b9350935050506113f2565b6113eb612ecf565b9350935050505b9b509b9950505050505050505050565b6000603360009054906101000a900473ffffffffffffffffffffffffffffffffffffffff16905090565b6000603360009054906101000a900473ffffffffffffffffffffffffffffffffffffffff1673ffffffffffffffffffffffffffffffffffffffff1661146f612422565b73ffffffffffffffffffffffffffffffffffffffff1614905090565b86848760008061149a85611a13565b915091506000821115156114e3576040517f08c379a00000000000000000000000000000000000000000000000000000000081526004016114da906156e2565b60405180910390fd5b60018211806114fd5750600115156114f961142c565b1515145b8061153a575061150b612422565b73ffffffffffffffffffffffffffffffffffffffff168173ffffffffffffffffffffffffffffffffffffffff16145b151561157b576040517f08c379a0000000000000000000000000000000000000000000000000000000008152600401611572906157e2565b60405180910390fd5b6001151561158a858786612476565b15151415156115ce576040517f08c379a00000000000000000000000000000000000000000000000000000000081526004016115c590615702565b60405180910390fd5b600015156115e68b606e6124d690919063ffffffff16565b151514151561162a576040517f08c379a000000000000000000000000000000000000000000000000000000000815260040161162190615862565b60405180910390fd5b60011515611639898d8d612476565b151514151561167d576040517f08c379a0000000000000000000000000000000000000000000000000000000008152600401611674906159a2565b60405180910390fd5b61168561254d565b61169b8c88606b6125909092919063ffffffff16565b50600015156116b48c606e6124d690919063ffffffff16565b151514156116c8576116c78b888e612ef4565b5b6116de8a87606e61295e9092919063ffffffff16565b50505050505050505050505050565b6116f561426f565b606061170b83606e61329690919063ffffffff16565b9050611716816132b6565b915050919050565b60606040805190810160405280600581526020017f312e302e30000000000000000000000000000000000000000000000000000000815250905090565b61176361142c565b15156117a4576040517f08c379a000000000000000000000000000000000000000000000000000000000815260040161179b90615822565b60405180910390fd5b80606960006101000a81548164ffffffffff021916908364ffffffffff16021790555050565b6060600115156117e483606b6128d390919063ffffffff16565b1515141515611828576040517f08c379a000000000000000000000000000000000000000000000000000000000815260040161181f90615902565b60405180910390fd5b61183c82606b61335f90919063ffffffff16565b9050919050565b600060019054906101000a900460ff16806118625750611861612ac1565b5b8061187957506000809054906101000a900460ff16155b15156118ba576040517f08c379a00000000000000000000000000000000000000000000000000000000081526004016118b190615842565b60405180910390fd5b60008060019054906101000a900460ff16159050801561190a576001600060016101000a81548160ff02191690831515021790555060016000806101000a81548160ff0219169083151502179055505b81603360006101000a81548173ffffffffffffffffffffffffffffffffffffffff021916908373ffffffffffffffffffffffffffffffffffffffff160217905550603360009054906101000a900473ffffffffffffffffffffffffffffffffffffffff1673ffffffffffffffffffffffffffffffffffffffff16600073ffffffffffffffffffffffffffffffffffffffff167f8be0079c531659141344cd1fd0a4f28419497f9722a3daafe3b4186f6b6457e060405160405180910390a380156119e95760008060016101000a81548160ff0219169083151502179055505b5050565b606660009054906101000a900473ffffffffffffffffffffffffffffffffffffffff1681565b6000806000600102606a600085815260200190815260200160002054111515611a71576040517f08c379a0000000000000000000000000000000000000000000000000000000008152600401611a6890615962565b60405180910390fd5b6000606a6000858152602001908152602001600020546001900490508060ff169250600881908060020a8204915050915050915091565b611ab06111a2565b73ffffffffffffffffffffffffffffffffffffffff163373ffffffffffffffffffffffffffffffffffffffff16141515611b1f576040517f08c379a0000000000000000000000000000000000000000000000000000000008152600401611b1690615662565b60405180910390fd5b611b6f85858080601f016020809104026020016040519081016040528093929190818152602001838380828437600081840152601f19601f820116905080830192505050505050508484846133ce565b5050505050565b8383838360011515611b948583606b6129139092919063ffffffff16565b1515141515611bd8576040517f08c379a0000000000000000000000000000000000000000000000000000000008152600401611bcf906158e2565b60405180910390fd5b600080611be486611a13565b91509150600082111515611c2d576040517f08c379a0000000000000000000000000000000000000000000000000000000008152600401611c2490615682565b60405180910390fd5b6001821180611c47575060011515611c4361142c565b1515145b80611c845750611c55612422565b73ffffffffffffffffffffffffffffffffffffffff168173ffffffffffffffffffffffffffffffffffffffff16145b1515611cc5576040517f08c379a0000000000000000000000000000000000000000000000000000000008152600401611cbc90615882565b60405180910390fd5b60011515611cd4858888612476565b1515141515611d18576040517f08c379a0000000000000000000000000000000000000000000000000000000008152600401611d0f90615702565b60405180910390fd5b600282101515611e1957611d2a61142c565b80611d675750611d38612422565b73ffffffffffffffffffffffffffffffffffffffff168173ffffffffffffffffffffffffffffffffffffffff16145b15611d7157611e18565b6000611d8786606e6128f390919063ffffffff16565b9050600060208260019004908060020a82049150509050611da6612422565b73ffffffffffffffffffffffffffffffffffffffff168173ffffffffffffffffffffffffffffffffffffffff16141515611e15576040517f08c379a0000000000000000000000000000000000000000000000000000000008152600401611e0c90615982565b60405180910390fd5b50505b5b611e2161254d565b611e378a88606b6133d49092919063ffffffff16565b5050505050505050505050565b6060611e5a82606e6124d690919063ffffffff16565b15611e7a57611e7382606e61329690919063ffffffff16565b9050611eb2565b60006040519080825280601f01601f191660200182016040528015611eae5781602001600182028038833980820191505090505b5090505b919050565b611ebf61142c565b1515611f00576040517f08c379a0000000000000000000000000000000000000000000000000000000008152600401611ef790615822565b60405180910390fd5b611f098161341f565b50565b6000611f1661142c565b1515611f57576040517f08c379a0000000000000000000000000000000000000000000000000000000008152600401611f4e90615822565b60405180910390fd5b6000611f61612413565b90506000611f6d612413565b73ffffffffffffffffffffffffffffffffffffffff166370a08231306040518263ffffffff167c0100000000000000000000000000000000000000000000000000000000028152600401611fc19190615562565b60206040518083038186803b158015611fd957600080fd5b505afa158015611fed573d6000803e3d6000fd5b505050506040513d601f19601f820116820180604052506120119190810190614b0d565b90508173ffffffffffffffffffffffffffffffffffffffff1662f714ce82866040518363ffffffff167c0100000000000000000000000000000000000000000000000000000000028152600401612069929190615a28565b600060405180830381600087803b15801561208357600080fd5b505af1158015612097573d6000803e3d6000fd5b505050508092505050919050565b85858585600115156120c38583606b6129139092919063ffffffff16565b1515141515612107576040517f08c379a00000000000000000000000000000000000000000000000000000000081526004016120fe906158e2565b60405180910390fd5b60008061211386611a13565b9150915060008211151561215c576040517f08c379a000000000000000000000000000000000000000000000000000000000815260040161215390615682565b60405180910390fd5b600182118061217657506001151561217261142c565b1515145b806121b35750612184612422565b73ffffffffffffffffffffffffffffffffffffffff168173ffffffffffffffffffffffffffffffffffffffff16145b15156121f4576040517f08c379a00000000000000000000000000000000000000000000000000000000081526004016121eb90615882565b60405180910390fd5b60011515612203858888612476565b1515141515612247576040517f08c379a000000000000000000000000000000000000000000000000000000000815260040161223e90615702565b60405180910390fd5b6002821015156123485761225961142c565b806122965750612267612422565b73ffffffffffffffffffffffffffffffffffffffff168173ffffffffffffffffffffffffffffffffffffffff16145b156122a057612347565b60006122b686606e6128f390919063ffffffff16565b9050600060208260019004908060020a820491505090506122d5612422565b73ffffffffffffffffffffffffffffffffffffffff168173ffffffffffffffffffffffffffffffffffffffff16141515612344576040517f08c379a000000000000000000000000000000000000000000000000000000000815260040161233b90615982565b60405180910390fd5b50505b5b60011515612357898d8a612476565b151514151561239b576040517f08c379a0000000000000000000000000000000000000000000000000000000008152600401612392906159a2565b60405180910390fd5b6123a361254d565b60006123b988606e61355190919063ffffffff16565b905060011515811515141515612404576040517f08c379a00000000000000000000000000000000000000000000000000000000081526004016123fb90615802565b60405180910390fd5b50505050505050505050505050565b600061241d612a89565b905090565b600061242c612a89565b73ffffffffffffffffffffffffffffffffffffffff163373ffffffffffffffffffffffffffffffffffffffff1614151561246857339050612473565b6124706135c8565b90505b90565b60006060604080519080825280601f01601f1916602001820160405280156124ad5781602001600182028038833980820191505090505b509050846040820152836020820152600081805190602001209050838114925050509392505050565b60006124ee828460000161364090919063ffffffff16565b8061250b575061250a828460030161366090919063ffffffff16565b5b80612528575061252782846006016128d390919063ffffffff16565b5b806125455750612544828460090161368090919063ffffffff16565b5b905092915050565b6000612557612bf2565b90506000606860008381526020019081526020016000205490506001810160686000848152602001908152602001600020819055505050565b600061259c84846128d3565b156125cf576125c8828560000160008681526020019081526020016000206136a090919063ffffffff16565b90506125d4565b600090505b9392505050565b60006125f3838560000161364090919063ffffffff16565b151515612635576040517f08c379a000000000000000000000000000000000000000000000000000000000815260040161262c90615762565b60405180910390fd5b61264b83856006016128d390919063ffffffff16565b15151561268d576040517f08c379a000000000000000000000000000000000000000000000000000000000815260040161268490615762565b60405180910390fd5b6126a3838560090161368090919063ffffffff16565b1515156126e5576040517f08c379a00000000000000000000000000000000000000000000000000000000081526004016126dc90615762565b60405180910390fd5b6126fd83838660030161370c9092919063ffffffff16565b90509392505050565b600080600061271f84606e6128f390919063ffffffff16565b600190049050807c0100000000000000000000000000000000000000000000000000000000029150602081908060020a8204915050925050915091565b61276461142c565b15156127a5576040517f08c379a000000000000000000000000000000000000000000000000000000000815260040161279c90615822565b60405180910390fd5b60008260ff168117905060088273ffffffffffffffffffffffffffffffffffffffff169060020a0273ffffffffffffffffffffffffffffffffffffffff168117905080600102606a60008681526020019081526020016000208190555050505050565b600061282082846001016136a090919063ffffffff16565b905092915050565b61283061426f565b81518351141515612876576040517f08c379a000000000000000000000000000000000000000000000000000000000815260040161286d906157a2565b60405180910390fd5b61287e61426f565b848160000181815250506128928484613757565b8160200181905250809150509392505050565b600060606128b28361386d565b90506128ca8482606e6125db9092919063ffffffff16565b91505092915050565b60006128eb828460010161393d90919063ffffffff16565b905092915050565b600061290b828460000161396090919063ffffffff16565b905092915050565b600061291f84846128d3565b156129525761294b8285600001600086815260200190815260200160002061393d90919063ffffffff16565b9050612957565b600090505b9392505050565b6000612976838560030161366090919063ffffffff16565b1515156129b8576040517f08c379a00000000000000000000000000000000000000000000000000000000081526004016129af90615762565b60405180910390fd5b6129ce83856006016128d390919063ffffffff16565b151515612a10576040517f08c379a0000000000000000000000000000000000000000000000000000000008152600401612a0790615762565b60405180910390fd5b612a26838560090161368090919063ffffffff16565b151515612a68576040517f08c379a0000000000000000000000000000000000000000000000000000000008152600401612a5f90615762565b60405180910390fd5b612a808383866000016139cb9092919063ffffffff16565b90509392505050565b6000807f06b7792c761dcc05af1761f0315ce8b01ac39c16cc934eb0b2f7a8e71414f2626001029050805491505090565b6000919050565b6000803090506000813b9050600081149250505090565b600060019054906101000a900460ff1680612af75750612af6612ac1565b5b80612b0e57506000809054906101000a900460ff16155b1515612b4f576040517f08c379a0000000000000000000000000000000000000000000000000000000008152600401612b4690615842565b60405180910390fd5b60008060019054906101000a900460ff161590508015612b9f576001600060016101000a81548160ff02191690831515021790555060016000806101000a81548160ff0219169083151502179055505b612ba7613a06565b8015612bc85760008060016101000a81548160ff0219169083151502179055505b50565b6103e8606960006101000a81548164ffffffffff021916908364ffffffffff160217905550565b6000806000606760009054906101000a900473ffffffffffffffffffffffffffffffffffffffff1673ffffffffffffffffffffffffffffffffffffffff166392d66313426040518263ffffffff167c0100000000000000000000000000000000000000000000000000000000028152600401612c6e91906159e4565b60206040518083038186803b158015612c8657600080fd5b505afa158015612c9a573d6000803e3d6000fd5b505050506040513d601f19601f82011682018060405250612cbe9190810190614abb565b90506000606760009054906101000a900473ffffffffffffffffffffffffffffffffffffffff1673ffffffffffffffffffffffffffffffffffffffff1663a324ad24426040518263ffffffff167c0100000000000000000000000000000000000000000000000000000000028152600401612d3991906159e4565b60206040518083038186803b158015612d5157600080fd5b505afa158015612d65573d6000803e3d6000fd5b505050506040513d601f19601f82011682018060405250612d899190810190614b72565b90506000606760009054906101000a900473ffffffffffffffffffffffffffffffffffffffff1673ffffffffffffffffffffffffffffffffffffffff166365c72840426040518263ffffffff167c0100000000000000000000000000000000000000000000000000000000028152600401612e0491906159e4565b60206040518083038186803b158015612e1c57600080fd5b505afa158015612e30573d6000803e3d6000fd5b505050506040513d601f19601f82011682018060405250612e549190810190614b72565b90508261ffff168417935060108260ff169060020a028417935060188160ff169060020a028417935083604051602001808281526020019150506040516020818303038152906040528051906020012094505050505090565b6000606082600b01602060405190810160405280600081525091509150915091565b60006060612eec6020604051908101604052806000815250613b0e565b915091509091565b60001515612f0c84606e6124d690919063ffffffff16565b1515141515612f50576040517f08c379a0000000000000000000000000000000000000000000000000000000008152600401612f4790615782565b60405180910390fd5b600080606760009054906101000a900473ffffffffffffffffffffffffffffffffffffffff1673ffffffffffffffffffffffffffffffffffffffff166392d66313426040518263ffffffff167c0100000000000000000000000000000000000000000000000000000000028152600401612fca91906159e4565b60206040518083038186803b158015612fe257600080fd5b505afa158015612ff6573d6000803e3d6000fd5b505050506040513d601f19601f8201168201806040525061301a9190810190614abb565b90506000606760009054906101000a900473ffffffffffffffffffffffffffffffffffffffff1673ffffffffffffffffffffffffffffffffffffffff1663a324ad24426040518263ffffffff167c010000000000000000000000000000000000000000000000000000000002815260040161309591906159e4565b60206040518083038186803b1580156130ad57600080fd5b505afa1580156130c1573d6000803e3d6000fd5b505050506040513d601f19601f820116820180604052506130e59190810190614b72565b90506000606760009054906101000a900473ffffffffffffffffffffffffffffffffffffffff1673ffffffffffffffffffffffffffffffffffffffff166365c72840426040518263ffffffff167c010000000000000000000000000000000000000000000000000000000002815260040161316091906159e4565b60206040518083038186803b15801561317857600080fd5b505afa15801561318c573d6000803e3d6000fd5b505050506040513d601f19601f820116820180604052506131b09190810190614b72565b90508261ffff168417935060108260ff169060020a028417935060188160ff169060020a02841793506000847c01000000000000000000000000000000000000000000000000000000000290506020613207612422565b73ffffffffffffffffffffffffffffffffffffffff169060020a028517945061323f8886600102606e61295e9092919063ffffffff16565b50613248612422565b73ffffffffffffffffffffffffffffffffffffffff1686887fc3b047ab84cb81685163ad3ef7de856809a7d1cd6d900310242d6c3dca034bc160405160405180910390a45050505050505050565b60606132ae8284600301613b1e90919063ffffffff16565b905092915050565b6132be61426f565b6000825190506132cc61426f565b6132df8285613c2190919063ffffffff16565b8160000181815250506020820391506133018285613c2f90919063ffffffff16565b819150826020018194508290525050600082141515613355576040517f08c379a000000000000000000000000000000000000000000000000000000000815260040161334c90615642565b60405180910390fd5b8092505050919050565b606061336b83836128d3565b156133945761338d836000016000848152602001908152602001600020613d3a565b90506133c8565b60006040519080825280602002602001820160405280156133c45781602001602082028038833980820191505090505b5090505b92915050565b50505050565b60006133e084846128d3565b156134135761340c82856000016000868152602001908152602001600020613dd790919063ffffffff16565b9050613418565b600090505b9392505050565b600073ffffffffffffffffffffffffffffffffffffffff168173ffffffffffffffffffffffffffffffffffffffff1614151515613491576040517f08c379a0000000000000000000000000000000000000000000000000000000008152600401613488906156c2565b60405180910390fd5b8073ffffffffffffffffffffffffffffffffffffffff16603360009054906101000a900473ffffffffffffffffffffffffffffffffffffffff1673ffffffffffffffffffffffffffffffffffffffff167f8be0079c531659141344cd1fd0a4f28419497f9722a3daafe3b4186f6b6457e060405160405180910390a380603360006101000a81548173ffffffffffffffffffffffffffffffffffffffff021916908373ffffffffffffffffffffffffffffffffffffffff16021790555050565b60006135698284600001613ed090919063ffffffff16565b8061358657506135858284600301613f2290919063ffffffff16565b5b806135a357506135a28284600601613f7c90919063ffffffff16565b5b806135c057506135bf8284600901613fb590919063ffffffff16565b5b905092915050565b600060606000368080601f016020809104026020016040519081016040528093929190818152602001838380828437600081840152601f19601f820116905080830192505050505050509050600080369050905073ffffffffffffffffffffffffffffffffffffffff81830151169250829250505090565b6000613658828460010161393d90919063ffffffff16565b905092915050565b6000613678828460010161393d90919063ffffffff16565b905092915050565b6000613698828460010161393d90919063ffffffff16565b905092915050565b60006136ac838361393d565b1515613701578260010182908060018154018082558091505090600182039060005260206000200160009091929091909150558360000160008481526020019081526020016000208190555060019050613706565b600090505b92915050565b600081846000016000858152602001908152602001600020908051906020019061373792919061428c565b5061374e83856001016136a090919063ffffffff16565b90509392505050565b60608151835114151561379f576040517f08c379a0000000000000000000000000000000000000000000000000000000008152600401613796906157a2565b60405180910390fd5b606083516040519080825280602002602001820160405280156137dc57816020015b6137c961430c565b8152602001906001900390816137c15790505b50905060008090505b8451811015613862576137f661432c565b858281518110151561380457fe5b90602001906020020151816000018181525050848281518110151561382557fe5b9060200190602002015181602001818152505080838381518110151561384757fe5b906020019060200201819052505080806001019150506137e5565b508091505092915050565b6060600061387a83613fee565b90506060816040519080825280601f01601f1916602001820160405280156138b15781602001600182028038833980820191505090505b5090506138cd828286600001516140099092919063ffffffff16565b6020820391506138ec828286602001516140139092919063ffffffff16565b9150600082141515613933576040517f08c379a000000000000000000000000000000000000000000000000000000000815260040161392a90615642565b60405180910390fd5b8092505050919050565b600080836000016000848152602001908152602001600020541415905092915050565b600061396c8383613640565b15156139ad576040517f08c379a00000000000000000000000000000000000000000000000000000000081526004016139a490615922565b60405180910390fd5b82600001600083815260200190815260200160002054905092915050565b600081846000016000858152602001908152602001600020819055506139fd83856001016136a090919063ffffffff16565b90509392505050565b600060019054906101000a900460ff1680613a255750613a24612ac1565b5b80613a3c57506000809054906101000a900460ff16155b1515613a7d576040517f08c379a0000000000000000000000000000000000000000000000000000000008152600401613a7490615842565b60405180910390fd5b60008060019054906101000a900460ff161590508015613acd576001600060016101000a81548160ff02191690831515021790555060016000806101000a81548160ff0219169083151502179055505b613aea73d216153c06e857cd7f72665e0af1d7d82172f4946140d0565b8015613b0b5760008060016101000a81548160ff0219169083151502179055505b50565b6000606060008391509150915091565b6060613b2a8383613660565b1515613b6b576040517f08c379a0000000000000000000000000000000000000000000000000000000008152600401613b6290615922565b60405180910390fd5b8260000160008381526020019081526020016000208054600181600116156101000203166002900480601f016020809104026020016040519081016040528092919081815260200182805460018160011615610100020316600290048015613c145780601f10613be957610100808354040283529160200191613c14565b820191906000526020600020905b815481529060010190602001808311613bf757829003601f168201915b5050505050905092915050565b600081830151905092915050565b60606000808390506000613c4c828761424990919063ffffffff16565b90506020820391506000604082811515613c6257fe5b049050606081604051908082528060200260200182016040528015613ca157816020015b613c8e61430c565b815260200190600190039081613c865790505b50905060008090505b82811015613d2857613cba61432c565b613ccd868b613c2190919063ffffffff16565b816000018181525050602086039550613cef868b613c2190919063ffffffff16565b816020018181525050602086039550808383815181101515613d0d57fe5b90602001906020020181905250508080600101915050613caa565b50808495509550505050509250929050565b6060808260010180549050604051908082528060200260200182016040528015613d735781602001602082028038833980820191505090505b50905060005b8360010180549050811015613dcd578360010181815481101515613d9957fe5b90600052602060002001548282815181101515613db257fe5b90602001906020020181815250508080600101915050613d79565b5080915050919050565b6000613de3838361393d565b15613ec55760006001846000016000858152602001908152602001600020540390506000600185600101805490500390508181141515613e7c5760008560010182815481101515613e3057fe5b90600052602060002001549050808660010184815481101515613e4f57fe5b90600052602060002001819055506001830186600001600083815260200190815260200160002081905550505b84600001600085815260200190815260200160002060009055846001018054801515613ea457fe5b60019003818190600052602060002001600090559055600192505050613eca565b600090505b92915050565b6000613edc8383613640565b15613f175782600001600083815260200190815260200160002060009055613f108284600101613dd790919063ffffffff16565b9050613f1c565b600090505b92915050565b6000613f2e8383613660565b15613f71578260000160008381526020019081526020016000206000613f54919061434c565b613f6a8284600101613dd790919063ffffffff16565b9050613f76565b600090505b92915050565b6000613f8883836128d3565b15613faa57613fa38284600101613dd790919063ffffffff16565b9050613faf565b600090505b92915050565b6000613fc18383613680565b15613fe357613fdc8284600101613dd790919063ffffffff16565b9050613fe8565b600090505b92915050565b6000613ffd8260200151614257565b60208001019050919050565b8282820152505050565b600080839050614036818461402788614257565b6142659092919063ffffffff16565b60208103905060008090505b85518110156140c45761407b8285888481518110151561405e57fe5b90602001906020020151600001516140099092919063ffffffff16565b6020820391506140b18285888481518110151561409457fe5b90602001906020020151602001516140099092919063ffffffff16565b6020820391508080600101915050614042565b50809150509392505050565b60006140da612a89565b9050600073ffffffffffffffffffffffffffffffffffffffff168273ffffffffffffffffffffffffffffffffffffffff161415151561414e576040517f08c379a0000000000000000000000000000000000000000000000000000000008152600401614145906158a2565b60405180910390fd5b8073ffffffffffffffffffffffffffffffffffffffff168273ffffffffffffffffffffffffffffffffffffffff16141515156141bf576040517f08c379a00000000000000000000000000000000000000000000000000000000081526004016141b690615722565b60405180910390fd5b8173ffffffffffffffffffffffffffffffffffffffff168173ffffffffffffffffffffffffffffffffffffffff167fb9f84b8e65164b14439ae3620df0a4d8786d896996c0282b683f9d8c08f046e860405160405180910390a360007f06b7792c761dcc05af1761f0315ce8b01ac39c16cc934eb0b2f7a8e71414f2626001029050828155505050565b600081830151905092915050565b600060408251029050919050565b8282820152505050565b604080519081016040528060008019168152602001606081525090565b828054600181600116156101000203166002900490600052602060002090601f016020900481019282601f106142cd57805160ff19168380011785556142fb565b828001600101855582156142fb579182015b828111156142fa5782518255916020019190600101906142df565b5b5090506143089190614394565b5090565b604080519081016040528060008019168152602001600080191681525090565b604080519081016040528060008019168152602001600080191681525090565b50805460018160011615610100020316600290046000825580601f106143725750614391565b601f0160209004906000526020600020908101906143909190614394565b5b50565b6143b691905b808211156143b257600081600090555060010161439a565b5090565b90565b60006143c58235615c1e565b905092915050565b60006143d98235615c30565b905092915050565b600082601f83011215156143f457600080fd5b813561440761440282615ac9565b615a9c565b9150818183526020840193506020810190508385602084028201111561442c57600080fd5b60005b8381101561445c5781614442888261447a565b84526020840193506020830192505060018101905061442f565b5050505092915050565b60006144728235615c42565b905092915050565b60006144868235615c4e565b905092915050565b60008083601f84011215156144a257600080fd5b8235905067ffffffffffffffff8111156144bb57600080fd5b6020830191508360018202830111156144d357600080fd5b9250929050565b600082601f83011215156144ed57600080fd5b81356145006144fb82615af1565b615a9c565b9150808252602083016020830185838301111561451c57600080fd5b614527838284615cb3565b50505092915050565b600061453c8251615c58565b905092915050565b60006145508235615c66565b905092915050565b60006145648251615c66565b905092915050565b60006145788235615c70565b905092915050565b600061458c8251615c70565b905092915050565b6000602082840312156145a657600080fd5b60006145b4848285016143b9565b91505092915050565b6000602082840312156145cf57600080fd5b60006145dd848285016143cd565b91505092915050565b60008060008060008060008060008060006101208c8e03121561460857600080fd5b60006146168e828f016143b9565b9b505060206146278e828f016143b9565b9a505060408c013567ffffffffffffffff81111561464457600080fd5b6146508e828f0161448e565b995099505060606146638e828f01614544565b97505060806146748e828f01614544565b96505060a06146858e828f01614544565b95505060c06146968e828f01614544565b94505060e08c013567ffffffffffffffff8111156146b357600080fd5b6146bf8e828f0161448e565b93509350506101006146d38e828f01614544565b9150509295989b509295989b9093969950565b6000602082840312156146f857600080fd5b60006147068482850161447a565b91505092915050565b6000806000806080858703121561472557600080fd5b60006147338782880161447a565b94505060206147448782880161447a565b93505060406147558782880161447a565b92505060606147668782880161447a565b91505092959194509250565b60008060008060008060c0878903121561478b57600080fd5b600061479989828a0161447a565b96505060206147aa89828a0161447a565b95505060406147bb89828a0161447a565b94505060606147cc89828a0161447a565b93505060806147dd89828a0161447a565b92505060a06147ee89828a0161447a565b9150509295509295509295565b600080600080600080600060e0888a03121561481657600080fd5b60006148248a828b0161447a565b97505060206148358a828b0161447a565b96505060406148468a828b0161447a565b95505060606148578a828b0161447a565b94505060806148688a828b0161447a565b93505060a06148798a828b0161447a565b92505060c061488a8a828b0161447a565b91505092959891949750929550565b600080600080600080600060e0888a0312156148b457600080fd5b60006148c28a828b0161447a565b97505060206148d38a828b0161447a565b96505060406148e48a828b0161447a565b95505060606148f58a828b0161447a565b94505060806149068a828b0161447a565b93505060a06149178a828b0161447a565b92505060c088013567ffffffffffffffff81111561493457600080fd5b6149408a828b016144da565b91505092959891949750929550565b600080600080600060a0868803121561496757600080fd5b60006149758882890161447a565b95505060206149868882890161447a565b94505060406149978882890161456c565b935050606086013567ffffffffffffffff8111156149b457600080fd5b6149c0888289016143e1565b925050608086013567ffffffffffffffff8111156149dd57600080fd5b6149e9888289016143e1565b9150509295509295909350565b60008060208385031215614a0957600080fd5b600083013567ffffffffffffffff811115614a2357600080fd5b614a2f8582860161448e565b92509250509250929050565b600080600080600060808688031215614a5357600080fd5b600086013567ffffffffffffffff811115614a6d57600080fd5b614a798882890161448e565b95509550506020614a8c88828901614466565b9350506040614a9d88828901614544565b9250506060614aae8882890161447a565b9150509295509295909350565b600060208284031215614acd57600080fd5b6000614adb84828501614530565b91505092915050565b600060208284031215614af657600080fd5b6000614b0484828501614544565b91505092915050565b600060208284031215614b1f57600080fd5b6000614b2d84828501614558565b91505092915050565b60008060408385031215614b4957600080fd5b6000614b5785828601614544565b9250506020614b68858286016143cd565b9150509250929050565b600060208284031215614b8457600080fd5b6000614b9284828501614580565b91505092915050565b614ba481615c7d565b82525050565b614bb381615b8f565b82525050565b614bc281615b7d565b82525050565b6000614bd382615b37565b808452602084019350614be583615b1d565b60005b82811015614c1757614bfb868351614c8d565b614c0482615b63565b9150602086019550600181019050614be8565b50849250505092915050565b6000614c2e82615b42565b808452602084019350614c4083615b2a565b60005b82811015614c7257614c568683516154bd565b614c5f82615b70565b9150604086019550600181019050614c43565b50849250505092915050565b614c8781615ba1565b82525050565b614c9681615bad565b82525050565b614ca581615bb7565b82525050565b6000614cb682615b4d565b808452614cca816020860160208601615cc2565b614cd381615cf5565b602085010191505092915050565b6000614cec82615b58565b808452614d00816020860160208601615cc2565b614d0981615cf5565b602085010191505092915050565b6000601c82527f456e636f64696e67204572726f723a206f666673657420213d20302e000000006020830152604082019050919050565b6000602682527f47534e426f756e636572426173653a2063616c6c6572206973206e6f7420526560208301527f6c617948756200000000000000000000000000000000000000000000000000006040830152606082019050919050565b6000601f82527f43616e6e6f742044454c4554452066726f6d2073797374656d207461626c65006020830152604082019050919050565b6000601a82527f43616e6e6f74205550444154452073797374656d207461626c650000000000006020830152604082019050919050565b6000602682527f4f776e61626c653a206e6577206f776e657220697320746865207a65726f206160208301527f64647265737300000000000000000000000000000000000000000000000000006040830152606082019050919050565b6000601f82527f43616e6e6f7420494e5345525420696e746f2073797374656d207461626c65006020830152604082019050919050565b6000602582527f69645461626c654b6579206e6f7420612073756268617368205b69645d2e5b7460208301527f61626c655d0000000000000000000000000000000000000000000000000000006040830152606082019050919050565b6000602b82527f47534e436f6e746578743a206e65772052656c6179487562206973207468652060208301527f63757272656e74206f6e650000000000000000000000000000000000000000006040830152606082019050919050565b6000602e82527f4f6e6c79206f776e65722f64656c65676174652063616e20555044415445206960208301527f6e746f2074686973207461626c650000000000000000000000000000000000006040830152606082019050919050565b6000602082527f4572726f723a206b65792065786973747320696e206f7468657220646963742e6020830152604082019050919050565b6000601582527f726f7720616c726561647920686173206f776e657200000000000000000000006020830152604082019050919050565b6000601082527f4572726f7220616c69676e6d656e742e000000000000000000000000000000006020830152604082019050919050565b6000603982527f4e6f7420726f774f776e6572206f72206f776e65722f64656c6567617465206660208301527f6f722055504441544520696e746f2074686973207461626c65000000000000006040830152606082019050919050565b6000602e82527f4f6e6c79206f776e65722f64656c65676174652063616e20494e53455254206960208301527f6e746f2074686973207461626c650000000000000000000000000000000000006040830152606082019050919050565b6000601282527f6572726f722072656d6f76696e67206b657900000000000000000000000000006020830152604082019050919050565b6000602082527f4f776e61626c653a2063616c6c6572206973206e6f7420746865206f776e65726020830152604082019050919050565b6000602e82527f436f6e747261637420696e7374616e63652068617320616c726561647920626560208301527f656e20696e697469616c697a65640000000000000000000000000000000000006040830152606082019050919050565b6000601782527f69642b6669656c6420616c7265616479206578697374730000000000000000006020830152604082019050919050565b6000602e82527f4f6e6c79206f776e65722f64656c65676174652063616e2044454c455445206660208301527f726f6d2074686973207461626c650000000000000000000000000000000000006040830152606082019050919050565b6000602c82527f47534e436f6e746578743a206e65772052656c6179487562206973207468652060208301527f7a65726f206164647265737300000000000000000000000000000000000000006040830152606082019050919050565b6000601482527f5461626c6520616c7265616479206578697374730000000000000000000000006020830152604082019050919050565b6000601082527f696420646f65736e2774206578697374000000000000000000000000000000006020830152604082019050919050565b6000601182527f7461626c65206e6f7420637265617465640000000000000000000000000000006020830152604082019050919050565b6000601382527f4b657920646f6573206e6f7420657869737421000000000000000000000000006020830152604082019050919050565b6000601c82527f696420646f65736e27742065786973742c2075736520494e53455254000000006020830152604082019050919050565b6000601482527f7461626c6520646f6573206e6f742065786973740000000000000000000000006020830152604082019050919050565b6000601782527f53656e646572206e6f74206f776e6572206f6620726f770000000000000000006020830152604082019050919050565b6000602b82527f6669656c644b6579206e6f7420612073756268617368205b6669656c645d2e5b60208301527f69645d2e5b7461626c655d0000000000000000000000000000000000000000006040830152606082019050919050565b6040820160008201516154d36000850182614c8d565b5060208201516154e66020850182614c8d565b50505050565b60006040830160008301516155046000860182614c8d565b506020830151848203602086015261551c8282614c23565b9150508091505092915050565b61553281615c03565b82525050565b61554181615c0d565b82525050565b600060208201905061555c6000830184614bb9565b92915050565b60006020820190506155776000830184614b9b565b92915050565b60006040820190506155926000830185614bb9565b61559f6020830184614c9c565b9392505050565b600060208201905081810360008301526155c08184614bc8565b905092915050565b60006020820190506155dd6000830184614c7e565b92915050565b60006020820190506155f86000830184614c8d565b92915050565b600060208201905081810360008301526156188184614cab565b905092915050565b6000602082019050818103600083015261563a8184614ce1565b905092915050565b6000602082019050818103600083015261565b81614d17565b9050919050565b6000602082019050818103600083015261567b81614d4e565b9050919050565b6000602082019050818103600083015261569b81614dab565b9050919050565b600060208201905081810360008301526156bb81614de2565b9050919050565b600060208201905081810360008301526156db81614e19565b9050919050565b600060208201905081810360008301526156fb81614e76565b9050919050565b6000602082019050818103600083015261571b81614ead565b9050919050565b6000602082019050818103600083015261573b81614f0a565b9050919050565b6000602082019050818103600083015261575b81614f67565b9050919050565b6000602082019050818103600083015261577b81614fc4565b9050919050565b6000602082019050818103600083015261579b81614ffb565b9050919050565b600060208201905081810360008301526157bb81615032565b9050919050565b600060208201905081810360008301526157db81615069565b9050919050565b600060208201905081810360008301526157fb816150c6565b9050919050565b6000602082019050818103600083015261581b81615123565b9050919050565b6000602082019050818103600083015261583b8161515a565b9050919050565b6000602082019050818103600083015261585b81615191565b9050919050565b6000602082019050818103600083015261587b816151ee565b9050919050565b6000602082019050818103600083015261589b81615225565b9050919050565b600060208201905081810360008301526158bb81615282565b9050919050565b600060208201905081810360008301526158db816152df565b9050919050565b600060208201905081810360008301526158fb81615316565b9050919050565b6000602082019050818103600083015261591b8161534d565b9050919050565b6000602082019050818103600083015261593b81615384565b9050919050565b6000602082019050818103600083015261595b816153bb565b9050919050565b6000602082019050818103600083015261597b816153f2565b9050919050565b6000602082019050818103600083015261599b81615429565b9050919050565b600060208201905081810360008301526159bb81615460565b9050919050565b600060208201905081810360008301526159dc81846154ec565b905092915050565b60006020820190506159f96000830184615529565b92915050565b6000604082019050615a146000830185615529565b615a216020830184614bb9565b9392505050565b6000604082019050615a3d6000830185615529565b615a4a6020830184614baa565b9392505050565b6000604082019050615a666000830185615529565b8181036020830152615a788184614cab565b90509392505050565b6000602082019050615a966000830184615538565b92915050565b6000604051905081810181811067ffffffffffffffff82111715615abf57600080fd5b8060405250919050565b600067ffffffffffffffff821115615ae057600080fd5b602082029050602081019050919050565b600067ffffffffffffffff821115615b0857600080fd5b601f19601f8301169050602081019050919050565b6000602082019050919050565b6000602082019050919050565b600081519050919050565b600081519050919050565b600081519050919050565b600081519050919050565b6000602082019050919050565b6000602082019050919050565b6000615b8882615be3565b9050919050565b6000615b9a82615be3565b9050919050565b60008115159050919050565b6000819050919050565b60007fffffffff0000000000000000000000000000000000000000000000000000000082169050919050565b600073ffffffffffffffffffffffffffffffffffffffff82169050919050565b6000819050919050565b600064ffffffffff82169050919050565b6000615c2982615be3565b9050919050565b6000615c3b82615be3565b9050919050565b60008115159050919050565b6000819050919050565b600061ffff82169050919050565b6000819050919050565b600060ff82169050919050565b6000615c8882615c8f565b9050919050565b6000615c9a82615ca1565b9050919050565b6000615cac82615be3565b9050919050565b82818337600083830152505050565b60005b83811015615ce0578082015181840152602081019050615cc5565b83811115615cef576000848401525b50505050565b6000601f19601f830116905091905056fea265627a7a72305820a4ae17e3f4ff222d2d2797386e38a29ed5fffee3c9de48962b7300c774a43f3c6c6578706572696d656e74616cf50037",
  "compiler": {
    "name": "solc",
    "version": "0.5.0+commit.1d4f565a.Emscripten.clang",
    "optimizer": {
      "enabled": false,
      "runs": 200
    },
    "evmVersion": "byzantium"
  }
}