{
  "fileName": "ELAJSStore.sol",
  "contractName": "ELAJSStore",
  "source": "pragma solidity ^0.5.0;\npragma experimental ABIEncoderV2;\n\nimport \"sol-datastructs/src/contracts/PolymorphicDictionaryLib.sol\";\n\nimport \"sol-datastructs/src/contracts/Bytes32DictionaryLib.sol\";\nimport \"sol-datastructs/src/contracts/Bytes32SetDictionaryLib.sol\";\n\n// import \"./oz/EnumerableSetDictionary.sol\";\n\nimport \"sol-sql/src/contracts/src/structs/TableLib.sol\";\n\nimport \"./ozEla/OwnableELA.sol\";\nimport \"./gsnEla/GSNRecipientELA.sol\";\nimport \"./gsnEla/IRelayHubELA.sol\";\n\ncontract DateTime {\n    function getYear(uint timestamp) public pure returns (uint16);\n    function getMonth(uint timestamp) public pure returns (uint8);\n    function getDay(uint timestamp) public pure returns (uint8);\n}\n\n// TODO: good practice to have functions not callable externally and internally\ncontract ELAJSStore is OwnableELA, GSNRecipientELA {\n\n    // key to our table list\n    bytes32 constant public schemasTables = 0x736368656d61732e7075626c69632e7461626c65730000000000000000000000;\n\n    // DateTime Contract address\n    address public dateTimeAddr = 0x9c71b2E820B067ea466ea81C0cd6852Bc8D8604e; // development\n    // address constant public dateTimeAddr = 0xEDb211a2dBbdE62012440177e65b68E0A66E4531; // testnet\n\n    // Initialize the DateTime contract ABI with the already deployed contract\n    DateTime dateTime = DateTime(dateTimeAddr);\n\n    // This counts the number of times this contract was called via GSN (expended owner gas) for rate limiting\n    // mapping is a keccak256('YYYY-MM-DD') => uint (TODO: we can probably compress this by week (4 bytes per day -> 28 bytes)\n    mapping(bytes32 => uint256) public gsnCounter;\n\n    // Max times we allow this to be called per day\n    uint40 public gsnMaxCallsPerDay;\n\n    using PolymorphicDictionaryLib for PolymorphicDictionaryLib.PolymorphicDictionary;\n    using Bytes32DictionaryLib for Bytes32DictionaryLib.Bytes32Dictionary;\n    using Bytes32SetDictionaryLib for Bytes32SetDictionaryLib.Bytes32SetDictionary;\n\n    // _table = system table (bytes32 Dict) of each table's metadata marshaled\n    // 8 bits - permissions (00 = system, 01 = private, 10 = public, 11 = shared - owner can always edit)\n    // 20 bytes - address delegate - other address allowed to edit\n    mapping(bytes32 => bytes32) internal _table;\n\n    // table = dict, where the key is the table, and the value is a set of byte32 ids\n    Bytes32SetDictionaryLib.Bytes32SetDictionary internal table;\n\n    // Schema dictionary, key (schemasPublicTables) points to a set of table names\n    using TableLib for TableLib.Table;\n    using TableLib for bytes;\n    // using ColumnLib for ColumnLib.Column;\n    // using ColumnLib for bytes;\n\n    // namehash([tableName]) => encoded table schema\n    // ownership of each row (id) - key = namehash([id].[table]) which has a value that is the owner's address\n    // ultimately namehash([field].[id].[table]) gives us a bytes32 which maps to the single data value\n    PolymorphicDictionaryLib.PolymorphicDictionary internal database;\n\n\n    // ************************************* SETUP FUNCTIONS *************************************\n    function initialize() public initializer {\n        OwnableELA.initialize(msg.sender);\n        GSNRecipientELA.initialize();\n        _initialize();\n    }\n\n    function _initialize() internal {\n        gsnMaxCallsPerDay = 1000;\n    }\n\n    // ************************************* SCHEMA FUNCTIONS *************************************\n    /**\n     * @dev create a new table, only the owner may create this\n     *\n     * @param tableKey this is the namehash of tableName\n     */\n    function createTable(\n\n        bytes32 tableName,\n        bytes32 tableKey,\n        uint8 permission,\n        bytes32[] memory _columnName,\n        bytes32[] memory _columnDtype\n\n    ) public onlyOwner {\n\n        // check if table exists\n        require(_table[tableKey] == 0, \"Table already exists\");\n\n        address delegate = address(0x0);\n\n        // claim the key slot and set the metadata\n        setTableMetadata(tableKey, permission, delegate);\n\n        // table stores the row ids set as the value, set up the key\n        table.addKey(tableKey);\n\n        // now insert the schema\n        TableLib.Table memory tableSchema = TableLib.create(\n            tableName,\n            _columnName,\n            _columnDtype\n        );\n\n        createTable(tableKey, tableSchema);\n\n    }\n\n    function tableExists(bytes32 tableKey) public view returns (bool) {\n        return table.containsKey(tableKey);\n    }\n\n    function createTable(bytes32 tableKey, TableLib.Table memory tableSchema) internal returns (bool) {\n        bytes memory encoded = tableSchema.encode();\n\n        // we store the encoded table schema on the base tableKey\n        return database.setValueForKey(tableKey, encoded);\n    }\n\n    // EXPERIMENTAL\n    function getTable(bytes32 _name) public view returns (TableLib.Table memory) {\n        bytes memory encoded = database.getBytesForKey(_name);\n        return encoded.decodeTable();\n    }\n\n    // ************************************* CRUD FUNCTIONS *************************************\n\n    /**\n     * @dev Table level permission checks\n     */\n    modifier insertCheck(bytes32 tableKey, bytes32 idKey, bytes32 idTableKey) {\n\n        (uint256 permission, address delegate) = getTableMetadata(tableKey);\n\n        // if permission = 0, system table we can't do anything\n        require(permission > 0, \"Cannot INSERT into system table\");\n\n        // if permission = 1, we must be the owner/delegate\n        require(permission > 1 || isOwner() == true || delegate == _msgSender(), \"Only owner/delegate can INSERT into this table\");\n\n        // permissions check, is the idTableKey a subhash of the id and table?\n        require(isNamehashSubOf(idKey, tableKey, idTableKey) == true, \"idTableKey not a subhash [id].[table]\");\n\n        // IF this is a public table, for a each row, we add an entry in for idTableKey claiming this [id].[table] for the msg.sender\n        if (permission > 1) {\n            database.setAddressForKey(idTableKey, _msgSender());\n        }\n\n        _;\n    }\n\n    /**\n     * @dev Prior to insert, we check the permissions and autoIncrement\n     * TODO: use the schema and determine the proper type of data to insert\n     *\n     * @param tableKey the namehashed [table] name string\n     * @param idKey the sha3 hashed idKey\n     * @param idTableKey the namehashed [id].[table] name string\n     *\n     * @param id as the raw string (unhashed)\n     *\n     *\n     */\n    function insertVal(\n\n        bytes32 tableKey,\n        bytes32 idTableKey,\n        bytes32 fieldIdTableKey,\n\n        bytes32 idKey,\n        bytes32 fieldKey,\n\n        bytes32 id,\n        bytes32 val)\n\n    public insertCheck(tableKey, idKey, idTableKey){\n\n        require(database.containsKey(fieldIdTableKey) == false, \"id+field already exists\");\n\n        // now check if the full field + id + table is a subhash\n        require(isNamehashSubOf(fieldKey, idTableKey, fieldIdTableKey) == true, \"fieldKey not a subhash [field].[id].[table]\");\n\n        // increment counter\n        increaseGsnCounter();\n\n        // add an id entry to the table's set of ids for the row\n        table.addValueForKey(tableKey, id);\n\n        // finally set the data\n        // we won't serialize the type, that's way too much redundant data\n        database.setValueForKey(fieldIdTableKey, bytes32(val));\n    }\n\n    function insertValVar(\n        bytes32 tableKey,\n        bytes32 idTableKey,\n        bytes32 fieldIdTableKey,\n\n        bytes32 idKey,\n        bytes32 fieldKey,\n\n        bytes32 id,\n        bytes memory val)\n\n    public insertCheck(tableKey, idKey, idTableKey){\n\n        require(database.containsKey(fieldIdTableKey) == false, \"id+field already exists\");\n\n        // now check if the full field + id + table is a subhash\n        require(isNamehashSubOf(fieldKey, idTableKey, fieldIdTableKey) == true, \"fieldKey not a subhash [field].[id].[table]\");\n\n        // increment counter\n        increaseGsnCounter();\n\n        // add an id entry to the table's set of ids for the row\n        table.addValueForKey(tableKey, id);\n\n        // finally set the data\n        database.setValueForKey(fieldIdTableKey, val);\n    }\n\n    modifier updateCheck(bytes32 tableKey, bytes32 idKey, bytes32 idTableKey) {\n\n        (uint256 permission, address delegate) = getTableMetadata(tableKey);\n\n        // if permission = 0, system table we can't do anything\n        require(permission > 0, \"Cannot UPDATE system table\");\n\n        // if permission = 1, we must be the owner/delegate\n        require(permission > 1 || isOwner() == true || delegate == _msgSender(), \"Only owner/delegate can UPDATE into this table\");\n\n        // permissions check, is the idTableKey a subhash of the id and table?\n        require(isNamehashSubOf(idKey, tableKey, idTableKey) == true, \"idTableKey not a subhash [id].[table]\");\n\n        // permissions check (public table = 2, shared table = 3),\n        // if 2 or 3 is the _msg.sender() the row owner? But if 3 owner() is always allowed\n        if (permission >= 2) {\n            if (isOwner() || delegate == _msgSender()){\n                // pass\n            } else {\n                require(database.getAddressForKey(idTableKey) == _msgSender(), \"Sender not owner of row\");\n            }\n        }\n\n        _;\n    }\n\n    function updateVal(\n\n        bytes32 tableKey,\n        bytes32 idTableKey,\n        bytes32 fieldIdTableKey,\n\n        bytes32 idKey,\n        bytes32 fieldKey,\n\n        bytes32 id,\n        bytes32 val)\n\n    public updateCheck(tableKey, idKey, idTableKey) {\n\n        require(table.containsValueForKey(tableKey, id) == true, \"id doesn't exist, use INSERT\");\n\n        // now check if the full field + id + table is a subhash\n        require(isNamehashSubOf(fieldKey, idTableKey, fieldIdTableKey) == true, \"fieldKey not a subhash [field].[id].[table]\");\n\n        // increment counter\n        increaseGsnCounter();\n\n        // set data (overwrite)\n        database.setValueForKey(fieldIdTableKey, bytes32(val));\n\n    }\n\n    modifier deleteCheck(bytes32 tableKey, bytes32 idTableKey, bytes32 idKey, bytes32 id) {\n\n        require(table.containsValueForKey(tableKey, id) == true, \"id doesn't exist\");\n\n        (uint256 permission, address delegate) = getTableMetadata(tableKey);\n\n        // if permission = 0, system table we can't do anything\n        require(permission > 0, \"Cannot DELETE from system table\");\n\n        // if permission = 1, we must be the owner/delegate\n        require(permission > 1 || isOwner() == true || delegate == _msgSender(), \"Only owner/delegate can DELETE from this table\");\n\n        // permissions check, is the idTableKey a subhash of the id and table?\n        require(isNamehashSubOf(idKey, tableKey, idTableKey) == true, \"idTableKey not a subhash [id].[table]\");\n\n        // permissions check (public table = 2, shared table = 3),\n        // if 2 or 3 is the _msg.sender() the row owner? But if 3 owner() is always allowed\n        if (permission >= 2) {\n            if (isOwner() || delegate == _msgSender()){\n                // pass\n            } else {\n                require(database.getAddressForKey(idTableKey) == _msgSender(), \"Sender not owner of row\");\n            }\n        }\n\n        _;\n    }\n\n    /**\n     * @dev TODO: add modifier checks based on update\n     *\n     * TODO: this needs to properly remove the row when there are multiple ids\n     *\n     */\n    function deleteVal(\n\n        bytes32 tableKey,\n        bytes32 idTableKey,\n\n        bytes32 idKey,\n        bytes32 id,\n\n        bytes32 fieldKey,\n        bytes32 fieldIdTableKey\n\n    ) public deleteCheck(tableKey, idTableKey, idKey, id){\n\n        // check if the full field + id + table is a subhash (permissions)\n        require(isNamehashSubOf(fieldKey, idTableKey, fieldIdTableKey) == true, \"fieldKey not a subhash [field].[id].[table]\");\n\n        // increment counter\n        increaseGsnCounter();\n\n        // remove the key\n        bool removed = database.removeKey(fieldIdTableKey);\n\n        require(removed == true, \"error removing key\");\n\n        // TODO: zero out the data? Why bother everything is public\n\n        // we can't really pass in enough data to make a loop worthwhile\n        /*\n        uint8 len = uint8(fieldKeys.length);\n        require(fieldKeys.length == fieldIdTableKeys.length, \"fields, id array length mismatch\");\n        for (uint8 i = 0; i < len; i++) {\n\n            // for each row check if the full field + id + table is a subhash\n            // require(isNamehashSubOf(fieldKeys[i], idTableKey, fieldIdTableKeys[i]) == true, \"fieldKey not a subhash [field].[id].[table]\");\n\n            // zero out the data\n            elajsStore[fieldIdTableKeys[i]] = bytes32(0);\n        }\n        */\n    }\n\n    // TODO: improve this, we don't want to cause data consistency if the client doesn't call this\n    // Right now we manually call this, but ideally we iterate over all the data and delete each column\n    // but this would require decoding and having all the field names\n    function deleteRow(\n\n        bytes32 tableKey,\n        bytes32 idTableKey,\n\n        bytes32 idKey,\n        bytes32 id\n\n    ) public deleteCheck(tableKey, idTableKey, idKey, id){\n\n        // increment counter\n        increaseGsnCounter();\n\n        // remove the id\n        table.removeValueForKey(tableKey, id);\n    }\n\n    /**\n     * @dev Table actual insert call, NOTE this doesn't work on testnet currently due to a stack size issue,\n     *      but it can work with a paid transaction I guess\n     */\n    /*\n    function insert(\n        bytes32 tableKey,\n        bytes32 idTableKey,\n\n        bytes32 idKey,\n        bytes32 id,\n\n        bytes32[] memory fieldKeys,\n        bytes32[] memory fieldIdTableKeys,\n        bytes32[] memory values)\n\n    public insertCheck(tableKey, idKey, idTableKey){\n\n        require(table.containsValueForKey(tableKey, id) == false, \"id already exists\");\n\n        uint len = fieldKeys.length;\n\n        require(fieldKeys.length == fieldIdTableKeys.length == values.length, \"fields, values array length mismatch\");\n\n        // add an id entry to the table's set of ids for the row\n        table.addValueForKey(tableKey, id);\n\n        for (uint i = 0; i < len; i++) {\n\n            // for each row check if the full field + id + table is a subhash\n            require(isNamehashSubOf(fieldKeys[i], idTableKey, fieldIdTableKeys[i]) == true, \"fieldKey not a subhash [field].[id].[table]\");\n\n            elajsStore[fieldIdTableKeys[i]] = bytes32(values[i]);\n        }\n\n    }\n    */\n\n    /*\n    function getAllDataKeys() external view returns (bytes32[] memory) {\n        return database.enumerate();\n    }\n    */\n\n    function checkDataKey(bytes32 key) external view returns (bool) {\n        return database.containsKey(key);\n    }\n\n    /**\n     * @dev all data is public, so no need for security checks, we leave the data type handling to the client\n     */\n    function getRowValue(bytes32 fieldIdTableKey) external view returns (bytes32) {\n\n        if (database.containsKey(fieldIdTableKey)) {\n            return database.getBytes32ForKey(fieldIdTableKey);\n        } else {\n            return bytes32(0);\n        }\n    }\n\n    function getRowValueVar(bytes32 fieldIdTableKey) external view returns (bytes memory) {\n\n        if (database.containsKey(fieldIdTableKey)) {\n            return database.getBytesForKey(fieldIdTableKey);\n        } else {\n            return new bytes(0);\n        }\n    }\n\n    /**\n     * @dev Warning this produces an Error: overflow (operation=\"setValue\", fault=\"overflow\", details=\"Number can only safely store up to 53 bits\")\n     *      if the table doesn't exist\n     */\n    function getTableIds(bytes32 tableKey) external view returns (bytes32[] memory){\n\n        require(table.containsKey(tableKey) == true, \"table not created\");\n\n        return table.enumerateForKey(tableKey);\n    }\n\n    function isNamehashSubOf(bytes32 subKey, bytes32 base, bytes32 target) internal pure returns (bool) {\n\n        bytes memory concat = new bytes(64);\n\n        assembly {\n            mstore(add(concat, 64), subKey)\n            mstore(add(concat, 32), base)\n        }\n\n        bytes32 result = keccak256(concat);\n\n        return result == target;\n    }\n\n    // ************************************* _TABLE FUNCTIONS *************************************\n    function getTableMetadata(bytes32 _tableKey)\n        view\n        public\n        returns (uint256 permission, address delegate)\n    {\n        require(_table[_tableKey] > 0, \"table does not exist\");\n\n        uint256 tableMetadata = uint256(_table[_tableKey]);\n\n        permission = uint256(uint8(tableMetadata));\n        delegate = address(tableMetadata>>8);\n    }\n\n    function setTableMetadata(bytes32 _tableKey, uint8 permission, address delegate) private onlyOwner {\n        uint256 tableMetadata;\n\n        tableMetadata |= permission;\n        tableMetadata |= uint160(delegate)<<8;\n\n        _table[_tableKey] = bytes32(tableMetadata);\n    }\n\n    // ************************************* MISC FUNCTIONS *************************************\n\n    function() external payable {}\n\n    // ************************************* GSN FUNCTIONS *************************************\n\n    /**\n     * As a first layer of defense we employ a max number of checks per day\n     */\n    function acceptRelayedCall(\n        address relay,\n        address from,\n        bytes calldata encodedFunction,\n        uint256 transactionFee,\n        uint256 gasPrice,\n        uint256 gasLimit,\n        uint256 nonce,\n        bytes calldata approvalData,\n        uint256 maxPossibleCharge\n    ) external view returns (uint256, bytes memory) {\n\n        bytes32 curDateHashed = getGsnCounter();\n\n        // check gsnCounter for today and compare to limit\n        uint256 curCounter = gsnCounter[curDateHashed];\n\n        if (curCounter >= gsnMaxCallsPerDay){\n            return _rejectRelayedCall(2);\n        }\n\n\n        return _approveRelayedCall();\n    }\n\n    function setGsnMaxCallsPerDay(uint256 max) external onlyOwner {\n        gsnMaxCallsPerDay = uint40(max);\n    }\n\n    /*\n    event GsnCounterIncrease (\n        address indexed _from,\n        bytes4 indexed curDate\n    );\n    */\n\n    /**\n     * Increase the GSN Counter for today\n     */\n    function increaseGsnCounter() internal {\n\n        bytes32 curDateHashed = getGsnCounter();\n\n        uint256 curCounter = gsnCounter[curDateHashed];\n\n        gsnCounter[curDateHashed] = curCounter + 1;\n\n        // emit GsnCounterIncrease(_msgSender(), bytes4(uint32(curDate)));\n    }\n\n    /*\n     *\n     */\n    function getGsnCounter() internal view returns (bytes32 curDateHashed) {\n\n        uint256 curDate;\n\n        uint16 year = dateTime.getYear(now);\n        uint8 month = dateTime.getMonth(now);\n        uint8 day = dateTime.getDay(now);\n\n        curDate |= year;\n        curDate |= uint256(month)<<16;\n        curDate |= uint256(day)<<24;\n\n        curDateHashed = keccak256(abi.encodePacked(curDate));\n    }\n\n    // We won't do any pre or post processing, so leave _preRelayedCall and _postRelayedCall empty\n    function _preRelayedCall(bytes memory context) internal returns (bytes32) {\n    }\n\n    function _postRelayedCall(bytes memory context, bool, uint256 actualCharge, bytes32) internal {\n    }\n\n    /**\n     * @dev Withdraw a specific amount of the GSNReceipient funds\n     * @param amt Amount of wei to withdraw\n     * @param dest This is the arbitrary withdrawal destination address\n     */\n    function withdraw(uint256 amt, address payable dest) public onlyOwner {\n        IRelayHubELA relayHub = getRelayHub();\n        relayHub.withdraw(amt, dest);\n    }\n\n    /**\n     * @dev Withdraw all the GSNReceipient funds\n     * @param dest This is the arbitrary withdrawal destination address\n     */\n    function withdrawAll(address payable dest) public onlyOwner returns (uint256) {\n        IRelayHubELA relayHub = getRelayHub();\n        uint256 balance = getRelayHub().balanceOf(address(this));\n        relayHub.withdraw(balance, dest);\n        return balance;\n    }\n\n    function getGSNBalance() public view returns (uint256) {\n        return getRelayHub().balanceOf(address(this));\n    }\n\n    function getRelayHub() internal view returns (IRelayHubELA) {\n        return IRelayHubELA(_getRelayHub());\n    }\n}\n",
  "sourcePath": "contracts/ELAJSStore.sol",
  "abi": [
    {
      "constant": false,
      "inputs": [
        {
          "name": "amt",
          "type": "uint256"
        },
        {
          "type": "address",
          "name": "dest"
        }
      ],
      "name": "withdraw",
      "outputs": [],
      "payable": false,
      "stateMutability": "nonpayable",
      "type": "function"
    },
    {
      "constant": true,
      "inputs": [],
      "name": "gsnMaxCallsPerDay",
      "outputs": [
        {
          "name": "",
          "type": "uint40"
        }
      ],
      "payable": false,
      "stateMutability": "view",
      "type": "function"
    },
    {
      "constant": false,
      "inputs": [
        {
          "name": "tableKey",
          "type": "bytes32"
        },
        {
          "name": "idTableKey",
          "type": "bytes32"
        },
        {
          "name": "fieldIdTableKey",
          "type": "bytes32"
        },
        {
          "name": "idKey",
          "type": "bytes32"
        },
        {
          "name": "fieldKey",
          "type": "bytes32"
        },
        {
          "name": "id",
          "type": "bytes32"
        },
        {
          "name": "val",
          "type": "bytes"
        }
      ],
      "name": "insertValVar",
      "outputs": [],
      "payable": false,
      "stateMutability": "nonpayable",
      "type": "function"
    },
    {
      "constant": true,
      "inputs": [
        {
          "name": "key",
          "type": "bytes32"
        }
      ],
      "name": "checkDataKey",
      "outputs": [
        {
          "name": "",
          "type": "bool"
        }
      ],
      "payable": false,
      "stateMutability": "view",
      "type": "function"
    },
    {
      "constant": false,
      "inputs": [
        {
          "name": "tableName",
          "type": "bytes32"
        },
        {
          "name": "tableKey",
          "type": "bytes32"
        },
        {
          "name": "permission",
          "type": "uint8"
        },
        {
          "name": "_columnName",
          "type": "bytes32[]"
        },
        {
          "name": "_columnDtype",
          "type": "bytes32[]"
        }
      ],
      "name": "createTable",
      "outputs": [],
      "payable": false,
      "stateMutability": "nonpayable",
      "type": "function"
    },
    {
      "constant": true,
      "inputs": [],
      "name": "getGSNBalance",
      "outputs": [
        {
          "name": "",
          "type": "uint256"
        }
      ],
      "payable": false,
      "stateMutability": "view",
      "type": "function"
    },
    {
      "constant": true,
      "inputs": [],
      "name": "schemasTables",
      "outputs": [
        {
          "name": "",
          "type": "bytes32"
        }
      ],
      "payable": false,
      "stateMutability": "view",
      "type": "function"
    },
    {
      "constant": true,
      "inputs": [
        {
          "name": "tableKey",
          "type": "bytes32"
        }
      ],
      "name": "tableExists",
      "outputs": [
        {
          "name": "",
          "type": "bool"
        }
      ],
      "payable": false,
      "stateMutability": "view",
      "type": "function"
    },
    {
      "constant": true,
      "inputs": [
        {
          "name": "",
          "type": "bytes32"
        }
      ],
      "name": "gsnCounter",
      "outputs": [
        {
          "name": "",
          "type": "uint256"
        }
      ],
      "payable": false,
      "stateMutability": "view",
      "type": "function"
    },
    {
      "constant": false,
      "inputs": [
        {
          "name": "tableKey",
          "type": "bytes32"
        },
        {
          "name": "idTableKey",
          "type": "bytes32"
        },
        {
          "name": "fieldIdTableKey",
          "type": "bytes32"
        },
        {
          "name": "idKey",
          "type": "bytes32"
        },
        {
          "name": "fieldKey",
          "type": "bytes32"
        },
        {
          "name": "id",
          "type": "bytes32"
        },
        {
          "name": "val",
          "type": "bytes32"
        }
      ],
      "name": "updateVal",
      "outputs": [],
      "payable": false,
      "stateMutability": "nonpayable",
      "type": "function"
    },
    {
      "constant": true,
      "inputs": [
        {
          "name": "fieldIdTableKey",
          "type": "bytes32"
        }
      ],
      "name": "getRowValue",
      "outputs": [
        {
          "name": "",
          "type": "bytes32"
        }
      ],
      "payable": false,
      "stateMutability": "view",
      "type": "function"
    },
    {
      "constant": false,
      "inputs": [],
      "name": "renounceOwnership",
      "outputs": [],
      "payable": false,
      "stateMutability": "nonpayable",
      "type": "function"
    },
    {
      "constant": true,
      "inputs": [],
      "name": "getHubAddr",
      "outputs": [
        {
          "name": "",
          "type": "address"
        }
      ],
      "payable": false,
      "stateMutability": "view",
      "type": "function"
    },
    {
      "constant": true,
      "inputs": [
        {
          "name": "_name",
          "type": "bytes32"
        }
      ],
      "name": "getTable",
      "outputs": [
        {
          "components": [
            {
              "name": "name",
              "type": "bytes32"
            },
            {
              "components": [
                {
                  "name": "name",
                  "type": "bytes32"
                },
                {
                  "name": "_dtype",
                  "type": "bytes32"
                }
              ],
              "name": "columns",
              "type": "tuple[]"
            }
          ],
          "name": "",
          "type": "tuple"
        }
      ],
      "payable": false,
      "stateMutability": "view",
      "type": "function"
    },
    {
      "constant": false,
      "inputs": [
        {
          "name": "context",
          "type": "bytes"
        }
      ],
      "name": "preRelayedCall",
      "outputs": [
        {
          "name": "",
          "type": "bytes32"
        }
      ],
      "payable": false,
      "stateMutability": "nonpayable",
      "type": "function"
    },
    {
      "constant": false,
      "inputs": [],
      "name": "initialize",
      "outputs": [],
      "payable": false,
      "stateMutability": "nonpayable",
      "type": "function"
    },
    {
      "constant": true,
      "inputs": [
        {
          "name": "relay",
          "type": "address"
        },
        {
          "name": "from",
          "type": "address"
        },
        {
          "name": "encodedFunction",
          "type": "bytes"
        },
        {
          "name": "transactionFee",
          "type": "uint256"
        },
        {
          "name": "gasPrice",
          "type": "uint256"
        },
        {
          "name": "gasLimit",
          "type": "uint256"
        },
        {
          "name": "nonce",
          "type": "uint256"
        },
        {
          "name": "approvalData",
          "type": "bytes"
        },
        {
          "name": "maxPossibleCharge",
          "type": "uint256"
        }
      ],
      "name": "acceptRelayedCall",
      "outputs": [
        {
          "name": "",
          "type": "uint256"
        },
        {
          "name": "",
          "type": "bytes"
        }
      ],
      "payable": false,
      "stateMutability": "view",
      "type": "function"
    },
    {
      "constant": true,
      "inputs": [],
      "name": "owner",
      "outputs": [
        {
          "name": "",
          "type": "address"
        }
      ],
      "payable": false,
      "stateMutability": "view",
      "type": "function"
    },
    {
      "constant": true,
      "inputs": [],
      "name": "isOwner",
      "outputs": [
        {
          "name": "",
          "type": "bool"
        }
      ],
      "payable": false,
      "stateMutability": "view",
      "type": "function"
    },
    {
      "constant": false,
      "inputs": [
        {
          "name": "tableKey",
          "type": "bytes32"
        },
        {
          "name": "idTableKey",
          "type": "bytes32"
        },
        {
          "name": "fieldIdTableKey",
          "type": "bytes32"
        },
        {
          "name": "idKey",
          "type": "bytes32"
        },
        {
          "name": "fieldKey",
          "type": "bytes32"
        },
        {
          "name": "id",
          "type": "bytes32"
        },
        {
          "name": "val",
          "type": "bytes32"
        }
      ],
      "name": "insertVal",
      "outputs": [],
      "payable": false,
      "stateMutability": "nonpayable",
      "type": "function"
    },
    {
      "constant": true,
      "inputs": [],
      "name": "relayHubVersion",
      "outputs": [
        {
          "name": "",
          "type": "string"
        }
      ],
      "payable": false,
      "stateMutability": "view",
      "type": "function"
    },
    {
      "constant": false,
      "inputs": [
        {
          "name": "max",
          "type": "uint256"
        }
      ],
      "name": "setGsnMaxCallsPerDay",
      "outputs": [],
      "payable": false,
      "stateMutability": "nonpayable",
      "type": "function"
    },
    {
      "constant": true,
      "inputs": [
        {
          "name": "tableKey",
          "type": "bytes32"
        }
      ],
      "name": "getTableIds",
      "outputs": [
        {
          "name": "",
          "type": "bytes32[]"
        }
      ],
      "payable": false,
      "stateMutability": "view",
      "type": "function"
    },
    {
      "constant": false,
      "inputs": [
        {
          "name": "sender",
          "type": "address"
        }
      ],
      "name": "initialize",
      "outputs": [],
      "payable": false,
      "stateMutability": "nonpayable",
      "type": "function"
    },
    {
      "constant": true,
      "inputs": [],
      "name": "dateTimeAddr",
      "outputs": [
        {
          "name": "",
          "type": "address"
        }
      ],
      "payable": false,
      "stateMutability": "view",
      "type": "function"
    },
    {
      "constant": true,
      "inputs": [
        {
          "name": "_tableKey",
          "type": "bytes32"
        }
      ],
      "name": "getTableMetadata",
      "outputs": [
        {
          "name": "permission",
          "type": "uint256"
        },
        {
          "name": "delegate",
          "type": "address"
        }
      ],
      "payable": false,
      "stateMutability": "view",
      "type": "function"
    },
    {
      "constant": false,
      "inputs": [
        {
          "name": "context",
          "type": "bytes"
        },
        {
          "name": "success",
          "type": "bool"
        },
        {
          "name": "actualCharge",
          "type": "uint256"
        },
        {
          "name": "preRetVal",
          "type": "bytes32"
        }
      ],
      "name": "postRelayedCall",
      "outputs": [],
      "payable": false,
      "stateMutability": "nonpayable",
      "type": "function"
    },
    {
      "constant": false,
      "inputs": [
        {
          "name": "tableKey",
          "type": "bytes32"
        },
        {
          "name": "idTableKey",
          "type": "bytes32"
        },
        {
          "name": "idKey",
          "type": "bytes32"
        },
        {
          "name": "id",
          "type": "bytes32"
        }
      ],
      "name": "deleteRow",
      "outputs": [],
      "payable": false,
      "stateMutability": "nonpayable",
      "type": "function"
    },
    {
      "constant": true,
      "inputs": [
        {
          "name": "fieldIdTableKey",
          "type": "bytes32"
        }
      ],
      "name": "getRowValueVar",
      "outputs": [
        {
          "name": "",
          "type": "bytes"
        }
      ],
      "payable": false,
      "stateMutability": "view",
      "type": "function"
    },
    {
      "constant": false,
      "inputs": [
        {
          "name": "newOwner",
          "type": "address"
        }
      ],
      "name": "transferOwnership",
      "outputs": [],
      "payable": false,
      "stateMutability": "nonpayable",
      "type": "function"
    },
    {
      "constant": false,
      "inputs": [
        {
          "name": "dest",
          "type": "address"
        }
      ],
      "name": "withdrawAll",
      "outputs": [
        {
          "name": "",
          "type": "uint256"
        }
      ],
      "payable": false,
      "stateMutability": "nonpayable",
      "type": "function"
    },
    {
      "constant": false,
      "inputs": [
        {
          "name": "tableKey",
          "type": "bytes32"
        },
        {
          "name": "idTableKey",
          "type": "bytes32"
        },
        {
          "name": "idKey",
          "type": "bytes32"
        },
        {
          "name": "id",
          "type": "bytes32"
        },
        {
          "name": "fieldKey",
          "type": "bytes32"
        },
        {
          "name": "fieldIdTableKey",
          "type": "bytes32"
        }
      ],
      "name": "deleteVal",
      "outputs": [],
      "payable": false,
      "stateMutability": "nonpayable",
      "type": "function"
    },
    {
      "payable": true,
      "stateMutability": "payable",
      "type": "fallback"
    },
    {
      "anonymous": false,
      "inputs": [
        {
          "indexed": true,
          "name": "oldRelayHub",
          "type": "address"
        },
        {
          "indexed": true,
          "name": "newRelayHub",
          "type": "address"
        }
      ],
      "name": "RelayHubChanged",
      "type": "event"
    },
    {
      "anonymous": false,
      "inputs": [
        {
          "indexed": true,
          "name": "previousOwner",
          "type": "address"
        },
        {
          "indexed": true,
          "name": "newOwner",
          "type": "address"
        }
      ],
      "name": "OwnershipTransferred",
      "type": "event"
    }
  ],
  "bytecode": "0x6080604052739c71b2e820b067ea466ea81c0cd6852bc8d8604e606660006101000a81548173ffffffffffffffffffffffffffffffffffffffff021916908373ffffffffffffffffffffffffffffffffffffffff160217905550606660009054906101000a900473ffffffffffffffffffffffffffffffffffffffff16606760006101000a81548173ffffffffffffffffffffffffffffffffffffffff021916908373ffffffffffffffffffffffffffffffffffffffff1602179055506157ce806100cb6000396000f3fe608060405260043610610195576000357c0100000000000000000000000000000000000000000000000000000000900463ffffffff168062f714ce1461019757806301ee810a146101c057806319de937a146101eb5780631fd6dda514610214578063365628a2146102515780633c2e85991461027a5780634102fbf6146102a55780634635c2e6146102d057806359cb73a41461030d578063621d114e1461034a5780636729003c14610373578063715018a6146103b057806374e861d6146103c75780637ec7ea8c146103f257806380274db71461042f5780638129fc1c1461046c57806383947ea0146104835780638da5cb5b146104c15780638f32d59b146104ec57806392e8aa6b14610517578063ad61ccd514610540578063bc41c3dd1461056b578063c2309bf914610594578063c4d66de8146105d1578063d2c5ce31146105fa578063d887f10514610625578063e06e0e2214610663578063e293d8171461068c578063e3c504e4146106b5578063f2fde38b146106f2578063fa09e6301461071b578063fc4812f214610758575b005b3480156101a357600080fd5b506101be60048036036101b991908101906146fc565b610781565b005b3480156101cc57600080fd5b506101d5610863565b6040516101e2919061553b565b60405180910390f35b3480156101f757600080fd5b50610212600480360361020d919081019061445f565b61087a565b005b34801561022057600080fd5b5061023b600480360361023691908101906142ac565b610ad8565b60405161024891906150c2565b60405180910390f35b34801561025d57600080fd5b5061027860048036036102739190810190614515565b610af5565b005b34801561028657600080fd5b5061028f610be7565b60405161029c919061549e565b60405180910390f35b3480156102b157600080fd5b506102ba610c9a565b6040516102c791906150dd565b60405180910390f35b3480156102dc57600080fd5b506102f760048036036102f291908101906142ac565b610cc1565b60405161030491906150c2565b60405180910390f35b34801561031957600080fd5b50610334600480360361032f91908101906142ac565b610cde565b604051610341919061549e565b60405180910390f35b34801561035657600080fd5b50610371600480360361036c91908101906143c1565b610cf6565b005b34801561037f57600080fd5b5061039a600480360361039591908101906142ac565b610ffc565b6040516103a791906150dd565b60405180910390f35b3480156103bc57600080fd5b506103c561103f565b005b3480156103d357600080fd5b506103dc611149565b6040516103e9919061506a565b60405180910390f35b3480156103fe57600080fd5b50610419600480360361041491908101906142ac565b611158565b604051610426919061547c565b60405180910390f35b34801561043b57600080fd5b50610456600480360361045191908101906145bc565b611189565b60405161046391906150dd565b60405180910390f35b34801561047857600080fd5b50610481611257565b005b34801561048f57600080fd5b506104aa60048036036104a591908101906141ac565b61135b565b6040516104b892919061550b565b60405180910390f35b3480156104cd57600080fd5b506104d66113da565b6040516104e3919061506a565b60405180910390f35b3480156104f857600080fd5b50610501611404565b60405161050e91906150c2565b60405180910390f35b34801561052357600080fd5b5061053e600480360361053991908101906143c1565b611463565b005b34801561054c57600080fd5b506105556116c1565b604051610562919061511a565b60405180910390f35b34801561057757600080fd5b50610592600480360361058d91908101906146aa565b6116fe565b005b3480156105a057600080fd5b506105bb60048036036105b691908101906142ac565b61176d565b6040516105c891906150a0565b60405180910390f35b3480156105dd57600080fd5b506105f860048036036105f3919081019061415a565b6117e6565b005b34801561060657600080fd5b5061060f611990565b60405161061c919061506a565b60405180910390f35b34801561063157600080fd5b5061064c600480360361064791908101906142ac565b6119b6565b60405161065a9291906154b9565b60405180910390f35b34801561066f57600080fd5b5061068a60048036036106859190810190614601565b611a4b565b005b34801561069857600080fd5b506106b360048036036106ae91908101906142d5565b611b19565b005b3480156106c157600080fd5b506106dc60048036036106d791908101906142ac565b611dcb565b6040516106e991906150f8565b60405180910390f35b3480156106fe57600080fd5b506107196004803603610714919081019061415a565b611e3e565b005b34801561072757600080fd5b50610742600480360361073d9190810190614183565b611e93565b60405161074f919061549e565b60405180910390f35b34801561076457600080fd5b5061077f600480360361077a9190810190614338565b61202c565b005b610789611404565b15156107ca576040517f08c379a00000000000000000000000000000000000000000000000000000000081526004016107c1906152dc565b60405180910390fd5b60006107d461237e565b90508073ffffffffffffffffffffffffffffffffffffffff1662f714ce84846040518363ffffffff167c010000000000000000000000000000000000000000000000000000000002815260040161082c9291906154e2565b600060405180830381600087803b15801561084657600080fd5b505af115801561085a573d6000803e3d6000fd5b50505050505050565b606960009054906101000a900464ffffffffff1681565b868487600080610889856119b6565b915091506000821115156108d2576040517f08c379a00000000000000000000000000000000000000000000000000000000081526004016108c9906151dc565b60405180910390fd5b60018211806108ec5750600115156108e8611404565b1515145b8061092957506108fa61238d565b73ffffffffffffffffffffffffffffffffffffffff168173ffffffffffffffffffffffffffffffffffffffff16145b151561096a576040517f08c379a00000000000000000000000000000000000000000000000000000000081526004016109619061529c565b60405180910390fd5b600115156109798587866123e1565b15151415156109bd576040517f08c379a00000000000000000000000000000000000000000000000000000000081526004016109b4906151fc565b60405180910390fd5b60018211156109e5576109e3836109d261238d565b606e6124419092919063ffffffff16565b505b600015156109fd8b606e61247090919063ffffffff16565b1515141515610a41576040517f08c379a0000000000000000000000000000000000000000000000000000000008152600401610a389061531c565b60405180910390fd5b60011515610a50898d8d6123e1565b1515141515610a94576040517f08c379a0000000000000000000000000000000000000000000000000000000008152600401610a8b9061545c565b60405180910390fd5b610a9c6124e7565b610ab28c88606b61252a9092919063ffffffff16565b50610ac98a87606e6125759092919063ffffffff16565b50505050505050505050505050565b6000610aee82606e61247090919063ffffffff16565b9050919050565b610afd611404565b1515610b3e576040517f08c379a0000000000000000000000000000000000000000000000000000000008152600401610b35906152dc565b60405180910390fd5b6000600102606a600086815260200190815260200160002054141515610b99576040517f08c379a0000000000000000000000000000000000000000000000000000000008152600401610b909061537c565b60405180910390fd5b6000809050610ba98585836126a0565b610bbd85606b61274c90919063ffffffff16565b50610bc6613e35565b610bd187858561276c565b9050610bdd86826127e9565b5050505050505050565b6000610bf161237e565b73ffffffffffffffffffffffffffffffffffffffff166370a08231306040518263ffffffff167c0100000000000000000000000000000000000000000000000000000000028152600401610c459190615085565b60206040518083038186803b158015610c5d57600080fd5b505afa158015610c71573d6000803e3d6000fd5b505050506040513d601f19601f82011682018060405250610c9591908101906146d3565b905090565b7f736368656d61732e7075626c69632e7461626c6573000000000000000000000060010281565b6000610cd782606b61281790919063ffffffff16565b9050919050565b60686020528060005260406000206000915090505481565b868487600080610d05856119b6565b91509150600082111515610d4e576040517f08c379a0000000000000000000000000000000000000000000000000000000008152600401610d459061519c565b60405180910390fd5b6001821180610d68575060011515610d64611404565b1515145b80610da55750610d7661238d565b73ffffffffffffffffffffffffffffffffffffffff168173ffffffffffffffffffffffffffffffffffffffff16145b1515610de6576040517f08c379a0000000000000000000000000000000000000000000000000000000008152600401610ddd9061523c565b60405180910390fd5b60011515610df58587866123e1565b1515141515610e39576040517f08c379a0000000000000000000000000000000000000000000000000000000008152600401610e30906151fc565b60405180910390fd5b600282101515610f1e57610e4b611404565b80610e885750610e5961238d565b73ffffffffffffffffffffffffffffffffffffffff168173ffffffffffffffffffffffffffffffffffffffff16145b15610e9257610f1d565b610e9a61238d565b73ffffffffffffffffffffffffffffffffffffffff16610ec484606e61283790919063ffffffff16565b73ffffffffffffffffffffffffffffffffffffffff16141515610f1c576040517f08c379a0000000000000000000000000000000000000000000000000000000008152600401610f139061543c565b60405180910390fd5b5b5b60011515610f388d89606b61285b9092919063ffffffff16565b1515141515610f7c576040517f08c379a0000000000000000000000000000000000000000000000000000000008152600401610f73906153fc565b60405180910390fd5b60011515610f8b898d8d6123e1565b1515141515610fcf576040517f08c379a0000000000000000000000000000000000000000000000000000000008152600401610fc69061545c565b60405180910390fd5b610fd76124e7565b610fed8a87606e6128a69092919063ffffffff16565b50505050505050505050505050565b600061101282606e61247090919063ffffffff16565b156110325761102b82606e6129d190919063ffffffff16565b905061103a565b600060010290505b919050565b611047611404565b1515611088576040517f08c379a000000000000000000000000000000000000000000000000000000000815260040161107f906152dc565b60405180910390fd5b600073ffffffffffffffffffffffffffffffffffffffff16603360009054906101000a900473ffffffffffffffffffffffffffffffffffffffff1673ffffffffffffffffffffffffffffffffffffffff167f8be0079c531659141344cd1fd0a4f28419497f9722a3daafe3b4186f6b6457e060405160405180910390a36000603360006101000a81548173ffffffffffffffffffffffffffffffffffffffff021916908373ffffffffffffffffffffffffffffffffffffffff160217905550565b60006111536129f1565b905090565b611160613e35565b606061117683606e612a2290919063ffffffff16565b905061118181612a42565b915050919050565b6000611193611149565b73ffffffffffffffffffffffffffffffffffffffff163373ffffffffffffffffffffffffffffffffffffffff16141515611202576040517f08c379a00000000000000000000000000000000000000000000000000000000081526004016111f99061515c565b60405180910390fd5b61124f83838080601f016020809104026020016040519081016040528093929190818152602001838380828437600081840152601f19601f82011690508083019250505050505050612aeb565b905092915050565b600060019054906101000a900460ff16806112765750611275612af2565b5b8061128d57506000809054906101000a900460ff16155b15156112ce576040517f08c379a00000000000000000000000000000000000000000000000000000000081526004016112c5906152fc565b60405180910390fd5b60008060019054906101000a900460ff16159050801561131e576001600060016101000a81548160ff02191690831515021790555060016000806101000a81548160ff0219169083151502179055505b611327336117e6565b61132f612b09565b611337612bfc565b80156113585760008060016101000a81548160ff0219169083151502179055505b50565b600060606000611369612c23565b9050600060686000838152602001908152602001600020549050606960009054906101000a900464ffffffffff1664ffffffffff16811015156113bb576113b06002612ede565b9350935050506113ca565b6113c3612f00565b9350935050505b9b509b9950505050505050505050565b6000603360009054906101000a900473ffffffffffffffffffffffffffffffffffffffff16905090565b6000603360009054906101000a900473ffffffffffffffffffffffffffffffffffffffff1673ffffffffffffffffffffffffffffffffffffffff1661144761238d565b73ffffffffffffffffffffffffffffffffffffffff1614905090565b868487600080611472856119b6565b915091506000821115156114bb576040517f08c379a00000000000000000000000000000000000000000000000000000000081526004016114b2906151dc565b60405180910390fd5b60018211806114d55750600115156114d1611404565b1515145b8061151257506114e361238d565b73ffffffffffffffffffffffffffffffffffffffff168173ffffffffffffffffffffffffffffffffffffffff16145b1515611553576040517f08c379a000000000000000000000000000000000000000000000000000000000815260040161154a9061529c565b60405180910390fd5b600115156115628587866123e1565b15151415156115a6576040517f08c379a000000000000000000000000000000000000000000000000000000000815260040161159d906151fc565b60405180910390fd5b60018211156115ce576115cc836115bb61238d565b606e6124419092919063ffffffff16565b505b600015156115e68b606e61247090919063ffffffff16565b151514151561162a576040517f08c379a00000000000000000000000000000000000000000000000000000000081526004016116219061531c565b60405180910390fd5b60011515611639898d8d6123e1565b151514151561167d576040517f08c379a00000000000000000000000000000000000000000000000000000000081526004016116749061545c565b60405180910390fd5b6116856124e7565b61169b8c88606b61252a9092919063ffffffff16565b506116b28a87606e6128a69092919063ffffffff16565b50505050505050505050505050565b60606040805190810160405280600581526020017f312e302e30000000000000000000000000000000000000000000000000000000815250905090565b611706611404565b1515611747576040517f08c379a000000000000000000000000000000000000000000000000000000000815260040161173e906152dc565b60405180910390fd5b80606960006101000a81548164ffffffffff021916908364ffffffffff16021790555050565b60606001151561178783606b61281790919063ffffffff16565b15151415156117cb576040517f08c379a00000000000000000000000000000000000000000000000000000000081526004016117c2906153bc565b60405180910390fd5b6117df82606b612f2590919063ffffffff16565b9050919050565b600060019054906101000a900460ff16806118055750611804612af2565b5b8061181c57506000809054906101000a900460ff16155b151561185d576040517f08c379a0000000000000000000000000000000000000000000000000000000008152600401611854906152fc565b60405180910390fd5b60008060019054906101000a900460ff1615905080156118ad576001600060016101000a81548160ff02191690831515021790555060016000806101000a81548160ff0219169083151502179055505b81603360006101000a81548173ffffffffffffffffffffffffffffffffffffffff021916908373ffffffffffffffffffffffffffffffffffffffff160217905550603360009054906101000a900473ffffffffffffffffffffffffffffffffffffffff1673ffffffffffffffffffffffffffffffffffffffff16600073ffffffffffffffffffffffffffffffffffffffff167f8be0079c531659141344cd1fd0a4f28419497f9722a3daafe3b4186f6b6457e060405160405180910390a3801561198c5760008060016101000a81548160ff0219169083151502179055505b5050565b606660009054906101000a900473ffffffffffffffffffffffffffffffffffffffff1681565b6000806000600102606a600085815260200190815260200160002054111515611a14576040517f08c379a0000000000000000000000000000000000000000000000000000000008152600401611a0b9061541c565b60405180910390fd5b6000606a6000858152602001908152602001600020546001900490508060ff169250600881908060020a8204915050915050915091565b611a53611149565b73ffffffffffffffffffffffffffffffffffffffff163373ffffffffffffffffffffffffffffffffffffffff16141515611ac2576040517f08c379a0000000000000000000000000000000000000000000000000000000008152600401611ab99061515c565b60405180910390fd5b611b1285858080601f016020809104026020016040519081016040528093929190818152602001838380828437600081840152601f19601f82011690508083019250505050505050848484612f94565b5050505050565b8383838360011515611b378583606b61285b9092919063ffffffff16565b1515141515611b7b576040517f08c379a0000000000000000000000000000000000000000000000000000000008152600401611b729061539c565b60405180910390fd5b600080611b87866119b6565b91509150600082111515611bd0576040517f08c379a0000000000000000000000000000000000000000000000000000000008152600401611bc79061517c565b60405180910390fd5b6001821180611bea575060011515611be6611404565b1515145b80611c275750611bf861238d565b73ffffffffffffffffffffffffffffffffffffffff168173ffffffffffffffffffffffffffffffffffffffff16145b1515611c68576040517f08c379a0000000000000000000000000000000000000000000000000000000008152600401611c5f9061533c565b60405180910390fd5b60011515611c778588886123e1565b1515141515611cbb576040517f08c379a0000000000000000000000000000000000000000000000000000000008152600401611cb2906151fc565b60405180910390fd5b600282101515611da057611ccd611404565b80611d0a5750611cdb61238d565b73ffffffffffffffffffffffffffffffffffffffff168173ffffffffffffffffffffffffffffffffffffffff16145b15611d1457611d9f565b611d1c61238d565b73ffffffffffffffffffffffffffffffffffffffff16611d4686606e61283790919063ffffffff16565b73ffffffffffffffffffffffffffffffffffffffff16141515611d9e576040517f08c379a0000000000000000000000000000000000000000000000000000000008152600401611d959061543c565b60405180910390fd5b5b5b611da86124e7565b611dbe8a88606b612f9a9092919063ffffffff16565b5050505050505050505050565b6060611de182606e61247090919063ffffffff16565b15611e0157611dfa82606e612a2290919063ffffffff16565b9050611e39565b60006040519080825280601f01601f191660200182016040528015611e355781602001600182028038833980820191505090505b5090505b919050565b611e46611404565b1515611e87576040517f08c379a0000000000000000000000000000000000000000000000000000000008152600401611e7e906152dc565b60405180910390fd5b611e9081612fe5565b50565b6000611e9d611404565b1515611ede576040517f08c379a0000000000000000000000000000000000000000000000000000000008152600401611ed5906152dc565b60405180910390fd5b6000611ee861237e565b90506000611ef461237e565b73ffffffffffffffffffffffffffffffffffffffff166370a08231306040518263ffffffff167c0100000000000000000000000000000000000000000000000000000000028152600401611f489190615085565b60206040518083038186803b158015611f6057600080fd5b505afa158015611f74573d6000803e3d6000fd5b505050506040513d601f19601f82011682018060405250611f9891908101906146d3565b90508173ffffffffffffffffffffffffffffffffffffffff1662f714ce82866040518363ffffffff167c0100000000000000000000000000000000000000000000000000000000028152600401611ff09291906154e2565b600060405180830381600087803b15801561200a57600080fd5b505af115801561201e573d6000803e3d6000fd5b505050508092505050919050565b858585856001151561204a8583606b61285b9092919063ffffffff16565b151514151561208e576040517f08c379a00000000000000000000000000000000000000000000000000000000081526004016120859061539c565b60405180910390fd5b60008061209a866119b6565b915091506000821115156120e3576040517f08c379a00000000000000000000000000000000000000000000000000000000081526004016120da9061517c565b60405180910390fd5b60018211806120fd5750600115156120f9611404565b1515145b8061213a575061210b61238d565b73ffffffffffffffffffffffffffffffffffffffff168173ffffffffffffffffffffffffffffffffffffffff16145b151561217b576040517f08c379a00000000000000000000000000000000000000000000000000000000081526004016121729061533c565b60405180910390fd5b6001151561218a8588886123e1565b15151415156121ce576040517f08c379a00000000000000000000000000000000000000000000000000000000081526004016121c5906151fc565b60405180910390fd5b6002821015156122b3576121e0611404565b8061221d57506121ee61238d565b73ffffffffffffffffffffffffffffffffffffffff168173ffffffffffffffffffffffffffffffffffffffff16145b15612227576122b2565b61222f61238d565b73ffffffffffffffffffffffffffffffffffffffff1661225986606e61283790919063ffffffff16565b73ffffffffffffffffffffffffffffffffffffffff161415156122b1576040517f08c379a00000000000000000000000000000000000000000000000000000000081526004016122a89061543c565b60405180910390fd5b5b5b600115156122c2898d8a6123e1565b1515141515612306576040517f08c379a00000000000000000000000000000000000000000000000000000000081526004016122fd9061545c565b60405180910390fd5b61230e6124e7565b600061232488606e61311790919063ffffffff16565b90506001151581151514151561236f576040517f08c379a0000000000000000000000000000000000000000000000000000000008152600401612366906152bc565b60405180910390fd5b50505050505050505050505050565b60006123886129f1565b905090565b60006123976129f1565b73ffffffffffffffffffffffffffffffffffffffff163373ffffffffffffffffffffffffffffffffffffffff161415156123d3573390506123de565b6123db61318e565b90505b90565b60006060604080519080825280601f01601f1916602001820160405280156124185781602001600182028038833980820191505090505b509050846040820152836020820152600081805190602001209050838114925050509392505050565b600061246784848473ffffffffffffffffffffffffffffffffffffffff166001026128a6565b90509392505050565b6000612488828460000161320690919063ffffffff16565b806124a557506124a4828460030161322690919063ffffffff16565b5b806124c257506124c1828460060161281790919063ffffffff16565b5b806124df57506124de828460090161324690919063ffffffff16565b5b905092915050565b60006124f1612c23565b90506000606860008381526020019081526020016000205490506001810160686000848152602001908152602001600020819055505050565b60006125368484612817565b15612569576125628285600001600086815260200190815260200160002061326690919063ffffffff16565b905061256e565b600090505b9392505050565b600061258d838560000161320690919063ffffffff16565b1515156125cf576040517f08c379a00000000000000000000000000000000000000000000000000000000081526004016125c69061525c565b60405180910390fd5b6125e5838560060161281790919063ffffffff16565b151515612627576040517f08c379a000000000000000000000000000000000000000000000000000000000815260040161261e9061525c565b60405180910390fd5b61263d838560090161324690919063ffffffff16565b15151561267f576040517f08c379a00000000000000000000000000000000000000000000000000000000081526004016126769061525c565b60405180910390fd5b6126978383866003016132d29092919063ffffffff16565b90509392505050565b6126a8611404565b15156126e9576040517f08c379a00000000000000000000000000000000000000000000000000000000081526004016126e0906152dc565b60405180910390fd5b60008260ff168117905060088273ffffffffffffffffffffffffffffffffffffffff169060020a0273ffffffffffffffffffffffffffffffffffffffff168117905080600102606a60008681526020019081526020016000208190555050505050565b6000612764828460010161326690919063ffffffff16565b905092915050565b612774613e35565b815183511415156127ba576040517f08c379a00000000000000000000000000000000000000000000000000000000081526004016127b19061527c565b60405180910390fd5b6127c2613e35565b848160000181815250506127d6848461331d565b8160200181905250809150509392505050565b600060606127f683613433565b905061280e8482606e6125759092919063ffffffff16565b91505092915050565b600061282f828460010161350390919063ffffffff16565b905092915050565b600061284f828460000161352690919063ffffffff16565b60019004905092915050565b60006128678484612817565b1561289a576128938285600001600086815260200190815260200160002061350390919063ffffffff16565b905061289f565b600090505b9392505050565b60006128be838560030161322690919063ffffffff16565b151515612900576040517f08c379a00000000000000000000000000000000000000000000000000000000081526004016128f79061525c565b60405180910390fd5b612916838560060161281790919063ffffffff16565b151515612958576040517f08c379a000000000000000000000000000000000000000000000000000000000815260040161294f9061525c565b60405180910390fd5b61296e838560090161324690919063ffffffff16565b1515156129b0576040517f08c379a00000000000000000000000000000000000000000000000000000000081526004016129a79061525c565b60405180910390fd5b6129c88383866000016135919092919063ffffffff16565b90509392505050565b60006129e9828460000161352690919063ffffffff16565b905092915050565b6000807f06b7792c761dcc05af1761f0315ce8b01ac39c16cc934eb0b2f7a8e71414f2626001029050805491505090565b6060612a3a82846003016135cc90919063ffffffff16565b905092915050565b612a4a613e35565b600082519050612a58613e35565b612a6b82856136cf90919063ffffffff16565b816000018181525050602082039150612a8d82856136dd90919063ffffffff16565b819150826020018194508290525050600082141515612ae1576040517f08c379a0000000000000000000000000000000000000000000000000000000008152600401612ad89061513c565b60405180910390fd5b8092505050919050565b6000919050565b6000803090506000813b9050600081149250505090565b600060019054906101000a900460ff1680612b285750612b27612af2565b5b80612b3f57506000809054906101000a900460ff16155b1515612b80576040517f08c379a0000000000000000000000000000000000000000000000000000000008152600401612b77906152fc565b60405180910390fd5b60008060019054906101000a900460ff161590508015612bd0576001600060016101000a81548160ff02191690831515021790555060016000806101000a81548160ff0219169083151502179055505b612bd86137e8565b8015612bf95760008060016101000a81548160ff0219169083151502179055505b50565b6103e8606960006101000a81548164ffffffffff021916908364ffffffffff160217905550565b6000806000606760009054906101000a900473ffffffffffffffffffffffffffffffffffffffff1673ffffffffffffffffffffffffffffffffffffffff166392d66313426040518263ffffffff167c0100000000000000000000000000000000000000000000000000000000028152600401612c9f919061549e565b60206040518083038186803b158015612cb757600080fd5b505afa158015612ccb573d6000803e3d6000fd5b505050506040513d601f19601f82011682018060405250612cef9190810190614681565b90506000606760009054906101000a900473ffffffffffffffffffffffffffffffffffffffff1673ffffffffffffffffffffffffffffffffffffffff1663a324ad24426040518263ffffffff167c0100000000000000000000000000000000000000000000000000000000028152600401612d6a919061549e565b60206040518083038186803b158015612d8257600080fd5b505afa158015612d96573d6000803e3d6000fd5b505050506040513d601f19601f82011682018060405250612dba9190810190614738565b90506000606760009054906101000a900473ffffffffffffffffffffffffffffffffffffffff1673ffffffffffffffffffffffffffffffffffffffff166365c72840426040518263ffffffff167c0100000000000000000000000000000000000000000000000000000000028152600401612e35919061549e565b60206040518083038186803b158015612e4d57600080fd5b505afa158015612e61573d6000803e3d6000fd5b505050506040513d601f19601f82011682018060405250612e859190810190614738565b90508261ffff168417935060108260ff169060020a028417935060188160ff169060020a028417935083604051602001808281526020019150506040516020818303038152906040528051906020012094505050505090565b6000606082600b01602060405190810160405280600081525091509150915091565b60006060612f1d60206040519081016040528060008152506138f0565b915091509091565b6060612f318383612817565b15612f5a57612f53836000016000848152602001908152602001600020613900565b9050612f8e565b6000604051908082528060200260200182016040528015612f8a5781602001602082028038833980820191505090505b5090505b92915050565b50505050565b6000612fa68484612817565b15612fd957612fd28285600001600086815260200190815260200160002061399d90919063ffffffff16565b9050612fde565b600090505b9392505050565b600073ffffffffffffffffffffffffffffffffffffffff168173ffffffffffffffffffffffffffffffffffffffff1614151515613057576040517f08c379a000000000000000000000000000000000000000000000000000000000815260040161304e906151bc565b60405180910390fd5b8073ffffffffffffffffffffffffffffffffffffffff16603360009054906101000a900473ffffffffffffffffffffffffffffffffffffffff1673ffffffffffffffffffffffffffffffffffffffff167f8be0079c531659141344cd1fd0a4f28419497f9722a3daafe3b4186f6b6457e060405160405180910390a380603360006101000a81548173ffffffffffffffffffffffffffffffffffffffff021916908373ffffffffffffffffffffffffffffffffffffffff16021790555050565b600061312f8284600001613a9690919063ffffffff16565b8061314c575061314b8284600301613ae890919063ffffffff16565b5b8061316957506131688284600601613b4290919063ffffffff16565b5b8061318657506131858284600901613b7b90919063ffffffff16565b5b905092915050565b600060606000368080601f016020809104026020016040519081016040528093929190818152602001838380828437600081840152601f19601f820116905080830192505050505050509050600080369050905073ffffffffffffffffffffffffffffffffffffffff81830151169250829250505090565b600061321e828460010161350390919063ffffffff16565b905092915050565b600061323e828460010161350390919063ffffffff16565b905092915050565b600061325e828460010161350390919063ffffffff16565b905092915050565b60006132728383613503565b15156132c75782600101829080600181540180825580915050906001820390600052602060002001600090919290919091505583600001600084815260200190815260200160002081905550600190506132cc565b600090505b92915050565b60008184600001600085815260200190815260200160002090805190602001906132fd929190613e52565b50613314838560010161326690919063ffffffff16565b90509392505050565b606081518351141515613365576040517f08c379a000000000000000000000000000000000000000000000000000000000815260040161335c9061527c565b60405180910390fd5b606083516040519080825280602002602001820160405280156133a257816020015b61338f613ed2565b8152602001906001900390816133875790505b50905060008090505b8451811015613428576133bc613ef2565b85828151811015156133ca57fe5b9060200190602002015181600001818152505084828151811015156133eb57fe5b9060200190602002015181602001818152505080838381518110151561340d57fe5b906020019060200201819052505080806001019150506133ab565b508091505092915050565b6060600061344083613bb4565b90506060816040519080825280601f01601f1916602001820160405280156134775781602001600182028038833980820191505090505b50905061349382828660000151613bcf9092919063ffffffff16565b6020820391506134b282828660200151613bd99092919063ffffffff16565b91506000821415156134f9576040517f08c379a00000000000000000000000000000000000000000000000000000000081526004016134f09061513c565b60405180910390fd5b8092505050919050565b600080836000016000848152602001908152602001600020541415905092915050565b60006135328383613206565b1515613573576040517f08c379a000000000000000000000000000000000000000000000000000000000815260040161356a906153dc565b60405180910390fd5b82600001600083815260200190815260200160002054905092915050565b600081846000016000858152602001908152602001600020819055506135c3838560010161326690919063ffffffff16565b90509392505050565b60606135d88383613226565b1515613619576040517f08c379a0000000000000000000000000000000000000000000000000000000008152600401613610906153dc565b60405180910390fd5b8260000160008381526020019081526020016000208054600181600116156101000203166002900480601f0160208091040260200160405190810160405280929190818152602001828054600181600116156101000203166002900480156136c25780601f10613697576101008083540402835291602001916136c2565b820191906000526020600020905b8154815290600101906020018083116136a557829003601f168201915b5050505050905092915050565b600081830151905092915050565b606060008083905060006136fa8287613c9690919063ffffffff16565b9050602082039150600060408281151561371057fe5b04905060608160405190808252806020026020018201604052801561374f57816020015b61373c613ed2565b8152602001906001900390816137345790505b50905060008090505b828110156137d657613768613ef2565b61377b868b6136cf90919063ffffffff16565b81600001818152505060208603955061379d868b6136cf90919063ffffffff16565b8160200181815250506020860395508083838151811015156137bb57fe5b90602001906020020181905250508080600101915050613758565b50808495509550505050509250929050565b600060019054906101000a900460ff16806138075750613806612af2565b5b8061381e57506000809054906101000a900460ff16155b151561385f576040517f08c379a0000000000000000000000000000000000000000000000000000000008152600401613856906152fc565b60405180910390fd5b60008060019054906101000a900460ff1615905080156138af576001600060016101000a81548160ff02191690831515021790555060016000806101000a81548160ff0219169083151502179055505b6138cc73d216153c06e857cd7f72665e0af1d7d82172f494613ca4565b80156138ed5760008060016101000a81548160ff0219169083151502179055505b50565b6000606060008391509150915091565b60608082600101805490506040519080825280602002602001820160405280156139395781602001602082028038833980820191505090505b50905060005b836001018054905081101561399357836001018181548110151561395f57fe5b9060005260206000200154828281518110151561397857fe5b9060200190602002018181525050808060010191505061393f565b5080915050919050565b60006139a98383613503565b15613a8b5760006001846000016000858152602001908152602001600020540390506000600185600101805490500390508181141515613a4257600085600101828154811015156139f657fe5b90600052602060002001549050808660010184815481101515613a1557fe5b90600052602060002001819055506001830186600001600083815260200190815260200160002081905550505b84600001600085815260200190815260200160002060009055846001018054801515613a6a57fe5b60019003818190600052602060002001600090559055600192505050613a90565b600090505b92915050565b6000613aa28383613206565b15613add5782600001600083815260200190815260200160002060009055613ad6828460010161399d90919063ffffffff16565b9050613ae2565b600090505b92915050565b6000613af48383613226565b15613b37578260000160008381526020019081526020016000206000613b1a9190613f12565b613b30828460010161399d90919063ffffffff16565b9050613b3c565b600090505b92915050565b6000613b4e8383612817565b15613b7057613b69828460010161399d90919063ffffffff16565b9050613b75565b600090505b92915050565b6000613b878383613246565b15613ba957613ba2828460010161399d90919063ffffffff16565b9050613bae565b600090505b92915050565b6000613bc38260200151613e1d565b60208001019050919050565b8282820152505050565b600080839050613bfc8184613bed88613e1d565b613e2b9092919063ffffffff16565b60208103905060008090505b8551811015613c8a57613c4182858884815181101515613c2457fe5b9060200190602002015160000151613bcf9092919063ffffffff16565b602082039150613c7782858884815181101515613c5a57fe5b9060200190602002015160200151613bcf9092919063ffffffff16565b6020820391508080600101915050613c08565b50809150509392505050565b600081830151905092915050565b6000613cae6129f1565b9050600073ffffffffffffffffffffffffffffffffffffffff168273ffffffffffffffffffffffffffffffffffffffff1614151515613d22576040517f08c379a0000000000000000000000000000000000000000000000000000000008152600401613d199061535c565b60405180910390fd5b8073ffffffffffffffffffffffffffffffffffffffff168273ffffffffffffffffffffffffffffffffffffffff1614151515613d93576040517f08c379a0000000000000000000000000000000000000000000000000000000008152600401613d8a9061521c565b60405180910390fd5b8173ffffffffffffffffffffffffffffffffffffffff168173ffffffffffffffffffffffffffffffffffffffff167fb9f84b8e65164b14439ae3620df0a4d8786d896996c0282b683f9d8c08f046e860405160405180910390a360007f06b7792c761dcc05af1761f0315ce8b01ac39c16cc934eb0b2f7a8e71414f2626001029050828155505050565b600060408251029050919050565b8282820152505050565b604080519081016040528060008019168152602001606081525090565b828054600181600116156101000203166002900490600052602060002090601f016020900481019282601f10613e9357805160ff1916838001178555613ec1565b82800160010185558215613ec1579182015b82811115613ec0578251825591602001919060010190613ea5565b5b509050613ece9190613f5a565b5090565b604080519081016040528060008019168152602001600080191681525090565b604080519081016040528060008019168152602001600080191681525090565b50805460018160011615610100020316600290046000825580601f10613f385750613f57565b601f016020900490600052602060002090810190613f569190613f5a565b5b50565b613f7c91905b80821115613f78576000816000905550600101613f60565b5090565b90565b6000613f8b82356156ac565b905092915050565b6000613f9f82356156be565b905092915050565b600082601f8301121515613fba57600080fd5b8135613fcd613fc882615583565b615556565b91508181835260208401935060208101905083856020840282011115613ff257600080fd5b60005b8381101561402257816140088882614040565b845260208401935060208301925050600181019050613ff5565b5050505092915050565b600061403882356156d0565b905092915050565b600061404c82356156dc565b905092915050565b60008083601f840112151561406857600080fd5b8235905067ffffffffffffffff81111561408157600080fd5b60208301915083600182028301111561409957600080fd5b9250929050565b600082601f83011215156140b357600080fd5b81356140c66140c1826155ab565b615556565b915080825260208301602083018583830111156140e257600080fd5b6140ed838284615741565b50505092915050565b600061410282516156e6565b905092915050565b600061411682356156f4565b905092915050565b600061412a82516156f4565b905092915050565b600061413e82356156fe565b905092915050565b600061415282516156fe565b905092915050565b60006020828403121561416c57600080fd5b600061417a84828501613f7f565b91505092915050565b60006020828403121561419557600080fd5b60006141a384828501613f93565b91505092915050565b60008060008060008060008060008060006101208c8e0312156141ce57600080fd5b60006141dc8e828f01613f7f565b9b505060206141ed8e828f01613f7f565b9a505060408c013567ffffffffffffffff81111561420a57600080fd5b6142168e828f01614054565b995099505060606142298e828f0161410a565b975050608061423a8e828f0161410a565b96505060a061424b8e828f0161410a565b95505060c061425c8e828f0161410a565b94505060e08c013567ffffffffffffffff81111561427957600080fd5b6142858e828f01614054565b93509350506101006142998e828f0161410a565b9150509295989b509295989b9093969950565b6000602082840312156142be57600080fd5b60006142cc84828501614040565b91505092915050565b600080600080608085870312156142eb57600080fd5b60006142f987828801614040565b945050602061430a87828801614040565b935050604061431b87828801614040565b925050606061432c87828801614040565b91505092959194509250565b60008060008060008060c0878903121561435157600080fd5b600061435f89828a01614040565b965050602061437089828a01614040565b955050604061438189828a01614040565b945050606061439289828a01614040565b93505060806143a389828a01614040565b92505060a06143b489828a01614040565b9150509295509295509295565b600080600080600080600060e0888a0312156143dc57600080fd5b60006143ea8a828b01614040565b97505060206143fb8a828b01614040565b965050604061440c8a828b01614040565b955050606061441d8a828b01614040565b945050608061442e8a828b01614040565b93505060a061443f8a828b01614040565b92505060c06144508a828b01614040565b91505092959891949750929550565b600080600080600080600060e0888a03121561447a57600080fd5b60006144888a828b01614040565b97505060206144998a828b01614040565b96505060406144aa8a828b01614040565b95505060606144bb8a828b01614040565b94505060806144cc8a828b01614040565b93505060a06144dd8a828b01614040565b92505060c088013567ffffffffffffffff8111156144fa57600080fd5b6145068a828b016140a0565b91505092959891949750929550565b600080600080600060a0868803121561452d57600080fd5b600061453b88828901614040565b955050602061454c88828901614040565b945050604061455d88828901614132565b935050606086013567ffffffffffffffff81111561457a57600080fd5b61458688828901613fa7565b925050608086013567ffffffffffffffff8111156145a357600080fd5b6145af88828901613fa7565b9150509295509295909350565b600080602083850312156145cf57600080fd5b600083013567ffffffffffffffff8111156145e957600080fd5b6145f585828601614054565b92509250509250929050565b60008060008060006080868803121561461957600080fd5b600086013567ffffffffffffffff81111561463357600080fd5b61463f88828901614054565b955095505060206146528882890161402c565b93505060406146638882890161410a565b925050606061467488828901614040565b9150509295509295909350565b60006020828403121561469357600080fd5b60006146a1848285016140f6565b91505092915050565b6000602082840312156146bc57600080fd5b60006146ca8482850161410a565b91505092915050565b6000602082840312156146e557600080fd5b60006146f38482850161411e565b91505092915050565b6000806040838503121561470f57600080fd5b600061471d8582860161410a565b925050602061472e85828601613f93565b9150509250929050565b60006020828403121561474a57600080fd5b600061475884828501614146565b91505092915050565b61476a8161570b565b82525050565b61477981615649565b82525050565b61478881615637565b82525050565b6000614799826155f1565b8084526020840193506147ab836155d7565b60005b828110156147dd576147c1868351614853565b6147ca8261561d565b91506020860195506001810190506147ae565b50849250505092915050565b60006147f4826155fc565b808452602084019350614806836155e4565b60005b828110156148385761481c868351614fe0565b6148258261562a565b9150604086019550600181019050614809565b50849250505092915050565b61484d8161565b565b82525050565b61485c81615667565b82525050565b600061486d82615607565b808452614881816020860160208601615750565b61488a81615783565b602085010191505092915050565b60006148a382615612565b8084526148b7816020860160208601615750565b6148c081615783565b602085010191505092915050565b6000601c82527f456e636f64696e67204572726f723a206f666673657420213d20302e000000006020830152604082019050919050565b6000602682527f47534e426f756e636572426173653a2063616c6c6572206973206e6f7420526560208301527f6c617948756200000000000000000000000000000000000000000000000000006040830152606082019050919050565b6000601f82527f43616e6e6f742044454c4554452066726f6d2073797374656d207461626c65006020830152604082019050919050565b6000601a82527f43616e6e6f74205550444154452073797374656d207461626c650000000000006020830152604082019050919050565b6000602682527f4f776e61626c653a206e6577206f776e657220697320746865207a65726f206160208301527f64647265737300000000000000000000000000000000000000000000000000006040830152606082019050919050565b6000601f82527f43616e6e6f7420494e5345525420696e746f2073797374656d207461626c65006020830152604082019050919050565b6000602582527f69645461626c654b6579206e6f7420612073756268617368205b69645d2e5b7460208301527f61626c655d0000000000000000000000000000000000000000000000000000006040830152606082019050919050565b6000602b82527f47534e436f6e746578743a206e65772052656c6179487562206973207468652060208301527f63757272656e74206f6e650000000000000000000000000000000000000000006040830152606082019050919050565b6000602e82527f4f6e6c79206f776e65722f64656c65676174652063616e20555044415445206960208301527f6e746f2074686973207461626c650000000000000000000000000000000000006040830152606082019050919050565b6000602082527f4572726f723a206b65792065786973747320696e206f7468657220646963742e6020830152604082019050919050565b6000601082527f4572726f7220616c69676e6d656e742e000000000000000000000000000000006020830152604082019050919050565b6000602e82527f4f6e6c79206f776e65722f64656c65676174652063616e20494e53455254206960208301527f6e746f2074686973207461626c650000000000000000000000000000000000006040830152606082019050919050565b6000601282527f6572726f722072656d6f76696e67206b657900000000000000000000000000006020830152604082019050919050565b6000602082527f4f776e61626c653a2063616c6c6572206973206e6f7420746865206f776e65726020830152604082019050919050565b6000602e82527f436f6e747261637420696e7374616e63652068617320616c726561647920626560208301527f656e20696e697469616c697a65640000000000000000000000000000000000006040830152606082019050919050565b6000601782527f69642b6669656c6420616c7265616479206578697374730000000000000000006020830152604082019050919050565b6000602e82527f4f6e6c79206f776e65722f64656c65676174652063616e2044454c455445206660208301527f726f6d2074686973207461626c650000000000000000000000000000000000006040830152606082019050919050565b6000602c82527f47534e436f6e746578743a206e65772052656c6179487562206973207468652060208301527f7a65726f206164647265737300000000000000000000000000000000000000006040830152606082019050919050565b6000601482527f5461626c6520616c7265616479206578697374730000000000000000000000006020830152604082019050919050565b6000601082527f696420646f65736e2774206578697374000000000000000000000000000000006020830152604082019050919050565b6000601182527f7461626c65206e6f7420637265617465640000000000000000000000000000006020830152604082019050919050565b6000601382527f4b657920646f6573206e6f7420657869737421000000000000000000000000006020830152604082019050919050565b6000601c82527f696420646f65736e27742065786973742c2075736520494e53455254000000006020830152604082019050919050565b6000601482527f7461626c6520646f6573206e6f742065786973740000000000000000000000006020830152604082019050919050565b6000601782527f53656e646572206e6f74206f776e6572206f6620726f770000000000000000006020830152604082019050919050565b6000602b82527f6669656c644b6579206e6f7420612073756268617368205b6669656c645d2e5b60208301527f69645d2e5b7461626c655d0000000000000000000000000000000000000000006040830152606082019050919050565b604082016000820151614ff66000850182614853565b5060208201516150096020850182614853565b50505050565b60006040830160008301516150276000860182614853565b506020830151848203602086015261503f82826147e9565b9150508091505092915050565b61505581615691565b82525050565b6150648161569b565b82525050565b600060208201905061507f600083018461477f565b92915050565b600060208201905061509a6000830184614761565b92915050565b600060208201905081810360008301526150ba818461478e565b905092915050565b60006020820190506150d76000830184614844565b92915050565b60006020820190506150f26000830184614853565b92915050565b600060208201905081810360008301526151128184614862565b905092915050565b600060208201905081810360008301526151348184614898565b905092915050565b60006020820190508181036000830152615155816148ce565b9050919050565b6000602082019050818103600083015261517581614905565b9050919050565b6000602082019050818103600083015261519581614962565b9050919050565b600060208201905081810360008301526151b581614999565b9050919050565b600060208201905081810360008301526151d5816149d0565b9050919050565b600060208201905081810360008301526151f581614a2d565b9050919050565b6000602082019050818103600083015261521581614a64565b9050919050565b6000602082019050818103600083015261523581614ac1565b9050919050565b6000602082019050818103600083015261525581614b1e565b9050919050565b6000602082019050818103600083015261527581614b7b565b9050919050565b6000602082019050818103600083015261529581614bb2565b9050919050565b600060208201905081810360008301526152b581614be9565b9050919050565b600060208201905081810360008301526152d581614c46565b9050919050565b600060208201905081810360008301526152f581614c7d565b9050919050565b6000602082019050818103600083015261531581614cb4565b9050919050565b6000602082019050818103600083015261533581614d11565b9050919050565b6000602082019050818103600083015261535581614d48565b9050919050565b6000602082019050818103600083015261537581614da5565b9050919050565b6000602082019050818103600083015261539581614e02565b9050919050565b600060208201905081810360008301526153b581614e39565b9050919050565b600060208201905081810360008301526153d581614e70565b9050919050565b600060208201905081810360008301526153f581614ea7565b9050919050565b6000602082019050818103600083015261541581614ede565b9050919050565b6000602082019050818103600083015261543581614f15565b9050919050565b6000602082019050818103600083015261545581614f4c565b9050919050565b6000602082019050818103600083015261547581614f83565b9050919050565b60006020820190508181036000830152615496818461500f565b905092915050565b60006020820190506154b3600083018461504c565b92915050565b60006040820190506154ce600083018561504c565b6154db602083018461477f565b9392505050565b60006040820190506154f7600083018561504c565b6155046020830184614770565b9392505050565b6000604082019050615520600083018561504c565b81810360208301526155328184614862565b90509392505050565b6000602082019050615550600083018461505b565b92915050565b6000604051905081810181811067ffffffffffffffff8211171561557957600080fd5b8060405250919050565b600067ffffffffffffffff82111561559a57600080fd5b602082029050602081019050919050565b600067ffffffffffffffff8211156155c257600080fd5b601f19601f8301169050602081019050919050565b6000602082019050919050565b6000602082019050919050565b600081519050919050565b600081519050919050565b600081519050919050565b600081519050919050565b6000602082019050919050565b6000602082019050919050565b600061564282615671565b9050919050565b600061565482615671565b9050919050565b60008115159050919050565b6000819050919050565b600073ffffffffffffffffffffffffffffffffffffffff82169050919050565b6000819050919050565b600064ffffffffff82169050919050565b60006156b782615671565b9050919050565b60006156c982615671565b9050919050565b60008115159050919050565b6000819050919050565b600061ffff82169050919050565b6000819050919050565b600060ff82169050919050565b60006157168261571d565b9050919050565b60006157288261572f565b9050919050565b600061573a82615671565b9050919050565b82818337600083830152505050565b60005b8381101561576e578082015181840152602081019050615753565b8381111561577d576000848401525b50505050565b6000601f19601f830116905091905056fea265627a7a72305820228c2ab610c53d4360e2ddf595e0b88ef056eb6c9d6b11b54ffa35906c2777816c6578706572696d656e74616cf50037",
  "compiler": {
    "name": "solc",
    "version": "0.5.0+commit.1d4f565a.Emscripten.clang",
    "optimizer": {
      "enabled": false,
      "runs": 200
    },
    "evmVersion": "byzantium"
  }
}