{
  "fileName": "ELAJSStore.sol",
  "contractName": "ELAJSStore",
  "source": "pragma solidity ^0.5.0;\npragma experimental ABIEncoderV2;\n\nimport \"sol-datastructs/src/contracts/PolymorphicDictionaryLib.sol\";\n\n// import \"sol-datastructs/src/contracts/Bytes32DictionaryLib.sol\";\nimport \"sol-datastructs/src/contracts/Bytes32SetDictionaryLib.sol\";\n\n// import \"./oz/EnumerableSetDictionary.sol\";\n\nimport \"sol-sql/src/contracts/src/structs/TableLib.sol\";\n\nimport \"./ozEla/OwnableELA.sol\";\nimport \"./gsnEla/GSNRecipientELA.sol\";\nimport \"./gsnEla/IRelayHubELA.sol\";\n\ncontract DateTime {\n    function getYear(uint timestamp) public pure returns (uint16);\n    function getMonth(uint timestamp) public pure returns (uint8);\n    function getDay(uint timestamp) public pure returns (uint8);\n}\n\n// TODO: move schema methods to another contract, we're hitting limits for this\n// TODO: good practice to have functions not callable externally and internally\ncontract ELAJSStore is OwnableELA, GSNRecipientELA {\n\n    // TODO: have a dynamic mode to only use Events -> https://thegraph.com\n    // bool public useEvents = false;\n\n    // DateTime Contract address\n    // address constant public dateTimeAddr = 0xe982E462b094850F12AF94d21D470e21bE9D0E9C; // development\n    // address constant public dateTimeAddr = 0xEDb211a2dBbdE62012440177e65b68E0A66E4531; // testnet\n\n    // Initialize the DateTime contract ABI with the already deployed contract\n    DateTime dateTime;\n\n    // This counts the number of times this contract was called via GSN (expended owner gas) for rate limiting\n    // mapping is a keccak256('YYYY-MM-DD') => uint (TODO: we can probably compress this by week (4 bytes per day -> 28 bytes)\n    mapping(bytes32 => uint256) public gsnCounter;\n\n    // Max times we allow this to be called per day\n    uint40 public gsnMaxCallsPerDay;\n\n    using PolymorphicDictionaryLib for PolymorphicDictionaryLib.PolymorphicDictionary;\n    using Bytes32SetDictionaryLib for Bytes32SetDictionaryLib.Bytes32SetDictionary;\n\n    // _table = system table (bytes32 Dict) of each table's metadata marshaled\n    // 8 bits - permissions (00 = system, 01 = private, 10 = public, 11 = shared - owner can always edit)\n    // 20 bytes - address delegate - other address allowed to edit\n    mapping(bytes32 => bytes32) internal _table;\n\n    // table = dict, where the key is the table, and the value is a set of byte32 ids\n    Bytes32SetDictionaryLib.Bytes32SetDictionary internal tableId;\n\n    // Schema dictionary, key (schemasPublicTables) points to a set of table names\n    using TableLib for TableLib.Table;\n    using TableLib for bytes;\n    // using ColumnLib for ColumnLib.Column;\n    // using ColumnLib for bytes;\n\n    // schemaTables -> Set of tables (raw table name values) for enumeration\n    bytes32 constant public schemasTables = 0x736368656d61732e7075626c69632e7461626c65730000000000000000000000;\n\n    // namehash([tableName]) => encoded table schema\n    // ownership of each row (id) - key = namehash([id].[table]) which has a value that is the owner's address\n    // ultimately namehash([field].[id].[table]) gives us a bytes32 which maps to the single data value\n    PolymorphicDictionaryLib.PolymorphicDictionary internal database;\n\n\n    // ************************************* SETUP FUNCTIONS *************************************\n    function initialize(address relayHubAddr, address dateTimeAddr) public initializer {\n        dateTime = DateTime(dateTimeAddr);\n        OwnableELA.initialize(msg.sender);\n        GSNRecipientELA.initialize(relayHubAddr);\n        _initialize();\n    }\n\n    function _initialize() internal {\n        gsnMaxCallsPerDay = 1000;\n\n        // init the key for schemasTables, our set is one-to-many-fixed, so table names must be max 32 bytes\n        database.addKey(schemasTables, PolymorphicDictionaryLib.DictionaryType.OneToManyFixed);\n    }\n\n    // ************************************* SCHEMA FUNCTIONS *************************************\n    /**\n     * @dev create a new table, only the owner may create this\n     *\n     * @param tableName right padded zeroes (Web3.utils.stringToHex)\n     * @param tableKey this is the namehash of tableName\n     */\n    function createTable(\n        bytes32 tableName,\n        bytes32 tableKey,\n        uint8 permission,\n        bytes32[] memory columnName,\n        bytes32[] memory columnDtype\n\n    ) public onlyOwner {\n\n        // this only works if tableName is trimmed of padding zeroes, since this is an onlyOwner call we won't bother\n        // require(isNamehashSubOf(keccak256(tableNameBytes), bytes32(0), tableKey), \"tableName does not match tableKey\");\n\n        // check if table exists\n        require(_table[tableKey] == 0, \"Table already exists\");\n\n        address delegate = address(0x0);\n\n        // claim the key slot and set the metadata\n        setTableMetadata(tableKey, permission, delegate);\n\n        database.addValueForKey(schemasTables, tableName);\n\n        // table stores the row ids set as the value, set up the key\n        tableId.addKey(tableKey);\n\n        // now insert the schema\n        saveSchema(tableName, tableKey, columnName, columnDtype);\n    }\n\n    // TODO: this isn't complete\n    function deleteTable(\n        bytes32 tableName,\n        bytes32 tableKey\n    ) public onlyOwner {\n        _table[tableKey] = 0;\n        database.removeValueForKey(schemasTables, tableName);\n        tableId.removeKey(tableKey);\n    }\n\n    function getTables() external view returns (bytes32[] memory){\n        return database.enumerateForKeyOneToManyFixed(schemasTables);\n    }\n\n    /*\n    function tableExists(bytes32 tableKey) public view returns (bool) {\n        return tableId.containsKey(tableKey);\n    }\n    */\n\n    function saveSchema(\n        bytes32 tableName,\n        bytes32 tableKey,\n        bytes32[] memory columnName,\n        bytes32[] memory columnDtype\n\n    ) public onlyOwner returns (bool) {\n\n        TableLib.Table memory tableSchema = TableLib.create(\n            tableName,\n            columnName,\n            columnDtype\n        );\n\n        bytes memory encoded = tableSchema.encode();\n\n        // we store the encoded table schema on the base tableKey\n        return database.setValueForKey(tableKey, encoded);\n    }\n\n    // EXPERIMENTAL\n    function getSchema(bytes32 _name) public view returns (TableLib.Table memory) {\n        bytes memory encoded = database.getBytesForKey(_name);\n        return encoded.decodeTable();\n    }\n\n    // ************************************* CRUD FUNCTIONS *************************************\n\n    /**\n     * @dev Table level permission checks\n     */\n    modifier insertCheck(bytes32 tableKey) {\n\n        (uint256 permission, address delegate) = getTableMetadata(tableKey);\n\n        // if permission = 0, system table we can't do anything\n        require(permission > 0, \"Cannot INSERT into system table\");\n\n        // if permission = 1, we must be the owner/delegate\n        require(permission > 1 || isOwner() == true || delegate == _msgSender(), \"Only owner/delegate can INSERT into this table\");\n\n        _;\n    }\n\n\n    /**\n     * Primarily exists to assist in query WHERE searches, therefore we\n     * want the index to exist on the value and table, filtering on owner\n     * is important for performance\n     */\n    event InsertVal (\n        bytes32 indexed tableKey,\n        bytes32 indexed fieldKey,\n        bytes32 indexed val,\n\n        bytes32 id,\n\n        address owner\n    );\n\n\n    /**\n     * @dev Prior to insert, we check the permissions and autoIncrement\n     * TODO: use the schema and determine the proper type of data to insert\n     *\n     * @param tableKey the namehashed [table] name string\n     * @param idKey the sha3 hashed idKey\n     * @param id as the raw string (unhashed)\n     */\n    function insertVal(\n\n        bytes32 tableKey,\n        bytes32 idKey,\n        bytes32 fieldKey,\n\n        bytes32 id,\n        bytes32 val)\n\n    public insertCheck(tableKey){\n\n        bytes32 idTableKey = namehash(idKey, tableKey);\n        bytes32 fieldIdTableKey = namehash(fieldKey, idTableKey);\n\n        require(database.containsKey(fieldIdTableKey) == false, \"id+field already exists\");\n\n        // increment counter\n        increaseGsnCounter();\n\n        // add an id entry to the table's set of ids for the row (this is a set so we don't need to check first)\n        // TODO: should we check the id/row ownership?\n        tableId.addValueForKey(tableKey, id);\n\n        // add the \"row owner\" if it doesn't exist, the row may already exist in which case we don't update it\n        if (database.containsKey(idTableKey) == false){\n            _setRowOwner(idTableKey, id, tableKey);\n        }\n\n        // finally set the data\n        // we won't serialize the type, that's way too much redundant data\n        database.setValueForKey(fieldIdTableKey, bytes32(val));\n\n        // emit an event to assist in queries\n        emit InsertVal(tableKey, fieldKey, val, id, _msgSender());\n\n    }\n\n    function insertValVar(\n        bytes32 tableKey,\n        bytes32 idKey,\n        bytes32 fieldKey,\n\n        bytes32 id,\n        bytes memory val)\n\n    public insertCheck(tableKey){\n\n        bytes32 idTableKey = namehash(idKey, tableKey);\n        bytes32 fieldIdTableKey = namehash(fieldKey, idTableKey);\n\n        require(database.containsKey(fieldIdTableKey) == false, \"id+field already exists\");\n\n        // increment counter\n        increaseGsnCounter();\n\n        // add an id entry to the table's set of ids for the row\n        tableId.addValueForKey(tableKey, id);\n\n        // add the \"row owner\" if it doesn't exist, the row may already exist in which case we don't update it\n        if (database.containsKey(idTableKey) == false){\n            _setRowOwner(idTableKey, id, tableKey);\n        }\n\n        // finally set the data\n        database.setValueForKey(fieldIdTableKey, val);\n    }\n\n    /**\n     * @dev we are essentially claiming this [id].[table] for the msg.sender, and setting the id createdDate\n     */\n    function _setRowOwner(bytes32 idTableKey, bytes32 id, bytes32 tableKey) internal {\n\n        require(database.containsKey(idTableKey) == false, \"row already has owner\");\n\n        uint256 rowMetadata;\n\n        uint16 year = dateTime.getYear(now);\n        uint8 month = dateTime.getMonth(now);\n        uint8 day = dateTime.getDay(now);\n\n        rowMetadata |= year;\n        rowMetadata |= uint256(month)<<16;\n        rowMetadata |= uint256(day)<<24;\n\n        bytes4 createdDate = bytes4(uint32(rowMetadata));\n\n        rowMetadata |= uint256(_msgSender())<<32;\n\n        database.setValueForKey(idTableKey, bytes32(rowMetadata));\n\n        // emit InsertRow(id, tableKey, _msgSender());\n    }\n\n    /**\n     * Primarily to assist querying all ids belonging to an owner\n     */\n    /*\n    event InsertRow (\n        bytes32 indexed _id,\n        bytes32 indexed _tableKey,\n        address indexed _rowOwner\n    );\n    */\n\n    function getRowOwner(bytes32 idTableKey) external returns (address rowOwner, bytes4 createdDate){\n\n        uint256 rowMetadata = uint256(database.getBytes32ForKey(idTableKey));\n\n        createdDate = bytes4(uint32(rowMetadata));\n        rowOwner = address(rowMetadata>>32);\n\n    }\n\n    function updateCheck(bytes32 tableKey, bytes32 idKey, bytes32 idTableKey, bytes32 id) internal {\n\n        require(tableId.containsValueForKey(tableKey, id) == true, \"id doesn't exist, use INSERT\");\n\n        (uint256 permission, address delegate) = getTableMetadata(tableKey);\n\n        // if permission = 0, system table we can't do anything\n        require(permission > 0, \"Cannot UPDATE system table\");\n\n        // if permission = 1, we must be the owner/delegate\n        require(permission > 1 || isOwner() == true || delegate == _msgSender(), \"Only owner/delegate can UPDATE into this table\");\n\n        // permissions check (public table = 2, shared table = 3),\n        // if 2 or 3 is the _msg.sender() the row owner? But if 3 owner() is always allowed\n        if (permission >= 2) {\n\n            // rowMetaData is packed as address (bytes20) + createdDate (bytes4)\n            bytes32 rowMetaData = database.getBytes32ForKey(idTableKey);\n            address rowOwner = address(uint256(rowMetaData)>>32);\n\n            // if either 2 or 3, if you're the row owner it's fine\n            if (rowOwner == _msgSender()){\n                // pass\n            } else {\n                require(isOwner() == true || delegate == _msgSender(), \"Not rowOwner or owner/delegate for UPDATE into this table\");\n            }\n        }\n    }\n\n    function updateVal(\n\n        bytes32 tableKey,\n        bytes32 idKey,\n        bytes32 fieldKey,\n\n        bytes32 id,\n        bytes32 val)\n\n    public {\n\n        bytes32 idTableKey = namehash(idKey, tableKey);\n        bytes32 fieldIdTableKey = namehash(fieldKey, idTableKey);\n\n        updateCheck(tableKey, idKey, idTableKey, id);\n\n        // increment counter\n        increaseGsnCounter();\n\n        // set data (overwrite)\n        database.setValueForKey(fieldIdTableKey, bytes32(val));\n\n        // emit an event to assist in queries\n        emit InsertVal(tableKey, fieldKey, val, id, _msgSender());\n    }\n\n    function deleteCheck(bytes32 tableKey, bytes32 idTableKey, bytes32 idKey, bytes32 id) internal {\n\n        require(tableId.containsValueForKey(tableKey, id) == true, \"id doesn't exist\");\n\n        (uint256 permission, address delegate) = getTableMetadata(tableKey);\n\n        // if permission = 0, system table we can't do anything\n        require(permission > 0, \"Cannot DELETE from system table\");\n\n        // if permission = 1, we must be the owner/delegate\n        require(permission > 1 || isOwner() == true || delegate == _msgSender(), \"Only owner/delegate can DELETE from this table\");\n\n        // permissions check (public table = 2, shared table = 3),\n        // if 2 or 3 is the _msg.sender() the row owner? But if 3 owner() is always allowed\n        if (permission >= 2) {\n            if (isOwner() || delegate == _msgSender()){\n                // pass\n            } else {\n                // rowMetaData is packed as address (bytes20) + createdDate (bytes4)\n                bytes32 rowMetaData = database.getBytes32ForKey(idTableKey);\n                address rowOwner = address(uint256(rowMetaData)>>32);\n                require(rowOwner == _msgSender(), \"Sender not owner of row\");\n            }\n        }\n    }\n\n    /**\n     * @dev TODO: add modifier checks based on update\n     *\n     * TODO: this needs to properly remove the row when there are multiple ids\n     *\n     */\n    function deleteVal(\n\n        bytes32 tableKey,\n        bytes32 idKey,\n        bytes32 fieldKey,\n\n        bytes32 id\n\n    ) public {\n\n        bytes32 idTableKey = namehash(idKey, tableKey);\n        bytes32 fieldIdTableKey = namehash(fieldKey, idTableKey);\n\n        deleteCheck(tableKey, idTableKey, idKey, id);\n\n        // increment counter\n        increaseGsnCounter();\n\n        // remove the key\n        bool removed = database.removeKey(fieldIdTableKey);\n\n        require(removed == true, \"error removing key\");\n\n        // TODO: zero out the data? Why bother everything is public\n\n        // we can't really pass in enough data to make a loop worthwhile\n        /*\n        uint8 len = uint8(fieldKeys.length);\n        require(fieldKeys.length == fieldIdTableKeys.length, \"fields, id array length mismatch\");\n        for (uint8 i = 0; i < len; i++) {\n\n            // for each row check if the full field + id + table is a subhash\n            // require(isNamehashSubOf(fieldKeys[i], idTableKey, fieldIdTableKeys[i]) == true, \"fieldKey not a subhash [field].[id].[table]\");\n\n            // zero out the data\n            elajsStore[fieldIdTableKeys[i]] = bytes32(0);\n        }\n        */\n    }\n\n    // TODO: improve this, we don't want to cause data consistency if the client doesn't call this\n    // Right now we manually call this, but ideally we iterate over all the data and delete each column\n    // but this would require decoding and having all the field names\n    function deleteRow(\n\n        bytes32 tableKey,\n        bytes32 idKey,\n        bytes32 id\n\n    ) public {\n\n        bytes32 idTableKey = namehash(idKey, tableKey);\n\n        deleteCheck(tableKey, idTableKey, idKey, id);\n\n        // increment counter\n        increaseGsnCounter();\n\n        // remove the id\n        tableId.removeValueForKey(tableKey, id);\n    }\n\n    /**\n     * @dev Table actual insert call, NOTE this doesn't work on testnet currently due to a stack size issue,\n     *      but it can work with a paid transaction I guess\n     */\n    /*\n    function insert(\n        bytes32 tableKey,\n        bytes32 idTableKey,\n\n        bytes32 idKey,\n        bytes32 id,\n\n        bytes32[] memory fieldKeys,\n        bytes32[] memory fieldIdTableKeys,\n        bytes32[] memory values)\n\n    public insertCheck(tableKey, idKey, idTableKey){\n\n        require(table.containsValueForKey(tableKey, id) == false, \"id already exists\");\n\n        uint len = fieldKeys.length;\n\n        require(fieldKeys.length == fieldIdTableKeys.length == values.length, \"fields, values array length mismatch\");\n\n        // add an id entry to the table's set of ids for the row\n        table.addValueForKey(tableKey, id);\n\n        for (uint i = 0; i < len; i++) {\n\n            // for each row check if the full field + id + table is a subhash\n            require(isNamehashSubOf(fieldKeys[i], idTableKey, fieldIdTableKeys[i]) == true, \"fieldKey not a subhash [field].[id].[table]\");\n\n            elajsStore[fieldIdTableKeys[i]] = bytes32(values[i]);\n        }\n\n    }\n    */\n\n    /*\n    function getAllDataKeys() external view returns (bytes32[] memory) {\n        return database.enumerate();\n    }\n    */\n\n    function checkDataKey(bytes32 key) external view returns (bool) {\n        return database.containsKey(key);\n    }\n\n    /**\n     * @dev all data is public, so no need for security checks, we leave the data type handling to the client\n     */\n    function getRowValue(bytes32 fieldIdTableKey) external view returns (bytes32) {\n\n        if (database.containsKey(fieldIdTableKey)) {\n            return database.getBytes32ForKey(fieldIdTableKey);\n        } else {\n            return bytes32(0);\n        }\n    }\n\n    function getRowValueVar(bytes32 fieldIdTableKey) external view returns (bytes memory) {\n\n        if (database.containsKey(fieldIdTableKey)) {\n            return database.getBytesForKey(fieldIdTableKey);\n        } else {\n            return new bytes(0);\n        }\n    }\n\n    /**\n     * @dev Warning this produces an Error: overflow (operation=\"setValue\", fault=\"overflow\", details=\"Number can only safely store up to 53 bits\")\n     *      if the table doesn't exist\n     */\n    function getTableIds(bytes32 tableKey) external view returns (bytes32[] memory){\n\n        require(tableId.containsKey(tableKey) == true, \"table not created\");\n\n        return tableId.enumerateForKey(tableKey);\n    }\n\n    function getIdExists(bytes32 tableKey, bytes32 id) external view returns (bool) {\n        return tableId.containsValueForKey(tableKey, id);\n    }\n\n    /*\n    function isNamehashSubOf(bytes32 subKey, bytes32 base, bytes32 target) internal pure returns (bool) {\n        bytes32 result = namehash(subKey, base);\n        return result == target;\n    }\n    */\n\n    function namehash(bytes32 subKey, bytes32 base) internal pure returns (bytes32) {\n        bytes memory concat = new bytes(64);\n\n        assembly {\n            mstore(add(concat, 64), subKey)\n            mstore(add(concat, 32), base)\n        }\n\n        bytes32 result = keccak256(concat);\n\n        return result;\n    }\n\n    // ************************************* _TABLE FUNCTIONS *************************************\n    function getTableMetadata(bytes32 _tableKey)\n        view\n        public\n        returns (uint256 permission, address delegate)\n    {\n        require(_table[_tableKey] > 0, \"table does not exist\");\n\n        uint256 tableMetadata = uint256(_table[_tableKey]);\n\n        permission = uint256(uint8(tableMetadata));\n        delegate = address(tableMetadata>>8);\n    }\n\n    // TODO: we want to add the schema updated time here, then we can have a reliable schema cache\n    function setTableMetadata(bytes32 _tableKey, uint8 permission, address delegate) private onlyOwner {\n        uint256 tableMetadata;\n\n        tableMetadata |= permission;\n        tableMetadata |= uint160(delegate)<<8;\n\n        _table[_tableKey] = bytes32(tableMetadata);\n    }\n\n    // ************************************* MISC FUNCTIONS *************************************\n\n    function() external payable {}\n\n    // ************************************* GSN FUNCTIONS *************************************\n\n    /**\n     * As a first layer of defense we employ a max number of checks per day\n     */\n    function acceptRelayedCall(\n        address relay,\n        address from,\n        bytes calldata encodedFunction,\n        uint256 transactionFee,\n        uint256 gasPrice,\n        uint256 gasLimit,\n        uint256 nonce,\n        bytes calldata approvalData,\n        uint256 maxPossibleCharge\n    ) external view returns (uint256, bytes memory) {\n\n        bytes32 curDateHashed = getGsnCounter();\n\n        // check gsnCounter for today and compare to limit\n        uint256 curCounter = gsnCounter[curDateHashed];\n\n        if (curCounter >= gsnMaxCallsPerDay){\n            return _rejectRelayedCall(2);\n        }\n\n\n        return _approveRelayedCall();\n    }\n\n    function setGsnMaxCallsPerDay(uint256 max) external onlyOwner {\n        gsnMaxCallsPerDay = uint40(max);\n    }\n\n    /*\n    event GsnCounterIncrease (\n        address indexed _from,\n        bytes4 indexed curDate\n    );\n    */\n\n    /**\n     * Increase the GSN Counter for today\n     */\n    function increaseGsnCounter() internal {\n\n        bytes32 curDateHashed = getGsnCounter();\n\n        uint256 curCounter = gsnCounter[curDateHashed];\n\n        gsnCounter[curDateHashed] = curCounter + 1;\n\n        // emit GsnCounterIncrease(_msgSender(), bytes4(uint32(curDate)));\n    }\n\n    /*\n     *\n     */\n    function getGsnCounter() internal view returns (bytes32 curDateHashed) {\n\n        uint256 curDate;\n\n        uint16 year = dateTime.getYear(now);\n        uint8 month = dateTime.getMonth(now);\n        uint8 day = dateTime.getDay(now);\n\n        curDate |= year;\n        curDate |= uint256(month)<<16;\n        curDate |= uint256(day)<<24;\n\n        curDateHashed = keccak256(abi.encodePacked(curDate));\n    }\n\n    // We won't do any pre or post processing, so leave _preRelayedCall and _postRelayedCall empty\n    function _preRelayedCall(bytes memory context) internal returns (bytes32) {\n    }\n\n    function _postRelayedCall(bytes memory context, bool, uint256 actualCharge, bytes32) internal {\n    }\n\n    /**\n     * @dev Withdraw a specific amount of the GSNReceipient funds\n     * @param amt Amount of wei to withdraw\n     * @param dest This is the arbitrary withdrawal destination address\n     */\n    function withdraw(uint256 amt, address payable dest) public onlyOwner {\n        IRelayHubELA relayHub = getRelayHub();\n        relayHub.withdraw(amt, dest);\n    }\n\n    /**\n     * @dev Withdraw all the GSNReceipient funds\n     * @param dest This is the arbitrary withdrawal destination address\n     */\n    function withdrawAll(address payable dest) public onlyOwner returns (uint256) {\n        IRelayHubELA relayHub = getRelayHub();\n        uint256 balance = getRelayHub().balanceOf(address(this));\n        relayHub.withdraw(balance, dest);\n        return balance;\n    }\n\n    function getGSNBalance() public view returns (uint256) {\n        return getRelayHub().balanceOf(address(this));\n    }\n\n    function getRelayHub() internal view returns (IRelayHubELA) {\n        return IRelayHubELA(_getRelayHub());\n    }\n}\n",
  "sourcePath": "contracts/ELAJSStore.sol",
  "abi": [
    {
      "constant": false,
      "inputs": [
        {
          "name": "amt",
          "type": "uint256"
        },
        {
          "name": "dest",
          "type": "address"
        }
      ],
      "name": "withdraw",
      "outputs": [],
      "payable": false,
      "stateMutability": "nonpayable",
      "type": "function"
    },
    {
      "constant": true,
      "inputs": [],
      "name": "gsnMaxCallsPerDay",
      "outputs": [
        {
          "name": "",
          "type": "uint40"
        }
      ],
      "payable": false,
      "stateMutability": "view",
      "type": "function"
    },
    {
      "constant": true,
      "inputs": [
        {
          "name": "key",
          "type": "bytes32"
        }
      ],
      "name": "checkDataKey",
      "outputs": [
        {
          "name": "",
          "type": "bool"
        }
      ],
      "payable": false,
      "stateMutability": "view",
      "type": "function"
    },
    {
      "constant": true,
      "inputs": [],
      "name": "getTables",
      "outputs": [
        {
          "name": "",
          "type": "bytes32[]"
        }
      ],
      "payable": false,
      "stateMutability": "view",
      "type": "function"
    },
    {
      "constant": false,
      "inputs": [
        {
          "name": "idTableKey",
          "type": "bytes32"
        }
      ],
      "name": "getRowOwner",
      "outputs": [
        {
          "name": "rowOwner",
          "type": "address"
        },
        {
          "name": "createdDate",
          "type": "bytes4"
        }
      ],
      "payable": false,
      "stateMutability": "nonpayable",
      "type": "function"
    },
    {
      "constant": false,
      "inputs": [
        {
          "name": "tableName",
          "type": "bytes32"
        },
        {
          "name": "tableKey",
          "type": "bytes32"
        },
        {
          "name": "permission",
          "type": "uint8"
        },
        {
          "name": "columnName",
          "type": "bytes32[]"
        },
        {
          "name": "columnDtype",
          "type": "bytes32[]"
        }
      ],
      "name": "createTable",
      "outputs": [],
      "payable": false,
      "stateMutability": "nonpayable",
      "type": "function"
    },
    {
      "constant": true,
      "inputs": [],
      "name": "getGSNBalance",
      "outputs": [
        {
          "name": "",
          "type": "uint256"
        }
      ],
      "payable": false,
      "stateMutability": "view",
      "type": "function"
    },
    {
      "constant": false,
      "inputs": [
        {
          "name": "tableKey",
          "type": "bytes32"
        },
        {
          "name": "idKey",
          "type": "bytes32"
        },
        {
          "name": "fieldKey",
          "type": "bytes32"
        },
        {
          "name": "id",
          "type": "bytes32"
        },
        {
          "name": "val",
          "type": "bytes"
        }
      ],
      "name": "insertValVar",
      "outputs": [],
      "payable": false,
      "stateMutability": "nonpayable",
      "type": "function"
    },
    {
      "constant": true,
      "inputs": [],
      "name": "schemasTables",
      "outputs": [
        {
          "name": "",
          "type": "bytes32"
        }
      ],
      "payable": false,
      "stateMutability": "view",
      "type": "function"
    },
    {
      "constant": false,
      "inputs": [
        {
          "name": "relayHubAddr",
          "type": "address"
        },
        {
          "name": "dateTimeAddr",
          "type": "address"
        }
      ],
      "name": "initialize",
      "outputs": [],
      "payable": false,
      "stateMutability": "nonpayable",
      "type": "function"
    },
    {
      "constant": true,
      "inputs": [
        {
          "name": "",
          "type": "bytes32"
        }
      ],
      "name": "gsnCounter",
      "outputs": [
        {
          "name": "",
          "type": "uint256"
        }
      ],
      "payable": false,
      "stateMutability": "view",
      "type": "function"
    },
    {
      "constant": true,
      "inputs": [
        {
          "name": "fieldIdTableKey",
          "type": "bytes32"
        }
      ],
      "name": "getRowValue",
      "outputs": [
        {
          "name": "",
          "type": "bytes32"
        }
      ],
      "payable": false,
      "stateMutability": "view",
      "type": "function"
    },
    {
      "constant": false,
      "inputs": [],
      "name": "renounceOwnership",
      "outputs": [],
      "payable": false,
      "stateMutability": "nonpayable",
      "type": "function"
    },
    {
      "constant": true,
      "inputs": [],
      "name": "getHubAddr",
      "outputs": [
        {
          "name": "",
          "type": "address"
        }
      ],
      "payable": false,
      "stateMutability": "view",
      "type": "function"
    },
    {
      "constant": false,
      "inputs": [
        {
          "name": "tableName",
          "type": "bytes32"
        },
        {
          "name": "tableKey",
          "type": "bytes32"
        },
        {
          "name": "columnName",
          "type": "bytes32[]"
        },
        {
          "name": "columnDtype",
          "type": "bytes32[]"
        }
      ],
      "name": "saveSchema",
      "outputs": [
        {
          "name": "",
          "type": "bool"
        }
      ],
      "payable": false,
      "stateMutability": "nonpayable",
      "type": "function"
    },
    {
      "constant": false,
      "inputs": [
        {
          "name": "tableKey",
          "type": "bytes32"
        },
        {
          "name": "idKey",
          "type": "bytes32"
        },
        {
          "name": "fieldKey",
          "type": "bytes32"
        },
        {
          "name": "id",
          "type": "bytes32"
        },
        {
          "name": "val",
          "type": "bytes32"
        }
      ],
      "name": "updateVal",
      "outputs": [],
      "payable": false,
      "stateMutability": "nonpayable",
      "type": "function"
    },
    {
      "constant": false,
      "inputs": [
        {
          "name": "context",
          "type": "bytes"
        }
      ],
      "name": "preRelayedCall",
      "outputs": [
        {
          "name": "",
          "type": "bytes32"
        }
      ],
      "payable": false,
      "stateMutability": "nonpayable",
      "type": "function"
    },
    {
      "constant": false,
      "inputs": [
        {
          "name": "tableKey",
          "type": "bytes32"
        },
        {
          "name": "idKey",
          "type": "bytes32"
        },
        {
          "name": "id",
          "type": "bytes32"
        }
      ],
      "name": "deleteRow",
      "outputs": [],
      "payable": false,
      "stateMutability": "nonpayable",
      "type": "function"
    },
    {
      "constant": true,
      "inputs": [
        {
          "name": "relay",
          "type": "address"
        },
        {
          "name": "from",
          "type": "address"
        },
        {
          "name": "encodedFunction",
          "type": "bytes"
        },
        {
          "name": "transactionFee",
          "type": "uint256"
        },
        {
          "name": "gasPrice",
          "type": "uint256"
        },
        {
          "name": "gasLimit",
          "type": "uint256"
        },
        {
          "name": "nonce",
          "type": "uint256"
        },
        {
          "name": "approvalData",
          "type": "bytes"
        },
        {
          "name": "maxPossibleCharge",
          "type": "uint256"
        }
      ],
      "name": "acceptRelayedCall",
      "outputs": [
        {
          "name": "",
          "type": "uint256"
        },
        {
          "name": "",
          "type": "bytes"
        }
      ],
      "payable": false,
      "stateMutability": "view",
      "type": "function"
    },
    {
      "constant": false,
      "inputs": [
        {
          "name": "tableKey",
          "type": "bytes32"
        },
        {
          "name": "idKey",
          "type": "bytes32"
        },
        {
          "name": "fieldKey",
          "type": "bytes32"
        },
        {
          "name": "id",
          "type": "bytes32"
        }
      ],
      "name": "deleteVal",
      "outputs": [],
      "payable": false,
      "stateMutability": "nonpayable",
      "type": "function"
    },
    {
      "constant": true,
      "inputs": [],
      "name": "owner",
      "outputs": [
        {
          "name": "",
          "type": "address"
        }
      ],
      "payable": false,
      "stateMutability": "view",
      "type": "function"
    },
    {
      "constant": true,
      "inputs": [],
      "name": "isOwner",
      "outputs": [
        {
          "name": "",
          "type": "bool"
        }
      ],
      "payable": false,
      "stateMutability": "view",
      "type": "function"
    },
    {
      "constant": true,
      "inputs": [
        {
          "name": "_name",
          "type": "bytes32"
        }
      ],
      "name": "getSchema",
      "outputs": [
        {
          "components": [
            {
              "name": "name",
              "type": "bytes32"
            },
            {
              "components": [
                {
                  "name": "name",
                  "type": "bytes32"
                },
                {
                  "name": "_dtype",
                  "type": "bytes32"
                }
              ],
              "name": "columns",
              "type": "tuple[]"
            }
          ],
          "name": "",
          "type": "tuple"
        }
      ],
      "payable": false,
      "stateMutability": "view",
      "type": "function"
    },
    {
      "constant": true,
      "inputs": [],
      "name": "relayHubVersion",
      "outputs": [
        {
          "name": "",
          "type": "string"
        }
      ],
      "payable": false,
      "stateMutability": "view",
      "type": "function"
    },
    {
      "constant": false,
      "inputs": [
        {
          "name": "tableKey",
          "type": "bytes32"
        },
        {
          "name": "idKey",
          "type": "bytes32"
        },
        {
          "name": "fieldKey",
          "type": "bytes32"
        },
        {
          "name": "id",
          "type": "bytes32"
        },
        {
          "name": "val",
          "type": "bytes32"
        }
      ],
      "name": "insertVal",
      "outputs": [],
      "payable": false,
      "stateMutability": "nonpayable",
      "type": "function"
    },
    {
      "constant": false,
      "inputs": [
        {
          "name": "max",
          "type": "uint256"
        }
      ],
      "name": "setGsnMaxCallsPerDay",
      "outputs": [],
      "payable": false,
      "stateMutability": "nonpayable",
      "type": "function"
    },
    {
      "constant": true,
      "inputs": [
        {
          "name": "tableKey",
          "type": "bytes32"
        }
      ],
      "name": "getTableIds",
      "outputs": [
        {
          "name": "",
          "type": "bytes32[]"
        }
      ],
      "payable": false,
      "stateMutability": "view",
      "type": "function"
    },
    {
      "constant": false,
      "inputs": [
        {
          "name": "relayHubAddr",
          "type": "address"
        }
      ],
      "name": "initialize",
      "outputs": [],
      "payable": false,
      "stateMutability": "nonpayable",
      "type": "function"
    },
    {
      "constant": true,
      "inputs": [
        {
          "name": "_tableKey",
          "type": "bytes32"
        }
      ],
      "name": "getTableMetadata",
      "outputs": [
        {
          "name": "permission",
          "type": "uint256"
        },
        {
          "name": "delegate",
          "type": "address"
        }
      ],
      "payable": false,
      "stateMutability": "view",
      "type": "function"
    },
    {
      "constant": false,
      "inputs": [
        {
          "name": "context",
          "type": "bytes"
        },
        {
          "name": "success",
          "type": "bool"
        },
        {
          "name": "actualCharge",
          "type": "uint256"
        },
        {
          "name": "preRetVal",
          "type": "bytes32"
        }
      ],
      "name": "postRelayedCall",
      "outputs": [],
      "payable": false,
      "stateMutability": "nonpayable",
      "type": "function"
    },
    {
      "constant": true,
      "inputs": [
        {
          "name": "fieldIdTableKey",
          "type": "bytes32"
        }
      ],
      "name": "getRowValueVar",
      "outputs": [
        {
          "name": "",
          "type": "bytes"
        }
      ],
      "payable": false,
      "stateMutability": "view",
      "type": "function"
    },
    {
      "constant": false,
      "inputs": [
        {
          "name": "tableName",
          "type": "bytes32"
        },
        {
          "name": "tableKey",
          "type": "bytes32"
        }
      ],
      "name": "deleteTable",
      "outputs": [],
      "payable": false,
      "stateMutability": "nonpayable",
      "type": "function"
    },
    {
      "constant": true,
      "inputs": [
        {
          "name": "tableKey",
          "type": "bytes32"
        },
        {
          "name": "id",
          "type": "bytes32"
        }
      ],
      "name": "getIdExists",
      "outputs": [
        {
          "name": "",
          "type": "bool"
        }
      ],
      "payable": false,
      "stateMutability": "view",
      "type": "function"
    },
    {
      "constant": false,
      "inputs": [
        {
          "name": "newOwner",
          "type": "address"
        }
      ],
      "name": "transferOwnership",
      "outputs": [],
      "payable": false,
      "stateMutability": "nonpayable",
      "type": "function"
    },
    {
      "constant": false,
      "inputs": [
        {
          "name": "dest",
          "type": "address"
        }
      ],
      "name": "withdrawAll",
      "outputs": [
        {
          "name": "",
          "type": "uint256"
        }
      ],
      "payable": false,
      "stateMutability": "nonpayable",
      "type": "function"
    },
    {
      "payable": true,
      "stateMutability": "payable",
      "type": "fallback"
    },
    {
      "anonymous": false,
      "inputs": [
        {
          "indexed": true,
          "name": "tableKey",
          "type": "bytes32"
        },
        {
          "indexed": true,
          "name": "fieldKey",
          "type": "bytes32"
        },
        {
          "indexed": true,
          "name": "val",
          "type": "bytes32"
        },
        {
          "indexed": false,
          "name": "id",
          "type": "bytes32"
        },
        {
          "indexed": false,
          "name": "owner",
          "type": "address"
        }
      ],
      "name": "InsertVal",
      "type": "event"
    },
    {
      "anonymous": false,
      "inputs": [
        {
          "indexed": true,
          "name": "oldRelayHub",
          "type": "address"
        },
        {
          "indexed": true,
          "name": "newRelayHub",
          "type": "address"
        }
      ],
      "name": "RelayHubChanged",
      "type": "event"
    },
    {
      "anonymous": false,
      "inputs": [
        {
          "indexed": true,
          "name": "previousOwner",
          "type": "address"
        },
        {
          "indexed": true,
          "name": "newOwner",
          "type": "address"
        }
      ],
      "name": "OwnershipTransferred",
      "type": "event"
    }
  ],
  "bytecode": "0x6080604052615fba806100136000396000f3fe6080604052600436106101b6576000357c0100000000000000000000000000000000000000000000000000000000900463ffffffff168062f714ce146101b857806301ee810a146101e15780631fd6dda51461020c57806328343c3414610249578063287e724614610274578063365628a2146102b25780633c2e8599146102db5780633ffe300e146103065780634102fbf61461032f578063485cc9551461035a57806359cb73a4146103835780636729003c146103c0578063715018a6146103fd57806374e861d6146104145780637af9c6631461043f5780637e03a8241461047c57806380274db7146104a55780638175d7eb146104e257806383947ea01461050b5780638d3178cc146105495780638da5cb5b146105725780638f32d59b1461059d578063a2ea7c6e146105c8578063ad61ccd514610605578063b467949b14610630578063bc41c3dd14610659578063c2309bf914610682578063c4d66de8146106bf578063d887f105146106e8578063e06e0e2214610726578063e3c504e41461074f578063ed90cb371461078c578063f201fe2a146107b5578063f2fde38b146107f2578063fa09e6301461081b575b005b3480156101c457600080fd5b506101df60048036036101da9190810190614e2a565b610858565b005b3480156101ed57600080fd5b506101f661093a565b6040516102039190615cfb565b60405180910390f35b34801561021857600080fd5b50610233600480360361022e9190810190614993565b610951565b6040516102409190615839565b60405180910390f35b34801561025557600080fd5b5061025e61096e565b60405161026b9190615817565b60405180910390f35b34801561028057600080fd5b5061029b60048036036102969190810190614993565b6109ac565b6040516102a99291906157ee565b60405180910390f35b3480156102be57600080fd5b506102d960048036036102d49190810190614c43565b610a02565b005b3480156102e757600080fd5b506102f0610b1a565b6040516102fd9190615c5e565b60405180910390f35b34801561031257600080fd5b5061032d60048036036103289190810190614bb4565b610bcd565b005b34801561033b57600080fd5b50610344610da1565b6040516103519190615854565b60405180910390f35b34801561036657600080fd5b50610381600480360361037c9190810190614857565b610dc8565b005b34801561038f57600080fd5b506103aa60048036036103a59190810190614993565b610f10565b6040516103b79190615c5e565b60405180910390f35b3480156103cc57600080fd5b506103e760048036036103e29190810190614993565b610f28565b6040516103f49190615854565b60405180910390f35b34801561040957600080fd5b50610412610f6b565b005b34801561042057600080fd5b50610429611075565b60405161043691906157b8565b60405180910390f35b34801561044b57600080fd5b50610466600480360361046191908101906149f8565b611084565b6040516104739190615839565b60405180910390f35b34801561048857600080fd5b506104a3600480360361049e9190810190614b3d565b611113565b005b3480156104b157600080fd5b506104cc60048036036104c79190810190614cea565b6111a6565b6040516104d99190615854565b60405180910390f35b3480156104ee57600080fd5b5061050960048036036105049190810190614a8b565b611274565b005b34801561051757600080fd5b50610532600480360361052d9190810190614893565b6112b3565b604051610540929190615ccb565b60405180910390f35b34801561055557600080fd5b50610570600480360361056b9190810190614ada565b611332565b005b34801561057e57600080fd5b506105876113cc565b60405161059491906157b8565b60405180910390f35b3480156105a957600080fd5b506105b26113f6565b6040516105bf9190615839565b60405180910390f35b3480156105d457600080fd5b506105ef60048036036105ea9190810190614993565b611455565b6040516105fc9190615c3c565b60405180910390f35b34801561061157600080fd5b5061061a611486565b60405161062791906158ba565b60405180910390f35b34801561063c57600080fd5b5061065760048036036106529190810190614b3d565b6114c3565b005b34801561066557600080fd5b50610680600480360361067b9190810190614dd8565b6116da565b005b34801561068e57600080fd5b506106a960048036036106a49190810190614993565b611749565b6040516106b69190615817565b60405180910390f35b3480156106cb57600080fd5b506106e660048036036106e19190810190614805565b6117c2565b005b3480156106f457600080fd5b5061070f600480360361070a9190810190614993565b6118b7565b60405161071d929190615c79565b60405180910390f35b34801561073257600080fd5b5061074d60048036036107489190810190614d2f565b61194c565b005b34801561075b57600080fd5b5061077660048036036107719190810190614993565b611a1a565b6040516107839190615898565b60405180910390f35b34801561079857600080fd5b506107b360048036036107ae91908101906149bc565b611a8d565b005b3480156107c157600080fd5b506107dc60048036036107d791908101906149bc565b611b45565b6040516107e99190615839565b60405180910390f35b3480156107fe57600080fd5b5061081960048036036108149190810190614805565b611b65565b005b34801561082757600080fd5b50610842600480360361083d919081019061482e565b611bba565b60405161084f9190615c5e565b60405180910390f35b6108606113f6565b15156108a1576040517f08c379a000000000000000000000000000000000000000000000000000000000815260040161089890615a9c565b60405180910390fd5b60006108ab611d53565b90508073ffffffffffffffffffffffffffffffffffffffff1662f714ce84846040518363ffffffff167c0100000000000000000000000000000000000000000000000000000000028152600401610903929190615ca2565b600060405180830381600087803b15801561091d57600080fd5b505af1158015610931573d6000803e3d6000fd5b50505050505050565b606860009054906101000a900464ffffffffff1681565b600061096782606d611d6290919063ffffffff16565b9050919050565b60606109a77f736368656d61732e7075626c69632e7461626c65730000000000000000000000600102606d611dd990919063ffffffff16565b905090565b60008060006109c584606d611df990919063ffffffff16565b600190049050807c0100000000000000000000000000000000000000000000000000000000029150602081908060020a8204915050925050915091565b610a0a6113f6565b1515610a4b576040517f08c379a0000000000000000000000000000000000000000000000000000000008152600401610a4290615a9c565b60405180910390fd5b60006001026069600086815260200190815260200160002054141515610aa6576040517f08c379a0000000000000000000000000000000000000000000000000000000008152600401610a9d90615b5c565b60405180910390fd5b6000809050610ab6858583611e19565b610aef7f736368656d61732e7075626c69632e7461626c6573000000000000000000000060010287606d611ec59092919063ffffffff16565b50610b0485606a611ff090919063ffffffff16565b50610b1186868585611084565b50505050505050565b6000610b24611d53565b73ffffffffffffffffffffffffffffffffffffffff166370a08231306040518263ffffffff167c0100000000000000000000000000000000000000000000000000000000028152600401610b7891906157d3565b60206040518083038186803b158015610b9057600080fd5b505afa158015610ba4573d6000803e3d6000fd5b505050506040513d601f19601f82011682018060405250610bc89190810190614e01565b905090565b84600080610bda836118b7565b91509150600082111515610c23576040517f08c379a0000000000000000000000000000000000000000000000000000000008152600401610c1a9061597c565b60405180910390fd5b6001821180610c3d575060011515610c396113f6565b1515145b80610c7a5750610c4b612010565b73ffffffffffffffffffffffffffffffffffffffff168173ffffffffffffffffffffffffffffffffffffffff16145b1515610cbb576040517f08c379a0000000000000000000000000000000000000000000000000000000008152600401610cb290615a5c565b60405180910390fd5b6000610cc7888a612064565b90506000610cd58883612064565b905060001515610cef82606d611d6290919063ffffffff16565b1515141515610d33576040517f08c379a0000000000000000000000000000000000000000000000000000000008152600401610d2a90615adc565b60405180910390fd5b610d3b6120c1565b610d518a88606a6121049092919063ffffffff16565b5060001515610d6a83606d611d6290919063ffffffff16565b15151415610d7e57610d7d82888c61214f565b5b610d948187606d6124a59092919063ffffffff16565b5050505050505050505050565b7f736368656d61732e7075626c69632e7461626c6573000000000000000000000060010281565b600060019054906101000a900460ff1680610de75750610de66125d0565b5b80610dfe57506000809054906101000a900460ff16155b1515610e3f576040517f08c379a0000000000000000000000000000000000000000000000000000000008152600401610e3690615abc565b60405180910390fd5b60008060019054906101000a900460ff161590508015610e8f576001600060016101000a81548160ff02191690831515021790555060016000806101000a81548160ff0219169083151502179055505b81606660006101000a81548173ffffffffffffffffffffffffffffffffffffffff021916908373ffffffffffffffffffffffffffffffffffffffff160217905550610ed9336125e7565b610ee2836117c2565b610eea612791565b8015610f0b5760008060016101000a81548160ff0219169083151502179055505b505050565b60676020528060005260406000206000915090505481565b6000610f3e82606d611d6290919063ffffffff16565b15610f5e57610f5782606d611df990919063ffffffff16565b9050610f66565b600060010290505b919050565b610f736113f6565b1515610fb4576040517f08c379a0000000000000000000000000000000000000000000000000000000008152600401610fab90615a9c565b60405180910390fd5b600073ffffffffffffffffffffffffffffffffffffffff16603360009054906101000a900473ffffffffffffffffffffffffffffffffffffffff1673ffffffffffffffffffffffffffffffffffffffff167f8be0079c531659141344cd1fd0a4f28419497f9722a3daafe3b4186f6b6457e060405160405180910390a36000603360006101000a81548173ffffffffffffffffffffffffffffffffffffffff021916908373ffffffffffffffffffffffffffffffffffffffff160217905550565b600061107f6127f3565b905090565b600061108e6113f6565b15156110cf576040517f08c379a00000000000000000000000000000000000000000000000000000000081526004016110c690615a9c565b60405180910390fd5b6110d76144e0565b6110e2868585612824565b905060606110ef826128a1565b90506111078682606d6124a59092919063ffffffff16565b92505050949350505050565b600061111f8587612064565b9050600061112d8583612064565b905061113b87878487612971565b6111436120c1565b6111598184606d612bcc9092919063ffffffff16565b508285887f73f74243127530ba96dc00b266dfa2b8da17d2b0489b55f8f947074436f23b7187611187612010565b60405161119592919061586f565b60405180910390a450505050505050565b60006111b0611075565b73ffffffffffffffffffffffffffffffffffffffff163373ffffffffffffffffffffffffffffffffffffffff1614151561121f576040517f08c379a0000000000000000000000000000000000000000000000000000000008152600401611216906158fc565b60405180910390fd5b61126c83838080601f016020809104026020016040519081016040528093929190818152602001838380828437600081840152601f19601f82011690508083019250505050505050612cf7565b905092915050565b60006112808385612064565b905061128e84828585612cfe565b6112966120c1565b6112ac8483606a612f529092919063ffffffff16565b5050505050565b6000606060006112c1612f9d565b9050600060676000838152602001908152602001600020549050606860009054906101000a900464ffffffffff1664ffffffffff1681101515611313576113086002613258565b935093505050611322565b61131b61327a565b9350935050505b9b509b9950505050505050505050565b600061133e8486612064565b9050600061134c8483612064565b905061135a86838786612cfe565b6113626120c1565b600061137882606d61329f90919063ffffffff16565b9050600115158115151415156113c3576040517f08c379a00000000000000000000000000000000000000000000000000000000081526004016113ba90615a7c565b60405180910390fd5b50505050505050565b6000603360009054906101000a900473ffffffffffffffffffffffffffffffffffffffff16905090565b6000603360009054906101000a900473ffffffffffffffffffffffffffffffffffffffff1673ffffffffffffffffffffffffffffffffffffffff16611439612010565b73ffffffffffffffffffffffffffffffffffffffff1614905090565b61145d6144e0565b606061147383606d61331690919063ffffffff16565b905061147e81613336565b915050919050565b60606040805190810160405280600581526020017f312e302e30000000000000000000000000000000000000000000000000000000815250905090565b846000806114d0836118b7565b91509150600082111515611519576040517f08c379a00000000000000000000000000000000000000000000000000000000081526004016115109061597c565b60405180910390fd5b600182118061153357506001151561152f6113f6565b1515145b806115705750611541612010565b73ffffffffffffffffffffffffffffffffffffffff168173ffffffffffffffffffffffffffffffffffffffff16145b15156115b1576040517f08c379a00000000000000000000000000000000000000000000000000000000081526004016115a890615a5c565b60405180910390fd5b60006115bd888a612064565b905060006115cb8883612064565b9050600015156115e582606d611d6290919063ffffffff16565b1515141515611629576040517f08c379a000000000000000000000000000000000000000000000000000000000815260040161162090615adc565b60405180910390fd5b6116316120c1565b6116478a88606a6121049092919063ffffffff16565b506000151561166083606d611d6290919063ffffffff16565b151514156116745761167382888c61214f565b5b61168a8187606d612bcc9092919063ffffffff16565b5085888b7f73f74243127530ba96dc00b266dfa2b8da17d2b0489b55f8f947074436f23b718a6116b8612010565b6040516116c692919061586f565b60405180910390a450505050505050505050565b6116e26113f6565b1515611723576040517f08c379a000000000000000000000000000000000000000000000000000000000815260040161171a90615a9c565b60405180910390fd5b80606860006101000a81548164ffffffffff021916908364ffffffffff16021790555050565b60606001151561176383606a6133df90919063ffffffff16565b15151415156117a7576040517f08c379a000000000000000000000000000000000000000000000000000000000815260040161179e90615b9c565b60405180910390fd5b6117bb82606a6133ff90919063ffffffff16565b9050919050565b600060019054906101000a900460ff16806117e157506117e06125d0565b5b806117f857506000809054906101000a900460ff16155b1515611839576040517f08c379a000000000000000000000000000000000000000000000000000000000815260040161183090615abc565b60405180910390fd5b60008060019054906101000a900460ff161590508015611889576001600060016101000a81548160ff02191690831515021790555060016000806101000a81548160ff0219169083151502179055505b6118928261346e565b80156118b35760008060016101000a81548160ff0219169083151502179055505b5050565b60008060006001026069600085815260200190815260200160002054111515611915576040517f08c379a000000000000000000000000000000000000000000000000000000000815260040161190c90615bfc565b60405180910390fd5b600060696000858152602001908152602001600020546001900490508060ff169250600881908060020a8204915050915050915091565b611954611075565b73ffffffffffffffffffffffffffffffffffffffff163373ffffffffffffffffffffffffffffffffffffffff161415156119c3576040517f08c379a00000000000000000000000000000000000000000000000000000000081526004016119ba906158fc565b60405180910390fd5b611a1385858080601f016020809104026020016040519081016040528093929190818152602001838380828437600081840152601f19601f82011690508083019250505050505050848484613563565b5050505050565b6060611a3082606d611d6290919063ffffffff16565b15611a5057611a4982606d61331690919063ffffffff16565b9050611a88565b60006040519080825280601f01601f191660200182016040528015611a845781602001600182028038833980820191505090505b5090505b919050565b611a956113f6565b1515611ad6576040517f08c379a0000000000000000000000000000000000000000000000000000000008152600401611acd90615a9c565b60405180910390fd5b60006001026069600083815260200190815260200160002081905550611b2b7f736368656d61732e7075626c69632e7461626c6573000000000000000000000060010283606d6135699092919063ffffffff16565b50611b4081606a61358c90919063ffffffff16565b505050565b6000611b5d8383606a6135c59092919063ffffffff16565b905092915050565b611b6d6113f6565b1515611bae576040517f08c379a0000000000000000000000000000000000000000000000000000000008152600401611ba590615a9c565b60405180910390fd5b611bb781613610565b50565b6000611bc46113f6565b1515611c05576040517f08c379a0000000000000000000000000000000000000000000000000000000008152600401611bfc90615a9c565b60405180910390fd5b6000611c0f611d53565b90506000611c1b611d53565b73ffffffffffffffffffffffffffffffffffffffff166370a08231306040518263ffffffff167c0100000000000000000000000000000000000000000000000000000000028152600401611c6f91906157d3565b60206040518083038186803b158015611c8757600080fd5b505afa158015611c9b573d6000803e3d6000fd5b505050506040513d601f19601f82011682018060405250611cbf9190810190614e01565b90508173ffffffffffffffffffffffffffffffffffffffff1662f714ce82866040518363ffffffff167c0100000000000000000000000000000000000000000000000000000000028152600401611d17929190615ca2565b600060405180830381600087803b158015611d3157600080fd5b505af1158015611d45573d6000803e3d6000fd5b505050508092505050919050565b6000611d5d6127f3565b905090565b6000611d7a828460000161374290919063ffffffff16565b80611d975750611d96828460030161376290919063ffffffff16565b5b80611db45750611db382846006016133df90919063ffffffff16565b5b80611dd15750611dd0828460090161378290919063ffffffff16565b5b905092915050565b6060611df182846006016133ff90919063ffffffff16565b905092915050565b6000611e1182846000016137a290919063ffffffff16565b905092915050565b611e216113f6565b1515611e62576040517f08c379a0000000000000000000000000000000000000000000000000000000008152600401611e5990615a9c565b60405180910390fd5b60008260ff168117905060088273ffffffffffffffffffffffffffffffffffffffff169060020a0273ffffffffffffffffffffffffffffffffffffffff168117905080600102606960008681526020019081526020016000208190555050505050565b6000611edd838560000161374290919063ffffffff16565b151515611f1f576040517f08c379a0000000000000000000000000000000000000000000000000000000008152600401611f16906159dc565b60405180910390fd5b611f35838560030161376290919063ffffffff16565b151515611f77576040517f08c379a0000000000000000000000000000000000000000000000000000000008152600401611f6e906159dc565b60405180910390fd5b611f8d838560090161378290919063ffffffff16565b151515611fcf576040517f08c379a0000000000000000000000000000000000000000000000000000000008152600401611fc6906159dc565b60405180910390fd5b611fe78383866006016121049092919063ffffffff16565b90509392505050565b6000612008828460010161380d90919063ffffffff16565b905092915050565b600061201a6127f3565b73ffffffffffffffffffffffffffffffffffffffff163373ffffffffffffffffffffffffffffffffffffffff1614151561205657339050612061565b61205e613879565b90505b90565b60006060604080519080825280601f01601f19166020018201604052801561209b5781602001600182028038833980820191505090505b509050836040820152826020820152600081805190602001209050809250505092915050565b60006120cb612f9d565b90506000606760008381526020019081526020016000205490506001810160676000848152602001908152602001600020819055505050565b600061211084846133df565b156121435761213c8285600001600086815260200190815260200160002061380d90919063ffffffff16565b9050612148565b600090505b9392505050565b6000151561216784606d611d6290919063ffffffff16565b15151415156121ab576040517f08c379a00000000000000000000000000000000000000000000000000000000081526004016121a2906159fc565b60405180910390fd5b600080606660009054906101000a900473ffffffffffffffffffffffffffffffffffffffff1673ffffffffffffffffffffffffffffffffffffffff166392d66313426040518263ffffffff167c01000000000000000000000000000000000000000000000000000000000281526004016122259190615c5e565b60206040518083038186803b15801561223d57600080fd5b505afa158015612251573d6000803e3d6000fd5b505050506040513d601f19601f820116820180604052506122759190810190614daf565b90506000606660009054906101000a900473ffffffffffffffffffffffffffffffffffffffff1673ffffffffffffffffffffffffffffffffffffffff1663a324ad24426040518263ffffffff167c01000000000000000000000000000000000000000000000000000000000281526004016122f09190615c5e565b60206040518083038186803b15801561230857600080fd5b505afa15801561231c573d6000803e3d6000fd5b505050506040513d601f19601f820116820180604052506123409190810190614e66565b90506000606660009054906101000a900473ffffffffffffffffffffffffffffffffffffffff1673ffffffffffffffffffffffffffffffffffffffff166365c72840426040518263ffffffff167c01000000000000000000000000000000000000000000000000000000000281526004016123bb9190615c5e565b60206040518083038186803b1580156123d357600080fd5b505afa1580156123e7573d6000803e3d6000fd5b505050506040513d601f19601f8201168201806040525061240b9190810190614e66565b90508261ffff168417935060108260ff169060020a028417935060188160ff169060020a02841793506000847c01000000000000000000000000000000000000000000000000000000000290506020612462612010565b73ffffffffffffffffffffffffffffffffffffffff169060020a028517945061249a8886600102606d612bcc9092919063ffffffff16565b505050505050505050565b60006124bd838560000161374290919063ffffffff16565b1515156124ff576040517f08c379a00000000000000000000000000000000000000000000000000000000081526004016124f6906159dc565b60405180910390fd5b61251583856006016133df90919063ffffffff16565b151515612557576040517f08c379a000000000000000000000000000000000000000000000000000000000815260040161254e906159dc565b60405180910390fd5b61256d838560090161378290919063ffffffff16565b1515156125af576040517f08c379a00000000000000000000000000000000000000000000000000000000081526004016125a6906159dc565b60405180910390fd5b6125c78383866003016138f19092919063ffffffff16565b90509392505050565b6000803090506000813b9050600081149250505090565b600060019054906101000a900460ff168061260657506126056125d0565b5b8061261d57506000809054906101000a900460ff16155b151561265e576040517f08c379a000000000000000000000000000000000000000000000000000000000815260040161265590615abc565b60405180910390fd5b60008060019054906101000a900460ff1615905080156126ae576001600060016101000a81548160ff02191690831515021790555060016000806101000a81548160ff0219169083151502179055505b81603360006101000a81548173ffffffffffffffffffffffffffffffffffffffff021916908373ffffffffffffffffffffffffffffffffffffffff160217905550603360009054906101000a900473ffffffffffffffffffffffffffffffffffffffff1673ffffffffffffffffffffffffffffffffffffffff16600073ffffffffffffffffffffffffffffffffffffffff167f8be0079c531659141344cd1fd0a4f28419497f9722a3daafe3b4186f6b6457e060405160405180910390a3801561278d5760008060016101000a81548160ff0219169083151502179055505b5050565b6103e8606860006101000a81548164ffffffffff021916908364ffffffffff1602179055506127f07f736368656d61732e7075626c69632e7461626c657300000000000000000000006001026000606d61393c9092919063ffffffff16565b50565b6000807f06b7792c761dcc05af1761f0315ce8b01ac39c16cc934eb0b2f7a8e71414f2626001029050805491505090565b61282c6144e0565b81518351141515612872576040517f08c379a000000000000000000000000000000000000000000000000000000000815260040161286990615a1c565b60405180910390fd5b61287a6144e0565b8481600001818152505061288e8484613c24565b8160200181905250809150509392505050565b606060006128ae83613d3a565b90506060816040519080825280601f01601f1916602001820160405280156128e55781602001600182028038833980820191505090505b50905061290182828660000151613d559092919063ffffffff16565b60208203915061292082828660200151613d5f9092919063ffffffff16565b9150600082141515612967576040517f08c379a000000000000000000000000000000000000000000000000000000000815260040161295e906158dc565b60405180910390fd5b8092505050919050565b6001151561298b8583606a6135c59092919063ffffffff16565b15151415156129cf576040517f08c379a00000000000000000000000000000000000000000000000000000000081526004016129c690615bdc565b60405180910390fd5b6000806129db866118b7565b91509150600082111515612a24576040517f08c379a0000000000000000000000000000000000000000000000000000000008152600401612a1b9061593c565b60405180910390fd5b6001821180612a3e575060011515612a3a6113f6565b1515145b80612a7b5750612a4c612010565b73ffffffffffffffffffffffffffffffffffffffff168173ffffffffffffffffffffffffffffffffffffffff16145b1515612abc576040517f08c379a0000000000000000000000000000000000000000000000000000000008152600401612ab3906159bc565b60405180910390fd5b600282101515612bc4576000612adc85606d611df990919063ffffffff16565b9050600060208260019004908060020a82049150509050612afb612010565b73ffffffffffffffffffffffffffffffffffffffff168173ffffffffffffffffffffffffffffffffffffffff161415612b3357612bc1565b60011515612b3f6113f6565b15151480612b7f5750612b50612010565b73ffffffffffffffffffffffffffffffffffffffff168373ffffffffffffffffffffffffffffffffffffffff16145b1515612bc0576040517f08c379a0000000000000000000000000000000000000000000000000000000008152600401612bb790615a3c565b60405180910390fd5b5b50505b505050505050565b6000612be4838560030161376290919063ffffffff16565b151515612c26576040517f08c379a0000000000000000000000000000000000000000000000000000000008152600401612c1d906159dc565b60405180910390fd5b612c3c83856006016133df90919063ffffffff16565b151515612c7e576040517f08c379a0000000000000000000000000000000000000000000000000000000008152600401612c75906159dc565b60405180910390fd5b612c94838560090161378290919063ffffffff16565b151515612cd6576040517f08c379a0000000000000000000000000000000000000000000000000000000008152600401612ccd906159dc565b60405180910390fd5b612cee838386600001613e1c9092919063ffffffff16565b90509392505050565b6000919050565b60011515612d188583606a6135c59092919063ffffffff16565b1515141515612d5c576040517f08c379a0000000000000000000000000000000000000000000000000000000008152600401612d5390615b7c565b60405180910390fd5b600080612d68866118b7565b91509150600082111515612db1576040517f08c379a0000000000000000000000000000000000000000000000000000000008152600401612da89061591c565b60405180910390fd5b6001821180612dcb575060011515612dc76113f6565b1515145b80612e085750612dd9612010565b73ffffffffffffffffffffffffffffffffffffffff168173ffffffffffffffffffffffffffffffffffffffff16145b1515612e49576040517f08c379a0000000000000000000000000000000000000000000000000000000008152600401612e4090615afc565b60405180910390fd5b600282101515612f4a57612e5b6113f6565b80612e985750612e69612010565b73ffffffffffffffffffffffffffffffffffffffff168173ffffffffffffffffffffffffffffffffffffffff16145b15612ea257612f49565b6000612eb886606d611df990919063ffffffff16565b9050600060208260019004908060020a82049150509050612ed7612010565b73ffffffffffffffffffffffffffffffffffffffff168173ffffffffffffffffffffffffffffffffffffffff16141515612f46576040517f08c379a0000000000000000000000000000000000000000000000000000000008152600401612f3d90615c1c565b60405180910390fd5b50505b5b505050505050565b6000612f5e84846133df565b15612f9157612f8a82856000016000868152602001908152602001600020613e5790919063ffffffff16565b9050612f96565b600090505b9392505050565b6000806000606660009054906101000a900473ffffffffffffffffffffffffffffffffffffffff1673ffffffffffffffffffffffffffffffffffffffff166392d66313426040518263ffffffff167c01000000000000000000000000000000000000000000000000000000000281526004016130199190615c5e565b60206040518083038186803b15801561303157600080fd5b505afa158015613045573d6000803e3d6000fd5b505050506040513d601f19601f820116820180604052506130699190810190614daf565b90506000606660009054906101000a900473ffffffffffffffffffffffffffffffffffffffff1673ffffffffffffffffffffffffffffffffffffffff1663a324ad24426040518263ffffffff167c01000000000000000000000000000000000000000000000000000000000281526004016130e49190615c5e565b60206040518083038186803b1580156130fc57600080fd5b505afa158015613110573d6000803e3d6000fd5b505050506040513d601f19601f820116820180604052506131349190810190614e66565b90506000606660009054906101000a900473ffffffffffffffffffffffffffffffffffffffff1673ffffffffffffffffffffffffffffffffffffffff166365c72840426040518263ffffffff167c01000000000000000000000000000000000000000000000000000000000281526004016131af9190615c5e565b60206040518083038186803b1580156131c757600080fd5b505afa1580156131db573d6000803e3d6000fd5b505050506040513d601f19601f820116820180604052506131ff9190810190614e66565b90508261ffff168417935060108260ff169060020a028417935060188160ff169060020a028417935083604051602001808281526020019150506040516020818303038152906040528051906020012094505050505090565b6000606082600b01602060405190810160405280600081525091509150915091565b600060606132976020604051908101604052806000815250613f50565b915091509091565b60006132b78284600001613f6090919063ffffffff16565b806132d457506132d38284600301613fb290919063ffffffff16565b5b806132f157506132f0828460060161358c90919063ffffffff16565b5b8061330e575061330d828460090161400c90919063ffffffff16565b5b905092915050565b606061332e828460030161404590919063ffffffff16565b905092915050565b61333e6144e0565b60008251905061334c6144e0565b61335f828561414890919063ffffffff16565b816000018181525050602082039150613381828561415690919063ffffffff16565b8191508260200181945082905250506000821415156133d5576040517f08c379a00000000000000000000000000000000000000000000000000000000081526004016133cc906158dc565b60405180910390fd5b8092505050919050565b60006133f7828460010161426190919063ffffffff16565b905092915050565b606061340b83836133df565b156134345761342d836000016000848152602001908152602001600020614284565b9050613468565b60006040519080825280602002602001820160405280156134645781602001602082028038833980820191505090505b5090505b92915050565b600060019054906101000a900460ff168061348d575061348c6125d0565b5b806134a457506000809054906101000a900460ff16155b15156134e5576040517f08c379a00000000000000000000000000000000000000000000000000000000081526004016134dc90615abc565b60405180910390fd5b60008060019054906101000a900460ff161590508015613535576001600060016101000a81548160ff02191690831515021790555060016000806101000a81548160ff0219169083151502179055505b61353e82614321565b801561355f5760008060016101000a81548160ff0219169083151502179055505b5050565b50505050565b6000613583838386600601612f529092919063ffffffff16565b90509392505050565b600061359883836133df565b156135ba576135b38284600101613e5790919063ffffffff16565b90506135bf565b600090505b92915050565b60006135d184846133df565b15613604576135fd8285600001600086815260200190815260200160002061426190919063ffffffff16565b9050613609565b600090505b9392505050565b600073ffffffffffffffffffffffffffffffffffffffff168173ffffffffffffffffffffffffffffffffffffffff1614151515613682576040517f08c379a00000000000000000000000000000000000000000000000000000000081526004016136799061595c565b60405180910390fd5b8073ffffffffffffffffffffffffffffffffffffffff16603360009054906101000a900473ffffffffffffffffffffffffffffffffffffffff1673ffffffffffffffffffffffffffffffffffffffff167f8be0079c531659141344cd1fd0a4f28419497f9722a3daafe3b4186f6b6457e060405160405180910390a380603360006101000a81548173ffffffffffffffffffffffffffffffffffffffff021916908373ffffffffffffffffffffffffffffffffffffffff16021790555050565b600061375a828460010161426190919063ffffffff16565b905092915050565b600061377a828460010161426190919063ffffffff16565b905092915050565b600061379a828460010161426190919063ffffffff16565b905092915050565b60006137ae8383613742565b15156137ef576040517f08c379a00000000000000000000000000000000000000000000000000000000081526004016137e690615bbc565b60405180910390fd5b82600001600083815260200190815260200160002054905092915050565b60006138198383614261565b151561386e578260010182908060018154018082558091505090600182039060005260206000200160009091929091909150558360000160008481526020019081526020016000208190555060019050613873565b600090505b92915050565b600060606000368080601f016020809104026020016040519081016040528093929190818152602001838380828437600081840152601f19601f820116905080830192505050505050509050600080369050905073ffffffffffffffffffffffffffffffffffffffff81830151169250829250505090565b600081846000016000858152602001908152602001600020908051906020019061391c9291906144fd565b50613933838560010161380d90919063ffffffff16565b90509392505050565b6000600482600381111561394c57fe5b60ff16101515613991576040517f08c379a000000000000000000000000000000000000000000000000000000000815260040161398890615b3c565b60405180910390fd5b6139a7838560000161374290919063ffffffff16565b1515156139e9576040517f08c379a00000000000000000000000000000000000000000000000000000000081526004016139e0906159dc565b60405180910390fd5b6139ff838560030161376290919063ffffffff16565b151515613a41576040517f08c379a0000000000000000000000000000000000000000000000000000000008152600401613a38906159dc565b60405180910390fd5b613a5783856006016133df90919063ffffffff16565b151515613a99576040517f08c379a0000000000000000000000000000000000000000000000000000000008152600401613a90906159dc565b60405180910390fd5b613aaf838560090161378290919063ffffffff16565b151515613af1576040517f08c379a0000000000000000000000000000000000000000000000000000000008152600401613ae8906159dc565b60405180910390fd5b816003811115613afd57fe5b60006003811115613b0a57fe5b1415613b2d57613b268385600601611ff090919063ffffffff16565b9050613c1d565b816003811115613b3957fe5b60016003811115613b4657fe5b1415613b6957613b62838560090161449a90919063ffffffff16565b9050613c1d565b816003811115613b7557fe5b60026003811115613b8257fe5b1415613bab57613ba483600060010286600001613e1c9092919063ffffffff16565b9050613c1d565b816003811115613bb757fe5b600380811115613bc357fe5b1415613c1c57613c158360006040519080825280601f01601f191660200182016040528015613c015781602001600182028038833980820191505090505b50866003016138f19092919063ffffffff16565b9050613c1d565b5b9392505050565b606081518351141515613c6c576040517f08c379a0000000000000000000000000000000000000000000000000000000008152600401613c6390615a1c565b60405180910390fd5b60608351604051908082528060200260200182016040528015613ca957816020015b613c9661457d565b815260200190600190039081613c8e5790505b50905060008090505b8451811015613d2f57613cc361459d565b8582815181101515613cd157fe5b906020019060200201518160000181815250508482815181101515613cf257fe5b90602001906020020151816020018181525050808383815181101515613d1457fe5b90602001906020020181905250508080600101915050613cb2565b508091505092915050565b6000613d4982602001516144ba565b60208001019050919050565b8282820152505050565b600080839050613d828184613d73886144ba565b6144c89092919063ffffffff16565b60208103905060008090505b8551811015613e1057613dc782858884815181101515613daa57fe5b9060200190602002015160000151613d559092919063ffffffff16565b602082039150613dfd82858884815181101515613de057fe5b9060200190602002015160200151613d559092919063ffffffff16565b6020820391508080600101915050613d8e565b50809150509392505050565b60008184600001600085815260200190815260200160002081905550613e4e838560010161380d90919063ffffffff16565b90509392505050565b6000613e638383614261565b15613f455760006001846000016000858152602001908152602001600020540390506000600185600101805490500390508181141515613efc5760008560010182815481101515613eb057fe5b90600052602060002001549050808660010184815481101515613ecf57fe5b90600052602060002001819055506001830186600001600083815260200190815260200160002081905550505b84600001600085815260200190815260200160002060009055846001018054801515613f2457fe5b60019003818190600052602060002001600090559055600192505050613f4a565b600090505b92915050565b6000606060008391509150915091565b6000613f6c8383613742565b15613fa75782600001600083815260200190815260200160002060009055613fa08284600101613e5790919063ffffffff16565b9050613fac565b600090505b92915050565b6000613fbe8383613762565b15614001578260000160008381526020019081526020016000206000613fe491906145bd565b613ffa8284600101613e5790919063ffffffff16565b9050614006565b600090505b92915050565b60006140188383613782565b1561403a576140338284600101613e5790919063ffffffff16565b905061403f565b600090505b92915050565b60606140518383613762565b1515614092576040517f08c379a000000000000000000000000000000000000000000000000000000000815260040161408990615bbc565b60405180910390fd5b8260000160008381526020019081526020016000208054600181600116156101000203166002900480601f01602080910402602001604051908101604052809291908181526020018280546001816001161561010002031660029004801561413b5780601f106141105761010080835404028352916020019161413b565b820191906000526020600020905b81548152906001019060200180831161411e57829003601f168201915b5050505050905092915050565b600081830151905092915050565b6060600080839050600061417382876144d290919063ffffffff16565b9050602082039150600060408281151561418957fe5b0490506060816040519080825280602002602001820160405280156141c857816020015b6141b561457d565b8152602001906001900390816141ad5790505b50905060008090505b8281101561424f576141e161459d565b6141f4868b61414890919063ffffffff16565b816000018181525050602086039550614216868b61414890919063ffffffff16565b81602001818152505060208603955080838381518110151561423457fe5b906020019060200201819052505080806001019150506141d1565b50808495509550505050509250929050565b600080836000016000848152602001908152602001600020541415905092915050565b60608082600101805490506040519080825280602002602001820160405280156142bd5781602001602082028038833980820191505090505b50905060005b83600101805490508110156143175783600101818154811015156142e357fe5b906000526020600020015482828151811015156142fc57fe5b906020019060200201818152505080806001019150506142c3565b5080915050919050565b600061432b6127f3565b9050600073ffffffffffffffffffffffffffffffffffffffff168273ffffffffffffffffffffffffffffffffffffffff161415151561439f576040517f08c379a000000000000000000000000000000000000000000000000000000000815260040161439690615b1c565b60405180910390fd5b8073ffffffffffffffffffffffffffffffffffffffff168273ffffffffffffffffffffffffffffffffffffffff1614151515614410576040517f08c379a00000000000000000000000000000000000000000000000000000000081526004016144079061599c565b60405180910390fd5b8173ffffffffffffffffffffffffffffffffffffffff168173ffffffffffffffffffffffffffffffffffffffff167fb9f84b8e65164b14439ae3620df0a4d8786d896996c0282b683f9d8c08f046e860405160405180910390a360007f06b7792c761dcc05af1761f0315ce8b01ac39c16cc934eb0b2f7a8e71414f2626001029050828155505050565b60006144b2828460010161380d90919063ffffffff16565b905092915050565b600060408251029050919050565b8282820152505050565b600081830151905092915050565b604080519081016040528060008019168152602001606081525090565b828054600181600116156101000203166002900490600052602060002090601f016020900481019282601f1061453e57805160ff191683800117855561456c565b8280016001018555821561456c579182015b8281111561456b578251825591602001919060010190614550565b5b5090506145799190614605565b5090565b604080519081016040528060008019168152602001600080191681525090565b604080519081016040528060008019168152602001600080191681525090565b50805460018160011615610100020316600290046000825580601f106145e35750614602565b601f0160209004906000526020600020908101906146019190614605565b5b50565b61462791905b8082111561462357600081600090555060010161460b565b5090565b90565b60006146368235615e98565b905092915050565b600061464a8235615eaa565b905092915050565b600082601f830112151561466557600080fd5b813561467861467382615d43565b615d16565b9150818183526020840193506020810190508385602084028201111561469d57600080fd5b60005b838110156146cd57816146b388826146eb565b8452602084019350602083019250506001810190506146a0565b5050505092915050565b60006146e38235615ebc565b905092915050565b60006146f78235615ec8565b905092915050565b60008083601f840112151561471357600080fd5b8235905067ffffffffffffffff81111561472c57600080fd5b60208301915083600182028301111561474457600080fd5b9250929050565b600082601f830112151561475e57600080fd5b813561477161476c82615d6b565b615d16565b9150808252602083016020830185838301111561478d57600080fd5b614798838284615f2d565b50505092915050565b60006147ad8251615ed2565b905092915050565b60006147c18235615ee0565b905092915050565b60006147d58251615ee0565b905092915050565b60006147e98235615eea565b905092915050565b60006147fd8251615eea565b905092915050565b60006020828403121561481757600080fd5b60006148258482850161462a565b91505092915050565b60006020828403121561484057600080fd5b600061484e8482850161463e565b91505092915050565b6000806040838503121561486a57600080fd5b60006148788582860161462a565b92505060206148898582860161462a565b9150509250929050565b60008060008060008060008060008060006101208c8e0312156148b557600080fd5b60006148c38e828f0161462a565b9b505060206148d48e828f0161462a565b9a505060408c013567ffffffffffffffff8111156148f157600080fd5b6148fd8e828f016146ff565b995099505060606149108e828f016147b5565b97505060806149218e828f016147b5565b96505060a06149328e828f016147b5565b95505060c06149438e828f016147b5565b94505060e08c013567ffffffffffffffff81111561496057600080fd5b61496c8e828f016146ff565b93509350506101006149808e828f016147b5565b9150509295989b509295989b9093969950565b6000602082840312156149a557600080fd5b60006149b3848285016146eb565b91505092915050565b600080604083850312156149cf57600080fd5b60006149dd858286016146eb565b92505060206149ee858286016146eb565b9150509250929050565b60008060008060808587031215614a0e57600080fd5b6000614a1c878288016146eb565b9450506020614a2d878288016146eb565b935050604085013567ffffffffffffffff811115614a4a57600080fd5b614a5687828801614652565b925050606085013567ffffffffffffffff811115614a7357600080fd5b614a7f87828801614652565b91505092959194509250565b600080600060608486031215614aa057600080fd5b6000614aae868287016146eb565b9350506020614abf868287016146eb565b9250506040614ad0868287016146eb565b9150509250925092565b60008060008060808587031215614af057600080fd5b6000614afe878288016146eb565b9450506020614b0f878288016146eb565b9350506040614b20878288016146eb565b9250506060614b31878288016146eb565b91505092959194509250565b600080600080600060a08688031215614b5557600080fd5b6000614b63888289016146eb565b9550506020614b74888289016146eb565b9450506040614b85888289016146eb565b9350506060614b96888289016146eb565b9250506080614ba7888289016146eb565b9150509295509295909350565b600080600080600060a08688031215614bcc57600080fd5b6000614bda888289016146eb565b9550506020614beb888289016146eb565b9450506040614bfc888289016146eb565b9350506060614c0d888289016146eb565b925050608086013567ffffffffffffffff811115614c2a57600080fd5b614c368882890161474b565b9150509295509295909350565b600080600080600060a08688031215614c5b57600080fd5b6000614c69888289016146eb565b9550506020614c7a888289016146eb565b9450506040614c8b888289016147dd565b935050606086013567ffffffffffffffff811115614ca857600080fd5b614cb488828901614652565b925050608086013567ffffffffffffffff811115614cd157600080fd5b614cdd88828901614652565b9150509295509295909350565b60008060208385031215614cfd57600080fd5b600083013567ffffffffffffffff811115614d1757600080fd5b614d23858286016146ff565b92509250509250929050565b600080600080600060808688031215614d4757600080fd5b600086013567ffffffffffffffff811115614d6157600080fd5b614d6d888289016146ff565b95509550506020614d80888289016146d7565b9350506040614d91888289016147b5565b9250506060614da2888289016146eb565b9150509295509295909350565b600060208284031215614dc157600080fd5b6000614dcf848285016147a1565b91505092915050565b600060208284031215614dea57600080fd5b6000614df8848285016147b5565b91505092915050565b600060208284031215614e1357600080fd5b6000614e21848285016147c9565b91505092915050565b60008060408385031215614e3d57600080fd5b6000614e4b858286016147b5565b9250506020614e5c8582860161463e565b9150509250929050565b600060208284031215614e7857600080fd5b6000614e86848285016147f1565b91505092915050565b614e9881615ef7565b82525050565b614ea781615e09565b82525050565b614eb681615df7565b82525050565b6000614ec782615db1565b808452602084019350614ed983615d97565b60005b82811015614f0b57614eef868351614f81565b614ef882615ddd565b9150602086019550600181019050614edc565b50849250505092915050565b6000614f2282615dbc565b808452602084019350614f3483615da4565b60005b82811015614f6657614f4a86835161572e565b614f5382615dea565b9150604086019550600181019050614f37565b50849250505092915050565b614f7b81615e1b565b82525050565b614f8a81615e27565b82525050565b614f9981615e31565b82525050565b6000614faa82615dc7565b808452614fbe816020860160208601615f3c565b614fc781615f6f565b602085010191505092915050565b6000614fe082615dd2565b808452614ff4816020860160208601615f3c565b614ffd81615f6f565b602085010191505092915050565b6000601c82527f456e636f64696e67204572726f723a206f666673657420213d20302e000000006020830152604082019050919050565b6000602682527f47534e426f756e636572426173653a2063616c6c6572206973206e6f7420526560208301527f6c617948756200000000000000000000000000000000000000000000000000006040830152606082019050919050565b6000601f82527f43616e6e6f742044454c4554452066726f6d2073797374656d207461626c65006020830152604082019050919050565b6000601a82527f43616e6e6f74205550444154452073797374656d207461626c650000000000006020830152604082019050919050565b6000602682527f4f776e61626c653a206e6577206f776e657220697320746865207a65726f206160208301527f64647265737300000000000000000000000000000000000000000000000000006040830152606082019050919050565b6000601f82527f43616e6e6f7420494e5345525420696e746f2073797374656d207461626c65006020830152604082019050919050565b6000602b82527f47534e436f6e746578743a206e65772052656c6179487562206973207468652060208301527f63757272656e74206f6e650000000000000000000000000000000000000000006040830152606082019050919050565b6000602e82527f4f6e6c79206f776e65722f64656c65676174652063616e20555044415445206960208301527f6e746f2074686973207461626c650000000000000000000000000000000000006040830152606082019050919050565b6000602082527f4572726f723a206b65792065786973747320696e206f7468657220646963742e6020830152604082019050919050565b6000601582527f726f7720616c726561647920686173206f776e657200000000000000000000006020830152604082019050919050565b6000601082527f4572726f7220616c69676e6d656e742e000000000000000000000000000000006020830152604082019050919050565b6000603982527f4e6f7420726f774f776e6572206f72206f776e65722f64656c6567617465206660208301527f6f722055504441544520696e746f2074686973207461626c65000000000000006040830152606082019050919050565b6000602e82527f4f6e6c79206f776e65722f64656c65676174652063616e20494e53455254206960208301527f6e746f2074686973207461626c650000000000000000000000000000000000006040830152606082019050919050565b6000601282527f6572726f722072656d6f76696e67206b657900000000000000000000000000006020830152604082019050919050565b6000602082527f4f776e61626c653a2063616c6c6572206973206e6f7420746865206f776e65726020830152604082019050919050565b6000602e82527f436f6e747261637420696e7374616e63652068617320616c726561647920626560208301527f656e20696e697469616c697a65640000000000000000000000000000000000006040830152606082019050919050565b6000601782527f69642b6669656c6420616c7265616479206578697374730000000000000000006020830152604082019050919050565b6000602e82527f4f6e6c79206f776e65722f64656c65676174652063616e2044454c455445206660208301527f726f6d2074686973207461626c650000000000000000000000000000000000006040830152606082019050919050565b6000602c82527f47534e436f6e746578743a206e65772052656c6179487562206973207468652060208301527f7a65726f206164647265737300000000000000000000000000000000000000006040830152606082019050919050565b6000601382527f496e76616c6964207461626c65207479706521000000000000000000000000006020830152604082019050919050565b6000601482527f5461626c6520616c7265616479206578697374730000000000000000000000006020830152604082019050919050565b6000601082527f696420646f65736e2774206578697374000000000000000000000000000000006020830152604082019050919050565b6000601182527f7461626c65206e6f7420637265617465640000000000000000000000000000006020830152604082019050919050565b6000601382527f4b657920646f6573206e6f7420657869737421000000000000000000000000006020830152604082019050919050565b6000601c82527f696420646f65736e27742065786973742c2075736520494e53455254000000006020830152604082019050919050565b6000601482527f7461626c6520646f6573206e6f742065786973740000000000000000000000006020830152604082019050919050565b6000601782527f53656e646572206e6f74206f776e6572206f6620726f770000000000000000006020830152604082019050919050565b6040820160008201516157446000850182614f81565b5060208201516157576020850182614f81565b50505050565b60006040830160008301516157756000860182614f81565b506020830151848203602086015261578d8282614f17565b9150508091505092915050565b6157a381615e7d565b82525050565b6157b281615e87565b82525050565b60006020820190506157cd6000830184614ead565b92915050565b60006020820190506157e86000830184614e8f565b92915050565b60006040820190506158036000830185614ead565b6158106020830184614f90565b9392505050565b600060208201905081810360008301526158318184614ebc565b905092915050565b600060208201905061584e6000830184614f72565b92915050565b60006020820190506158696000830184614f81565b92915050565b60006040820190506158846000830185614f81565b6158916020830184614ead565b9392505050565b600060208201905081810360008301526158b28184614f9f565b905092915050565b600060208201905081810360008301526158d48184614fd5565b905092915050565b600060208201905081810360008301526158f58161500b565b9050919050565b6000602082019050818103600083015261591581615042565b9050919050565b600060208201905081810360008301526159358161509f565b9050919050565b60006020820190508181036000830152615955816150d6565b9050919050565b600060208201905081810360008301526159758161510d565b9050919050565b600060208201905081810360008301526159958161516a565b9050919050565b600060208201905081810360008301526159b5816151a1565b9050919050565b600060208201905081810360008301526159d5816151fe565b9050919050565b600060208201905081810360008301526159f58161525b565b9050919050565b60006020820190508181036000830152615a1581615292565b9050919050565b60006020820190508181036000830152615a35816152c9565b9050919050565b60006020820190508181036000830152615a5581615300565b9050919050565b60006020820190508181036000830152615a758161535d565b9050919050565b60006020820190508181036000830152615a95816153ba565b9050919050565b60006020820190508181036000830152615ab5816153f1565b9050919050565b60006020820190508181036000830152615ad581615428565b9050919050565b60006020820190508181036000830152615af581615485565b9050919050565b60006020820190508181036000830152615b15816154bc565b9050919050565b60006020820190508181036000830152615b3581615519565b9050919050565b60006020820190508181036000830152615b5581615576565b9050919050565b60006020820190508181036000830152615b75816155ad565b9050919050565b60006020820190508181036000830152615b95816155e4565b9050919050565b60006020820190508181036000830152615bb58161561b565b9050919050565b60006020820190508181036000830152615bd581615652565b9050919050565b60006020820190508181036000830152615bf581615689565b9050919050565b60006020820190508181036000830152615c15816156c0565b9050919050565b60006020820190508181036000830152615c35816156f7565b9050919050565b60006020820190508181036000830152615c56818461575d565b905092915050565b6000602082019050615c73600083018461579a565b92915050565b6000604082019050615c8e600083018561579a565b615c9b6020830184614ead565b9392505050565b6000604082019050615cb7600083018561579a565b615cc46020830184614e9e565b9392505050565b6000604082019050615ce0600083018561579a565b8181036020830152615cf28184614f9f565b90509392505050565b6000602082019050615d1060008301846157a9565b92915050565b6000604051905081810181811067ffffffffffffffff82111715615d3957600080fd5b8060405250919050565b600067ffffffffffffffff821115615d5a57600080fd5b602082029050602081019050919050565b600067ffffffffffffffff821115615d8257600080fd5b601f19601f8301169050602081019050919050565b6000602082019050919050565b6000602082019050919050565b600081519050919050565b600081519050919050565b600081519050919050565b600081519050919050565b6000602082019050919050565b6000602082019050919050565b6000615e0282615e5d565b9050919050565b6000615e1482615e5d565b9050919050565b60008115159050919050565b6000819050919050565b60007fffffffff0000000000000000000000000000000000000000000000000000000082169050919050565b600073ffffffffffffffffffffffffffffffffffffffff82169050919050565b6000819050919050565b600064ffffffffff82169050919050565b6000615ea382615e5d565b9050919050565b6000615eb582615e5d565b9050919050565b60008115159050919050565b6000819050919050565b600061ffff82169050919050565b6000819050919050565b600060ff82169050919050565b6000615f0282615f09565b9050919050565b6000615f1482615f1b565b9050919050565b6000615f2682615e5d565b9050919050565b82818337600083830152505050565b60005b83811015615f5a578082015181840152602081019050615f3f565b83811115615f69576000848401525b50505050565b6000601f19601f830116905091905056fea265627a7a72305820048c578a63799ffe93cefb5871790c9693c7e8de8d1d791ea6d1dce0abe2ec3b6c6578706572696d656e74616cf50037",
  "compiler": {
    "name": "solc",
    "version": "0.5.0+commit.1d4f565a.Emscripten.clang",
    "optimizer": {
      "enabled": false,
      "runs": 200
    },
    "evmVersion": "byzantium"
  }
}