{
  "fileName": "ELAJSStore.sol",
  "contractName": "ELAJSStore",
  "source": "pragma solidity ^0.5.0;\npragma experimental ABIEncoderV2;\n\nimport \"sol-datastructs/src/contracts/PolymorphicDictionaryLib.sol\";\n\n// import \"sol-datastructs/src/contracts/Bytes32DictionaryLib.sol\";\nimport \"sol-datastructs/src/contracts/Bytes32SetDictionaryLib.sol\";\n\n// import \"./oz/EnumerableSetDictionary.sol\";\n\nimport \"sol-sql/src/contracts/src/structs/TableLib.sol\";\n\nimport \"./ozEla/OwnableELA.sol\";\nimport \"./gsnEla/GSNRecipientELA.sol\";\nimport \"./gsnEla/IRelayHubELA.sol\";\n\ncontract DateTime {\n    function getYear(uint timestamp) public pure returns (uint16);\n    function getMonth(uint timestamp) public pure returns (uint8);\n    function getDay(uint timestamp) public pure returns (uint8);\n}\n\n// TODO: good practice to have functions not callable externally and internally\ncontract ELAJSStore is OwnableELA, GSNRecipientELA {\n\n    // DateTime Contract address\n    address public dateTimeAddr = 0x9c71b2E820B067ea466ea81C0cd6852Bc8D8604e; // development\n    // address constant public dateTimeAddr = 0xEDb211a2dBbdE62012440177e65b68E0A66E4531; // testnet\n\n    // Initialize the DateTime contract ABI with the already deployed contract\n    DateTime dateTime = DateTime(dateTimeAddr);\n\n    // This counts the number of times this contract was called via GSN (expended owner gas) for rate limiting\n    // mapping is a keccak256('YYYY-MM-DD') => uint (TODO: we can probably compress this by week (4 bytes per day -> 28 bytes)\n    mapping(bytes32 => uint256) public gsnCounter;\n\n    // Max times we allow this to be called per day\n    uint40 public gsnMaxCallsPerDay;\n\n    using PolymorphicDictionaryLib for PolymorphicDictionaryLib.PolymorphicDictionary;\n    using Bytes32SetDictionaryLib for Bytes32SetDictionaryLib.Bytes32SetDictionary;\n\n    // _table = system table (bytes32 Dict) of each table's metadata marshaled\n    // 8 bits - permissions (00 = system, 01 = private, 10 = public, 11 = shared - owner can always edit)\n    // 20 bytes - address delegate - other address allowed to edit\n    mapping(bytes32 => bytes32) internal _table;\n\n    // table = dict, where the key is the table, and the value is a set of byte32 ids\n    Bytes32SetDictionaryLib.Bytes32SetDictionary internal tableId;\n\n    // Schema dictionary, key (schemasPublicTables) points to a set of table names\n    using TableLib for TableLib.Table;\n    using TableLib for bytes;\n    // using ColumnLib for ColumnLib.Column;\n    // using ColumnLib for bytes;\n\n    // schemaTables -> Set of tables (raw table name values) for enumeration\n    bytes32 constant public schemasTables = 0x736368656d61732e7075626c69632e7461626c65730000000000000000000000;\n\n    // namehash([tableName]) => encoded table schema\n    // ownership of each row (id) - key = namehash([id].[table]) which has a value that is the owner's address\n    // ultimately namehash([field].[id].[table]) gives us a bytes32 which maps to the single data value\n    PolymorphicDictionaryLib.PolymorphicDictionary internal database;\n\n\n    // ************************************* SETUP FUNCTIONS *************************************\n    function initialize() public initializer {\n        OwnableELA.initialize(msg.sender);\n        GSNRecipientELA.initialize();\n        _initialize();\n    }\n\n    function _initialize() internal {\n        gsnMaxCallsPerDay = 1000;\n\n        // init the key for schemasTables, our set is one-to-many-fixed, so table names must be max 32 bytes\n        database.addKey(schemasTables, PolymorphicDictionaryLib.DictionaryType.OneToManyFixed);\n    }\n\n    // ************************************* SCHEMA FUNCTIONS *************************************\n    /**\n     * @dev create a new table, only the owner may create this\n     *\n     * @param tableName right padded zeroes (Web3.utils.stringToHex)\n     * @param tableKey this is the namehash of tableName\n     */\n    function createTable(\n        bytes32 tableName,\n        bytes32 tableKey,\n        uint8 permission,\n        bytes32[] memory _columnName,\n        bytes32[] memory _columnDtype\n\n    ) public onlyOwner {\n\n        // this only works if tableName is trimmed of padding zeroes, since this is an onlyOwner call we won't bother\n        // require(isNamehashSubOf(keccak256(tableNameBytes), bytes32(0), tableKey), \"tableName does not match tableKey\");\n\n        // check if table exists\n        require(_table[tableKey] == 0, \"Table already exists\");\n\n        address delegate = address(0x0);\n\n        // claim the key slot and set the metadata\n        setTableMetadata(tableKey, permission, delegate);\n\n        database.addValueForKey(schemasTables, tableName);\n\n        // table stores the row ids set as the value, set up the key\n        tableId.addKey(tableKey);\n\n        // now insert the schema\n        TableLib.Table memory tableSchema = TableLib.create(\n            tableName,\n            _columnName,\n            _columnDtype\n        );\n\n        saveSchema(tableKey, tableSchema);\n    }\n\n    // TODO: this isn't complete\n    function deleteTable(\n        bytes32 tableName,\n        bytes32 tableKey\n    ) public onlyOwner {\n        database.removeValueForKey(schemasTables, tableName);\n        tableId.removeKey(tableKey);\n    }\n\n    function getTables() external view returns (bytes32[] memory){\n        return database.enumerateForKeyOneToManyFixed(schemasTables);\n    }\n\n    /*\n    function tableExists(bytes32 tableKey) public view returns (bool) {\n        return tableId.containsKey(tableKey);\n    }\n    */\n\n    function saveSchema(bytes32 tableKey, TableLib.Table memory tableSchema) internal returns (bool) {\n        bytes memory encoded = tableSchema.encode();\n\n        // we store the encoded table schema on the base tableKey\n        return database.setValueForKey(tableKey, encoded);\n    }\n\n    // EXPERIMENTAL\n    function getSchema(bytes32 _name) public view returns (TableLib.Table memory) {\n        bytes memory encoded = database.getBytesForKey(_name);\n        return encoded.decodeTable();\n    }\n\n    // ************************************* CRUD FUNCTIONS *************************************\n\n    /**\n     * @dev Table level permission checks\n     */\n    modifier insertCheck(bytes32 tableKey, bytes32 idKey, bytes32 idTableKey) {\n\n        (uint256 permission, address delegate) = getTableMetadata(tableKey);\n\n        // if permission = 0, system table we can't do anything\n        require(permission > 0, \"Cannot INSERT into system table\");\n\n        // if permission = 1, we must be the owner/delegate\n        require(permission > 1 || isOwner() == true || delegate == _msgSender(), \"Only owner/delegate can INSERT into this table\");\n\n        // permissions check, is the idTableKey a subhash of the id and table?\n        require(isNamehashSubOf(idKey, tableKey, idTableKey) == true, \"idTableKey not a subhash [id].[table]\");\n\n        _;\n    }\n\n    /**\n     * @dev Prior to insert, we check the permissions and autoIncrement\n     * TODO: use the schema and determine the proper type of data to insert\n     *\n     * @param tableKey the namehashed [table] name string\n     * @param idKey the sha3 hashed idKey\n     * @param idTableKey the namehashed [id].[table] name string\n     *\n     * @param id as the raw string (unhashed)\n     *\n     *\n     */\n    function insertVal(\n\n        bytes32 tableKey,\n        bytes32 idTableKey,\n        bytes32 fieldIdTableKey,\n\n        bytes32 idKey,\n        bytes32 fieldKey,\n\n        bytes32 id,\n        bytes32 val)\n\n    public insertCheck(tableKey, idKey, idTableKey){\n\n        require(database.containsKey(fieldIdTableKey) == false, \"id+field already exists\");\n\n        // now check if the full field + id + table is a subhash\n        require(isNamehashSubOf(fieldKey, idTableKey, fieldIdTableKey) == true, \"fieldKey not a subhash [field].[id].[table]\");\n\n        // increment counter\n        increaseGsnCounter();\n\n        // add an id entry to the table's set of ids for the row (this is a set so we don't need to check first)\n        tableId.addValueForKey(tableKey, id);\n\n        // add the \"row owner\" if it doesn't exist, the row may already exist in which case we don't update it\n        if (database.containsKey(idTableKey) == false){\n            _setRowOwner(idTableKey, id, tableKey);\n        }\n\n        // finally set the data\n        // we won't serialize the type, that's way too much redundant data\n        database.setValueForKey(fieldIdTableKey, bytes32(val));\n\n    }\n\n    /*\n    function insertValVar(\n        bytes32 tableKey,\n        bytes32 idTableKey,\n        bytes32 fieldIdTableKey,\n\n        bytes32 idKey,\n        bytes32 fieldKey,\n\n        bytes32 id,\n        bytes memory val)\n\n    public insertCheck(tableKey, idKey, idTableKey){\n\n        require(database.containsKey(fieldIdTableKey) == false, \"id+field already exists\");\n\n        // now check if the full field + id + table is a subhash\n        require(isNamehashSubOf(fieldKey, idTableKey, fieldIdTableKey) == true, \"fieldKey not a subhash [field].[id].[table]\");\n\n        // increment counter\n        increaseGsnCounter();\n\n        // add an id entry to the table's set of ids for the row\n        tableId.addValueForKey(tableKey, id);\n\n        // finally set the data\n        database.setValueForKey(fieldIdTableKey, val);\n    }\n    */\n\n    /**\n     * @dev we are essentially claiming this [id].[table] for the msg.sender, and setting the id createdDate\n     */\n    function _setRowOwner(bytes32 idTableKey, bytes32 id, bytes32 tableKey) internal {\n\n        require(database.containsKey(idTableKey) == false, \"row already has owner\");\n\n        uint256 rowMetadata;\n\n        uint16 year = dateTime.getYear(now);\n        uint8 month = dateTime.getMonth(now);\n        uint8 day = dateTime.getDay(now);\n\n        rowMetadata |= year;\n        rowMetadata |= uint256(month)<<16;\n        rowMetadata |= uint256(day)<<24;\n\n        bytes4 createdDate = bytes4(uint32(rowMetadata));\n\n        rowMetadata |= uint256(_msgSender())<<32;\n\n        database.setValueForKey(idTableKey, bytes32(rowMetadata));\n\n        emit InsertRow(id, tableKey, _msgSender());\n    }\n\n    event InsertRow (\n        bytes32 indexed _id,\n        bytes32 indexed _tableKey,\n        address indexed _rowOwner\n    );\n\n    function getRowOwner(bytes32 idTableKey) external returns (address rowOwner, bytes4 createdDate){\n\n        uint256 rowMetadata = uint256(database.getBytes32ForKey(idTableKey));\n\n        createdDate = bytes4(uint32(rowMetadata));\n        rowOwner = address(rowMetadata>>32);\n\n    }\n\n    modifier updateCheck(bytes32 tableKey, bytes32 idKey, bytes32 idTableKey) {\n\n        (uint256 permission, address delegate) = getTableMetadata(tableKey);\n\n        // if permission = 0, system table we can't do anything\n        require(permission > 0, \"Cannot UPDATE system table\");\n\n        // if permission = 1, we must be the owner/delegate\n        require(permission > 1 || isOwner() == true || delegate == _msgSender(), \"Only owner/delegate can UPDATE into this table\");\n\n        // permissions check, is the idTableKey a subhash of the id and table?\n        require(isNamehashSubOf(idKey, tableKey, idTableKey) == true, \"idTableKey not a subhash [id].[table]\");\n\n        // permissions check (public table = 2, shared table = 3),\n        // if 2 or 3 is the _msg.sender() the row owner? But if 3 owner() is always allowed\n        if (permission >= 2) {\n\n            // rowMetaData is packed as address (bytes20) + createdDate (bytes4)\n            bytes32 rowMetaData = database.getBytes32ForKey(idTableKey);\n            address rowOwner = address(uint256(rowMetaData)>>32);\n\n            // if either 2 or 3, if you're the row owner it's fine\n            if (rowOwner == _msgSender()){\n                // pass\n            } else {\n                require(isOwner() == true || delegate == _msgSender(), \"Not rowOwner or owner/delegate for UPDATE into this table\");\n            }\n\n        }\n        _;\n    }\n\n    function updateVal(\n\n        bytes32 tableKey,\n        bytes32 idTableKey,\n        bytes32 fieldIdTableKey,\n\n        bytes32 idKey,\n        bytes32 fieldKey,\n\n        bytes32 id,\n        bytes32 val)\n\n    public updateCheck(tableKey, idKey, idTableKey) {\n\n        require(tableId.containsValueForKey(tableKey, id) == true, \"id doesn't exist, use INSERT\");\n\n        // now check if the full field + id + table is a subhash\n        require(isNamehashSubOf(fieldKey, idTableKey, fieldIdTableKey) == true, \"fieldKey not a subhash [field].[id].[table]\");\n\n        // increment counter\n        increaseGsnCounter();\n\n        // set data (overwrite)\n        database.setValueForKey(fieldIdTableKey, bytes32(val));\n\n    }\n\n    modifier deleteCheck(bytes32 tableKey, bytes32 idTableKey, bytes32 idKey, bytes32 id) {\n\n        require(tableId.containsValueForKey(tableKey, id) == true, \"id doesn't exist\");\n\n        (uint256 permission, address delegate) = getTableMetadata(tableKey);\n\n        // if permission = 0, system table we can't do anything\n        require(permission > 0, \"Cannot DELETE from system table\");\n\n        // if permission = 1, we must be the owner/delegate\n        require(permission > 1 || isOwner() == true || delegate == _msgSender(), \"Only owner/delegate can DELETE from this table\");\n\n        // permissions check, is the idTableKey a subhash of the id and table?\n        require(isNamehashSubOf(idKey, tableKey, idTableKey) == true, \"idTableKey not a subhash [id].[table]\");\n\n        // permissions check (public table = 2, shared table = 3),\n        // if 2 or 3 is the _msg.sender() the row owner? But if 3 owner() is always allowed\n        if (permission >= 2) {\n            if (isOwner() || delegate == _msgSender()){\n                // pass\n            } else {\n                // rowMetaData is packed as address (bytes20) + createdDate (bytes4)\n                bytes32 rowMetaData = database.getBytes32ForKey(idTableKey);\n                address rowOwner = address(uint256(rowMetaData)>>32);\n                require(rowOwner == _msgSender(), \"Sender not owner of row\");\n            }\n        }\n\n        _;\n    }\n\n    /**\n     * @dev TODO: add modifier checks based on update\n     *\n     * TODO: this needs to properly remove the row when there are multiple ids\n     *\n     */\n    function deleteVal(\n\n        bytes32 tableKey,\n        bytes32 idTableKey,\n\n        bytes32 idKey,\n        bytes32 id,\n\n        bytes32 fieldKey,\n        bytes32 fieldIdTableKey\n\n    ) public deleteCheck(tableKey, idTableKey, idKey, id){\n\n        // check if the full field + id + table is a subhash (permissions)\n        require(isNamehashSubOf(fieldKey, idTableKey, fieldIdTableKey) == true, \"fieldKey not a subhash [field].[id].[table]\");\n\n        // increment counter\n        increaseGsnCounter();\n\n        // remove the key\n        bool removed = database.removeKey(fieldIdTableKey);\n\n        require(removed == true, \"error removing key\");\n\n        // TODO: zero out the data? Why bother everything is public\n\n        // we can't really pass in enough data to make a loop worthwhile\n        /*\n        uint8 len = uint8(fieldKeys.length);\n        require(fieldKeys.length == fieldIdTableKeys.length, \"fields, id array length mismatch\");\n        for (uint8 i = 0; i < len; i++) {\n\n            // for each row check if the full field + id + table is a subhash\n            // require(isNamehashSubOf(fieldKeys[i], idTableKey, fieldIdTableKeys[i]) == true, \"fieldKey not a subhash [field].[id].[table]\");\n\n            // zero out the data\n            elajsStore[fieldIdTableKeys[i]] = bytes32(0);\n        }\n        */\n    }\n\n    // TODO: improve this, we don't want to cause data consistency if the client doesn't call this\n    // Right now we manually call this, but ideally we iterate over all the data and delete each column\n    // but this would require decoding and having all the field names\n    function deleteRow(\n\n        bytes32 tableKey,\n        bytes32 idTableKey,\n\n        bytes32 idKey,\n        bytes32 id\n\n    ) public deleteCheck(tableKey, idTableKey, idKey, id){\n\n        // increment counter\n        increaseGsnCounter();\n\n        // remove the id\n        tableId.removeValueForKey(tableKey, id);\n    }\n\n    /**\n     * @dev Table actual insert call, NOTE this doesn't work on testnet currently due to a stack size issue,\n     *      but it can work with a paid transaction I guess\n     */\n    /*\n    function insert(\n        bytes32 tableKey,\n        bytes32 idTableKey,\n\n        bytes32 idKey,\n        bytes32 id,\n\n        bytes32[] memory fieldKeys,\n        bytes32[] memory fieldIdTableKeys,\n        bytes32[] memory values)\n\n    public insertCheck(tableKey, idKey, idTableKey){\n\n        require(table.containsValueForKey(tableKey, id) == false, \"id already exists\");\n\n        uint len = fieldKeys.length;\n\n        require(fieldKeys.length == fieldIdTableKeys.length == values.length, \"fields, values array length mismatch\");\n\n        // add an id entry to the table's set of ids for the row\n        table.addValueForKey(tableKey, id);\n\n        for (uint i = 0; i < len; i++) {\n\n            // for each row check if the full field + id + table is a subhash\n            require(isNamehashSubOf(fieldKeys[i], idTableKey, fieldIdTableKeys[i]) == true, \"fieldKey not a subhash [field].[id].[table]\");\n\n            elajsStore[fieldIdTableKeys[i]] = bytes32(values[i]);\n        }\n\n    }\n    */\n\n    /*\n    function getAllDataKeys() external view returns (bytes32[] memory) {\n        return database.enumerate();\n    }\n    */\n\n    function checkDataKey(bytes32 key) external view returns (bool) {\n        return database.containsKey(key);\n    }\n\n    /**\n     * @dev all data is public, so no need for security checks, we leave the data type handling to the client\n     */\n    function getRowValue(bytes32 fieldIdTableKey) external view returns (bytes32) {\n\n        if (database.containsKey(fieldIdTableKey)) {\n            return database.getBytes32ForKey(fieldIdTableKey);\n        } else {\n            return bytes32(0);\n        }\n    }\n\n    /*\n    function getRowValueVar(bytes32 fieldIdTableKey) external view returns (bytes memory) {\n\n        if (database.containsKey(fieldIdTableKey)) {\n            return database.getBytesForKey(fieldIdTableKey);\n        } else {\n            return new bytes(0);\n        }\n    }\n    */\n\n    /**\n     * @dev Warning this produces an Error: overflow (operation=\"setValue\", fault=\"overflow\", details=\"Number can only safely store up to 53 bits\")\n     *      if the table doesn't exist\n     */\n    function getTableIds(bytes32 tableKey) external view returns (bytes32[] memory){\n\n        require(tableId.containsKey(tableKey) == true, \"table not created\");\n\n        return tableId.enumerateForKey(tableKey);\n    }\n\n    function getIdExists(bytes32 tableKey, bytes32 id) external view returns (bool) {\n        return tableId.containsValueForKey(tableKey, id);\n    }\n\n    function isNamehashSubOf(bytes32 subKey, bytes32 base, bytes32 target) internal pure returns (bool) {\n\n        bytes memory concat = new bytes(64);\n\n        assembly {\n            mstore(add(concat, 64), subKey)\n            mstore(add(concat, 32), base)\n        }\n\n        bytes32 result = keccak256(concat);\n\n        return result == target;\n    }\n\n    // ************************************* _TABLE FUNCTIONS *************************************\n    function getTableMetadata(bytes32 _tableKey)\n        view\n        public\n        returns (uint256 permission, address delegate)\n    {\n        require(_table[_tableKey] > 0, \"table does not exist\");\n\n        uint256 tableMetadata = uint256(_table[_tableKey]);\n\n        permission = uint256(uint8(tableMetadata));\n        delegate = address(tableMetadata>>8);\n    }\n\n    function setTableMetadata(bytes32 _tableKey, uint8 permission, address delegate) private onlyOwner {\n        uint256 tableMetadata;\n\n        tableMetadata |= permission;\n        tableMetadata |= uint160(delegate)<<8;\n\n        _table[_tableKey] = bytes32(tableMetadata);\n    }\n\n    // ************************************* MISC FUNCTIONS *************************************\n\n    function() external payable {}\n\n    // ************************************* GSN FUNCTIONS *************************************\n\n    /**\n     * As a first layer of defense we employ a max number of checks per day\n     */\n    function acceptRelayedCall(\n        address relay,\n        address from,\n        bytes calldata encodedFunction,\n        uint256 transactionFee,\n        uint256 gasPrice,\n        uint256 gasLimit,\n        uint256 nonce,\n        bytes calldata approvalData,\n        uint256 maxPossibleCharge\n    ) external view returns (uint256, bytes memory) {\n\n        bytes32 curDateHashed = getGsnCounter();\n\n        // check gsnCounter for today and compare to limit\n        uint256 curCounter = gsnCounter[curDateHashed];\n\n        if (curCounter >= gsnMaxCallsPerDay){\n            return _rejectRelayedCall(2);\n        }\n\n\n        return _approveRelayedCall();\n    }\n\n    function setGsnMaxCallsPerDay(uint256 max) external onlyOwner {\n        gsnMaxCallsPerDay = uint40(max);\n    }\n\n    /*\n    event GsnCounterIncrease (\n        address indexed _from,\n        bytes4 indexed curDate\n    );\n    */\n\n    /**\n     * Increase the GSN Counter for today\n     */\n    function increaseGsnCounter() internal {\n\n        bytes32 curDateHashed = getGsnCounter();\n\n        uint256 curCounter = gsnCounter[curDateHashed];\n\n        gsnCounter[curDateHashed] = curCounter + 1;\n\n        // emit GsnCounterIncrease(_msgSender(), bytes4(uint32(curDate)));\n    }\n\n    /*\n     *\n     */\n    function getGsnCounter() internal view returns (bytes32 curDateHashed) {\n\n        uint256 curDate;\n\n        uint16 year = dateTime.getYear(now);\n        uint8 month = dateTime.getMonth(now);\n        uint8 day = dateTime.getDay(now);\n\n        curDate |= year;\n        curDate |= uint256(month)<<16;\n        curDate |= uint256(day)<<24;\n\n        curDateHashed = keccak256(abi.encodePacked(curDate));\n    }\n\n    // We won't do any pre or post processing, so leave _preRelayedCall and _postRelayedCall empty\n    function _preRelayedCall(bytes memory context) internal returns (bytes32) {\n    }\n\n    function _postRelayedCall(bytes memory context, bool, uint256 actualCharge, bytes32) internal {\n    }\n\n    /**\n     * @dev Withdraw a specific amount of the GSNReceipient funds\n     * @param amt Amount of wei to withdraw\n     * @param dest This is the arbitrary withdrawal destination address\n     */\n    function withdraw(uint256 amt, address payable dest) public onlyOwner {\n        IRelayHubELA relayHub = getRelayHub();\n        relayHub.withdraw(amt, dest);\n    }\n\n    /**\n     * @dev Withdraw all the GSNReceipient funds\n     * @param dest This is the arbitrary withdrawal destination address\n     */\n    function withdrawAll(address payable dest) public onlyOwner returns (uint256) {\n        IRelayHubELA relayHub = getRelayHub();\n        uint256 balance = getRelayHub().balanceOf(address(this));\n        relayHub.withdraw(balance, dest);\n        return balance;\n    }\n\n    function getGSNBalance() public view returns (uint256) {\n        return getRelayHub().balanceOf(address(this));\n    }\n\n    function getRelayHub() internal view returns (IRelayHubELA) {\n        return IRelayHubELA(_getRelayHub());\n    }\n}\n",
  "sourcePath": "contracts/ELAJSStore.sol",
  "abi": [
    {
      "constant": false,
      "inputs": [
        {
          "name": "amt",
          "type": "uint256"
        },
        {
          "name": "dest",
          "type": "address"
        }
      ],
      "name": "withdraw",
      "outputs": [],
      "payable": false,
      "stateMutability": "nonpayable",
      "type": "function"
    },
    {
      "constant": true,
      "inputs": [],
      "name": "gsnMaxCallsPerDay",
      "outputs": [
        {
          "name": "",
          "type": "uint40"
        }
      ],
      "payable": false,
      "stateMutability": "view",
      "type": "function"
    },
    {
      "constant": true,
      "inputs": [
        {
          "name": "key",
          "type": "bytes32"
        }
      ],
      "name": "checkDataKey",
      "outputs": [
        {
          "name": "",
          "type": "bool"
        }
      ],
      "payable": false,
      "stateMutability": "view",
      "type": "function"
    },
    {
      "constant": true,
      "inputs": [],
      "name": "getTables",
      "outputs": [
        {
          "name": "",
          "type": "bytes32[]"
        }
      ],
      "payable": false,
      "stateMutability": "view",
      "type": "function"
    },
    {
      "constant": false,
      "inputs": [
        {
          "name": "idTableKey",
          "type": "bytes32"
        }
      ],
      "name": "getRowOwner",
      "outputs": [
        {
          "name": "rowOwner",
          "type": "address"
        },
        {
          "name": "createdDate",
          "type": "bytes4"
        }
      ],
      "payable": false,
      "stateMutability": "nonpayable",
      "type": "function"
    },
    {
      "constant": false,
      "inputs": [
        {
          "name": "tableName",
          "type": "bytes32"
        },
        {
          "name": "tableKey",
          "type": "bytes32"
        },
        {
          "name": "permission",
          "type": "uint8"
        },
        {
          "name": "_columnName",
          "type": "bytes32[]"
        },
        {
          "name": "_columnDtype",
          "type": "bytes32[]"
        }
      ],
      "name": "createTable",
      "outputs": [],
      "payable": false,
      "stateMutability": "nonpayable",
      "type": "function"
    },
    {
      "constant": true,
      "inputs": [],
      "name": "getGSNBalance",
      "outputs": [
        {
          "name": "",
          "type": "uint256"
        }
      ],
      "payable": false,
      "stateMutability": "view",
      "type": "function"
    },
    {
      "constant": true,
      "inputs": [],
      "name": "schemasTables",
      "outputs": [
        {
          "name": "",
          "type": "bytes32"
        }
      ],
      "payable": false,
      "stateMutability": "view",
      "type": "function"
    },
    {
      "constant": true,
      "inputs": [
        {
          "name": "",
          "type": "bytes32"
        }
      ],
      "name": "gsnCounter",
      "outputs": [
        {
          "name": "",
          "type": "uint256"
        }
      ],
      "payable": false,
      "stateMutability": "view",
      "type": "function"
    },
    {
      "constant": false,
      "inputs": [
        {
          "name": "tableKey",
          "type": "bytes32"
        },
        {
          "name": "idTableKey",
          "type": "bytes32"
        },
        {
          "name": "fieldIdTableKey",
          "type": "bytes32"
        },
        {
          "name": "idKey",
          "type": "bytes32"
        },
        {
          "name": "fieldKey",
          "type": "bytes32"
        },
        {
          "name": "id",
          "type": "bytes32"
        },
        {
          "name": "val",
          "type": "bytes32"
        }
      ],
      "name": "updateVal",
      "outputs": [],
      "payable": false,
      "stateMutability": "nonpayable",
      "type": "function"
    },
    {
      "constant": true,
      "inputs": [
        {
          "name": "fieldIdTableKey",
          "type": "bytes32"
        }
      ],
      "name": "getRowValue",
      "outputs": [
        {
          "name": "",
          "type": "bytes32"
        }
      ],
      "payable": false,
      "stateMutability": "view",
      "type": "function"
    },
    {
      "constant": false,
      "inputs": [],
      "name": "renounceOwnership",
      "outputs": [],
      "payable": false,
      "stateMutability": "nonpayable",
      "type": "function"
    },
    {
      "constant": true,
      "inputs": [],
      "name": "getHubAddr",
      "outputs": [
        {
          "name": "",
          "type": "address"
        }
      ],
      "payable": false,
      "stateMutability": "view",
      "type": "function"
    },
    {
      "constant": false,
      "inputs": [
        {
          "name": "context",
          "type": "bytes"
        }
      ],
      "name": "preRelayedCall",
      "outputs": [
        {
          "name": "",
          "type": "bytes32"
        }
      ],
      "payable": false,
      "stateMutability": "nonpayable",
      "type": "function"
    },
    {
      "constant": false,
      "inputs": [],
      "name": "initialize",
      "outputs": [],
      "payable": false,
      "stateMutability": "nonpayable",
      "type": "function"
    },
    {
      "constant": true,
      "inputs": [
        {
          "name": "relay",
          "type": "address"
        },
        {
          "name": "from",
          "type": "address"
        },
        {
          "name": "encodedFunction",
          "type": "bytes"
        },
        {
          "name": "transactionFee",
          "type": "uint256"
        },
        {
          "name": "gasPrice",
          "type": "uint256"
        },
        {
          "name": "gasLimit",
          "type": "uint256"
        },
        {
          "name": "nonce",
          "type": "uint256"
        },
        {
          "name": "approvalData",
          "type": "bytes"
        },
        {
          "name": "maxPossibleCharge",
          "type": "uint256"
        }
      ],
      "name": "acceptRelayedCall",
      "outputs": [
        {
          "name": "",
          "type": "uint256"
        },
        {
          "name": "",
          "type": "bytes"
        }
      ],
      "payable": false,
      "stateMutability": "view",
      "type": "function"
    },
    {
      "constant": true,
      "inputs": [],
      "name": "owner",
      "outputs": [
        {
          "name": "",
          "type": "address"
        }
      ],
      "payable": false,
      "stateMutability": "view",
      "type": "function"
    },
    {
      "constant": true,
      "inputs": [],
      "name": "isOwner",
      "outputs": [
        {
          "name": "",
          "type": "bool"
        }
      ],
      "payable": false,
      "stateMutability": "view",
      "type": "function"
    },
    {
      "constant": false,
      "inputs": [
        {
          "name": "tableKey",
          "type": "bytes32"
        },
        {
          "name": "idTableKey",
          "type": "bytes32"
        },
        {
          "name": "fieldIdTableKey",
          "type": "bytes32"
        },
        {
          "name": "idKey",
          "type": "bytes32"
        },
        {
          "name": "fieldKey",
          "type": "bytes32"
        },
        {
          "name": "id",
          "type": "bytes32"
        },
        {
          "name": "val",
          "type": "bytes32"
        }
      ],
      "name": "insertVal",
      "outputs": [],
      "payable": false,
      "stateMutability": "nonpayable",
      "type": "function"
    },
    {
      "constant": true,
      "inputs": [
        {
          "name": "_name",
          "type": "bytes32"
        }
      ],
      "name": "getSchema",
      "outputs": [
        {
          "components": [
            {
              "name": "name",
              "type": "bytes32"
            },
            {
              "components": [
                {
                  "name": "name",
                  "type": "bytes32"
                },
                {
                  "name": "_dtype",
                  "type": "bytes32"
                }
              ],
              "name": "columns",
              "type": "tuple[]"
            }
          ],
          "name": "",
          "type": "tuple"
        }
      ],
      "payable": false,
      "stateMutability": "view",
      "type": "function"
    },
    {
      "constant": true,
      "inputs": [],
      "name": "relayHubVersion",
      "outputs": [
        {
          "name": "",
          "type": "string"
        }
      ],
      "payable": false,
      "stateMutability": "view",
      "type": "function"
    },
    {
      "constant": false,
      "inputs": [
        {
          "name": "max",
          "type": "uint256"
        }
      ],
      "name": "setGsnMaxCallsPerDay",
      "outputs": [],
      "payable": false,
      "stateMutability": "nonpayable",
      "type": "function"
    },
    {
      "constant": true,
      "inputs": [
        {
          "name": "tableKey",
          "type": "bytes32"
        }
      ],
      "name": "getTableIds",
      "outputs": [
        {
          "name": "",
          "type": "bytes32[]"
        }
      ],
      "payable": false,
      "stateMutability": "view",
      "type": "function"
    },
    {
      "constant": false,
      "inputs": [
        {
          "name": "sender",
          "type": "address"
        }
      ],
      "name": "initialize",
      "outputs": [],
      "payable": false,
      "stateMutability": "nonpayable",
      "type": "function"
    },
    {
      "constant": true,
      "inputs": [],
      "name": "dateTimeAddr",
      "outputs": [
        {
          "name": "",
          "type": "address"
        }
      ],
      "payable": false,
      "stateMutability": "view",
      "type": "function"
    },
    {
      "constant": true,
      "inputs": [
        {
          "name": "_tableKey",
          "type": "bytes32"
        }
      ],
      "name": "getTableMetadata",
      "outputs": [
        {
          "name": "permission",
          "type": "uint256"
        },
        {
          "name": "delegate",
          "type": "address"
        }
      ],
      "payable": false,
      "stateMutability": "view",
      "type": "function"
    },
    {
      "constant": false,
      "inputs": [
        {
          "name": "context",
          "type": "bytes"
        },
        {
          "name": "success",
          "type": "bool"
        },
        {
          "name": "actualCharge",
          "type": "uint256"
        },
        {
          "name": "preRetVal",
          "type": "bytes32"
        }
      ],
      "name": "postRelayedCall",
      "outputs": [],
      "payable": false,
      "stateMutability": "nonpayable",
      "type": "function"
    },
    {
      "constant": false,
      "inputs": [
        {
          "name": "tableKey",
          "type": "bytes32"
        },
        {
          "name": "idTableKey",
          "type": "bytes32"
        },
        {
          "name": "idKey",
          "type": "bytes32"
        },
        {
          "name": "id",
          "type": "bytes32"
        }
      ],
      "name": "deleteRow",
      "outputs": [],
      "payable": false,
      "stateMutability": "nonpayable",
      "type": "function"
    },
    {
      "constant": false,
      "inputs": [
        {
          "name": "tableName",
          "type": "bytes32"
        },
        {
          "name": "tableKey",
          "type": "bytes32"
        }
      ],
      "name": "deleteTable",
      "outputs": [],
      "payable": false,
      "stateMutability": "nonpayable",
      "type": "function"
    },
    {
      "constant": true,
      "inputs": [
        {
          "name": "tableKey",
          "type": "bytes32"
        },
        {
          "name": "id",
          "type": "bytes32"
        }
      ],
      "name": "getIdExists",
      "outputs": [
        {
          "name": "",
          "type": "bool"
        }
      ],
      "payable": false,
      "stateMutability": "view",
      "type": "function"
    },
    {
      "constant": false,
      "inputs": [
        {
          "name": "newOwner",
          "type": "address"
        }
      ],
      "name": "transferOwnership",
      "outputs": [],
      "payable": false,
      "stateMutability": "nonpayable",
      "type": "function"
    },
    {
      "constant": false,
      "inputs": [
        {
          "name": "dest",
          "type": "address"
        }
      ],
      "name": "withdrawAll",
      "outputs": [
        {
          "name": "",
          "type": "uint256"
        }
      ],
      "payable": false,
      "stateMutability": "nonpayable",
      "type": "function"
    },
    {
      "constant": false,
      "inputs": [
        {
          "name": "tableKey",
          "type": "bytes32"
        },
        {
          "name": "idTableKey",
          "type": "bytes32"
        },
        {
          "name": "idKey",
          "type": "bytes32"
        },
        {
          "name": "id",
          "type": "bytes32"
        },
        {
          "name": "fieldKey",
          "type": "bytes32"
        },
        {
          "name": "fieldIdTableKey",
          "type": "bytes32"
        }
      ],
      "name": "deleteVal",
      "outputs": [],
      "payable": false,
      "stateMutability": "nonpayable",
      "type": "function"
    },
    {
      "payable": true,
      "stateMutability": "payable",
      "type": "fallback"
    },
    {
      "anonymous": false,
      "inputs": [
        {
          "indexed": true,
          "name": "_id",
          "type": "bytes32"
        },
        {
          "indexed": true,
          "name": "_tableKey",
          "type": "bytes32"
        },
        {
          "indexed": true,
          "name": "_rowOwner",
          "type": "address"
        }
      ],
      "name": "InsertRow",
      "type": "event"
    },
    {
      "anonymous": false,
      "inputs": [
        {
          "indexed": true,
          "name": "oldRelayHub",
          "type": "address"
        },
        {
          "indexed": true,
          "name": "newRelayHub",
          "type": "address"
        }
      ],
      "name": "RelayHubChanged",
      "type": "event"
    },
    {
      "anonymous": false,
      "inputs": [
        {
          "indexed": true,
          "name": "previousOwner",
          "type": "address"
        },
        {
          "indexed": true,
          "name": "newOwner",
          "type": "address"
        }
      ],
      "name": "OwnershipTransferred",
      "type": "event"
    }
  ],
  "bytecode": "0x6080604052739c71b2e820b067ea466ea81c0cd6852bc8d8604e606660006101000a81548173ffffffffffffffffffffffffffffffffffffffff021916908373ffffffffffffffffffffffffffffffffffffffff160217905550606660009054906101000a900473ffffffffffffffffffffffffffffffffffffffff16606760006101000a81548173ffffffffffffffffffffffffffffffffffffffff021916908373ffffffffffffffffffffffffffffffffffffffff160217905550615f62806100cb6000396000f3fe6080604052600436106101a0576000357c0100000000000000000000000000000000000000000000000000000000900463ffffffff168062f714ce146101a257806301ee810a146101cb5780631fd6dda5146101f657806328343c3414610233578063287e72461461025e578063365628a21461029c5780633c2e8599146102c55780634102fbf6146102f057806359cb73a41461031b578063621d114e146103585780636729003c14610381578063715018a6146103be57806374e861d6146103d557806380274db7146104005780638129fc1c1461043d57806383947ea0146104545780638da5cb5b146104925780638f32d59b146104bd57806392e8aa6b146104e8578063a2ea7c6e14610511578063ad61ccd51461054e578063bc41c3dd14610579578063c2309bf9146105a2578063c4d66de8146105df578063d2c5ce3114610608578063d887f10514610633578063e06e0e2214610671578063e293d8171461069a578063ed90cb37146106c3578063f201fe2a146106ec578063f2fde38b14610729578063fa09e63014610752578063fc4812f21461078f575b005b3480156101ae57600080fd5b506101c960048036036101c49190810190614d5e565b6107b8565b005b3480156101d757600080fd5b506101e061089a565b6040516101ed9190615cde565b60405180910390f35b34801561020257600080fd5b5061021d60048036036102189190810190614988565b6108b1565b60405161022a9190615827565b60405180910390f35b34801561023f57600080fd5b506102486108ce565b6040516102559190615805565b60405180910390f35b34801561026a57600080fd5b5061028560048036036102809190810190614988565b61090c565b6040516102939291906157dc565b60405180910390f35b3480156102a857600080fd5b506102c360048036036102be9190810190614b77565b610962565b005b3480156102d157600080fd5b506102da610a8e565b6040516102e79190615c41565b60405180910390f35b3480156102fc57600080fd5b50610305610b41565b6040516103129190615842565b60405180910390f35b34801561032757600080fd5b50610342600480360361033d9190810190614988565b610b68565b60405161034f9190615c41565b60405180910390f35b34801561036457600080fd5b5061037f600480360361037a9190810190614ad9565b610b80565b005b34801561038d57600080fd5b506103a860048036036103a39190810190614988565b610ea9565b6040516103b59190615842565b60405180910390f35b3480156103ca57600080fd5b506103d3610eec565b005b3480156103e157600080fd5b506103ea610ff6565b6040516103f791906157a6565b60405180910390f35b34801561040c57600080fd5b5061042760048036036104229190810190614c1e565b611005565b6040516104349190615842565b60405180910390f35b34801561044957600080fd5b506104526110d3565b005b34801561046057600080fd5b5061047b60048036036104769190810190614888565b6111d7565b604051610489929190615cae565b60405180910390f35b34801561049e57600080fd5b506104a7611256565b6040516104b491906157a6565b60405180910390f35b3480156104c957600080fd5b506104d2611280565b6040516104df9190615827565b60405180910390f35b3480156104f457600080fd5b5061050f600480360361050a9190810190614ad9565b6112df565b005b34801561051d57600080fd5b5061053860048036036105339190810190614988565b611541565b6040516105459190615c1f565b60405180910390f35b34801561055a57600080fd5b50610563611572565b604051610570919061585d565b60405180910390f35b34801561058557600080fd5b506105a0600480360361059b9190810190614d0c565b6115af565b005b3480156105ae57600080fd5b506105c960048036036105c49190810190614988565b61161e565b6040516105d69190615805565b60405180910390f35b3480156105eb57600080fd5b5061060660048036036106019190810190614836565b611697565b005b34801561061457600080fd5b5061061d611841565b60405161062a91906157a6565b60405180910390f35b34801561063f57600080fd5b5061065a60048036036106559190810190614988565b611867565b604051610668929190615c5c565b60405180910390f35b34801561067d57600080fd5b5061069860048036036106939190810190614c63565b6118fc565b005b3480156106a657600080fd5b506106c160048036036106bc91908101906149ed565b6119ca565b005b3480156106cf57600080fd5b506106ea60048036036106e591908101906149b1565b611c98565b005b3480156106f857600080fd5b50610713600480360361070e91908101906149b1565b611d34565b6040516107209190615827565b60405180910390f35b34801561073557600080fd5b50610750600480360361074b9190810190614836565b611d54565b005b34801561075e57600080fd5b506107796004803603610774919081019061485f565b611da9565b6040516107869190615c41565b60405180910390f35b34801561079b57600080fd5b506107b660048036036107b19190810190614a50565b611f42565b005b6107c0611280565b1515610801576040517f08c379a00000000000000000000000000000000000000000000000000000000081526004016107f890615a5f565b60405180910390fd5b600061080b6122b0565b90508073ffffffffffffffffffffffffffffffffffffffff1662f714ce84846040518363ffffffff167c0100000000000000000000000000000000000000000000000000000000028152600401610863929190615c85565b600060405180830381600087803b15801561087d57600080fd5b505af1158015610891573d6000803e3d6000fd5b50505050505050565b606960009054906101000a900464ffffffffff1681565b60006108c782606e6122bf90919063ffffffff16565b9050919050565b60606109077f736368656d61732e7075626c69632e7461626c65730000000000000000000000600102606e61233690919063ffffffff16565b905090565b600080600061092584606e61235690919063ffffffff16565b600190049050807c0100000000000000000000000000000000000000000000000000000000029150602081908060020a8204915050925050915091565b61096a611280565b15156109ab576040517f08c379a00000000000000000000000000000000000000000000000000000000081526004016109a290615a5f565b60405180910390fd5b6000600102606a600086815260200190815260200160002054141515610a06576040517f08c379a00000000000000000000000000000000000000000000000000000000081526004016109fd90615b1f565b60405180910390fd5b6000809050610a16858583612376565b610a4f7f736368656d61732e7075626c69632e7461626c6573000000000000000000000060010287606e6124229092919063ffffffff16565b50610a6485606b61254d90919063ffffffff16565b50610a6d614567565b610a7887858561256d565b9050610a8486826125ea565b5050505050505050565b6000610a986122b0565b73ffffffffffffffffffffffffffffffffffffffff166370a08231306040518263ffffffff167c0100000000000000000000000000000000000000000000000000000000028152600401610aec91906157c1565b60206040518083038186803b158015610b0457600080fd5b505afa158015610b18573d6000803e3d6000fd5b505050506040513d601f19601f82011682018060405250610b3c9190810190614d35565b905090565b7f736368656d61732e7075626c69632e7461626c6573000000000000000000000060010281565b60686020528060005260406000206000915090505481565b868487600080610b8f85611867565b91509150600082111515610bd8576040517f08c379a0000000000000000000000000000000000000000000000000000000008152600401610bcf906158df565b60405180910390fd5b6001821180610bf2575060011515610bee611280565b1515145b80610c2f5750610c00612618565b73ffffffffffffffffffffffffffffffffffffffff168173ffffffffffffffffffffffffffffffffffffffff16145b1515610c70576040517f08c379a0000000000000000000000000000000000000000000000000000000008152600401610c679061597f565b60405180910390fd5b60011515610c7f85878661266c565b1515141515610cc3576040517f08c379a0000000000000000000000000000000000000000000000000000000008152600401610cba9061593f565b60405180910390fd5b600282101515610dcb576000610ce384606e61235690919063ffffffff16565b9050600060208260019004908060020a82049150509050610d02612618565b73ffffffffffffffffffffffffffffffffffffffff168173ffffffffffffffffffffffffffffffffffffffff161415610d3a57610dc8565b60011515610d46611280565b15151480610d865750610d57612618565b73ffffffffffffffffffffffffffffffffffffffff168373ffffffffffffffffffffffffffffffffffffffff16145b1515610dc7576040517f08c379a0000000000000000000000000000000000000000000000000000000008152600401610dbe906159ff565b60405180910390fd5b5b50505b60011515610de58d89606b6126cc9092919063ffffffff16565b1515141515610e29576040517f08c379a0000000000000000000000000000000000000000000000000000000008152600401610e2090615b9f565b60405180910390fd5b60011515610e38898d8d61266c565b1515141515610e7c576040517f08c379a0000000000000000000000000000000000000000000000000000000008152600401610e7390615bff565b60405180910390fd5b610e84612717565b610e9a8a87606e61275a9092919063ffffffff16565b50505050505050505050505050565b6000610ebf82606e6122bf90919063ffffffff16565b15610edf57610ed882606e61235690919063ffffffff16565b9050610ee7565b600060010290505b919050565b610ef4611280565b1515610f35576040517f08c379a0000000000000000000000000000000000000000000000000000000008152600401610f2c90615a5f565b60405180910390fd5b600073ffffffffffffffffffffffffffffffffffffffff16603360009054906101000a900473ffffffffffffffffffffffffffffffffffffffff1673ffffffffffffffffffffffffffffffffffffffff167f8be0079c531659141344cd1fd0a4f28419497f9722a3daafe3b4186f6b6457e060405160405180910390a36000603360006101000a81548173ffffffffffffffffffffffffffffffffffffffff021916908373ffffffffffffffffffffffffffffffffffffffff160217905550565b6000611000612885565b905090565b600061100f610ff6565b73ffffffffffffffffffffffffffffffffffffffff163373ffffffffffffffffffffffffffffffffffffffff1614151561107e576040517f08c379a00000000000000000000000000000000000000000000000000000000081526004016110759061589f565b60405180910390fd5b6110cb83838080601f016020809104026020016040519081016040528093929190818152602001838380828437600081840152601f19601f820116905080830192505050505050506128b6565b905092915050565b600060019054906101000a900460ff16806110f257506110f16128bd565b5b8061110957506000809054906101000a900460ff16155b151561114a576040517f08c379a000000000000000000000000000000000000000000000000000000000815260040161114190615a7f565b60405180910390fd5b60008060019054906101000a900460ff16159050801561119a576001600060016101000a81548160ff02191690831515021790555060016000806101000a81548160ff0219169083151502179055505b6111a333611697565b6111ab6128d4565b6111b36129c7565b80156111d45760008060016101000a81548160ff0219169083151502179055505b50565b6000606060006111e5612a29565b9050600060686000838152602001908152602001600020549050606960009054906101000a900464ffffffffff1664ffffffffff16811015156112375761122c6002612ce4565b935093505050611246565b61123f612d06565b9350935050505b9b509b9950505050505050505050565b6000603360009054906101000a900473ffffffffffffffffffffffffffffffffffffffff16905090565b6000603360009054906101000a900473ffffffffffffffffffffffffffffffffffffffff1673ffffffffffffffffffffffffffffffffffffffff166112c3612618565b73ffffffffffffffffffffffffffffffffffffffff1614905090565b8684876000806112ee85611867565b91509150600082111515611337576040517f08c379a000000000000000000000000000000000000000000000000000000000815260040161132e9061591f565b60405180910390fd5b600182118061135157506001151561134d611280565b1515145b8061138e575061135f612618565b73ffffffffffffffffffffffffffffffffffffffff168173ffffffffffffffffffffffffffffffffffffffff16145b15156113cf576040517f08c379a00000000000000000000000000000000000000000000000000000000081526004016113c690615a1f565b60405180910390fd5b600115156113de85878661266c565b1515141515611422576040517f08c379a00000000000000000000000000000000000000000000000000000000081526004016114199061593f565b60405180910390fd5b6000151561143a8b606e6122bf90919063ffffffff16565b151514151561147e576040517f08c379a000000000000000000000000000000000000000000000000000000000815260040161147590615a9f565b60405180910390fd5b6001151561148d898d8d61266c565b15151415156114d1576040517f08c379a00000000000000000000000000000000000000000000000000000000081526004016114c890615bff565b60405180910390fd5b6114d9612717565b6114ef8c88606b612d2b9092919063ffffffff16565b50600015156115088c606e6122bf90919063ffffffff16565b1515141561151c5761151b8b888e612d76565b5b6115328a87606e61275a9092919063ffffffff16565b50505050505050505050505050565b611549614567565b606061155f83606e61311890919063ffffffff16565b905061156a81613138565b915050919050565b60606040805190810160405280600581526020017f312e302e30000000000000000000000000000000000000000000000000000000815250905090565b6115b7611280565b15156115f8576040517f08c379a00000000000000000000000000000000000000000000000000000000081526004016115ef90615a5f565b60405180910390fd5b80606960006101000a81548164ffffffffff021916908364ffffffffff16021790555050565b60606001151561163883606b6131e190919063ffffffff16565b151514151561167c576040517f08c379a000000000000000000000000000000000000000000000000000000000815260040161167390615b5f565b60405180910390fd5b61169082606b61320190919063ffffffff16565b9050919050565b600060019054906101000a900460ff16806116b657506116b56128bd565b5b806116cd57506000809054906101000a900460ff16155b151561170e576040517f08c379a000000000000000000000000000000000000000000000000000000000815260040161170590615a7f565b60405180910390fd5b60008060019054906101000a900460ff16159050801561175e576001600060016101000a81548160ff02191690831515021790555060016000806101000a81548160ff0219169083151502179055505b81603360006101000a81548173ffffffffffffffffffffffffffffffffffffffff021916908373ffffffffffffffffffffffffffffffffffffffff160217905550603360009054906101000a900473ffffffffffffffffffffffffffffffffffffffff1673ffffffffffffffffffffffffffffffffffffffff16600073ffffffffffffffffffffffffffffffffffffffff167f8be0079c531659141344cd1fd0a4f28419497f9722a3daafe3b4186f6b6457e060405160405180910390a3801561183d5760008060016101000a81548160ff0219169083151502179055505b5050565b606660009054906101000a900473ffffffffffffffffffffffffffffffffffffffff1681565b6000806000600102606a6000858152602001908152602001600020541115156118c5576040517f08c379a00000000000000000000000000000000000000000000000000000000081526004016118bc90615bbf565b60405180910390fd5b6000606a6000858152602001908152602001600020546001900490508060ff169250600881908060020a8204915050915050915091565b611904610ff6565b73ffffffffffffffffffffffffffffffffffffffff163373ffffffffffffffffffffffffffffffffffffffff16141515611973576040517f08c379a000000000000000000000000000000000000000000000000000000000815260040161196a9061589f565b60405180910390fd5b6119c385858080601f016020809104026020016040519081016040528093929190818152602001838380828437600081840152601f19601f82011690508083019250505050505050848484613270565b5050505050565b83838383600115156119e88583606b6126cc9092919063ffffffff16565b1515141515611a2c576040517f08c379a0000000000000000000000000000000000000000000000000000000008152600401611a2390615b3f565b60405180910390fd5b600080611a3886611867565b91509150600082111515611a81576040517f08c379a0000000000000000000000000000000000000000000000000000000008152600401611a78906158bf565b60405180910390fd5b6001821180611a9b575060011515611a97611280565b1515145b80611ad85750611aa9612618565b73ffffffffffffffffffffffffffffffffffffffff168173ffffffffffffffffffffffffffffffffffffffff16145b1515611b19576040517f08c379a0000000000000000000000000000000000000000000000000000000008152600401611b1090615abf565b60405180910390fd5b60011515611b2885888861266c565b1515141515611b6c576040517f08c379a0000000000000000000000000000000000000000000000000000000008152600401611b639061593f565b60405180910390fd5b600282101515611c6d57611b7e611280565b80611bbb5750611b8c612618565b73ffffffffffffffffffffffffffffffffffffffff168173ffffffffffffffffffffffffffffffffffffffff16145b15611bc557611c6c565b6000611bdb86606e61235690919063ffffffff16565b9050600060208260019004908060020a82049150509050611bfa612618565b73ffffffffffffffffffffffffffffffffffffffff168173ffffffffffffffffffffffffffffffffffffffff16141515611c69576040517f08c379a0000000000000000000000000000000000000000000000000000000008152600401611c6090615bdf565b60405180910390fd5b50505b5b611c75612717565b611c8b8a88606b6132769092919063ffffffff16565b5050505050505050505050565b611ca0611280565b1515611ce1576040517f08c379a0000000000000000000000000000000000000000000000000000000008152600401611cd890615a5f565b60405180910390fd5b611d1a7f736368656d61732e7075626c69632e7461626c6573000000000000000000000060010283606e6132c19092919063ffffffff16565b50611d2f81606b6132e490919063ffffffff16565b505050565b6000611d4c8383606b6126cc9092919063ffffffff16565b905092915050565b611d5c611280565b1515611d9d576040517f08c379a0000000000000000000000000000000000000000000000000000000008152600401611d9490615a5f565b60405180910390fd5b611da68161331d565b50565b6000611db3611280565b1515611df4576040517f08c379a0000000000000000000000000000000000000000000000000000000008152600401611deb90615a5f565b60405180910390fd5b6000611dfe6122b0565b90506000611e0a6122b0565b73ffffffffffffffffffffffffffffffffffffffff166370a08231306040518263ffffffff167c0100000000000000000000000000000000000000000000000000000000028152600401611e5e91906157c1565b60206040518083038186803b158015611e7657600080fd5b505afa158015611e8a573d6000803e3d6000fd5b505050506040513d601f19601f82011682018060405250611eae9190810190614d35565b90508173ffffffffffffffffffffffffffffffffffffffff1662f714ce82866040518363ffffffff167c0100000000000000000000000000000000000000000000000000000000028152600401611f06929190615c85565b600060405180830381600087803b158015611f2057600080fd5b505af1158015611f34573d6000803e3d6000fd5b505050508092505050919050565b8585858560011515611f608583606b6126cc9092919063ffffffff16565b1515141515611fa4576040517f08c379a0000000000000000000000000000000000000000000000000000000008152600401611f9b90615b3f565b60405180910390fd5b600080611fb086611867565b91509150600082111515611ff9576040517f08c379a0000000000000000000000000000000000000000000000000000000008152600401611ff0906158bf565b60405180910390fd5b600182118061201357506001151561200f611280565b1515145b806120505750612021612618565b73ffffffffffffffffffffffffffffffffffffffff168173ffffffffffffffffffffffffffffffffffffffff16145b1515612091576040517f08c379a000000000000000000000000000000000000000000000000000000000815260040161208890615abf565b60405180910390fd5b600115156120a085888861266c565b15151415156120e4576040517f08c379a00000000000000000000000000000000000000000000000000000000081526004016120db9061593f565b60405180910390fd5b6002821015156121e5576120f6611280565b806121335750612104612618565b73ffffffffffffffffffffffffffffffffffffffff168173ffffffffffffffffffffffffffffffffffffffff16145b1561213d576121e4565b600061215386606e61235690919063ffffffff16565b9050600060208260019004908060020a82049150509050612172612618565b73ffffffffffffffffffffffffffffffffffffffff168173ffffffffffffffffffffffffffffffffffffffff161415156121e1576040517f08c379a00000000000000000000000000000000000000000000000000000000081526004016121d890615bdf565b60405180910390fd5b50505b5b600115156121f4898d8a61266c565b1515141515612238576040517f08c379a000000000000000000000000000000000000000000000000000000000815260040161222f90615bff565b60405180910390fd5b612240612717565b600061225688606e61344f90919063ffffffff16565b9050600115158115151415156122a1576040517f08c379a000000000000000000000000000000000000000000000000000000000815260040161229890615a3f565b60405180910390fd5b50505050505050505050505050565b60006122ba612885565b905090565b60006122d782846000016134c690919063ffffffff16565b806122f457506122f382846003016134e690919063ffffffff16565b5b80612311575061231082846006016131e190919063ffffffff16565b5b8061232e575061232d828460090161350690919063ffffffff16565b5b905092915050565b606061234e828460060161320190919063ffffffff16565b905092915050565b600061236e828460000161352690919063ffffffff16565b905092915050565b61237e611280565b15156123bf576040517f08c379a00000000000000000000000000000000000000000000000000000000081526004016123b690615a5f565b60405180910390fd5b60008260ff168117905060088273ffffffffffffffffffffffffffffffffffffffff169060020a0273ffffffffffffffffffffffffffffffffffffffff168117905080600102606a60008681526020019081526020016000208190555050505050565b600061243a83856000016134c690919063ffffffff16565b15151561247c576040517f08c379a00000000000000000000000000000000000000000000000000000000081526004016124739061599f565b60405180910390fd5b61249283856003016134e690919063ffffffff16565b1515156124d4576040517f08c379a00000000000000000000000000000000000000000000000000000000081526004016124cb9061599f565b60405180910390fd5b6124ea838560090161350690919063ffffffff16565b15151561252c576040517f08c379a00000000000000000000000000000000000000000000000000000000081526004016125239061599f565b60405180910390fd5b612544838386600601612d2b9092919063ffffffff16565b90509392505050565b6000612565828460010161359190919063ffffffff16565b905092915050565b612575614567565b815183511415156125bb576040517f08c379a00000000000000000000000000000000000000000000000000000000081526004016125b2906159df565b60405180910390fd5b6125c3614567565b848160000181815250506125d784846135fd565b8160200181905250809150509392505050565b600060606125f783613713565b905061260f8482606e6137e39092919063ffffffff16565b91505092915050565b6000612622612885565b73ffffffffffffffffffffffffffffffffffffffff163373ffffffffffffffffffffffffffffffffffffffff1614151561265e57339050612669565b61266661390e565b90505b90565b60006060604080519080825280601f01601f1916602001820160405280156126a35781602001600182028038833980820191505090505b509050846040820152836020820152600081805190602001209050838114925050509392505050565b60006126d884846131e1565b1561270b576127048285600001600086815260200190815260200160002061398690919063ffffffff16565b9050612710565b600090505b9392505050565b6000612721612a29565b90506000606860008381526020019081526020016000205490506001810160686000848152602001908152602001600020819055505050565b600061277283856003016134e690919063ffffffff16565b1515156127b4576040517f08c379a00000000000000000000000000000000000000000000000000000000081526004016127ab9061599f565b60405180910390fd5b6127ca83856006016131e190919063ffffffff16565b15151561280c576040517f08c379a00000000000000000000000000000000000000000000000000000000081526004016128039061599f565b60405180910390fd5b612822838560090161350690919063ffffffff16565b151515612864576040517f08c379a000000000000000000000000000000000000000000000000000000000815260040161285b9061599f565b60405180910390fd5b61287c8383866000016139a99092919063ffffffff16565b90509392505050565b6000807f06b7792c761dcc05af1761f0315ce8b01ac39c16cc934eb0b2f7a8e71414f2626001029050805491505090565b6000919050565b6000803090506000813b9050600081149250505090565b600060019054906101000a900460ff16806128f357506128f26128bd565b5b8061290a57506000809054906101000a900460ff16155b151561294b576040517f08c379a000000000000000000000000000000000000000000000000000000000815260040161294290615a7f565b60405180910390fd5b60008060019054906101000a900460ff16159050801561299b576001600060016101000a81548160ff02191690831515021790555060016000806101000a81548160ff0219169083151502179055505b6129a36139e4565b80156129c45760008060016101000a81548160ff0219169083151502179055505b50565b6103e8606960006101000a81548164ffffffffff021916908364ffffffffff160217905550612a267f736368656d61732e7075626c69632e7461626c657300000000000000000000006001026000606e613aec9092919063ffffffff16565b50565b6000806000606760009054906101000a900473ffffffffffffffffffffffffffffffffffffffff1673ffffffffffffffffffffffffffffffffffffffff166392d66313426040518263ffffffff167c0100000000000000000000000000000000000000000000000000000000028152600401612aa59190615c41565b60206040518083038186803b158015612abd57600080fd5b505afa158015612ad1573d6000803e3d6000fd5b505050506040513d601f19601f82011682018060405250612af59190810190614ce3565b90506000606760009054906101000a900473ffffffffffffffffffffffffffffffffffffffff1673ffffffffffffffffffffffffffffffffffffffff1663a324ad24426040518263ffffffff167c0100000000000000000000000000000000000000000000000000000000028152600401612b709190615c41565b60206040518083038186803b158015612b8857600080fd5b505afa158015612b9c573d6000803e3d6000fd5b505050506040513d601f19601f82011682018060405250612bc09190810190614d9a565b90506000606760009054906101000a900473ffffffffffffffffffffffffffffffffffffffff1673ffffffffffffffffffffffffffffffffffffffff166365c72840426040518263ffffffff167c0100000000000000000000000000000000000000000000000000000000028152600401612c3b9190615c41565b60206040518083038186803b158015612c5357600080fd5b505afa158015612c67573d6000803e3d6000fd5b505050506040513d601f19601f82011682018060405250612c8b9190810190614d9a565b90508261ffff168417935060108260ff169060020a028417935060188160ff169060020a028417935083604051602001808281526020019150506040516020818303038152906040528051906020012094505050505090565b6000606082600b01602060405190810160405280600081525091509150915091565b60006060612d236020604051908101604052806000815250613dd4565b915091509091565b6000612d3784846131e1565b15612d6a57612d638285600001600086815260200190815260200160002061359190919063ffffffff16565b9050612d6f565b600090505b9392505050565b60001515612d8e84606e6122bf90919063ffffffff16565b1515141515612dd2576040517f08c379a0000000000000000000000000000000000000000000000000000000008152600401612dc9906159bf565b60405180910390fd5b600080606760009054906101000a900473ffffffffffffffffffffffffffffffffffffffff1673ffffffffffffffffffffffffffffffffffffffff166392d66313426040518263ffffffff167c0100000000000000000000000000000000000000000000000000000000028152600401612e4c9190615c41565b60206040518083038186803b158015612e6457600080fd5b505afa158015612e78573d6000803e3d6000fd5b505050506040513d601f19601f82011682018060405250612e9c9190810190614ce3565b90506000606760009054906101000a900473ffffffffffffffffffffffffffffffffffffffff1673ffffffffffffffffffffffffffffffffffffffff1663a324ad24426040518263ffffffff167c0100000000000000000000000000000000000000000000000000000000028152600401612f179190615c41565b60206040518083038186803b158015612f2f57600080fd5b505afa158015612f43573d6000803e3d6000fd5b505050506040513d601f19601f82011682018060405250612f679190810190614d9a565b90506000606760009054906101000a900473ffffffffffffffffffffffffffffffffffffffff1673ffffffffffffffffffffffffffffffffffffffff166365c72840426040518263ffffffff167c0100000000000000000000000000000000000000000000000000000000028152600401612fe29190615c41565b60206040518083038186803b158015612ffa57600080fd5b505afa15801561300e573d6000803e3d6000fd5b505050506040513d601f19601f820116820180604052506130329190810190614d9a565b90508261ffff168417935060108260ff169060020a028417935060188160ff169060020a02841793506000847c01000000000000000000000000000000000000000000000000000000000290506020613089612618565b73ffffffffffffffffffffffffffffffffffffffff169060020a02851794506130c18886600102606e61275a9092919063ffffffff16565b506130ca612618565b73ffffffffffffffffffffffffffffffffffffffff1686887fc3b047ab84cb81685163ad3ef7de856809a7d1cd6d900310242d6c3dca034bc160405160405180910390a45050505050505050565b60606131308284600301613de490919063ffffffff16565b905092915050565b613140614567565b60008251905061314e614567565b6131618285613ee790919063ffffffff16565b8160000181815250506020820391506131838285613ef590919063ffffffff16565b8191508260200181945082905250506000821415156131d7576040517f08c379a00000000000000000000000000000000000000000000000000000000081526004016131ce9061587f565b60405180910390fd5b8092505050919050565b60006131f9828460010161398690919063ffffffff16565b905092915050565b606061320d83836131e1565b156132365761322f836000016000848152602001908152602001600020614000565b905061326a565b60006040519080825280602002602001820160405280156132665781602001602082028038833980820191505090505b5090505b92915050565b50505050565b600061328284846131e1565b156132b5576132ae8285600001600086815260200190815260200160002061409d90919063ffffffff16565b90506132ba565b600090505b9392505050565b60006132db8383866006016132769092919063ffffffff16565b90509392505050565b60006132f083836131e1565b156133125761330b828460010161409d90919063ffffffff16565b9050613317565b600090505b92915050565b600073ffffffffffffffffffffffffffffffffffffffff168173ffffffffffffffffffffffffffffffffffffffff161415151561338f576040517f08c379a0000000000000000000000000000000000000000000000000000000008152600401613386906158ff565b60405180910390fd5b8073ffffffffffffffffffffffffffffffffffffffff16603360009054906101000a900473ffffffffffffffffffffffffffffffffffffffff1673ffffffffffffffffffffffffffffffffffffffff167f8be0079c531659141344cd1fd0a4f28419497f9722a3daafe3b4186f6b6457e060405160405180910390a380603360006101000a81548173ffffffffffffffffffffffffffffffffffffffff021916908373ffffffffffffffffffffffffffffffffffffffff16021790555050565b6000613467828460000161419690919063ffffffff16565b80613484575061348382846003016141e890919063ffffffff16565b5b806134a157506134a082846006016132e490919063ffffffff16565b5b806134be57506134bd828460090161424290919063ffffffff16565b5b905092915050565b60006134de828460010161398690919063ffffffff16565b905092915050565b60006134fe828460010161398690919063ffffffff16565b905092915050565b600061351e828460010161398690919063ffffffff16565b905092915050565b600061353283836134c6565b1515613573576040517f08c379a000000000000000000000000000000000000000000000000000000000815260040161356a90615b7f565b60405180910390fd5b82600001600083815260200190815260200160002054905092915050565b600061359d8383613986565b15156135f25782600101829080600181540180825580915050906001820390600052602060002001600090919290919091505583600001600084815260200190815260200160002081905550600190506135f7565b600090505b92915050565b606081518351141515613645576040517f08c379a000000000000000000000000000000000000000000000000000000000815260040161363c906159df565b60405180910390fd5b6060835160405190808252806020026020018201604052801561368257816020015b61366f614584565b8152602001906001900390816136675790505b50905060008090505b84518110156137085761369c6145a4565b85828151811015156136aa57fe5b9060200190602002015181600001818152505084828151811015156136cb57fe5b906020019060200201518160200181815250508083838151811015156136ed57fe5b9060200190602002018190525050808060010191505061368b565b508091505092915050565b606060006137208361427b565b90506060816040519080825280601f01601f1916602001820160405280156137575781602001600182028038833980820191505090505b509050613773828286600001516142969092919063ffffffff16565b602082039150613792828286602001516142a09092919063ffffffff16565b91506000821415156137d9576040517f08c379a00000000000000000000000000000000000000000000000000000000081526004016137d09061587f565b60405180910390fd5b8092505050919050565b60006137fb83856000016134c690919063ffffffff16565b15151561383d576040517f08c379a00000000000000000000000000000000000000000000000000000000081526004016138349061599f565b60405180910390fd5b61385383856006016131e190919063ffffffff16565b151515613895576040517f08c379a000000000000000000000000000000000000000000000000000000000815260040161388c9061599f565b60405180910390fd5b6138ab838560090161350690919063ffffffff16565b1515156138ed576040517f08c379a00000000000000000000000000000000000000000000000000000000081526004016138e49061599f565b60405180910390fd5b61390583838660030161435d9092919063ffffffff16565b90509392505050565b600060606000368080601f016020809104026020016040519081016040528093929190818152602001838380828437600081840152601f19601f820116905080830192505050505050509050600080369050905073ffffffffffffffffffffffffffffffffffffffff81830151169250829250505090565b600080836000016000848152602001908152602001600020541415905092915050565b600081846000016000858152602001908152602001600020819055506139db838560010161359190919063ffffffff16565b90509392505050565b600060019054906101000a900460ff1680613a035750613a026128bd565b5b80613a1a57506000809054906101000a900460ff16155b1515613a5b576040517f08c379a0000000000000000000000000000000000000000000000000000000008152600401613a5290615a7f565b60405180910390fd5b60008060019054906101000a900460ff161590508015613aab576001600060016101000a81548160ff02191690831515021790555060016000806101000a81548160ff0219169083151502179055505b613ac873d216153c06e857cd7f72665e0af1d7d82172f4946143a8565b8015613ae95760008060016101000a81548160ff0219169083151502179055505b50565b60006004826003811115613afc57fe5b60ff16101515613b41576040517f08c379a0000000000000000000000000000000000000000000000000000000008152600401613b3890615aff565b60405180910390fd5b613b5783856000016134c690919063ffffffff16565b151515613b99576040517f08c379a0000000000000000000000000000000000000000000000000000000008152600401613b909061599f565b60405180910390fd5b613baf83856003016134e690919063ffffffff16565b151515613bf1576040517f08c379a0000000000000000000000000000000000000000000000000000000008152600401613be89061599f565b60405180910390fd5b613c0783856006016131e190919063ffffffff16565b151515613c49576040517f08c379a0000000000000000000000000000000000000000000000000000000008152600401613c409061599f565b60405180910390fd5b613c5f838560090161350690919063ffffffff16565b151515613ca1576040517f08c379a0000000000000000000000000000000000000000000000000000000008152600401613c989061599f565b60405180910390fd5b816003811115613cad57fe5b60006003811115613cba57fe5b1415613cdd57613cd6838560060161254d90919063ffffffff16565b9050613dcd565b816003811115613ce957fe5b60016003811115613cf657fe5b1415613d1957613d12838560090161452190919063ffffffff16565b9050613dcd565b816003811115613d2557fe5b60026003811115613d3257fe5b1415613d5b57613d54836000600102866000016139a99092919063ffffffff16565b9050613dcd565b816003811115613d6757fe5b600380811115613d7357fe5b1415613dcc57613dc58360006040519080825280601f01601f191660200182016040528015613db15781602001600182028038833980820191505090505b508660030161435d9092919063ffffffff16565b9050613dcd565b5b9392505050565b6000606060008391509150915091565b6060613df083836134e6565b1515613e31576040517f08c379a0000000000000000000000000000000000000000000000000000000008152600401613e2890615b7f565b60405180910390fd5b8260000160008381526020019081526020016000208054600181600116156101000203166002900480601f016020809104026020016040519081016040528092919081815260200182805460018160011615610100020316600290048015613eda5780601f10613eaf57610100808354040283529160200191613eda565b820191906000526020600020905b815481529060010190602001808311613ebd57829003601f168201915b5050505050905092915050565b600081830151905092915050565b60606000808390506000613f12828761454190919063ffffffff16565b90506020820391506000604082811515613f2857fe5b049050606081604051908082528060200260200182016040528015613f6757816020015b613f54614584565b815260200190600190039081613f4c5790505b50905060008090505b82811015613fee57613f806145a4565b613f93868b613ee790919063ffffffff16565b816000018181525050602086039550613fb5868b613ee790919063ffffffff16565b816020018181525050602086039550808383815181101515613fd357fe5b90602001906020020181905250508080600101915050613f70565b50808495509550505050509250929050565b60608082600101805490506040519080825280602002602001820160405280156140395781602001602082028038833980820191505090505b50905060005b836001018054905081101561409357836001018181548110151561405f57fe5b9060005260206000200154828281518110151561407857fe5b9060200190602002018181525050808060010191505061403f565b5080915050919050565b60006140a98383613986565b1561418b576000600184600001600085815260200190815260200160002054039050600060018560010180549050039050818114151561414257600085600101828154811015156140f657fe5b9060005260206000200154905080866001018481548110151561411557fe5b90600052602060002001819055506001830186600001600083815260200190815260200160002081905550505b8460000160008581526020019081526020016000206000905584600101805480151561416a57fe5b60019003818190600052602060002001600090559055600192505050614190565b600090505b92915050565b60006141a283836134c6565b156141dd57826000016000838152602001908152602001600020600090556141d6828460010161409d90919063ffffffff16565b90506141e2565b600090505b92915050565b60006141f483836134e6565b1561423757826000016000838152602001908152602001600020600061421a91906145c4565b614230828460010161409d90919063ffffffff16565b905061423c565b600090505b92915050565b600061424e8383613506565b1561427057614269828460010161409d90919063ffffffff16565b9050614275565b600090505b92915050565b600061428a826020015161454f565b60208001019050919050565b8282820152505050565b6000808390506142c381846142b48861454f565b61455d9092919063ffffffff16565b60208103905060008090505b855181101561435157614308828588848151811015156142eb57fe5b90602001906020020151600001516142969092919063ffffffff16565b60208203915061433e8285888481518110151561432157fe5b90602001906020020151602001516142969092919063ffffffff16565b60208203915080806001019150506142cf565b50809150509392505050565b600081846000016000858152602001908152602001600020908051906020019061438892919061460c565b5061439f838560010161359190919063ffffffff16565b90509392505050565b60006143b2612885565b9050600073ffffffffffffffffffffffffffffffffffffffff168273ffffffffffffffffffffffffffffffffffffffff1614151515614426576040517f08c379a000000000000000000000000000000000000000000000000000000000815260040161441d90615adf565b60405180910390fd5b8073ffffffffffffffffffffffffffffffffffffffff168273ffffffffffffffffffffffffffffffffffffffff1614151515614497576040517f08c379a000000000000000000000000000000000000000000000000000000000815260040161448e9061595f565b60405180910390fd5b8173ffffffffffffffffffffffffffffffffffffffff168173ffffffffffffffffffffffffffffffffffffffff167fb9f84b8e65164b14439ae3620df0a4d8786d896996c0282b683f9d8c08f046e860405160405180910390a360007f06b7792c761dcc05af1761f0315ce8b01ac39c16cc934eb0b2f7a8e71414f2626001029050828155505050565b6000614539828460010161359190919063ffffffff16565b905092915050565b600081830151905092915050565b600060408251029050919050565b8282820152505050565b604080519081016040528060008019168152602001606081525090565b604080519081016040528060008019168152602001600080191681525090565b604080519081016040528060008019168152602001600080191681525090565b50805460018160011615610100020316600290046000825580601f106145ea5750614609565b601f016020900490600052602060002090810190614608919061468c565b5b50565b828054600181600116156101000203166002900490600052602060002090601f016020900481019282601f1061464d57805160ff191683800117855561467b565b8280016001018555821561467b579182015b8281111561467a57825182559160200191906001019061465f565b5b509050614688919061468c565b5090565b6146ae91905b808211156146aa576000816000905550600101614692565b5090565b90565b60006146bd8235615e4f565b905092915050565b60006146d18235615e61565b905092915050565b600082601f83011215156146ec57600080fd5b81356146ff6146fa82615d26565b615cf9565b9150818183526020840193506020810190508385602084028201111561472457600080fd5b60005b83811015614754578161473a8882614772565b845260208401935060208301925050600181019050614727565b5050505092915050565b600061476a8235615e73565b905092915050565b600061477e8235615e7f565b905092915050565b60008083601f840112151561479a57600080fd5b8235905067ffffffffffffffff8111156147b357600080fd5b6020830191508360018202830111156147cb57600080fd5b9250929050565b60006147de8251615e89565b905092915050565b60006147f28235615e97565b905092915050565b60006148068251615e97565b905092915050565b600061481a8235615ea1565b905092915050565b600061482e8251615ea1565b905092915050565b60006020828403121561484857600080fd5b6000614856848285016146b1565b91505092915050565b60006020828403121561487157600080fd5b600061487f848285016146c5565b91505092915050565b60008060008060008060008060008060006101208c8e0312156148aa57600080fd5b60006148b88e828f016146b1565b9b505060206148c98e828f016146b1565b9a505060408c013567ffffffffffffffff8111156148e657600080fd5b6148f28e828f01614786565b995099505060606149058e828f016147e6565b97505060806149168e828f016147e6565b96505060a06149278e828f016147e6565b95505060c06149388e828f016147e6565b94505060e08c013567ffffffffffffffff81111561495557600080fd5b6149618e828f01614786565b93509350506101006149758e828f016147e6565b9150509295989b509295989b9093969950565b60006020828403121561499a57600080fd5b60006149a884828501614772565b91505092915050565b600080604083850312156149c457600080fd5b60006149d285828601614772565b92505060206149e385828601614772565b9150509250929050565b60008060008060808587031215614a0357600080fd5b6000614a1187828801614772565b9450506020614a2287828801614772565b9350506040614a3387828801614772565b9250506060614a4487828801614772565b91505092959194509250565b60008060008060008060c08789031215614a6957600080fd5b6000614a7789828a01614772565b9650506020614a8889828a01614772565b9550506040614a9989828a01614772565b9450506060614aaa89828a01614772565b9350506080614abb89828a01614772565b92505060a0614acc89828a01614772565b9150509295509295509295565b600080600080600080600060e0888a031215614af457600080fd5b6000614b028a828b01614772565b9750506020614b138a828b01614772565b9650506040614b248a828b01614772565b9550506060614b358a828b01614772565b9450506080614b468a828b01614772565b93505060a0614b578a828b01614772565b92505060c0614b688a828b01614772565b91505092959891949750929550565b600080600080600060a08688031215614b8f57600080fd5b6000614b9d88828901614772565b9550506020614bae88828901614772565b9450506040614bbf8882890161480e565b935050606086013567ffffffffffffffff811115614bdc57600080fd5b614be8888289016146d9565b925050608086013567ffffffffffffffff811115614c0557600080fd5b614c11888289016146d9565b9150509295509295909350565b60008060208385031215614c3157600080fd5b600083013567ffffffffffffffff811115614c4b57600080fd5b614c5785828601614786565b92509250509250929050565b600080600080600060808688031215614c7b57600080fd5b600086013567ffffffffffffffff811115614c9557600080fd5b614ca188828901614786565b95509550506020614cb48882890161475e565b9350506040614cc5888289016147e6565b9250506060614cd688828901614772565b9150509295509295909350565b600060208284031215614cf557600080fd5b6000614d03848285016147d2565b91505092915050565b600060208284031215614d1e57600080fd5b6000614d2c848285016147e6565b91505092915050565b600060208284031215614d4757600080fd5b6000614d55848285016147fa565b91505092915050565b60008060408385031215614d7157600080fd5b6000614d7f858286016147e6565b9250506020614d90858286016146c5565b9150509250929050565b600060208284031215614dac57600080fd5b6000614dba84828501614822565b91505092915050565b614dcc81615eae565b82525050565b614ddb81615dc0565b82525050565b614dea81615dae565b82525050565b6000614dfb82615d68565b808452602084019350614e0d83615d4e565b60005b82811015614e3f57614e23868351614eb5565b614e2c82615d94565b9150602086019550600181019050614e10565b50849250505092915050565b6000614e5682615d73565b808452602084019350614e6883615d5b565b60005b82811015614e9a57614e7e86835161571c565b614e8782615da1565b9150604086019550600181019050614e6b565b50849250505092915050565b614eaf81615dd2565b82525050565b614ebe81615dde565b82525050565b614ecd81615de8565b82525050565b6000614ede82615d7e565b808452614ef2816020860160208601615ee4565b614efb81615f17565b602085010191505092915050565b6000614f1482615d89565b808452614f28816020860160208601615ee4565b614f3181615f17565b602085010191505092915050565b6000601c82527f456e636f64696e67204572726f723a206f666673657420213d20302e000000006020830152604082019050919050565b6000602682527f47534e426f756e636572426173653a2063616c6c6572206973206e6f7420526560208301527f6c617948756200000000000000000000000000000000000000000000000000006040830152606082019050919050565b6000601f82527f43616e6e6f742044454c4554452066726f6d2073797374656d207461626c65006020830152604082019050919050565b6000601a82527f43616e6e6f74205550444154452073797374656d207461626c650000000000006020830152604082019050919050565b6000602682527f4f776e61626c653a206e6577206f776e657220697320746865207a65726f206160208301527f64647265737300000000000000000000000000000000000000000000000000006040830152606082019050919050565b6000601f82527f43616e6e6f7420494e5345525420696e746f2073797374656d207461626c65006020830152604082019050919050565b6000602582527f69645461626c654b6579206e6f7420612073756268617368205b69645d2e5b7460208301527f61626c655d0000000000000000000000000000000000000000000000000000006040830152606082019050919050565b6000602b82527f47534e436f6e746578743a206e65772052656c6179487562206973207468652060208301527f63757272656e74206f6e650000000000000000000000000000000000000000006040830152606082019050919050565b6000602e82527f4f6e6c79206f776e65722f64656c65676174652063616e20555044415445206960208301527f6e746f2074686973207461626c650000000000000000000000000000000000006040830152606082019050919050565b6000602082527f4572726f723a206b65792065786973747320696e206f7468657220646963742e6020830152604082019050919050565b6000601582527f726f7720616c726561647920686173206f776e657200000000000000000000006020830152604082019050919050565b6000601082527f4572726f7220616c69676e6d656e742e000000000000000000000000000000006020830152604082019050919050565b6000603982527f4e6f7420726f774f776e6572206f72206f776e65722f64656c6567617465206660208301527f6f722055504441544520696e746f2074686973207461626c65000000000000006040830152606082019050919050565b6000602e82527f4f6e6c79206f776e65722f64656c65676174652063616e20494e53455254206960208301527f6e746f2074686973207461626c650000000000000000000000000000000000006040830152606082019050919050565b6000601282527f6572726f722072656d6f76696e67206b657900000000000000000000000000006020830152604082019050919050565b6000602082527f4f776e61626c653a2063616c6c6572206973206e6f7420746865206f776e65726020830152604082019050919050565b6000602e82527f436f6e747261637420696e7374616e63652068617320616c726561647920626560208301527f656e20696e697469616c697a65640000000000000000000000000000000000006040830152606082019050919050565b6000601782527f69642b6669656c6420616c7265616479206578697374730000000000000000006020830152604082019050919050565b6000602e82527f4f6e6c79206f776e65722f64656c65676174652063616e2044454c455445206660208301527f726f6d2074686973207461626c650000000000000000000000000000000000006040830152606082019050919050565b6000602c82527f47534e436f6e746578743a206e65772052656c6179487562206973207468652060208301527f7a65726f206164647265737300000000000000000000000000000000000000006040830152606082019050919050565b6000601382527f496e76616c6964207461626c65207479706521000000000000000000000000006020830152604082019050919050565b6000601482527f5461626c6520616c7265616479206578697374730000000000000000000000006020830152604082019050919050565b6000601082527f696420646f65736e2774206578697374000000000000000000000000000000006020830152604082019050919050565b6000601182527f7461626c65206e6f7420637265617465640000000000000000000000000000006020830152604082019050919050565b6000601382527f4b657920646f6573206e6f7420657869737421000000000000000000000000006020830152604082019050919050565b6000601c82527f696420646f65736e27742065786973742c2075736520494e53455254000000006020830152604082019050919050565b6000601482527f7461626c6520646f6573206e6f742065786973740000000000000000000000006020830152604082019050919050565b6000601782527f53656e646572206e6f74206f776e6572206f6620726f770000000000000000006020830152604082019050919050565b6000602b82527f6669656c644b6579206e6f7420612073756268617368205b6669656c645d2e5b60208301527f69645d2e5b7461626c655d0000000000000000000000000000000000000000006040830152606082019050919050565b6040820160008201516157326000850182614eb5565b5060208201516157456020850182614eb5565b50505050565b60006040830160008301516157636000860182614eb5565b506020830151848203602086015261577b8282614e4b565b9150508091505092915050565b61579181615e34565b82525050565b6157a081615e3e565b82525050565b60006020820190506157bb6000830184614de1565b92915050565b60006020820190506157d66000830184614dc3565b92915050565b60006040820190506157f16000830185614de1565b6157fe6020830184614ec4565b9392505050565b6000602082019050818103600083015261581f8184614df0565b905092915050565b600060208201905061583c6000830184614ea6565b92915050565b60006020820190506158576000830184614eb5565b92915050565b600060208201905081810360008301526158778184614f09565b905092915050565b6000602082019050818103600083015261589881614f3f565b9050919050565b600060208201905081810360008301526158b881614f76565b9050919050565b600060208201905081810360008301526158d881614fd3565b9050919050565b600060208201905081810360008301526158f88161500a565b9050919050565b6000602082019050818103600083015261591881615041565b9050919050565b600060208201905081810360008301526159388161509e565b9050919050565b60006020820190508181036000830152615958816150d5565b9050919050565b6000602082019050818103600083015261597881615132565b9050919050565b600060208201905081810360008301526159988161518f565b9050919050565b600060208201905081810360008301526159b8816151ec565b9050919050565b600060208201905081810360008301526159d881615223565b9050919050565b600060208201905081810360008301526159f88161525a565b9050919050565b60006020820190508181036000830152615a1881615291565b9050919050565b60006020820190508181036000830152615a38816152ee565b9050919050565b60006020820190508181036000830152615a588161534b565b9050919050565b60006020820190508181036000830152615a7881615382565b9050919050565b60006020820190508181036000830152615a98816153b9565b9050919050565b60006020820190508181036000830152615ab881615416565b9050919050565b60006020820190508181036000830152615ad88161544d565b9050919050565b60006020820190508181036000830152615af8816154aa565b9050919050565b60006020820190508181036000830152615b1881615507565b9050919050565b60006020820190508181036000830152615b388161553e565b9050919050565b60006020820190508181036000830152615b5881615575565b9050919050565b60006020820190508181036000830152615b78816155ac565b9050919050565b60006020820190508181036000830152615b98816155e3565b9050919050565b60006020820190508181036000830152615bb88161561a565b9050919050565b60006020820190508181036000830152615bd881615651565b9050919050565b60006020820190508181036000830152615bf881615688565b9050919050565b60006020820190508181036000830152615c18816156bf565b9050919050565b60006020820190508181036000830152615c39818461574b565b905092915050565b6000602082019050615c566000830184615788565b92915050565b6000604082019050615c716000830185615788565b615c7e6020830184614de1565b9392505050565b6000604082019050615c9a6000830185615788565b615ca76020830184614dd2565b9392505050565b6000604082019050615cc36000830185615788565b8181036020830152615cd58184614ed3565b90509392505050565b6000602082019050615cf36000830184615797565b92915050565b6000604051905081810181811067ffffffffffffffff82111715615d1c57600080fd5b8060405250919050565b600067ffffffffffffffff821115615d3d57600080fd5b602082029050602081019050919050565b6000602082019050919050565b6000602082019050919050565b600081519050919050565b600081519050919050565b600081519050919050565b600081519050919050565b6000602082019050919050565b6000602082019050919050565b6000615db982615e14565b9050919050565b6000615dcb82615e14565b9050919050565b60008115159050919050565b6000819050919050565b60007fffffffff0000000000000000000000000000000000000000000000000000000082169050919050565b600073ffffffffffffffffffffffffffffffffffffffff82169050919050565b6000819050919050565b600064ffffffffff82169050919050565b6000615e5a82615e14565b9050919050565b6000615e6c82615e14565b9050919050565b60008115159050919050565b6000819050919050565b600061ffff82169050919050565b6000819050919050565b600060ff82169050919050565b6000615eb982615ec0565b9050919050565b6000615ecb82615ed2565b9050919050565b6000615edd82615e14565b9050919050565b60005b83811015615f02578082015181840152602081019050615ee7565b83811115615f11576000848401525b50505050565b6000601f19601f830116905091905056fea265627a7a72305820d4afc9c2edde609f03dde46da28ead7f6df5c4060868c424ab70cf4a4544a1e16c6578706572696d656e74616cf50037",
  "compiler": {
    "name": "solc",
    "version": "0.5.0+commit.1d4f565a.Emscripten.clang",
    "optimizer": {
      "enabled": false,
      "runs": 200
    },
    "evmVersion": "byzantium"
  }
}